{
  "_format": "hh-sol-artifact-1",
  "contractName": "RentableNFTMarketplace",
  "sourceName": "contracts/RentableNFTMarketplace.sol",
  "abi": [
    {
      "inputs": [
        {
          "internalType": "address",
          "name": "_wethAddress",
          "type": "address"
        }
      ],
      "stateMutability": "nonpayable",
      "type": "constructor"
    },
    {
      "inputs": [],
      "name": "OnlySimulatedBackend",
      "type": "error"
    },
    {
      "anonymous": false,
      "inputs": [
        {
          "indexed": true,
          "internalType": "address",
          "name": "owner",
          "type": "address"
        },
        {
          "indexed": true,
          "internalType": "address",
          "name": "approved",
          "type": "address"
        },
        {
          "indexed": true,
          "internalType": "uint256",
          "name": "tokenId",
          "type": "uint256"
        }
      ],
      "name": "Approval",
      "type": "event"
    },
    {
      "anonymous": false,
      "inputs": [
        {
          "indexed": true,
          "internalType": "address",
          "name": "owner",
          "type": "address"
        },
        {
          "indexed": true,
          "internalType": "address",
          "name": "operator",
          "type": "address"
        },
        {
          "indexed": false,
          "internalType": "bool",
          "name": "approved",
          "type": "bool"
        }
      ],
      "name": "ApprovalForAll",
      "type": "event"
    },
    {
      "anonymous": false,
      "inputs": [
        {
          "indexed": true,
          "internalType": "uint256",
          "name": "tokenId",
          "type": "uint256"
        },
        {
          "indexed": false,
          "internalType": "address",
          "name": "owner",
          "type": "address"
        },
        {
          "indexed": false,
          "internalType": "bool",
          "name": "isWETH",
          "type": "bool"
        },
        {
          "indexed": false,
          "internalType": "uint256",
          "name": "price",
          "type": "uint256"
        },
        {
          "indexed": false,
          "internalType": "uint256",
          "name": "rentPrice",
          "type": "uint256"
        },
        {
          "indexed": false,
          "internalType": "bool",
          "name": "forRent",
          "type": "bool"
        },
        {
          "indexed": false,
          "internalType": "bool",
          "name": "forSale",
          "type": "bool"
        },
        {
          "indexed": false,
          "internalType": "bool",
          "name": "sold",
          "type": "bool"
        },
        {
          "indexed": false,
          "internalType": "bool",
          "name": "rented",
          "type": "bool"
        }
      ],
      "name": "MarketItemCreated",
      "type": "event"
    },
    {
      "anonymous": false,
      "inputs": [
        {
          "indexed": true,
          "internalType": "address",
          "name": "from",
          "type": "address"
        },
        {
          "indexed": true,
          "internalType": "address",
          "name": "to",
          "type": "address"
        },
        {
          "indexed": true,
          "internalType": "uint256",
          "name": "tokenId",
          "type": "uint256"
        }
      ],
      "name": "Transfer",
      "type": "event"
    },
    {
      "inputs": [],
      "name": "WETH_ADDRESS",
      "outputs": [
        {
          "internalType": "address",
          "name": "",
          "type": "address"
        }
      ],
      "stateMutability": "view",
      "type": "function"
    },
    {
      "inputs": [],
      "name": "_itemsRented",
      "outputs": [
        {
          "internalType": "uint256",
          "name": "_value",
          "type": "uint256"
        }
      ],
      "stateMutability": "view",
      "type": "function"
    },
    {
      "inputs": [],
      "name": "_itemsSold",
      "outputs": [
        {
          "internalType": "uint256",
          "name": "_value",
          "type": "uint256"
        }
      ],
      "stateMutability": "view",
      "type": "function"
    },
    {
      "inputs": [],
      "name": "_tokenIds",
      "outputs": [
        {
          "internalType": "uint256",
          "name": "_value",
          "type": "uint256"
        }
      ],
      "stateMutability": "view",
      "type": "function"
    },
    {
      "inputs": [
        {
          "internalType": "address",
          "name": "to",
          "type": "address"
        },
        {
          "internalType": "uint256",
          "name": "tokenId",
          "type": "uint256"
        }
      ],
      "name": "approve",
      "outputs": [],
      "stateMutability": "nonpayable",
      "type": "function"
    },
    {
      "inputs": [
        {
          "internalType": "address",
          "name": "owner",
          "type": "address"
        }
      ],
      "name": "balanceOf",
      "outputs": [
        {
          "internalType": "uint256",
          "name": "",
          "type": "uint256"
        }
      ],
      "stateMutability": "view",
      "type": "function"
    },
    {
      "inputs": [
        {
          "internalType": "bytes",
          "name": "",
          "type": "bytes"
        }
      ],
      "name": "checkUpkeep",
      "outputs": [
        {
          "internalType": "bool",
          "name": "upkeepNeeded",
          "type": "bool"
        },
        {
          "internalType": "bytes",
          "name": "performData",
          "type": "bytes"
        }
      ],
      "stateMutability": "view",
      "type": "function"
    },
    {
      "inputs": [
        {
          "internalType": "uint256",
          "name": "tokenId",
          "type": "uint256"
        }
      ],
      "name": "createMarketSale",
      "outputs": [],
      "stateMutability": "payable",
      "type": "function"
    },
    {
      "inputs": [
        {
          "internalType": "string",
          "name": "_tokenURI",
          "type": "string"
        },
        {
          "internalType": "bool",
          "name": "isWETH",
          "type": "bool"
        },
        {
          "internalType": "uint256",
          "name": "price",
          "type": "uint256"
        },
        {
          "internalType": "uint256",
          "name": "rentPrice",
          "type": "uint256"
        },
        {
          "internalType": "bool",
          "name": "forSale",
          "type": "bool"
        },
        {
          "internalType": "bool",
          "name": "forRent",
          "type": "bool"
        }
      ],
      "name": "createToken",
      "outputs": [],
      "stateMutability": "payable",
      "type": "function"
    },
    {
      "inputs": [
        {
          "internalType": "bytes32",
          "name": "rentalId",
          "type": "bytes32"
        }
      ],
      "name": "decodeImportedRentedKey",
      "outputs": [
        {
          "internalType": "address",
          "name": "",
          "type": "address"
        },
        {
          "internalType": "uint256",
          "name": "",
          "type": "uint256"
        }
      ],
      "stateMutability": "view",
      "type": "function"
    },
    {
      "inputs": [],
      "name": "fetchImportedMarketItems",
      "outputs": [
        {
          "components": [
            {
              "internalType": "uint256",
              "name": "tokenId",
              "type": "uint256"
            },
            {
              "internalType": "address",
              "name": "collection",
              "type": "address"
            },
            {
              "internalType": "address",
              "name": "owner",
              "type": "address"
            },
            {
              "internalType": "bool",
              "name": "isWETH",
              "type": "bool"
            },
            {
              "internalType": "uint256",
              "name": "price",
              "type": "uint256"
            },
            {
              "internalType": "uint256",
              "name": "rentalPrice",
              "type": "uint256"
            },
            {
              "internalType": "bool",
              "name": "forSale",
              "type": "bool"
            },
            {
              "internalType": "bool",
              "name": "forRent",
              "type": "bool"
            },
            {
              "internalType": "uint256",
              "name": "expiry",
              "type": "uint256"
            },
            {
              "internalType": "address",
              "name": "renter",
              "type": "address"
            },
            {
              "internalType": "bool",
              "name": "sold",
              "type": "bool"
            },
            {
              "internalType": "bool",
              "name": "rented",
              "type": "bool"
            }
          ],
          "internalType": "struct RentableNFTMarketplace.ImportedItem[]",
          "name": "",
          "type": "tuple[]"
        }
      ],
      "stateMutability": "view",
      "type": "function"
    },
    {
      "inputs": [],
      "name": "fetchMarketItems",
      "outputs": [
        {
          "components": [
            {
              "internalType": "uint256",
              "name": "tokenId",
              "type": "uint256"
            },
            {
              "internalType": "address payable",
              "name": "owner",
              "type": "address"
            },
            {
              "internalType": "bool",
              "name": "isWETH",
              "type": "bool"
            },
            {
              "internalType": "uint256",
              "name": "price",
              "type": "uint256"
            },
            {
              "internalType": "uint256",
              "name": "rentPrice",
              "type": "uint256"
            },
            {
              "internalType": "bool",
              "name": "forRent",
              "type": "bool"
            },
            {
              "internalType": "bool",
              "name": "forSale",
              "type": "bool"
            },
            {
              "internalType": "bool",
              "name": "sold",
              "type": "bool"
            },
            {
              "internalType": "bool",
              "name": "rented",
              "type": "bool"
            }
          ],
          "internalType": "struct RentableNFTMarketplace.MarketItem[]",
          "name": "",
          "type": "tuple[]"
        }
      ],
      "stateMutability": "view",
      "type": "function"
    },
    {
      "inputs": [],
      "name": "fetchMyNFTs",
      "outputs": [
        {
          "components": [
            {
              "internalType": "uint256",
              "name": "tokenId",
              "type": "uint256"
            },
            {
              "internalType": "address payable",
              "name": "owner",
              "type": "address"
            },
            {
              "internalType": "bool",
              "name": "isWETH",
              "type": "bool"
            },
            {
              "internalType": "uint256",
              "name": "price",
              "type": "uint256"
            },
            {
              "internalType": "uint256",
              "name": "rentPrice",
              "type": "uint256"
            },
            {
              "internalType": "bool",
              "name": "forRent",
              "type": "bool"
            },
            {
              "internalType": "bool",
              "name": "forSale",
              "type": "bool"
            },
            {
              "internalType": "bool",
              "name": "sold",
              "type": "bool"
            },
            {
              "internalType": "bool",
              "name": "rented",
              "type": "bool"
            }
          ],
          "internalType": "struct RentableNFTMarketplace.MarketItem[]",
          "name": "",
          "type": "tuple[]"
        }
      ],
      "stateMutability": "view",
      "type": "function"
    },
    {
      "inputs": [],
      "name": "fetchMyOwnedImportedNFTs",
      "outputs": [
        {
          "components": [
            {
              "internalType": "uint256",
              "name": "tokenId",
              "type": "uint256"
            },
            {
              "internalType": "address",
              "name": "collection",
              "type": "address"
            },
            {
              "internalType": "address",
              "name": "owner",
              "type": "address"
            },
            {
              "internalType": "bool",
              "name": "isWETH",
              "type": "bool"
            },
            {
              "internalType": "uint256",
              "name": "price",
              "type": "uint256"
            },
            {
              "internalType": "uint256",
              "name": "rentalPrice",
              "type": "uint256"
            },
            {
              "internalType": "bool",
              "name": "forSale",
              "type": "bool"
            },
            {
              "internalType": "bool",
              "name": "forRent",
              "type": "bool"
            },
            {
              "internalType": "uint256",
              "name": "expiry",
              "type": "uint256"
            },
            {
              "internalType": "address",
              "name": "renter",
              "type": "address"
            },
            {
              "internalType": "bool",
              "name": "sold",
              "type": "bool"
            },
            {
              "internalType": "bool",
              "name": "rented",
              "type": "bool"
            }
          ],
          "internalType": "struct RentableNFTMarketplace.ImportedItem[]",
          "name": "",
          "type": "tuple[]"
        }
      ],
      "stateMutability": "view",
      "type": "function"
    },
    {
      "inputs": [],
      "name": "fetchMyRentedImportedNFTs",
      "outputs": [
        {
          "components": [
            {
              "internalType": "uint256",
              "name": "tokenId",
              "type": "uint256"
            },
            {
              "internalType": "address",
              "name": "collection",
              "type": "address"
            },
            {
              "internalType": "address",
              "name": "owner",
              "type": "address"
            },
            {
              "internalType": "bool",
              "name": "isWETH",
              "type": "bool"
            },
            {
              "internalType": "uint256",
              "name": "price",
              "type": "uint256"
            },
            {
              "internalType": "uint256",
              "name": "rentalPrice",
              "type": "uint256"
            },
            {
              "internalType": "bool",
              "name": "forSale",
              "type": "bool"
            },
            {
              "internalType": "bool",
              "name": "forRent",
              "type": "bool"
            },
            {
              "internalType": "uint256",
              "name": "expiry",
              "type": "uint256"
            },
            {
              "internalType": "address",
              "name": "renter",
              "type": "address"
            },
            {
              "internalType": "bool",
              "name": "sold",
              "type": "bool"
            },
            {
              "internalType": "bool",
              "name": "rented",
              "type": "bool"
            }
          ],
          "internalType": "struct RentableNFTMarketplace.ImportedItem[]",
          "name": "",
          "type": "tuple[]"
        }
      ],
      "stateMutability": "view",
      "type": "function"
    },
    {
      "inputs": [],
      "name": "fetchMyRentedNFTs",
      "outputs": [
        {
          "components": [
            {
              "internalType": "uint256",
              "name": "tokenId",
              "type": "uint256"
            },
            {
              "internalType": "address payable",
              "name": "owner",
              "type": "address"
            },
            {
              "internalType": "bool",
              "name": "isWETH",
              "type": "bool"
            },
            {
              "internalType": "uint256",
              "name": "price",
              "type": "uint256"
            },
            {
              "internalType": "uint256",
              "name": "rentPrice",
              "type": "uint256"
            },
            {
              "internalType": "bool",
              "name": "forRent",
              "type": "bool"
            },
            {
              "internalType": "bool",
              "name": "forSale",
              "type": "bool"
            },
            {
              "internalType": "bool",
              "name": "sold",
              "type": "bool"
            },
            {
              "internalType": "bool",
              "name": "rented",
              "type": "bool"
            },
            {
              "internalType": "address",
              "name": "renter",
              "type": "address"
            },
            {
              "internalType": "uint64",
              "name": "expires",
              "type": "uint64"
            }
          ],
          "internalType": "struct RentableNFTMarketplace.FullRentedItem[]",
          "name": "",
          "type": "tuple[]"
        }
      ],
      "stateMutability": "view",
      "type": "function"
    },
    {
      "inputs": [
        {
          "internalType": "uint256",
          "name": "tokenId",
          "type": "uint256"
        }
      ],
      "name": "getApproved",
      "outputs": [
        {
          "internalType": "address",
          "name": "",
          "type": "address"
        }
      ],
      "stateMutability": "view",
      "type": "function"
    },
    {
      "inputs": [],
      "name": "getListingPrice",
      "outputs": [
        {
          "internalType": "uint256",
          "name": "",
          "type": "uint256"
        }
      ],
      "stateMutability": "view",
      "type": "function"
    },
    {
      "inputs": [
        {
          "internalType": "address",
          "name": "_nftContract",
          "type": "address"
        },
        {
          "internalType": "uint256",
          "name": "_tokenId",
          "type": "uint256"
        }
      ],
      "name": "getTokenURLFromImportedNFT",
      "outputs": [
        {
          "internalType": "string",
          "name": "",
          "type": "string"
        }
      ],
      "stateMutability": "view",
      "type": "function"
    },
    {
      "inputs": [
        {
          "internalType": "uint256",
          "name": "tokenId",
          "type": "uint256"
        },
        {
          "internalType": "address",
          "name": "_collection",
          "type": "address"
        }
      ],
      "name": "getUserOf",
      "outputs": [
        {
          "internalType": "address",
          "name": "",
          "type": "address"
        }
      ],
      "stateMutability": "view",
      "type": "function"
    },
    {
      "inputs": [
        {
          "internalType": "bytes32",
          "name": "",
          "type": "bytes32"
        }
      ],
      "name": "idToImportedItem",
      "outputs": [
        {
          "internalType": "uint256",
          "name": "tokenId",
          "type": "uint256"
        },
        {
          "internalType": "address",
          "name": "collection",
          "type": "address"
        },
        {
          "internalType": "address",
          "name": "owner",
          "type": "address"
        },
        {
          "internalType": "bool",
          "name": "isWETH",
          "type": "bool"
        },
        {
          "internalType": "uint256",
          "name": "price",
          "type": "uint256"
        },
        {
          "internalType": "uint256",
          "name": "rentalPrice",
          "type": "uint256"
        },
        {
          "internalType": "bool",
          "name": "forSale",
          "type": "bool"
        },
        {
          "internalType": "bool",
          "name": "forRent",
          "type": "bool"
        },
        {
          "internalType": "uint256",
          "name": "expiry",
          "type": "uint256"
        },
        {
          "internalType": "address",
          "name": "renter",
          "type": "address"
        },
        {
          "internalType": "bool",
          "name": "sold",
          "type": "bool"
        },
        {
          "internalType": "bool",
          "name": "rented",
          "type": "bool"
        }
      ],
      "stateMutability": "view",
      "type": "function"
    },
    {
      "inputs": [
        {
          "internalType": "uint256",
          "name": "",
          "type": "uint256"
        }
      ],
      "name": "idToMarketItem",
      "outputs": [
        {
          "internalType": "uint256",
          "name": "tokenId",
          "type": "uint256"
        },
        {
          "internalType": "address payable",
          "name": "owner",
          "type": "address"
        },
        {
          "internalType": "bool",
          "name": "isWETH",
          "type": "bool"
        },
        {
          "internalType": "uint256",
          "name": "price",
          "type": "uint256"
        },
        {
          "internalType": "uint256",
          "name": "rentPrice",
          "type": "uint256"
        },
        {
          "internalType": "bool",
          "name": "forRent",
          "type": "bool"
        },
        {
          "internalType": "bool",
          "name": "forSale",
          "type": "bool"
        },
        {
          "internalType": "bool",
          "name": "sold",
          "type": "bool"
        },
        {
          "internalType": "bool",
          "name": "rented",
          "type": "bool"
        }
      ],
      "stateMutability": "view",
      "type": "function"
    },
    {
      "inputs": [
        {
          "internalType": "uint256",
          "name": "",
          "type": "uint256"
        }
      ],
      "name": "idToRentedItem",
      "outputs": [
        {
          "internalType": "uint256",
          "name": "tokenId",
          "type": "uint256"
        },
        {
          "internalType": "address",
          "name": "renter",
          "type": "address"
        },
        {
          "internalType": "uint64",
          "name": "expires",
          "type": "uint64"
        }
      ],
      "stateMutability": "view",
      "type": "function"
    },
    {
      "inputs": [
        {
          "internalType": "address",
          "name": "_collection",
          "type": "address"
        },
        {
          "internalType": "uint256",
          "name": "_tokenId",
          "type": "uint256"
        },
        {
          "internalType": "bool",
          "name": "_isWETH",
          "type": "bool"
        },
        {
          "internalType": "uint256",
          "name": "_rentalPrice",
          "type": "uint256"
        },
        {
          "internalType": "uint256",
          "name": "_price",
          "type": "uint256"
        },
        {
          "internalType": "bool",
          "name": "_forSale",
          "type": "bool"
        },
        {
          "internalType": "bool",
          "name": "_forRent",
          "type": "bool"
        }
      ],
      "name": "importNFT",
      "outputs": [],
      "stateMutability": "payable",
      "type": "function"
    },
    {
      "inputs": [
        {
          "internalType": "uint256",
          "name": "",
          "type": "uint256"
        }
      ],
      "name": "importedTokenIds",
      "outputs": [
        {
          "internalType": "bytes32",
          "name": "",
          "type": "bytes32"
        }
      ],
      "stateMutability": "view",
      "type": "function"
    },
    {
      "inputs": [
        {
          "internalType": "address",
          "name": "owner",
          "type": "address"
        },
        {
          "internalType": "address",
          "name": "operator",
          "type": "address"
        }
      ],
      "name": "isApprovedForAll",
      "outputs": [
        {
          "internalType": "bool",
          "name": "",
          "type": "bool"
        }
      ],
      "stateMutability": "view",
      "type": "function"
    },
    {
      "inputs": [],
      "name": "name",
      "outputs": [
        {
          "internalType": "string",
          "name": "",
          "type": "string"
        }
      ],
      "stateMutability": "view",
      "type": "function"
    },
    {
      "inputs": [],
      "name": "owner",
      "outputs": [
        {
          "internalType": "address payable",
          "name": "",
          "type": "address"
        }
      ],
      "stateMutability": "view",
      "type": "function"
    },
    {
      "inputs": [
        {
          "internalType": "uint256",
          "name": "tokenId",
          "type": "uint256"
        }
      ],
      "name": "ownerOf",
      "outputs": [
        {
          "internalType": "address",
          "name": "",
          "type": "address"
        }
      ],
      "stateMutability": "view",
      "type": "function"
    },
    {
      "inputs": [
        {
          "internalType": "bytes",
          "name": "performData",
          "type": "bytes"
        }
      ],
      "name": "performUpkeep",
      "outputs": [],
      "stateMutability": "nonpayable",
      "type": "function"
    },
    {
      "inputs": [
        {
          "internalType": "uint256",
          "name": "_tokenId",
          "type": "uint256"
        },
        {
          "internalType": "address",
          "name": "_collection",
          "type": "address"
        }
      ],
      "name": "purchaseImportedNFT",
      "outputs": [],
      "stateMutability": "payable",
      "type": "function"
    },
    {
      "inputs": [
        {
          "internalType": "uint256",
          "name": "_tokenId",
          "type": "uint256"
        },
        {
          "internalType": "address",
          "name": "_collection",
          "type": "address"
        },
        {
          "internalType": "uint64",
          "name": "_expires",
          "type": "uint64"
        }
      ],
      "name": "rentImportedNFT",
      "outputs": [],
      "stateMutability": "payable",
      "type": "function"
    },
    {
      "inputs": [
        {
          "internalType": "uint256",
          "name": "_tokenId",
          "type": "uint256"
        },
        {
          "internalType": "uint64",
          "name": "_expires",
          "type": "uint64"
        }
      ],
      "name": "rentOutToken",
      "outputs": [],
      "stateMutability": "payable",
      "type": "function"
    },
    {
      "inputs": [
        {
          "internalType": "uint256",
          "name": "",
          "type": "uint256"
        }
      ],
      "name": "rentedTokenIds",
      "outputs": [
        {
          "internalType": "uint256",
          "name": "",
          "type": "uint256"
        }
      ],
      "stateMutability": "view",
      "type": "function"
    },
    {
      "inputs": [
        {
          "internalType": "uint256",
          "name": "_tokenId",
          "type": "uint256"
        },
        {
          "internalType": "address",
          "name": "_collection",
          "type": "address"
        },
        {
          "internalType": "bool",
          "name": "_isWETH",
          "type": "bool"
        },
        {
          "internalType": "uint256",
          "name": "_price",
          "type": "uint256"
        },
        {
          "internalType": "uint256",
          "name": "_rentalPrice",
          "type": "uint256"
        },
        {
          "internalType": "bool",
          "name": "_forSale",
          "type": "bool"
        },
        {
          "internalType": "bool",
          "name": "_forRent",
          "type": "bool"
        }
      ],
      "name": "resellImportedNFT",
      "outputs": [],
      "stateMutability": "payable",
      "type": "function"
    },
    {
      "inputs": [
        {
          "internalType": "uint256",
          "name": "tokenId",
          "type": "uint256"
        },
        {
          "internalType": "bool",
          "name": "isWETH",
          "type": "bool"
        },
        {
          "internalType": "uint256",
          "name": "price",
          "type": "uint256"
        },
        {
          "internalType": "uint256",
          "name": "rentPrice",
          "type": "uint256"
        },
        {
          "internalType": "bool",
          "name": "forRent",
          "type": "bool"
        },
        {
          "internalType": "bool",
          "name": "forSale",
          "type": "bool"
        }
      ],
      "name": "resellToken",
      "outputs": [],
      "stateMutability": "payable",
      "type": "function"
    },
    {
      "inputs": [
        {
          "internalType": "address",
          "name": "from",
          "type": "address"
        },
        {
          "internalType": "address",
          "name": "to",
          "type": "address"
        },
        {
          "internalType": "uint256",
          "name": "tokenId",
          "type": "uint256"
        }
      ],
      "name": "safeTransferFrom",
      "outputs": [],
      "stateMutability": "nonpayable",
      "type": "function"
    },
    {
      "inputs": [
        {
          "internalType": "address",
          "name": "from",
          "type": "address"
        },
        {
          "internalType": "address",
          "name": "to",
          "type": "address"
        },
        {
          "internalType": "uint256",
          "name": "tokenId",
          "type": "uint256"
        },
        {
          "internalType": "bytes",
          "name": "_data",
          "type": "bytes"
        }
      ],
      "name": "safeTransferFrom",
      "outputs": [],
      "stateMutability": "nonpayable",
      "type": "function"
    },
    {
      "inputs": [
        {
          "internalType": "address",
          "name": "operator",
          "type": "address"
        },
        {
          "internalType": "bool",
          "name": "approved",
          "type": "bool"
        }
      ],
      "name": "setApprovalForAll",
      "outputs": [],
      "stateMutability": "nonpayable",
      "type": "function"
    },
    {
      "inputs": [
        {
          "internalType": "bytes4",
          "name": "interfaceId",
          "type": "bytes4"
        }
      ],
      "name": "supportsInterface",
      "outputs": [
        {
          "internalType": "bool",
          "name": "",
          "type": "bool"
        }
      ],
      "stateMutability": "view",
      "type": "function"
    },
    {
      "inputs": [],
      "name": "symbol",
      "outputs": [
        {
          "internalType": "string",
          "name": "",
          "type": "string"
        }
      ],
      "stateMutability": "view",
      "type": "function"
    },
    {
      "inputs": [
        {
          "internalType": "uint256",
          "name": "_tokenId",
          "type": "uint256"
        }
      ],
      "name": "tokenURI",
      "outputs": [
        {
          "internalType": "string",
          "name": "",
          "type": "string"
        }
      ],
      "stateMutability": "view",
      "type": "function"
    },
    {
      "inputs": [
        {
          "internalType": "uint256",
          "name": "",
          "type": "uint256"
        }
      ],
      "name": "tokenURIs",
      "outputs": [
        {
          "internalType": "string",
          "name": "",
          "type": "string"
        }
      ],
      "stateMutability": "view",
      "type": "function"
    },
    {
      "inputs": [
        {
          "internalType": "address",
          "name": "from",
          "type": "address"
        },
        {
          "internalType": "address",
          "name": "to",
          "type": "address"
        },
        {
          "internalType": "uint256",
          "name": "tokenId",
          "type": "uint256"
        }
      ],
      "name": "transferFrom",
      "outputs": [],
      "stateMutability": "nonpayable",
      "type": "function"
    },
    {
      "inputs": [
        {
          "internalType": "uint256",
          "name": "_listingPrice",
          "type": "uint256"
        }
      ],
      "name": "updateListingPrice",
      "outputs": [],
      "stateMutability": "nonpayable",
      "type": "function"
    },
    {
      "inputs": [],
      "name": "withdraw",
      "outputs": [],
      "stateMutability": "nonpayable",
      "type": "function"
    }
  ],
  "bytecode": "0x60806040526509184e72a000600a553480156200001b57600080fd5b506040516200593d3803806200593d8339810160408190526200003e9162000186565b604080518082018252600881526752656e7461626c6560c01b602080830191825283518085019094526002845261149560f21b9084015281519192916200008891600091620000e0565b5080516200009e906001906020840190620000e0565b5050600b80546001600160a01b03199081163317909155600c80546001600160a01b0394909416938216841790556012805490911690921790915550620001f5565b828054620000ee90620001b8565b90600052602060002090601f0160209004810192826200011257600085556200015d565b82601f106200012d57805160ff19168380011785556200015d565b828001600101855582156200015d579182015b828111156200015d57825182559160200191906001019062000140565b506200016b9291506200016f565b5090565b5b808211156200016b576000815560010162000170565b6000602082840312156200019957600080fd5b81516001600160a01b0381168114620001b157600080fd5b9392505050565b600181811c90821680620001cd57607f821691505b60208210811415620001ef57634e487b7160e01b600052602260045260246000fd5b50919050565b61573880620002056000396000f3fe60806040526004361061027d5760003560e01c80636e04ff0d1161014f578063a22cb465116100c1578063c87b56dd1161007a578063c87b56dd146108ac578063c94b0c5a146108cc578063cd9bb78d146108df578063e61a70c0146108f2578063e985e9c5146109c4578063fae6afc714610a0d57600080fd5b8063a22cb4651461071f578063aa46a4001461073f578063ae677aa314610756578063b88d4fde14610776578063be9af53614610796578063bf536641146107a957600080fd5b8063896cfd6811610113578063896cfd681461069a5780638d397995146106ad5780638da5cb5b146106c05780638e41cd48146106e0578063913f30d8146106f357806395d89b411461070a57600080fd5b80636e04ff0d1461060057806370a082311461062e57806373a882641461064e578063783909ac1461066357806387506a0d1461068357600080fd5b8063202e3740116101f35780636352211e116101ac5780636352211e146104f057806363868b581461051057806367ea485c146105235780636c6ef0f0146105455780636c8b703f146105655780636cec833c1461058557600080fd5b8063202e37401461044457806323b872dd146104595780633ccfd60b1461047957806342842e0e1461048e5780634585e33b146104ae57806356e49870146104ce57600080fd5b8063081812fc11610245578063081812fc1461038e578063095ea7b3146103ae57806309a26ba7146103d05780630f08efe0146103e357806312e855851461040557806318684c2b1461042457600080fd5b8063019ad4e71461028257806301ffc9a7146102e4578063028254cc14610314578063040141e51461034157806306fdde0314610379575b600080fd5b34801561028e57600080fd5b506102c061029d3660046148a6565b6000908152600f60205260409020600181015490546001600160a01b0390911691565b604080516001600160a01b0390931683526020830191909152015b60405180910390f35b3480156102f057600080fd5b506103046102ff3660046148d8565b610a22565b60405190151581526020016102db565b34801561032057600080fd5b5061033461032f36600461490a565b610a74565b6040516102db919061498e565b34801561034d57600080fd5b50600c54610361906001600160a01b031681565b6040516001600160a01b0390911681526020016102db565b34801561038557600080fd5b50610334610afd565b34801561039a57600080fd5b506103616103a93660046148a6565b610b8f565b3480156103ba57600080fd5b506103ce6103c936600461490a565b610c29565b005b6103ce6103de3660046149bd565b610d3f565b3480156103ef57600080fd5b506103f8611092565b6040516102db91906149e9565b34801561041157600080fd5b50600a545b6040519081526020016102db565b34801561043057600080fd5b5061041661043f3660046148a6565b6112e5565b34801561045057600080fd5b506103f8611306565b34801561046557600080fd5b506103ce610474366004614a94565b611568565b34801561048557600080fd5b506103ce611599565b34801561049a57600080fd5b506103ce6104a9366004614a94565b611626565b3480156104ba57600080fd5b506103ce6104c9366004614ad5565b611641565b3480156104da57600080fd5b506104e36117c7565b6040516102db9190614b46565b3480156104fc57600080fd5b5061036161050b3660046148a6565b611a1a565b6103ce61051e366004614cc5565b611a91565b34801561052f57600080fd5b50610538611b05565b6040516102db9190614d61565b34801561055157600080fd5b50610361610560366004614e23565b611dd1565b34801561057157600080fd5b506103346105803660046148a6565b611e53565b34801561059157600080fd5b506105d46105a03660046148a6565b600e60205260009081526040902080546001909101546001600160a01b03811690600160a01b90046001600160401b031683565b604080519384526001600160a01b0390921660208401526001600160401b0316908201526060016102db565b34801561060c57600080fd5b5061062061061b366004614ad5565b611eed565b6040516102db929190614e53565b34801561063a57600080fd5b50610416610649366004614e6e565b6121ef565b34801561065a57600080fd5b506104e3612276565b34801561066f57600080fd5b5061041661067e3660046148a6565b6124d5565b34801561068f57600080fd5b506007546104169081565b6103ce6106a8366004614e23565b6124e5565b6103ce6106bb366004614e8b565b6128e2565b3480156106cc57600080fd5b50600b54610361906001600160a01b031681565b6103ce6106ee366004614eb6565b6129d7565b3480156106ff57600080fd5b506008546104169081565b34801561071657600080fd5b50610334612e4f565b34801561072b57600080fd5b506103ce61073a366004614f31565b612e5e565b34801561074b57600080fd5b506006546104169081565b34801561076257600080fd5b506103ce6107713660046148a6565b612e69565b34801561078257600080fd5b506103ce610791366004614f5f565b612edc565b6103ce6107a43660046148a6565b612f14565b3480156107b557600080fd5b5061083b6107c43660046148a6565b600f602052600090815260409020805460018201546002830154600384015460048501546005860154600687015460079097015495966001600160a01b03958616968587169660ff600160a01b978890048116978582169561010090048216949392831692908104821691600160a81b909104168c565b604080519c8d526001600160a01b039b8c1660208e0152998b16998c019990995296151560608b015260808a019590955260a089019390935290151560c0880152151560e08701526101008601529092166101208401529015156101408301521515610160820152610180016102db565b3480156108b857600080fd5b506103346108c73660046148a6565b6131c8565b6103ce6108da366004614fde565b613203565b6103ce6108ed36600461501c565b613614565b3480156108fe57600080fd5b5061096c61090d3660046148a6565b600d602052600090815260409020805460018201546002830154600384015460049094015492936001600160a01b0383169360ff600160a01b909404841693818116916101008104821691620100008204811691630100000090041689565b60408051998a526001600160a01b0390981660208a01529515159688019690965260608701939093526080860191909152151560a0850152151560c084015290151560e08301521515610100820152610120016102db565b3480156109d057600080fd5b506103046109df366004615059565b6001600160a01b03918216600090815260056020908152604080832093909416825291909152205460ff1690565b348015610a1957600080fd5b506104e3613818565b60006001600160e01b031982166380ac58cd60e01b1480610a5357506001600160e01b03198216635b5e139f60e01b145b80610a6e57506301ffc9a760e01b6001600160e01b03198316145b92915050565b60405163c87b56dd60e01b81526004810182905260609083906001600160a01b0382169063c87b56dd9060240160006040518083038186803b158015610ab957600080fd5b505afa158015610acd573d6000803e3d6000fd5b505050506040513d6000823e601f3d908101601f19168201604052610af59190810190615087565b949350505050565b606060008054610b0c906150fd565b80601f0160208091040260200160405190810160405280929190818152602001828054610b38906150fd565b8015610b855780601f10610b5a57610100808354040283529160200191610b85565b820191906000526020600020905b815481529060010190602001808311610b6857829003601f168201915b5050505050905090565b6000818152600260205260408120546001600160a01b0316610c0d5760405162461bcd60e51b815260206004820152602c60248201527f4552433732313a20617070726f76656420717565727920666f72206e6f6e657860448201526b34b9ba32b73a103a37b5b2b760a11b60648201526084015b60405180910390fd5b506000908152600460205260409020546001600160a01b031690565b6000610c3482611a1a565b9050806001600160a01b0316836001600160a01b03161415610ca25760405162461bcd60e51b815260206004820152602160248201527f4552433732313a20617070726f76616c20746f2063757272656e74206f776e656044820152603960f91b6064820152608401610c04565b336001600160a01b0382161480610cbe5750610cbe81336109df565b610d305760405162461bcd60e51b815260206004820152603860248201527f4552433732313a20617070726f76652063616c6c6572206973206e6f74206f7760448201527f6e6572206e6f7220617070726f76656420666f7220616c6c00000000000000006064820152608401610c04565b610d3a8383613b09565b505050565b6000828152600d60205260409020600481015460ff16610da15760405162461bcd60e51b815260206004820152601f60248201527f546f6b656e206973206e6f7420617661696c61626c6520666f722072656e74006044820152606401610c04565b60018101546001600160a01b0316610db884611a1a565b6001600160a01b031614610dde5760405162461bcd60e51b8152600401610c0490615138565b6001810154600160a01b900460ff16610dfe578060030154341015610e01565b34155b610e585760405162461bcd60e51b815260206004820152602260248201527f496e636f7272656374207061796d656e74206d6574686f64206f7220616d6f756044820152611b9d60f21b6064820152608401610c04565b6001810154600160a01b900460ff1615610f1e57600c54600182015460038301546040516323b872dd60e01b81526001600160a01b03938416936323b872dd93610eab9333939290911691600401615179565b602060405180830381600087803b158015610ec557600080fd5b505af1158015610ed9573d6000803e3d6000fd5b505050506040513d601f19601f82011682018060405250810190610efd919061519d565b610f195760405162461bcd60e51b8152600401610c04906151ba565b610fc5565b8060030154341015610f885760405162461bcd60e51b815260206004820152602d60248201527f496e73756666696369656e742066756e647320746f2072656e7420746865207460448201526c6f6b656e20696e204d4154494360981b6064820152608401610c04565b60018101546040516001600160a01b03909116903480156108fc02916000818181858888f19350505050158015610fc3573d6000803e3d6000fd5b505b60048101805463ff00000019166301000000179055610fe8600880546001019055565b604080516060810182528481523360208083018281526001600160401b0380881685870190815260008a8152600e909452958320945185559051600194850180549651909216600160a01b026001600160e01b03199096166001600160a01b039182161795909517905560108054808501825591527f1b6847dc741a1b0cd08d278845f9d819d87b734759afb55fe2de5cb82a9ae6720186905590830154610d3a92169085613b77565b6060600061109f60065490565b905060008060005b8381101561112c57600d60006110be836001615205565b8152602081019190915260400160002060040154610100900460ff16806111075750600d60006110ef836001615205565b815260208101919091526040016000206004015460ff165b1561111a57611117600184615205565b92505b806111248161521d565b9150506110a7565b506000826001600160401b0381111561114757611147614c0c565b60405190808252806020026020018201604052801561118057816020015b61116d61475d565b8152602001906001900390816111655790505b50905060005b848110156112dc57600d600061119d836001615205565b8152602081019190915260400160002060040154610100900460ff16806111e65750600d60006111ce836001615205565b815260208101919091526040016000206004015460ff165b156112ca5760006111f8826001615205565b6000818152600d60209081526040918290208251610120810184528154815260018201546001600160a01b0381169382019390935260ff600160a01b909304831615159381019390935260028101546060840152600381015460808401526004810154808316151560a08501526101008082048416151560c08601526201000082048416151560e086015263010000009091049092161515918301919091528551929350918590879081106112af576112af615238565b60209081029190910101526112c5600186615205565b945050505b806112d48161521d565b915050611186565b50949350505050565b601081815481106112f557600080fd5b600091825260209091200154905081565b6060600061131360065490565b905060008060005b838110156113ac5733600d6000611333846001615205565b81526020810191909152604001600020600101546001600160a01b03161480156113875750600d6000611367836001615205565b81526020810191909152604001600020600401546301000000900460ff16155b1561139a57611397600184615205565b92505b806113a48161521d565b91505061131b565b506000826001600160401b038111156113c7576113c7614c0c565b60405190808252806020026020018201604052801561140057816020015b6113ed61475d565b8152602001906001900390816113e55790505b50905060005b848110156112dc5733600d600061141e846001615205565b81526020810191909152604001600020600101546001600160a01b03161480156114725750600d6000611452836001615205565b81526020810191909152604001600020600401546301000000900460ff16155b15611556576000611484826001615205565b6000818152600d60209081526040918290208251610120810184528154815260018201546001600160a01b0381169382019390935260ff600160a01b909304831615159381019390935260028101546060840152600381015460808401526004810154808316151560a08501526101008082048416151560c08601526201000082048416151560e0860152630100000090910490921615159183019190915285519293509185908790811061153b5761153b615238565b6020908102919091010152611551600186615205565b945050505b806115608161521d565b915050611406565b6115723382613d13565b61158e5760405162461bcd60e51b8152600401610c049061524e565b610d3a838383613b77565b600b546001600160a01b031633146115f35760405162461bcd60e51b815260206004820152601760248201527f4f6e6c79206f776e65722063616e2077697468647261770000000000000000006044820152606401610c04565b6040514790339082156108fc029083906000818181858888f19350505050158015611622573d6000803e3d6000fd5b5050565b610d3a83838360405180602001604052806000815250612edc565b600080808061165285870187615328565b935093509350935060005b838110156116a757600085828151811061167957611679615238565b60200260200101519050806000146116945761169481613e06565b508061169f8161521d565b91505061165d565b5060005b818110156117be5760008382815181106116c7576116c7615238565b602002602001015190506000801b81146117ab576000818152600f6020908152604091829020825161018081018452815480825260018301546001600160a01b0390811694830185905260028401548082169684019690965260ff600160a01b9687900481161515606085015260038501546080850152600485015460a08501526005850154808216151560c0860152610100908190048216151560e086015260068601549085015260079094015490811661012084015294850483161515610140830152600160a81b9094049091161515610160820152916117a991613f13565b505b50806117b68161521d565b9150506116ab565b50505050505050565b606060008060005b60115481101561183e57600f6000601183815481106117f0576117f0615238565b6000918252602080832090910154835282019290925260400190206007015460ff600160a81b9091041661182c57611829600184615205565b92505b806118368161521d565b9150506117cf565b506000826001600160401b0381111561185957611859614c0c565b60405190808252806020026020018201604052801561189257816020015b61187f6147a9565b8152602001906001900390816118775790505b50905060005b601154811015611a1257600f6000601183815481106118b9576118b9615238565b6000918252602080832090910154835282019290925260400190206007015460ff600160a81b90910416611a00576000600f60006011848154811061190057611900615238565b6000918252602080832090910154835282810193909352604091820190208151610180810183528154815260018201546001600160a01b039081169482019490945260028201548085169382019390935260ff600160a01b9384900481161515606083015260038301546080830152600483015460a08301526005830154808216151560c0840152610100908190048216151560e0840152600684015490830152600783015494851661012083015292840483161515610140820152600160a81b909304909116151561016083015284519092508490869081106119e6576119e6615238565b60209081029190910101526119fc600185615205565b9350505b80611a0a8161521d565b915050611898565b509392505050565b6000818152600260205260408120546001600160a01b031680610a6e5760405162461bcd60e51b815260206004820152602960248201527f4552433732313a206f776e657220717565727920666f72206e6f6e657869737460448201526832b73a103a37b5b2b760b91b6064820152608401610c04565b600a543414611ab25760405162461bcd60e51b8152600401610c04906153f1565b611ac0600680546001019055565b6000611acb60065490565b9050611ad733826140c8565b60008181526009602090815260409091208851611af6928a019061480d565b506117be81878787878761420a565b60606000611b1260065490565b9050600080826001600160401b03811115611b2f57611b2f614c0c565b604051908082528060200260200182016040528015611b58578160200160208202803683370190505b50905060005b83811015611c015733611b7561050b836001615205565b6001600160a01b0316148015611bb45750600d6000611b95836001615205565b81526020810191909152604001600020600401546301000000900460ff165b15611bef57611bc4816001615205565b828481518110611bd657611bd6615238565b6020908102919091010152611bec600184615205565b92505b80611bf98161521d565b915050611b5e565b506000826001600160401b03811115611c1c57611c1c614c0c565b604051908082528060200260200182016040528015611ca357816020015b604080516101608101825260008082526020808301829052928201819052606082018190526080820181905260a0820181905260c0820181905260e08201819052610100820181905261012082018190526101408201528252600019909201910181611c3a5790505b50905060005b838110156112dc576000838281518110611cc557611cc5615238565b6020908102919091018101516000818152600d83526040808220600e8552918190208151610160810183528481526001808501546001600160a01b0380821698840198909852600160a01b9081900460ff90811615159584019590955260028601546060840152600386015460808401526004860154808616151560a08501526101008082048716151560c08601526201000082048716151560e08601526301000000909104909516151594830194909452820154958616610120820152919094046001600160401b03166101408201528651929450909291869086908110611db057611db0615238565b60200260200101819052505050508080611dc99061521d565b915050611ca9565b6040516331a9108f60e11b8152600481018390526000906001600160a01b03831690636352211e9060240160206040518083038186803b158015611e1457600080fd5b505afa158015611e28573d6000803e3d6000fd5b505050506040513d601f19601f82011682018060405250810190611e4c9190615435565b9392505050565b60096020526000908152604090208054611e6c906150fd565b80601f0160208091040260200160405190810160405280929190818152602001828054611e98906150fd565b8015611ee55780601f10611eba57610100808354040283529160200191611ee5565b820191906000526020600020905b815481529060010190602001808311611ec857829003601f168201915b505050505081565b6000606060006010805490506001600160401b03811115611f1057611f10614c0c565b604051908082528060200260200182016040528015611f39578160200160208202803683370190505b506011549091506000906001600160401b03811115611f5a57611f5a614c0c565b604051908082528060200260200182016040528015611f83578160200160208202803683370190505b50905060008060005b60105481101561204b57600060108281548110611fab57611fab615238565b600091825260208083209190910154808352600e82526040928390208351606081018552815481526001909101546001600160a01b03811693820193909352600160a01b9092046001600160401b03169282018390529250904210612036578187868151811061201d5761201d615238565b6020908102919091010152846120328161521d565b9550505b505080806120439061521d565b915050611f8c565b5060005b6011548110156121875760006011828154811061206e5761206e615238565b6000918252602080832090910154808352600f82526040928390208351610180810185528154815260018201546001600160a01b039081169482019490945260028201548085169582019590955260ff600160a01b9586900481161515606083015260038301546080830152600483015460a08301526005830154808216151560c0840152610100908190048216151560e0840152600684015490830181905260079093015494851661012083015294840485161515610140820152600160a81b90930490931615156101608301529250904210612172578186858151811061215957612159615238565b60209081029190910101528361216e8161521d565b9450505b5050808061217f9061521d565b91505061204f565b5060008211806121975750600081115b156121cd5760019550838284836040516020016121b79493929190615452565b60405160208183030381529060405294506121e4565b600095506040518060200160405280600081525094505b505050509250929050565b60006001600160a01b03821661225a5760405162461bcd60e51b815260206004820152602a60248201527f4552433732313a2062616c616e636520717565727920666f7220746865207a65604482015269726f206164647265737360b01b6064820152608401610c04565b506001600160a01b031660009081526003602052604090205490565b606060008060005b6011548110156122f757336001600160a01b0316600f6000601184815481106122a9576122a9615238565b600091825260208083209091015483528201929092526040019020600201546001600160a01b031614156122e5576122e2600184615205565b92505b806122ef8161521d565b91505061227e565b506000826001600160401b0381111561231257612312614c0c565b60405190808252806020026020018201604052801561234b57816020015b6123386147a9565b8152602001906001900390816123305790505b50905060005b601154811015611a1257336001600160a01b0316600f60006011848154811061237c5761237c615238565b600091825260208083209091015483528201929092526040019020600201546001600160a01b031614156124c3576000600f6000601184815481106123c3576123c3615238565b6000918252602080832090910154835282810193909352604091820190208151610180810183528154815260018201546001600160a01b039081169482019490945260028201548085169382019390935260ff600160a01b9384900481161515606083015260038301546080830152600483015460a08301526005830154808216151560c0840152610100908190048216151560e0840152600684015490830152600783015494851661012083015292840483161515610140820152600160a81b909304909116151561016083015284519092508490869081106124a9576124a9615238565b60209081029190910101526124bf600185615205565b9350505b806124cd8161521d565b915050612351565b601181815481106112f557600080fd5b600081836040516020016124fa9291906154de565b60408051808303601f1901815282825280516020918201206000818152600f90925291902060028101546331a9108f60e11b845260048401879052919350916001600160a01b0391821691851690636352211e9060240160206040518083038186803b15801561256957600080fd5b505afa15801561257d573d6000803e3d6000fd5b505050506040513d601f19601f820116820180604052508101906125a19190615435565b6001600160a01b0316146126015760405162461bcd60e51b815260206004820152602160248201527f4974656d206973206e6f74206f776e65642062792074686520696d706f7274656044820152601960fa1b6064820152608401610c04565b600581015460ff16151560011461265a5760405162461bcd60e51b815260206004820152601760248201527f4e6f74204c697374656420666f722070757263686173650000000000000000006044820152606401610c04565b6002810154600160a01b900460ff161561272057600c54600282015460038301546040516323b872dd60e01b81526001600160a01b03938416936323b872dd936126ad9333939290911691600401615179565b602060405180830381600087803b1580156126c757600080fd5b505af11580156126db573d6000803e3d6000fd5b505050506040513d601f19601f820116820180604052508101906126ff919061519d565b61271b5760405162461bcd60e51b8152600401610c04906151ba565b612780565b806003015434146127435760405162461bcd60e51b8152600401610c0490615500565b60028101546040516001600160a01b03909116903480156108fc02916000818181858888f1935050505015801561277e573d6000803e3d6000fd5b505b60028101546040516323b872dd60e01b81526001600160a01b03858116926323b872dd926127b8929091169033908990600401615179565b600060405180830381600087803b1580156127d257600080fd5b505af11580156127e6573d6000803e3d6000fd5b5050505060005b6011548110156128a057826011828154811061280b5761280b615238565b9060005260206000200154141561288e576011805461282c90600190615544565b8154811061283c5761283c615238565b90600052602060002001546011828154811061285a5761285a615238565b60009182526020909120015560118054806128775761287761555b565b600190038181906000526020600020016000905590555b806128988161521d565b9150506127ed565b506002810180546001600160a01b0319163317905560078101805460ff60a01b1916600160a01b17905560006003820155600501805461ffff19169055505050565b6000868152600d60205260409020600101546001600160a01b0316331461294b5760405162461bcd60e51b815260206004820152601a60248201527f4f6e6c79206974656d206f776e65722063616e20726573656c6c0000000000006044820152606401610c04565b600a54341461296c5760405162461bcd60e51b8152600401610c04906153f1565b6000868152600d6020526040902060018101805460ff60a01b1916600160a01b881515021790556002810185905560038101849055600401805461ffff191683151561ff00191617610100831515021763ffff0000191690556129cf60076144f7565b505050505050565b8115806129e45750600083115b612a215760405162461bcd60e51b815260206004820152600e60248201526d1c1c9a58d9481c995c5d5a5c995960921b6044820152606401610c04565b801580612a2e5750600084115b612a705760405162461bcd60e51b81526020600482015260136024820152721c995b9d081c1c9a58d9481c995c5d5a5c9959606a1b6044820152606401610c04565b6040516331a9108f60e11b81526004810187905233906001600160a01b03891690636352211e9060240160206040518083038186803b158015612ab257600080fd5b505afa158015612ac6573d6000803e3d6000fd5b505050506040513d601f19601f82011682018060405250810190612aea9190615435565b6001600160a01b031614612b4a5760405162461bcd60e51b815260206004820152602160248201527f596f7520617265206e6f7420746865206f776e6572206f662074686973204e466044820152601560fa1b6064820152608401610c04565b600a543414612b6b5760405162461bcd60e51b8152600401610c04906153f1565b60405163020604bf60e21b81526004810187905230906001600160a01b0389169063081812fc9060240160206040518083038186803b158015612bad57600080fd5b505afa158015612bc1573d6000803e3d6000fd5b505050506040513d601f19601f82011682018060405250810190612be59190615435565b6001600160a01b031614612c0b5760405162461bcd60e51b8152600401610c0490615571565b60008787604051602001612c209291906154de565b6040516020818303038152906040528051906020012090506011819080600181540180825580915050600190039060005260206000200160009091909190915055604051806101800160405280888152602001896001600160a01b03168152602001336001600160a01b031681526020018715158152602001858152602001868152602001841515815260200183151581526020016000815260200160006001600160a01b0316815260200160001515815260200160001515815250600f60008381526020019081526020016000206000820151816000015560208201518160010160006101000a8154816001600160a01b0302191690836001600160a01b0316021790555060408201518160020160006101000a8154816001600160a01b0302191690836001600160a01b0316021790555060608201518160020160146101000a81548160ff0219169083151502179055506080820151816003015560a0820151816004015560c08201518160050160006101000a81548160ff02191690831515021790555060e08201518160050160016101000a81548160ff02191690831515021790555061010082015181600601556101208201518160070160006101000a8154816001600160a01b0302191690836001600160a01b031602179055506101408201518160070160146101000a81548160ff0219169083151502179055506101608201518160070160156101000a81548160ff0219169083151502179055509050505050505050505050565b606060018054610b0c906150fd565b61162233838361454e565b600b546001600160a01b03163314612ed75760405162461bcd60e51b815260206004820152602b60248201527f4f6e6c7920636f6e7472616374206f776e65722063616e20706572666f726d2060448201526a3a3434b99030b1ba34b7b760a91b6064820152608401610c04565b600a55565b612ee63383613d13565b612f025760405162461bcd60e51b8152600401610c049061524e565b612f0e8484848461461d565b50505050565b6000818152600d602052604090206001810154600282015460048301546001600160a01b039092169291610100900460ff16612f865760405162461bcd60e51b81526020600482015260116024820152704974656d206e6f7420666f722073616c6560781b6044820152606401610c04565b6001820154600160a01b900460ff16612fa157803414612fa4565b34155b612fe45760405162461bcd60e51b8152602060048201526011602482015270125b98dbdc9c9958dd081c185e5b595b9d607a1b6044820152606401610c04565b6001820154600160a01b900460ff16156130d657600c5460018301546040516323b872dd60e01b81526001600160a01b03928316926323b872dd92613033923392909116908690600401615179565b602060405180830381600087803b15801561304d57600080fd5b505af1158015613061573d6000803e3d6000fd5b505050506040513d601f19601f82011682018060405250810190613085919061519d565b6130d15760405162461bcd60e51b815260206004820152601760248201527f4661696c656420746f207472616e7366657220574554480000000000000000006044820152606401610c04565b613188565b80341461314b5760405162461bcd60e51b815260206004820152603d60248201527f506c6561736520706179207468652061736b696e6720707269636520696e204d60448201527f4154494320746f20636f6d706c657465207468652070757263686173650000006064820152608401610c04565b60018201546040516001600160a01b03909116903480156108fc02916000818181858888f19350505050158015613186573d6000803e3d6000fd5b505b6001820180546001600160a01b0319163317905560048201805462ffffff1916620100001790556131bd600780546001019055565b612f0e833386613b77565b6060600960008381526020019081526020016000206040516020016131ed91906155ba565b6040516020818303038152906040529050919050565b600082846040516020016132189291906154de565b60408051601f1981840301815291815281516020928301206000818152600f9093529120909150426001600160401b038416116132975760405162461bcd60e51b815260206004820181905260248201527f45787069726174696f6e206d75737420626520696e20746865206675747572656044820152606401610c04565b6007810154600160a81b900460ff16156132e95760405162461bcd60e51b8152602060048201526013602482015272125d195b48185b1c9958591e481c995b9d1959606a1b6044820152606401610c04565b60028101546040516331a9108f60e11b8152600481018790526001600160a01b0391821691861690636352211e9060240160206040518083038186803b15801561333257600080fd5b505afa158015613346573d6000803e3d6000fd5b505050506040513d601f19601f8201168201806040525081019061336a9190615435565b6001600160a01b0316146133905760405162461bcd60e51b8152600401610c0490615138565b6002810154600160a01b900460ff161561345557600c5460028201546004808401546040516323b872dd60e01b81526001600160a01b03948516946323b872dd946133e2943394929091169201615179565b602060405180830381600087803b1580156133fc57600080fd5b505af1158015613410573d6000803e3d6000fd5b505050506040513d601f19601f82011682018060405250810190613434919061519d565b6134505760405162461bcd60e51b8152600401610c04906151ba565b6134b6565b80600401543410156134795760405162461bcd60e51b8152600401610c0490615500565b60028101546040516001600160a01b03909116903480156108fc02916000818181858888f193505050501580156134b4573d6000803e3d6000fd5b505b60028101546040516323b872dd60e01b81526001600160a01b03868116926323b872dd926134ee929091169033908a90600401615179565b600060405180830381600087803b15801561350857600080fd5b505af115801561351c573d6000803e3d6000fd5b5050505060005b6011548110156135d657826011828154811061354157613541615238565b906000526020600020015414156135c4576011805461356290600190615544565b8154811061357257613572615238565b90600052602060002001546011828154811061359057613590615238565b60009182526020909120015560118054806135ad576135ad61555b565b600190038181906000526020600020016000905590555b806135ce8161521d565b915050613523565b5060078101805460ff60a81b193316600161ff0160a01b031990911617600160a81b1790556001600160401b03909216600690920191909155505050565b600086886040516020016136299291906154de565b60408051601f1981840301815291815281516020928301206000818152600f90935291206002810154919250906001600160a01b031633146136b95760405162461bcd60e51b815260206004820152602360248201527f4f6e6c7920746865206f776e65722063616e20726573656c6c2074686520746f60448201526235b2b760e91b6064820152608401610c04565b600a5434146136da5760405162461bcd60e51b8152600401610c04906153f1565b60405163020604bf60e21b8152600481018a905230906001600160a01b038a169063081812fc9060240160206040518083038186803b15801561371c57600080fd5b505afa158015613730573d6000803e3d6000fd5b505050506040513d601f19601f820116820180604052508101906137549190615435565b6001600160a01b03161461377a5760405162461bcd60e51b8152600401610c0490615571565b601180546001810182556000919091527f31ecc21a745e3968a04e9570e4425bc18fa8019c68028196b546d1669c200c680191909155600281018054961515600160a01b0260ff60a01b1990971696909617909555600385019390935560048401919091556005830180549215156101000261ff00199215159290921661ffff1990931692909217179055600701805461ffff60a01b191690555050565b606060008060005b6011548110156138e257600f60006011838154811061384157613841615238565b9060005260206000200154815260200190815260200160002060070160159054906101000a900460ff1680156138bd5750336001600160a01b0316600f60006011848154811061389357613893615238565b600091825260208083209091015483528201929092526040019020600701546001600160a01b0316145b156138d0576138cd600184615205565b92505b806138da8161521d565b915050613820565b506000826001600160401b038111156138fd576138fd614c0c565b60405190808252806020026020018201604052801561393657816020015b6139236147a9565b81526020019060019003908161391b5790505b50905060005b601154811015611a1257600f60006011838154811061395d5761395d615238565b9060005260206000200154815260200190815260200160002060070160159054906101000a900460ff1680156139d95750336001600160a01b0316600f6000601184815481106139af576139af615238565b600091825260208083209091015483528201929092526040019020600701546001600160a01b0316145b15613af7576000600f6000601184815481106139f7576139f7615238565b6000918252602080832090910154835282810193909352604091820190208151610180810183528154815260018201546001600160a01b039081169482019490945260028201548085169382019390935260ff600160a01b9384900481161515606083015260038301546080830152600483015460a08301526005830154808216151560c0840152610100908190048216151560e0840152600684015490830152600783015494851661012083015292840483161515610140820152600160a81b90930490911615156101608301528451909250849086908110613add57613add615238565b6020908102919091010152613af3600185615205565b9350505b80613b018161521d565b91505061393c565b600081815260046020526040902080546001600160a01b0319166001600160a01b0384169081179091558190613b3e82611a1a565b6001600160a01b03167f8c5be1e5ebec7d5bd14f71427d1e84f3dd0314c0f7b2291e5b200ac8c7c3b92560405160405180910390a45050565b826001600160a01b0316613b8a82611a1a565b6001600160a01b031614613bee5760405162461bcd60e51b815260206004820152602560248201527f4552433732313a207472616e736665722066726f6d20696e636f72726563742060448201526437bbb732b960d91b6064820152608401610c04565b6001600160a01b038216613c505760405162461bcd60e51b8152602060048201526024808201527f4552433732313a207472616e7366657220746f20746865207a65726f206164646044820152637265737360e01b6064820152608401610c04565b613c5b600082613b09565b6001600160a01b0383166000908152600360205260408120805460019290613c84908490615544565b90915550506001600160a01b0382166000908152600360205260408120805460019290613cb2908490615205565b909155505060008181526002602052604080822080546001600160a01b0319166001600160a01b0386811691821790925591518493918716917fddf252ad1be2c89b69c2b068fc378daa952ba7f163c4a11628f55a4df523b3ef91a4505050565b6000818152600260205260408120546001600160a01b0316613d8c5760405162461bcd60e51b815260206004820152602c60248201527f4552433732313a206f70657261746f7220717565727920666f72206e6f6e657860448201526b34b9ba32b73a103a37b5b2b760a11b6064820152608401610c04565b6000613d9783611a1a565b9050806001600160a01b0316846001600160a01b03161480613dd25750836001600160a01b0316613dc784610b8f565b6001600160a01b0316145b80610af557506001600160a01b0380821660009081526005602090815260408083209388168352929052205460ff16610af5565b6000818152600d60209081526040808320600e90925290912060048201805463ff0000001916905560018082015490830154613e4f916001600160a01b03908116911685611568565b613e5960086144f7565b60005b601054811015612f0e578360108281548110613e7a57613e7a615238565b90600052602060002001541415613f015760108054613e9b90600190615544565b81548110613eab57613eab615238565b906000526020600020015460108281548110613ec957613ec9615238565b6000918252602090912001556010805480613ee657613ee661555b565b60019003818190600052602060002001600090559055612f0e565b80613f0b8161521d565b915050613e5c565b60008183604051602001613f289291906154de565b60408051808303601f1901815291815281516020928301206000818152600f9093529120600781015491925090600160a81b900460ff16613fab5760405162461bcd60e51b815260206004820152601d60248201527f546f6b656e206973206e6f742063757272656e746c792072656e7465640000006044820152606401610c04565b80600601544210156140095760405162461bcd60e51b815260206004820152602160248201527f52656e74616c20706572696f6420686173206e6f7420657870697265642079656044820152601d60fa1b6064820152608401610c04565b600781015460028201546040516323b872dd60e01b81526001600160a01b03808716936323b872dd93614046939183169216908990600401615179565b600060405180830381600087803b15801561406057600080fd5b505af1158015614074573d6000803e3d6000fd5b50506011805460018101825560009182527f31ecc21a745e3968a04e9570e4425bc18fa8019c68028196b546d1669c200c6801949094555050600781018054600161ff0160a01b0319169055600601555050565b6001600160a01b03821661411e5760405162461bcd60e51b815260206004820181905260248201527f4552433732313a206d696e7420746f20746865207a65726f20616464726573736044820152606401610c04565b6000818152600260205260409020546001600160a01b0316156141835760405162461bcd60e51b815260206004820152601c60248201527f4552433732313a20746f6b656e20616c7265616479206d696e746564000000006044820152606401610c04565b6001600160a01b03821660009081526003602052604081208054600192906141ac908490615205565b909155505060008181526002602052604080822080546001600160a01b0319166001600160a01b03861690811790915590518392907fddf252ad1be2c89b69c2b068fc378daa952ba7f163c4a11628f55a4df523b3ef908290a45050565b3361421487611a1a565b6001600160a01b0316146142745760405162461bcd60e51b815260206004820152602160248201527f4f6e6c7920746865206f776e65722063616e206c6973742074686520746f6b656044820152603760f91b6064820152608401610c04565b8115806142815750600084115b6142be5760405162461bcd60e51b815260206004820152600e60248201526d1c1c9a58d9481c995c5d5a5c995960921b6044820152606401610c04565b8015806142cb5750600083115b61430d5760405162461bcd60e51b81526020600482015260136024820152721c995b9d081c1c9a58d9481c995c5d5a5c9959606a1b6044820152606401610c04565b604051806101200160405280878152602001336001600160a01b0316815260200186151581526020018581526020018481526020018215158152602001831515815260200160001515815260200160001515815250600d60008881526020019081526020016000206000820151816000015560208201518160010160006101000a8154816001600160a01b0302191690836001600160a01b0316021790555060408201518160010160146101000a81548160ff021916908315150217905550606082015181600201556080820151816003015560a08201518160040160006101000a81548160ff02191690831515021790555060c08201518160040160016101000a81548160ff02191690831515021790555060e08201518160040160026101000a81548160ff0219169083151502179055506101008201518160040160036101000a81548160ff021916908315150217905550905050857f4542fed37775d324b1fc0aef5b8c53703e366c199b20ab4d6c75e2e8bf3fd8dc3387878786886000806040516144e79897969594939291906001600160a01b0398909816885295151560208801526040870194909452606086019290925215156080850152151560a0840152151560c0830152151560e08201526101000190565b60405180910390a2505050505050565b8054806145465760405162461bcd60e51b815260206004820152601b60248201527f436f756e7465723a2064656372656d656e74206f766572666c6f7700000000006044820152606401610c04565b600019019055565b816001600160a01b0316836001600160a01b031614156145b05760405162461bcd60e51b815260206004820152601960248201527f4552433732313a20617070726f766520746f2063616c6c6572000000000000006044820152606401610c04565b6001600160a01b03838116600081815260056020908152604080832094871680845294825291829020805460ff191686151590811790915591519182527f17307eab39ab6107e8899845ad3d59bd9653f200f220920489ca2b5937696c31910160405180910390a3505050565b614628848484613b77565b61463484848484614650565b612f0e5760405162461bcd60e51b8152600401610c0490615656565b60006001600160a01b0384163b1561475257604051630a85bd0160e11b81526001600160a01b0385169063150b7a02906146949033908990889088906004016156a8565b602060405180830381600087803b1580156146ae57600080fd5b505af19250505080156146de575060408051601f3d908101601f191682019092526146db918101906156e5565b60015b614738573d80801561470c576040519150601f19603f3d011682016040523d82523d6000602084013e614711565b606091505b5080516147305760405162461bcd60e51b8152600401610c0490615656565b805181602001fd5b6001600160e01b031916630a85bd0160e11b149050610af5565b506001949350505050565b6040805161012081018252600080825260208201819052918101829052606081018290526080810182905260a0810182905260c0810182905260e0810182905261010081019190915290565b6040805161018081018252600080825260208201819052918101829052606081018290526080810182905260a0810182905260c0810182905260e0810182905261010081018290526101208101829052610140810182905261016081019190915290565b828054614819906150fd565b90600052602060002090601f01602090048101928261483b5760008555614881565b82601f1061485457805160ff1916838001178555614881565b82800160010185558215614881579182015b82811115614881578251825591602001919060010190614866565b5061488d929150614891565b5090565b5b8082111561488d5760008155600101614892565b6000602082840312156148b857600080fd5b5035919050565b6001600160e01b0319811681146148d557600080fd5b50565b6000602082840312156148ea57600080fd5b8135611e4c816148bf565b6001600160a01b03811681146148d557600080fd5b6000806040838503121561491d57600080fd5b8235614928816148f5565b946020939093013593505050565b60005b83811015614951578181015183820152602001614939565b83811115612f0e5750506000910152565b6000815180845261497a816020860160208601614936565b601f01601f19169290920160200192915050565b602081526000611e4c6020830184614962565b80356001600160401b03811681146149b857600080fd5b919050565b600080604083850312156149d057600080fd5b823591506149e0602084016149a1565b90509250929050565b602080825282518282018190526000919060409081850190868401855b82811015614a8757815180518552868101516001600160a01b03168786015285810151151586860152606080820151908601526080808201519086015260a08082015115159086015260c08082015115159086015260e080820151151590860152610100908101511515908501526101209093019290850190600101614a06565b5091979650505050505050565b600080600060608486031215614aa957600080fd5b8335614ab4816148f5565b92506020840135614ac4816148f5565b929592945050506040919091013590565b60008060208385031215614ae857600080fd5b82356001600160401b0380821115614aff57600080fd5b818501915085601f830112614b1357600080fd5b813581811115614b2257600080fd5b866020828501011115614b3457600080fd5b60209290920196919550909350505050565b602080825282518282018190526000919060409081850190868401855b82811015614a8757815180518552868101516001600160a01b0390811688870152868201518116878701526060808301511515908701526080808301519087015260a0808301519087015260c08083015115159087015260e0808301511515908701526101008083015190870152610120808301519091169086015261014080820151151590860152610160908101511515908501526101809093019290850190600101614b63565b634e487b7160e01b600052604160045260246000fd5b604051601f8201601f191681016001600160401b0381118282101715614c4a57614c4a614c0c565b604052919050565b60006001600160401b03821115614c6b57614c6b614c0c565b50601f01601f191660200190565b6000614c8c614c8784614c52565b614c22565b9050828152838383011115614ca057600080fd5b828260208301376000602084830101529392505050565b80151581146148d557600080fd5b60008060008060008060c08789031215614cde57600080fd5b86356001600160401b03811115614cf457600080fd5b8701601f81018913614d0557600080fd5b614d1489823560208401614c79565b9650506020870135614d2581614cb7565b945060408701359350606087013592506080870135614d4381614cb7565b915060a0870135614d5381614cb7565b809150509295509295509295565b602080825282518282018190526000919060409081850190868401855b82811015614a8757815180518552868101516001600160a01b039081168887015286820151151587870152606080830151908701526080808301519087015260a08083015115159087015260c08083015115159087015260e080830151151590870152610100808301511515908701526101208083015190911690860152610140908101516001600160401b0316908501526101609093019290850190600101614d7e565b60008060408385031215614e3657600080fd5b823591506020830135614e48816148f5565b809150509250929050565b8215158152604060208201526000610af56040830184614962565b600060208284031215614e8057600080fd5b8135611e4c816148f5565b60008060008060008060c08789031215614ea457600080fd5b863595506020870135614d2581614cb7565b600080600080600080600060e0888a031215614ed157600080fd5b8735614edc816148f5565b9650602088013595506040880135614ef381614cb7565b9450606088013593506080880135925060a0880135614f1181614cb7565b915060c0880135614f2181614cb7565b8091505092959891949750929550565b60008060408385031215614f4457600080fd5b8235614f4f816148f5565b91506020830135614e4881614cb7565b60008060008060808587031215614f7557600080fd5b8435614f80816148f5565b93506020850135614f90816148f5565b92506040850135915060608501356001600160401b03811115614fb257600080fd5b8501601f81018713614fc357600080fd5b614fd287823560208401614c79565b91505092959194509250565b600080600060608486031215614ff357600080fd5b833592506020840135615005816148f5565b9150615013604085016149a1565b90509250925092565b600080600080600080600060e0888a03121561503757600080fd5b873596506020880135615049816148f5565b95506040880135614ef381614cb7565b6000806040838503121561506c57600080fd5b8235615077816148f5565b91506020830135614e48816148f5565b60006020828403121561509957600080fd5b81516001600160401b038111156150af57600080fd5b8201601f810184136150c057600080fd5b80516150ce614c8782614c52565b8181528560208385010111156150e357600080fd5b6150f4826020830160208601614936565b95945050505050565b600181811c9082168061511157607f821691505b6020821081141561513257634e487b7160e01b600052602260045260246000fd5b50919050565b60208082526021908201527f4974656d206973206e6f74206f776e65642062792074686520696d706f7274656040820152603960f91b606082015260800190565b6001600160a01b039384168152919092166020820152604081019190915260600190565b6000602082840312156151af57600080fd5b8151611e4c81614cb7565b6020808252818101527f4661696c656420746f207472616e73666572205745544820666f722072656e74604082015260600190565b634e487b7160e01b600052601160045260246000fd5b60008219821115615218576152186151ef565b500190565b6000600019821415615231576152316151ef565b5060010190565b634e487b7160e01b600052603260045260246000fd5b60208082526031908201527f4552433732313a207472616e736665722063616c6c6572206973206e6f74206f6040820152701ddb995c881b9bdc88185c1c1c9bdd9959607a1b606082015260800190565b60006001600160401b038211156152b8576152b8614c0c565b5060051b60200190565b600082601f8301126152d357600080fd5b813560206152e3614c878361529f565b82815260059290921b8401810191818101908684111561530257600080fd5b8286015b8481101561531d5780358352918301918301615306565b509695505050505050565b6000806000806080858703121561533e57600080fd5b84356001600160401b038082111561535557600080fd5b818701915087601f83011261536957600080fd5b81356020615379614c878361529f565b82815260059290921b8401810191818101908b84111561539857600080fd5b948201945b838610156153b65785358252948201949082019061539d565b98505088013595505060408701359150808211156153d357600080fd5b506153e0878288016152c2565b949793965093946060013593505050565b60208082526024908201527f5072696365206d75737420626520657175616c20746f206c697374696e6720706040820152637269636560e01b606082015260800190565b60006020828403121561544757600080fd5b8151611e4c816148f5565b6080808252855190820181905260009060209060a0840190828901845b8281101561548b5781518452928401929084019060010161546f565b505050838201879052838103604085015285518082528683019183019060005b818110156154c7578351835292840192918401916001016154ab565b505080935050505082606083015295945050505050565b60609290921b6bffffffffffffffffffffffff19168252601482015260340190565b60208082526024908201527f496e73756666696369656e742066756e647320746f2072656e7420746865207460408201526337b5b2b760e11b606082015260800190565b600082821015615556576155566151ef565b500390565b634e487b7160e01b600052603160045260246000fd5b60208082526029908201527f436f6e7472616374206d75737420626520617070726f76656420746f207472616040820152681b9cd9995c8813919560ba1b606082015260800190565b600080835481600182811c9150808316806155d657607f831692505b60208084108214156155f657634e487b7160e01b86526022600452602486fd5b81801561560a576001811461561b57615648565b60ff19861689528489019650615648565b60008a81526020902060005b868110156156405781548b820152908501908301615627565b505084890196505b509498975050505050505050565b60208082526032908201527f4552433732313a207472616e7366657220746f206e6f6e20455243373231526560408201527131b2b4bb32b91034b6b83632b6b2b73a32b960711b606082015260800190565b6001600160a01b03858116825284166020820152604081018390526080606082018190526000906156db90830184614962565b9695505050505050565b6000602082840312156156f757600080fd5b8151611e4c816148bf56fea26469706673582212204f835e8ec05259a486b95df658c80d74e782651acf51623276d1e7c18decefbe64736f6c63430008090033",
  "linkReferences": {},
  "deployedLinkReferences": {}
}