{
  "_format": "hh-sol-artifact-1",
  "contractName": "RentableNFTMarketplace",
  "sourceName": "contracts/RentableNFTMarketplace.sol",
  "abi": [
    {
      "inputs": [],
      "stateMutability": "nonpayable",
      "type": "constructor"
    },
    {
      "anonymous": false,
      "inputs": [
        {
          "indexed": true,
          "internalType": "address",
          "name": "owner",
          "type": "address"
        },
        {
          "indexed": true,
          "internalType": "address",
          "name": "approved",
          "type": "address"
        },
        {
          "indexed": true,
          "internalType": "uint256",
          "name": "tokenId",
          "type": "uint256"
        }
      ],
      "name": "Approval",
      "type": "event"
    },
    {
      "anonymous": false,
      "inputs": [
        {
          "indexed": true,
          "internalType": "address",
          "name": "owner",
          "type": "address"
        },
        {
          "indexed": true,
          "internalType": "address",
          "name": "operator",
          "type": "address"
        },
        {
          "indexed": false,
          "internalType": "bool",
          "name": "approved",
          "type": "bool"
        }
      ],
      "name": "ApprovalForAll",
      "type": "event"
    },
    {
      "anonymous": false,
      "inputs": [
        {
          "indexed": true,
          "internalType": "uint256",
          "name": "tokenId",
          "type": "uint256"
        },
        {
          "indexed": false,
          "internalType": "address",
          "name": "seller",
          "type": "address"
        },
        {
          "indexed": false,
          "internalType": "address",
          "name": "owner",
          "type": "address"
        },
        {
          "indexed": false,
          "internalType": "uint256",
          "name": "price",
          "type": "uint256"
        },
        {
          "indexed": false,
          "internalType": "uint256",
          "name": "rentPrice",
          "type": "uint256"
        },
        {
          "indexed": false,
          "internalType": "bool",
          "name": "originalForRent",
          "type": "bool"
        },
        {
          "indexed": false,
          "internalType": "bool",
          "name": "originalForSale",
          "type": "bool"
        },
        {
          "indexed": false,
          "internalType": "uint64",
          "name": "expires",
          "type": "uint64"
        },
        {
          "indexed": false,
          "internalType": "bool",
          "name": "forRent",
          "type": "bool"
        },
        {
          "indexed": false,
          "internalType": "bool",
          "name": "forSale",
          "type": "bool"
        },
        {
          "indexed": false,
          "internalType": "bool",
          "name": "sold",
          "type": "bool"
        },
        {
          "indexed": false,
          "internalType": "bool",
          "name": "rented",
          "type": "bool"
        }
      ],
      "name": "MarketItemCreated",
      "type": "event"
    },
    {
      "anonymous": false,
      "inputs": [
        {
          "indexed": true,
          "internalType": "address",
          "name": "from",
          "type": "address"
        },
        {
          "indexed": true,
          "internalType": "address",
          "name": "to",
          "type": "address"
        },
        {
          "indexed": true,
          "internalType": "uint256",
          "name": "tokenId",
          "type": "uint256"
        }
      ],
      "name": "Transfer",
      "type": "event"
    },
    {
      "anonymous": false,
      "inputs": [
        {
          "indexed": true,
          "internalType": "uint256",
          "name": "tokenId",
          "type": "uint256"
        },
        {
          "indexed": true,
          "internalType": "address",
          "name": "user",
          "type": "address"
        },
        {
          "indexed": false,
          "internalType": "uint64",
          "name": "expires",
          "type": "uint64"
        }
      ],
      "name": "UpdateUser",
      "type": "event"
    },
    {
      "anonymous": false,
      "inputs": [
        {
          "indexed": true,
          "internalType": "uint256",
          "name": "tokenId",
          "type": "uint256"
        },
        {
          "indexed": true,
          "internalType": "address",
          "name": "renter",
          "type": "address"
        },
        {
          "indexed": false,
          "internalType": "uint64",
          "name": "expires",
          "type": "uint64"
        }
      ],
      "name": "rentedNFT",
      "type": "event"
    },
    {
      "inputs": [],
      "name": "_itemsSold",
      "outputs": [
        {
          "internalType": "uint256",
          "name": "_value",
          "type": "uint256"
        }
      ],
      "stateMutability": "view",
      "type": "function"
    },
    {
      "inputs": [],
      "name": "_tokenIds",
      "outputs": [
        {
          "internalType": "uint256",
          "name": "_value",
          "type": "uint256"
        }
      ],
      "stateMutability": "view",
      "type": "function"
    },
    {
      "inputs": [
        {
          "internalType": "address",
          "name": "to",
          "type": "address"
        },
        {
          "internalType": "uint256",
          "name": "tokenId",
          "type": "uint256"
        }
      ],
      "name": "approve",
      "outputs": [],
      "stateMutability": "nonpayable",
      "type": "function"
    },
    {
      "inputs": [
        {
          "internalType": "address",
          "name": "owner",
          "type": "address"
        }
      ],
      "name": "balanceOf",
      "outputs": [
        {
          "internalType": "uint256",
          "name": "",
          "type": "uint256"
        }
      ],
      "stateMutability": "view",
      "type": "function"
    },
    {
      "inputs": [
        {
          "internalType": "uint256",
          "name": "tokenId",
          "type": "uint256"
        }
      ],
      "name": "createMarketSale",
      "outputs": [],
      "stateMutability": "payable",
      "type": "function"
    },
    {
      "inputs": [
        {
          "internalType": "string",
          "name": "_tokenURI",
          "type": "string"
        },
        {
          "internalType": "uint256",
          "name": "price",
          "type": "uint256"
        },
        {
          "internalType": "uint256",
          "name": "rent_price",
          "type": "uint256"
        },
        {
          "internalType": "bool",
          "name": "forSale",
          "type": "bool"
        },
        {
          "internalType": "bool",
          "name": "forRent",
          "type": "bool"
        },
        {
          "internalType": "bool",
          "name": "member",
          "type": "bool"
        }
      ],
      "name": "createToken",
      "outputs": [],
      "stateMutability": "payable",
      "type": "function"
    },
    {
      "inputs": [],
      "name": "fetchMarketItems",
      "outputs": [
        {
          "components": [
            {
              "internalType": "uint256",
              "name": "tokenId",
              "type": "uint256"
            },
            {
              "internalType": "address payable",
              "name": "seller",
              "type": "address"
            },
            {
              "internalType": "address payable",
              "name": "owner",
              "type": "address"
            },
            {
              "internalType": "uint256",
              "name": "price",
              "type": "uint256"
            },
            {
              "internalType": "uint256",
              "name": "rentPrice",
              "type": "uint256"
            },
            {
              "internalType": "bool",
              "name": "originalForRent",
              "type": "bool"
            },
            {
              "internalType": "bool",
              "name": "originalForSale",
              "type": "bool"
            },
            {
              "internalType": "uint64",
              "name": "expires",
              "type": "uint64"
            },
            {
              "internalType": "bool",
              "name": "forRent",
              "type": "bool"
            },
            {
              "internalType": "bool",
              "name": "forSale",
              "type": "bool"
            },
            {
              "internalType": "bool",
              "name": "sold",
              "type": "bool"
            },
            {
              "internalType": "bool",
              "name": "rented",
              "type": "bool"
            }
          ],
          "internalType": "struct RentableNFTMarketplace.MarketItem[]",
          "name": "",
          "type": "tuple[]"
        }
      ],
      "stateMutability": "view",
      "type": "function"
    },
    {
      "inputs": [],
      "name": "fetchMyNFTs",
      "outputs": [
        {
          "components": [
            {
              "internalType": "uint256",
              "name": "tokenId",
              "type": "uint256"
            },
            {
              "internalType": "address payable",
              "name": "seller",
              "type": "address"
            },
            {
              "internalType": "address payable",
              "name": "owner",
              "type": "address"
            },
            {
              "internalType": "uint256",
              "name": "price",
              "type": "uint256"
            },
            {
              "internalType": "uint256",
              "name": "rentPrice",
              "type": "uint256"
            },
            {
              "internalType": "bool",
              "name": "originalForRent",
              "type": "bool"
            },
            {
              "internalType": "bool",
              "name": "originalForSale",
              "type": "bool"
            },
            {
              "internalType": "uint64",
              "name": "expires",
              "type": "uint64"
            },
            {
              "internalType": "bool",
              "name": "forRent",
              "type": "bool"
            },
            {
              "internalType": "bool",
              "name": "forSale",
              "type": "bool"
            },
            {
              "internalType": "bool",
              "name": "sold",
              "type": "bool"
            },
            {
              "internalType": "bool",
              "name": "rented",
              "type": "bool"
            }
          ],
          "internalType": "struct RentableNFTMarketplace.MarketItem[]",
          "name": "",
          "type": "tuple[]"
        }
      ],
      "stateMutability": "view",
      "type": "function"
    },
    {
      "inputs": [],
      "name": "fetchMyRentedNFTs",
      "outputs": [
        {
          "components": [
            {
              "internalType": "uint256",
              "name": "tokenId",
              "type": "uint256"
            },
            {
              "internalType": "address payable",
              "name": "seller",
              "type": "address"
            },
            {
              "internalType": "address payable",
              "name": "owner",
              "type": "address"
            },
            {
              "internalType": "uint256",
              "name": "price",
              "type": "uint256"
            },
            {
              "internalType": "uint256",
              "name": "rentPrice",
              "type": "uint256"
            },
            {
              "internalType": "bool",
              "name": "originalForRent",
              "type": "bool"
            },
            {
              "internalType": "bool",
              "name": "originalForSale",
              "type": "bool"
            },
            {
              "internalType": "uint64",
              "name": "expires",
              "type": "uint64"
            },
            {
              "internalType": "bool",
              "name": "forRent",
              "type": "bool"
            },
            {
              "internalType": "bool",
              "name": "forSale",
              "type": "bool"
            },
            {
              "internalType": "bool",
              "name": "sold",
              "type": "bool"
            },
            {
              "internalType": "bool",
              "name": "rented",
              "type": "bool"
            }
          ],
          "internalType": "struct RentableNFTMarketplace.MarketItem[]",
          "name": "",
          "type": "tuple[]"
        }
      ],
      "stateMutability": "view",
      "type": "function"
    },
    {
      "inputs": [
        {
          "internalType": "uint256",
          "name": "tokenId",
          "type": "uint256"
        }
      ],
      "name": "getApproved",
      "outputs": [
        {
          "internalType": "address",
          "name": "",
          "type": "address"
        }
      ],
      "stateMutability": "view",
      "type": "function"
    },
    {
      "inputs": [
        {
          "internalType": "bytes32",
          "name": "_queryId",
          "type": "bytes32"
        },
        {
          "internalType": "uint256",
          "name": "_timestamp",
          "type": "uint256"
        }
      ],
      "name": "getDataAfter",
      "outputs": [
        {
          "internalType": "bytes",
          "name": "_value",
          "type": "bytes"
        },
        {
          "internalType": "uint256",
          "name": "_timestampRetrieved",
          "type": "uint256"
        }
      ],
      "stateMutability": "view",
      "type": "function"
    },
    {
      "inputs": [
        {
          "internalType": "bytes32",
          "name": "_queryId",
          "type": "bytes32"
        },
        {
          "internalType": "uint256",
          "name": "_timestamp",
          "type": "uint256"
        }
      ],
      "name": "getDataBefore",
      "outputs": [
        {
          "internalType": "bytes",
          "name": "_value",
          "type": "bytes"
        },
        {
          "internalType": "uint256",
          "name": "_timestampRetrieved",
          "type": "uint256"
        }
      ],
      "stateMutability": "view",
      "type": "function"
    },
    {
      "inputs": [
        {
          "internalType": "bytes32",
          "name": "_queryId",
          "type": "bytes32"
        },
        {
          "internalType": "uint256",
          "name": "_timestamp",
          "type": "uint256"
        }
      ],
      "name": "getIndexForDataAfter",
      "outputs": [
        {
          "internalType": "bool",
          "name": "_found",
          "type": "bool"
        },
        {
          "internalType": "uint256",
          "name": "_index",
          "type": "uint256"
        }
      ],
      "stateMutability": "view",
      "type": "function"
    },
    {
      "inputs": [
        {
          "internalType": "bytes32",
          "name": "_queryId",
          "type": "bytes32"
        },
        {
          "internalType": "uint256",
          "name": "_timestamp",
          "type": "uint256"
        }
      ],
      "name": "getIndexForDataBefore",
      "outputs": [
        {
          "internalType": "bool",
          "name": "_found",
          "type": "bool"
        },
        {
          "internalType": "uint256",
          "name": "_index",
          "type": "uint256"
        }
      ],
      "stateMutability": "view",
      "type": "function"
    },
    {
      "inputs": [],
      "name": "getListingPrice",
      "outputs": [
        {
          "internalType": "uint256",
          "name": "",
          "type": "uint256"
        }
      ],
      "stateMutability": "view",
      "type": "function"
    },
    {
      "inputs": [
        {
          "internalType": "bytes32",
          "name": "_queryId",
          "type": "bytes32"
        },
        {
          "internalType": "uint256",
          "name": "_timestamp",
          "type": "uint256"
        },
        {
          "internalType": "uint256",
          "name": "_maxAge",
          "type": "uint256"
        },
        {
          "internalType": "uint256",
          "name": "_maxCount",
          "type": "uint256"
        }
      ],
      "name": "getMultipleValuesBefore",
      "outputs": [
        {
          "internalType": "bytes[]",
          "name": "_values",
          "type": "bytes[]"
        },
        {
          "internalType": "uint256[]",
          "name": "_timestamps",
          "type": "uint256[]"
        }
      ],
      "stateMutability": "view",
      "type": "function"
    },
    {
      "inputs": [
        {
          "internalType": "bytes32",
          "name": "_queryId",
          "type": "bytes32"
        }
      ],
      "name": "getNewValueCountbyQueryId",
      "outputs": [
        {
          "internalType": "uint256",
          "name": "",
          "type": "uint256"
        }
      ],
      "stateMutability": "view",
      "type": "function"
    },
    {
      "inputs": [
        {
          "internalType": "bytes32",
          "name": "_queryId",
          "type": "bytes32"
        },
        {
          "internalType": "uint256",
          "name": "_timestamp",
          "type": "uint256"
        }
      ],
      "name": "getReporterByTimestamp",
      "outputs": [
        {
          "internalType": "address",
          "name": "",
          "type": "address"
        }
      ],
      "stateMutability": "view",
      "type": "function"
    },
    {
      "inputs": [
        {
          "internalType": "bytes32",
          "name": "_queryId",
          "type": "bytes32"
        },
        {
          "internalType": "uint256",
          "name": "_index",
          "type": "uint256"
        }
      ],
      "name": "getTimestampbyQueryIdandIndex",
      "outputs": [
        {
          "internalType": "uint256",
          "name": "",
          "type": "uint256"
        }
      ],
      "stateMutability": "view",
      "type": "function"
    },
    {
      "inputs": [
        {
          "internalType": "uint256",
          "name": "tokenId",
          "type": "uint256"
        }
      ],
      "name": "getUserOf",
      "outputs": [
        {
          "internalType": "address",
          "name": "",
          "type": "address"
        }
      ],
      "stateMutability": "view",
      "type": "function"
    },
    {
      "inputs": [],
      "name": "idMappingContract",
      "outputs": [
        {
          "internalType": "contract IMappingContract",
          "name": "",
          "type": "address"
        }
      ],
      "stateMutability": "view",
      "type": "function"
    },
    {
      "inputs": [
        {
          "internalType": "uint256",
          "name": "",
          "type": "uint256"
        }
      ],
      "name": "idToMarketItem",
      "outputs": [
        {
          "internalType": "uint256",
          "name": "tokenId",
          "type": "uint256"
        },
        {
          "internalType": "address payable",
          "name": "seller",
          "type": "address"
        },
        {
          "internalType": "address payable",
          "name": "owner",
          "type": "address"
        },
        {
          "internalType": "uint256",
          "name": "price",
          "type": "uint256"
        },
        {
          "internalType": "uint256",
          "name": "rentPrice",
          "type": "uint256"
        },
        {
          "internalType": "bool",
          "name": "originalForRent",
          "type": "bool"
        },
        {
          "internalType": "bool",
          "name": "originalForSale",
          "type": "bool"
        },
        {
          "internalType": "uint64",
          "name": "expires",
          "type": "uint64"
        },
        {
          "internalType": "bool",
          "name": "forRent",
          "type": "bool"
        },
        {
          "internalType": "bool",
          "name": "forSale",
          "type": "bool"
        },
        {
          "internalType": "bool",
          "name": "sold",
          "type": "bool"
        },
        {
          "internalType": "bool",
          "name": "rented",
          "type": "bool"
        }
      ],
      "stateMutability": "view",
      "type": "function"
    },
    {
      "inputs": [
        {
          "internalType": "address",
          "name": "owner",
          "type": "address"
        },
        {
          "internalType": "address",
          "name": "operator",
          "type": "address"
        }
      ],
      "name": "isApprovedForAll",
      "outputs": [
        {
          "internalType": "bool",
          "name": "",
          "type": "bool"
        }
      ],
      "stateMutability": "view",
      "type": "function"
    },
    {
      "inputs": [
        {
          "internalType": "bytes32",
          "name": "_queryId",
          "type": "bytes32"
        },
        {
          "internalType": "uint256",
          "name": "_timestamp",
          "type": "uint256"
        }
      ],
      "name": "isInDispute",
      "outputs": [
        {
          "internalType": "bool",
          "name": "",
          "type": "bool"
        }
      ],
      "stateMutability": "view",
      "type": "function"
    },
    {
      "inputs": [],
      "name": "name",
      "outputs": [
        {
          "internalType": "string",
          "name": "",
          "type": "string"
        }
      ],
      "stateMutability": "view",
      "type": "function"
    },
    {
      "inputs": [],
      "name": "owner",
      "outputs": [
        {
          "internalType": "address payable",
          "name": "",
          "type": "address"
        }
      ],
      "stateMutability": "view",
      "type": "function"
    },
    {
      "inputs": [
        {
          "internalType": "uint256",
          "name": "tokenId",
          "type": "uint256"
        }
      ],
      "name": "ownerOf",
      "outputs": [
        {
          "internalType": "address",
          "name": "",
          "type": "address"
        }
      ],
      "stateMutability": "view",
      "type": "function"
    },
    {
      "inputs": [
        {
          "internalType": "uint256",
          "name": "_tokenId",
          "type": "uint256"
        },
        {
          "internalType": "uint64",
          "name": "_expires",
          "type": "uint64"
        }
      ],
      "name": "rentOutToken",
      "outputs": [],
      "stateMutability": "payable",
      "type": "function"
    },
    {
      "inputs": [
        {
          "internalType": "uint256",
          "name": "tokenId",
          "type": "uint256"
        },
        {
          "internalType": "uint256",
          "name": "price",
          "type": "uint256"
        },
        {
          "internalType": "uint256",
          "name": "rentPrice",
          "type": "uint256"
        },
        {
          "internalType": "bool",
          "name": "forRent",
          "type": "bool"
        },
        {
          "internalType": "bool",
          "name": "forSale",
          "type": "bool"
        },
        {
          "internalType": "bool",
          "name": "member",
          "type": "bool"
        }
      ],
      "name": "resellToken",
      "outputs": [],
      "stateMutability": "payable",
      "type": "function"
    },
    {
      "inputs": [
        {
          "internalType": "bytes32",
          "name": "_queryId",
          "type": "bytes32"
        },
        {
          "internalType": "uint256",
          "name": "_timestamp",
          "type": "uint256"
        }
      ],
      "name": "retrieveData",
      "outputs": [
        {
          "internalType": "bytes",
          "name": "",
          "type": "bytes"
        }
      ],
      "stateMutability": "view",
      "type": "function"
    },
    {
      "inputs": [
        {
          "internalType": "uint256",
          "name": "_tokenId",
          "type": "uint256"
        }
      ],
      "name": "returnToken",
      "outputs": [],
      "stateMutability": "payable",
      "type": "function"
    },
    {
      "inputs": [
        {
          "internalType": "address",
          "name": "from",
          "type": "address"
        },
        {
          "internalType": "address",
          "name": "to",
          "type": "address"
        },
        {
          "internalType": "uint256",
          "name": "tokenId",
          "type": "uint256"
        }
      ],
      "name": "safeTransferFrom",
      "outputs": [],
      "stateMutability": "nonpayable",
      "type": "function"
    },
    {
      "inputs": [
        {
          "internalType": "address",
          "name": "from",
          "type": "address"
        },
        {
          "internalType": "address",
          "name": "to",
          "type": "address"
        },
        {
          "internalType": "uint256",
          "name": "tokenId",
          "type": "uint256"
        },
        {
          "internalType": "bytes",
          "name": "_data",
          "type": "bytes"
        }
      ],
      "name": "safeTransferFrom",
      "outputs": [],
      "stateMutability": "nonpayable",
      "type": "function"
    },
    {
      "inputs": [
        {
          "internalType": "address",
          "name": "operator",
          "type": "address"
        },
        {
          "internalType": "bool",
          "name": "approved",
          "type": "bool"
        }
      ],
      "name": "setApprovalForAll",
      "outputs": [],
      "stateMutability": "nonpayable",
      "type": "function"
    },
    {
      "inputs": [
        {
          "internalType": "address",
          "name": "_addy",
          "type": "address"
        }
      ],
      "name": "setIdMappingContract",
      "outputs": [],
      "stateMutability": "nonpayable",
      "type": "function"
    },
    {
      "inputs": [
        {
          "internalType": "uint256",
          "name": "tokenId",
          "type": "uint256"
        },
        {
          "internalType": "address",
          "name": "user",
          "type": "address"
        },
        {
          "internalType": "uint64",
          "name": "expires",
          "type": "uint64"
        }
      ],
      "name": "setUser",
      "outputs": [],
      "stateMutability": "nonpayable",
      "type": "function"
    },
    {
      "inputs": [
        {
          "internalType": "bytes4",
          "name": "interfaceId",
          "type": "bytes4"
        }
      ],
      "name": "supportsInterface",
      "outputs": [
        {
          "internalType": "bool",
          "name": "",
          "type": "bool"
        }
      ],
      "stateMutability": "view",
      "type": "function"
    },
    {
      "inputs": [],
      "name": "symbol",
      "outputs": [
        {
          "internalType": "string",
          "name": "",
          "type": "string"
        }
      ],
      "stateMutability": "view",
      "type": "function"
    },
    {
      "inputs": [],
      "name": "tellor",
      "outputs": [
        {
          "internalType": "contract ITellor",
          "name": "",
          "type": "address"
        }
      ],
      "stateMutability": "view",
      "type": "function"
    },
    {
      "inputs": [
        {
          "internalType": "uint256",
          "name": "_tokenId",
          "type": "uint256"
        }
      ],
      "name": "tokenURI",
      "outputs": [
        {
          "internalType": "string",
          "name": "",
          "type": "string"
        }
      ],
      "stateMutability": "view",
      "type": "function"
    },
    {
      "inputs": [
        {
          "internalType": "uint256",
          "name": "",
          "type": "uint256"
        }
      ],
      "name": "tokenURIs",
      "outputs": [
        {
          "internalType": "string",
          "name": "",
          "type": "string"
        }
      ],
      "stateMutability": "view",
      "type": "function"
    },
    {
      "inputs": [
        {
          "internalType": "address",
          "name": "from",
          "type": "address"
        },
        {
          "internalType": "address",
          "name": "to",
          "type": "address"
        },
        {
          "internalType": "uint256",
          "name": "tokenId",
          "type": "uint256"
        }
      ],
      "name": "transferFrom",
      "outputs": [],
      "stateMutability": "nonpayable",
      "type": "function"
    },
    {
      "inputs": [
        {
          "internalType": "uint256",
          "name": "_listingPrice",
          "type": "uint256"
        }
      ],
      "name": "updateListingPrice",
      "outputs": [],
      "stateMutability": "payable",
      "type": "function"
    },
    {
      "inputs": [
        {
          "internalType": "uint256",
          "name": "_tokenId",
          "type": "uint256"
        },
        {
          "internalType": "uint256",
          "name": "price",
          "type": "uint256"
        }
      ],
      "name": "updatePrice",
      "outputs": [],
      "stateMutability": "nonpayable",
      "type": "function"
    },
    {
      "inputs": [
        {
          "internalType": "uint256",
          "name": "_tokenId",
          "type": "uint256"
        },
        {
          "internalType": "uint256",
          "name": "rent_price",
          "type": "uint256"
        }
      ],
      "name": "updateRentPrice",
      "outputs": [],
      "stateMutability": "nonpayable",
      "type": "function"
    },
    {
      "inputs": [
        {
          "internalType": "uint256",
          "name": "tokenId",
          "type": "uint256"
        }
      ],
      "name": "userExpires",
      "outputs": [
        {
          "internalType": "uint256",
          "name": "",
          "type": "uint256"
        }
      ],
      "stateMutability": "view",
      "type": "function"
    },
    {
      "inputs": [
        {
          "internalType": "uint256",
          "name": "tokenId",
          "type": "uint256"
        }
      ],
      "name": "userOf",
      "outputs": [
        {
          "internalType": "address",
          "name": "",
          "type": "address"
        }
      ],
      "stateMutability": "view",
      "type": "function"
    },
    {
      "inputs": [
        {
          "internalType": "bytes32",
          "name": "_id",
          "type": "bytes32"
        }
      ],
      "name": "valueFor",
      "outputs": [
        {
          "internalType": "int256",
          "name": "_value",
          "type": "int256"
        },
        {
          "internalType": "uint256",
          "name": "_timestamp",
          "type": "uint256"
        },
        {
          "internalType": "uint256",
          "name": "_statusCode",
          "type": "uint256"
        }
      ],
      "stateMutability": "view",
      "type": "function"
    },
    {
      "inputs": [],
      "name": "withdraw",
      "outputs": [],
      "stateMutability": "nonpayable",
      "type": "function"
    }
  ],
  "bytecode": "0x6080604052670de0b6b3a7640000600c55600e80546001600160a01b03191673840c23e39f9d029ffa888f47069aa6864f0401d71790553480156200004357600080fd5b50600e54604080518082018252600881526752656e7461626c6560c01b602080830191825283518085019094526002845261149560f21b9084015281516001600160a01b039094169391929183918391620000a191600091620000ec565b508051620000b7906001906020840190620000ec565b5050600780546001600160a01b039095166001600160a01b03199586161790555050600d8054909216331790915550620001cf565b828054620000fa9062000192565b90600052602060002090601f0160209004810192826200011e576000855562000169565b82601f106200013957805160ff191683800117855562000169565b8280016001018555821562000169579182015b82811115620001695782518255916020019190600101906200014c565b50620001779291506200017b565b5090565b5b808211156200017757600081556001016200017c565b600181811c90821680620001a757607f821691505b60208210811415620001c957634e487b7160e01b600052602260045260246000fd5b50919050565b6142fd80620001df6000396000f3fe60806040526004361061031e5760003560e01c806370a08231116101a5578063b88d4fde116100ec578063e030565e11610095578063e985e9c51161006f578063e985e9c5146109a8578063f66f49c3146109f1578063f78eea8314610a11578063fcd4a54614610a4c57600080fd5b8063e030565e1461084c578063e07c54861461086c578063e61a70c01461088c57600080fd5b8063c5958af9116100c6578063c5958af9146107ec578063c87b56dd1461080c578063ce5e11bf1461082c57600080fd5b8063b88d4fde14610799578063be9af536146107b9578063c2f1f14a146107cc57600080fd5b80638fc88c481161014e578063a792765f11610128578063a792765f1461074f578063aa46a4001461076f578063ae677aa31461078657600080fd5b80638fc88c48146106dc57806395d89b411461071a578063a22cb4651461072f57600080fd5b806387506a0d1161017f57806387506a0d14610685578063897db7821461069c5780638da5cb5b146106bc57600080fd5b806370a082311461062557806377b03e0d1461064557806382367b2d1461066557600080fd5b806329449085116102695780636178efee1161021257806367ea485c116101ec57806367ea485c146105dd5780636c8b703f146105f25780636d6567101461061257600080fd5b80636178efee1461057c5780636352211e1461058f57806364ee3c6d146105af57600080fd5b806342842e0e1161024357806342842e0e1461051c57806344e87f911461053c5780634feb29821461055c57600080fd5b806329449085146104b05780632af8aae0146104e75780633ccfd60b1461050757600080fd5b806312e85585116102cb5780631f76e242116102a55780631f76e24214610468578063202e37401461047b57806323b872dd1461049057600080fd5b806312e8558514610409578063193b505b146104285780631959ad5b1461044857600080fd5b8063095ea7b3116102fc578063095ea7b3146103b257806309a26ba7146103d45780630f08efe0146103e757600080fd5b806301ffc9a71461032357806306fdde0314610358578063081812fc1461037a575b600080fd5b34801561032f57600080fd5b5061034361033e366004613961565b610a7a565b60405190151581526020015b60405180910390f35b34801561036457600080fd5b5061036d610abe565b60405161034f91906139d6565b34801561038657600080fd5b5061039a6103953660046139e9565b610b50565b6040516001600160a01b03909116815260200161034f565b3480156103be57600080fd5b506103d26103cd366004613a17565b610bea565b005b6103d26103e2366004613a5b565b610d1c565b3480156103f357600080fd5b506103fc610f53565b60405161034f9190613a87565b34801561041557600080fd5b50600c545b60405190815260200161034f565b34801561043457600080fd5b506103d2610443366004613b62565b611194565b34801561045457600080fd5b5060075461039a906001600160a01b031681565b6103d2610476366004613b8d565b6111cc565b34801561048757600080fd5b506103fc611388565b34801561049c57600080fd5b506103d26104ab366004613bf4565b6115b3565b3480156104bc57600080fd5b506104d06104cb366004613c35565b61162e565b60408051921515835260208301919091520161034f565b3480156104f357600080fd5b5060085461039a906001600160a01b031681565b34801561051357600080fd5b506103d26116da565b34801561052857600080fd5b506103d2610537366004613bf4565b611767565b34801561054857600080fd5b50610343610557366004613c35565b611782565b34801561056857600080fd5b506103d2610577366004613c35565b611826565b6103d261058a3660046139e9565b6118b7565b34801561059b57600080fd5b5061039a6105aa3660046139e9565b6119ff565b3480156105bb57600080fd5b506105cf6105ca366004613c35565b611a8a565b60405161034f929190613c57565b3480156105e957600080fd5b506103fc611ae3565b3480156105fe57600080fd5b5061036d61060d3660046139e9565b611d8a565b6103d2610620366004613d26565b611e24565b34801561063157600080fd5b5061041a610640366004613b62565b611ee4565b34801561065157600080fd5b5061041a6106603660046139e9565b611f7e565b34801561067157600080fd5b506103d2610680366004613c35565b612014565b34801561069157600080fd5b50600a5461041a9081565b3480156106a857600080fd5b5061039a6106b73660046139e9565b6120a5565b3480156106c857600080fd5b50600d5461039a906001600160a01b031681565b3480156106e857600080fd5b5061041a6106f73660046139e9565b600090815260066020526040902054600160a01b900467ffffffffffffffff1690565b34801561072657600080fd5b5061036d6120b0565b34801561073b57600080fd5b506103d261074a366004613d95565b6120bf565b34801561075b57600080fd5b506105cf61076a366004613c35565b6120ca565b34801561077b57600080fd5b5060095461041a9081565b6103d26107943660046139e9565b61217c565b3480156107a557600080fd5b506103d26107b4366004613dce565b6121c3565b6103d26107c73660046139e9565b612245565b3480156107d857600080fd5b5061039a6107e73660046139e9565b61237d565b3480156107f857600080fd5b5061036d610807366004613c35565b6123cd565b34801561081857600080fd5b5061036d6108273660046139e9565b61246e565b34801561083857600080fd5b5061041a610847366004613c35565b6124a9565b34801561085857600080fd5b506103d2610867366004613e4e565b612546565b34801561087857600080fd5b5061039a610887366004613c35565b6125c1565b34801561089857600080fd5b5061092f6108a73660046139e9565b600f6020526000908152604090208054600182015460028301546003840154600485015460059095015493946001600160a01b03938416949290931692909160ff80821691610100810482169167ffffffffffffffff6201000083041691600160501b8104821691600160581b8204811691600160601b8104821691600160681b909104168c565b604080519c8d526001600160a01b039b8c1660208e015299909a16988b019890985260608a0196909652608089019490945291151560a0880152151560c087015267ffffffffffffffff1660e086015215156101008501521515610120840152151561014083015215156101608201526101800161034f565b3480156109b457600080fd5b506103436109c3366004613e8c565b6001600160a01b03918216600090815260056020908152604080832093909416825291909152205460ff1690565b3480156109fd57600080fd5b506104d0610a0c366004613c35565b61265e565b348015610a1d57600080fd5b50610a31610a2c3660046139e9565b612818565b6040805193845260208401929092529082015260600161034f565b348015610a5857600080fd5b50610a6c610a67366004613eba565b612901565b60405161034f929190613eec565b60006001600160e01b031982167fad092b5c000000000000000000000000000000000000000000000000000000001480610ab85750610ab882612bf0565b92915050565b606060008054610acd90613f7a565b80601f0160208091040260200160405190810160405280929190818152602001828054610af990613f7a565b8015610b465780601f10610b1b57610100808354040283529160200191610b46565b820191906000526020600020905b815481529060010190602001808311610b2957829003601f168201915b5050505050905090565b6000818152600260205260408120546001600160a01b0316610bce5760405162461bcd60e51b815260206004820152602c60248201527f4552433732313a20617070726f76656420717565727920666f72206e6f6e657860448201526b34b9ba32b73a103a37b5b2b760a11b60648201526084015b60405180910390fd5b506000908152600460205260409020546001600160a01b031690565b6000610bf5826119ff565b9050806001600160a01b0316836001600160a01b03161415610c7f5760405162461bcd60e51b815260206004820152602160248201527f4552433732313a20617070726f76616c20746f2063757272656e74206f776e6560448201527f72000000000000000000000000000000000000000000000000000000000000006064820152608401610bc5565b336001600160a01b0382161480610c9b5750610c9b81336109c3565b610d0d5760405162461bcd60e51b815260206004820152603860248201527f4552433732313a20617070726f76652063616c6c6572206973206e6f74206f7760448201527f6e6572206e6f7220617070726f76656420666f7220616c6c00000000000000006064820152608401610bc5565b610d178383612c8b565b505050565b6000828152600f602052604090206005810154600160501b900460ff16610d855760405162461bcd60e51b815260206004820152601f60248201527f546f6b656e206973206e6f7420617661696c61626c6520666f722072656e74006044820152606401610bc5565b6000610d908461237d565b6001600160a01b031614610de65760405162461bcd60e51b815260206004820152601760248201527f546f6b656e20697320616c72656164792072656e7465640000000000000000006044820152606401610bc5565b8060040154341015610e5f5760405162461bcd60e51b8152602060048201526024808201527f496e73756666696369656e742066756e647320746f2072656e7420746865207460448201527f6f6b656e000000000000000000000000000000000000000000000000000000006064820152608401610bc5565b6000838152600f60205260409020600501805469ffffffffffffffffff00196dff000000000000000000000000ff19821660ff600160501b600160681b6dff00000000000000000000000000199095168517048116151591909117909217908116610100600160581b90920490921615150269ffffffffffffffff00001916176201000067ffffffffffffffff851602176bffff0000000000000000000019169055610f0c833384612cf9565b60405167ffffffffffffffff83168152339084907f93c569c55dd39fb1a402140506cfa5f24e332945ea37772a98bce1b7ad7fdef3906020015b60405180910390a3505050565b60606000610f6060095490565b90506000610f6d600a5490565b600954610f7a9190613fc5565b90506000808267ffffffffffffffff811115610f9857610f98613c79565b60405190808252806020026020018201604052801561102757816020015b604080516101808101825260008082526020808301829052928201819052606082018190526080820181905260a0820181905260c0820181905260e082018190526101008201819052610120820181905261014082018190526101608201528252600019909201910181610fb65790505b50905060005b8481101561118b5730600f6000611045846001613fdc565b81526020810191909152604001600020600201546001600160a01b03161415611179576000611075826001613fdc565b6000818152600f60209081526040918290208251610180810184528154815260018201546001600160a01b03908116938201939093526002820154909216928201929092526003820154606082015260048201546080820152600582015460ff808216151560a08401526101008083048216151560c085015267ffffffffffffffff6201000084041660e0850152600160501b83048216151590840152600160581b820481161515610120840152600160601b820481161515610140840152600160681b9091041615156101608201528551929350909185908790811061115e5761115e613ff4565b6020908102919091010152611174600186613fdc565b945050505b806111838161400a565b91505061102d565b50949350505050565b6008546001600160a01b0316156111aa57600080fd5b600880546001600160a01b0319166001600160a01b0392909216919091179055565b6000868152600f60205260409020600201546001600160a01b031633146112485760405162461bcd60e51b815260206004820152602a60248201527f4f6e6c79206974656d206f776e65722063616e20706572666f726d20746869736044820152691037b832b930ba34b7b760b11b6064820152608401610bc5565b80806112555750600c5434145b6112ad5760405162461bcd60e51b8152602060048201526024808201527f5072696365206d75737420626520657175616c20746f206c697374696e6720706044820152637269636560e01b6064820152608401610bc5565b6000868152600f6020526040902060058101805460038301889055600183018054336001600160a01b03199182161790915560028401805430921691909117905560049092018690556cff00000000000000000000ffff1990911661ff001985151590811691909117610100851515908102919091176bffff000000000000000000001916600160501b929092026bff0000000000000000000000191691909117600160581b91909102176dff000000ffffffffffffffff000019169055611375600a612d7a565b611380333088612dd1565b505050505050565b6060600061139560095490565b905060006113a2600a5490565b90506000808267ffffffffffffffff8111156113c0576113c0613c79565b60405190808252806020026020018201604052801561144f57816020015b604080516101808101825260008082526020808301829052928201819052606082018190526080820181905260a0820181905260c0820181905260e0820181905261010082018190526101208201819052610140820181905261016082015282526000199092019101816113de5790505b50905060005b8481101561118b5733600f600061146d846001613fdc565b81526020810191909152604001600020600201546001600160a01b031614156115a157600061149d826001613fdc565b6000818152600f60209081526040918290208251610180810184528154815260018201546001600160a01b03908116938201939093526002820154909216928201929092526003820154606082015260048201546080820152600582015460ff808216151560a08401526101008083048216151560c085015267ffffffffffffffff6201000084041660e0850152600160501b83048216151590840152600160581b820481161515610120840152600160601b820481161515610140840152600160681b9091041615156101608201528551929350909185908790811061158657611586613ff4565b602090810291909101015261159c600186613fdc565b945050505b806115ab8161400a565b915050611455565b6115bd3382612f91565b6116235760405162461bcd60e51b815260206004820152603160248201527f4552433732313a207472616e736665722063616c6c6572206973206e6f74206f6044820152701ddb995c881b9bdc88185c1c1c9bdd9959607a1b6064820152608401610bc5565b610d17838383612dd1565b6007546040517f29449085000000000000000000000000000000000000000000000000000000008152600481018490526024810183905260009182916001600160a01b0390911690632944908590604401604080518083038186803b15801561169657600080fd5b505afa1580156116aa573d6000803e3d6000fd5b505050506040513d601f19601f820116820180604052508101906116ce9190614025565b915091505b9250929050565b600d546001600160a01b031633146117345760405162461bcd60e51b815260206004820152601760248201527f4f6e6c79206f776e65722063616e2077697468647261770000000000000000006044820152606401610bc5565b6040514790339082156108fc029083906000818181858888f19350505050158015611763573d6000803e3d6000fd5b5050565b610d17838383604051806020016040528060008152506121c3565b6007546040517f44e87f9100000000000000000000000000000000000000000000000000000000815260048101849052602481018390526000916001600160a01b0316906344e87f919060440160206040518083038186803b1580156117e757600080fd5b505afa1580156117fb573d6000803e3d6000fd5b505050506040513d601f19601f8201168201806040525081019061181f9190614053565b9392505050565b6000828152600f60205260409020600101546001600160a01b031633146118a25760405162461bcd60e51b815260206004820152602a60248201527f4f6e6c79206974656d206f776e65722063616e20706572666f726d20746869736044820152691037b832b930ba34b7b760b11b6064820152608401610bc5565b6000918252600f602052604090912060040155565b6000818152600f602052604090206005810154600160681b900460ff166119205760405162461bcd60e51b815260206004820152601360248201527f546f6b656e206973206e6f742072656e746564000000000000000000000000006044820152606401610bc5565b6005810154426201000090910467ffffffffffffffff16106119845760405162461bcd60e51b815260206004820152601860248201527f546f6b656e206973206e6f7420657870697265642079657400000000000000006044820152606401610bc5565b6000828152600f60205260408120600501805461010060ff8083161515600160501b026dff0000ff00000000000000000000198416811792909204161515600160581b026bff0000000000000000000000199091166dff00ffff00000000000000000000199092169190911717905561176390839080612cf9565b6000818152600260205260408120546001600160a01b031680610ab85760405162461bcd60e51b815260206004820152602960248201527f4552433732313a206f776e657220717565727920666f72206e6f6e657869737460448201527f656e7420746f6b656e00000000000000000000000000000000000000000000006064820152608401610bc5565b60606000806000611a9b868661265e565b9150915081611ac257600060405180602001604052806000815250909350935050506116d3565b611acc86826124a9565b9250611ad886846123cd565b935050509250929050565b60606000611af060095490565b90506000808267ffffffffffffffff811115611b0e57611b0e613c79565b604051908082528060200260200182016040528015611b37578160200160208202803683370190505b50905060005b83811015611bab5733611b546107e7836001613fdc565b6001600160a01b03161415611b9957611b6e816001613fdc565b828481518110611b8057611b80613ff4565b6020908102919091010152611b96600184613fdc565b92505b80611ba38161400a565b915050611b3d565b5060008267ffffffffffffffff811115611bc757611bc7613c79565b604051908082528060200260200182016040528015611c5657816020015b604080516101808101825260008082526020808301829052928201819052606082018190526080820181905260a0820181905260c0820181905260e082018190526101008201819052610120820181905261014082018190526101608201528252600019909201910181611be55790505b50905060005b8381101561118b576000838281518110611c7857611c78613ff4565b6020908102919091018101516000818152600f83526040908190208151610180810183528154815260018201546001600160a01b03908116958201959095526002820154909416918401919091526003810154606084015260048101546080840152600581015460ff808216151560a08601526101008083048216151560c087015267ffffffffffffffff6201000084041660e0870152600160501b83048216151590860152600160581b820481161515610120860152600160601b820481161515610140860152600160681b90910416151561016084015285519193509190859085908110611d6a57611d6a613ff4565b602002602001018190525050508080611d829061400a565b915050611c5c565b600b6020526000908152604090208054611da390613f7a565b80601f0160208091040260200160405190810160405280929190818152602001828054611dcf90613f7a565b8015611e1c5780601f10611df157610100808354040283529160200191611e1c565b820191906000526020600020905b815481529060010190602001808311611dff57829003601f168201915b505050505081565b8080611e315750600c5434145b611e895760405162461bcd60e51b8152602060048201526024808201527f5072696365206d75737420626520657175616c20746f206c697374696e6720706044820152637269636560e01b6064820152608401610bc5565b611e97600980546001019055565b6000611ea260095490565b9050611eae3382613088565b6000818152600b602090815260409091208851611ecd928a01906138af565b50611edb81878787876131d6565b50505050505050565b60006001600160a01b038216611f625760405162461bcd60e51b815260206004820152602a60248201527f4552433732313a2062616c616e636520717565727920666f7220746865207a6560448201527f726f2061646472657373000000000000000000000000000000000000000000006064820152608401610bc5565b506001600160a01b031660009081526003602052604090205490565b6007546040517f77b03e0d000000000000000000000000000000000000000000000000000000008152600481018390526000916001600160a01b0316906377b03e0d9060240160206040518083038186803b158015611fdc57600080fd5b505afa158015611ff0573d6000803e3d6000fd5b505050506040513d601f19601f82011682018060405250810190610ab89190614070565b6000828152600f60205260409020600101546001600160a01b031633146120905760405162461bcd60e51b815260206004820152602a60248201527f4f6e6c79206974656d206f776e65722063616e20706572666f726d20746869736044820152691037b832b930ba34b7b760b11b6064820152608401610bc5565b6000918252600f602052604090912060030155565b6000610ab88261237d565b606060018054610acd90613f7a565b61176333838361351b565b6007546040517fa792765f00000000000000000000000000000000000000000000000000000000815260048101849052602481018390526060916000916001600160a01b039091169063a792765f9060440160006040518083038186803b15801561213457600080fd5b505afa158015612148573d6000803e3d6000fd5b505050506040513d6000823e601f3d908101601f1916820160405261217091908101906140ce565b90969095509350505050565b600d546001600160a01b031633146121be5760405162461bcd60e51b815260206004820152600560248201526437bbb732b960d91b6044820152606401610bc5565b600c55565b6121cd3383612f91565b6122335760405162461bcd60e51b815260206004820152603160248201527f4552433732313a207472616e736665722063616c6c6572206973206e6f74206f6044820152701ddb995c881b9bdc88185c1c1c9bdd9959607a1b6064820152608401610bc5565b61223f848484846135e2565b50505050565b6000818152600f6020526040902060038101546001909101546001600160a01b0316348211156122dd5760405162461bcd60e51b815260206004820152603d60248201527f506c6561736520706179207468652061736b696e6720707269636520696e206f60448201527f7264657220746f20636f6d706c657465207468652070757263686173650000006064820152608401610bc5565b6000838152600f602052604090206002810180546001600160a01b03199081163317909155600582018054600190930180549092169091556cffff000000000000000000000019909116600160601b17905561233d600a80546001019055565b612348303385612dd1565b6040516001600160a01b038216903480156108fc02916000818181858888f1935050505015801561223f573d6000803e3d6000fd5b60008181526006602052604081205442600160a01b90910467ffffffffffffffff16106123c057506000908152600660205260409020546001600160a01b031690565b506000919050565b919050565b6007546040517fc5958af900000000000000000000000000000000000000000000000000000000815260048101849052602481018390526060916001600160a01b03169063c5958af99060440160006040518083038186803b15801561243257600080fd5b505afa158015612446573d6000803e3d6000fd5b505050506040513d6000823e601f3d908101601f1916820160405261181f9190810190614128565b6060600b6000838152602001908152602001600020604051602001612493919061415d565b6040516020818303038152906040529050919050565b6007546040517fce5e11bf00000000000000000000000000000000000000000000000000000000815260048101849052602481018390526000916001600160a01b03169063ce5e11bf9060440160206040518083038186803b15801561250e57600080fd5b505afa158015612522573d6000803e3d6000fd5b505050506040513d601f19601f8201168201806040525081019061181f9190614070565b6125503384612f91565b6125b65760405162461bcd60e51b815260206004820152603160248201527f4552433732313a207472616e736665722063616c6c6572206973206e6f74206f6044820152701ddb995c881b9bdc88185c1c1c9bdd9959607a1b6064820152608401610bc5565b610d17838383612cf9565b6007546040517fe07c548600000000000000000000000000000000000000000000000000000000815260048101849052602481018390526000916001600160a01b03169063e07c54869060440160206040518083038186803b15801561262657600080fd5b505afa15801561263a573d6000803e3d6000fd5b505050506040513d601f19601f8201168201806040525081019061181f91906141f9565b600080600061266c85611f7e565b9050806126805760008092509250506116d3565b8061268a81614216565b915060019050600080838161269f8a836124a9565b90508881116126ba57600080975097505050505050506116d3565b6126c48a846124a9565b9050888111156126d357600094505b84156127835760026126e58484613fdc565b6126ef919061422d565b93506126fb8a856124a9565b90508881111561273c5760006127168b610847600188613fc5565b90508981116127285760009550612736565b612733600186613fc5565b92505b506126d3565b600061274d8b610847876001613fdc565b9050898111156127705760009550846127658161400a565b955050809150612736565b61277b856001613fdc565b9350506126d3565b61278d8a82611782565b6127a357600184975097505050505050506116d3565b6127ad8a82611782565b80156127b857508584105b156127db57836127c78161400a565b9450506127d48a856124a9565b90506127a3565b85841480156127ef57506127ef8a82611782565b1561280657600080975097505050505050506116d3565b600184975097505050505050506116d3565b6008546040517f87a475fd000000000000000000000000000000000000000000000000000000008152600481018390526000918291829182916001600160a01b03909116906387a475fd9060240160206040518083038186803b15801561287e57600080fd5b505afa158015612892573d6000803e3d6000fd5b505050506040513d601f19601f820116820180604052508101906128b69190614070565b905060606128c98261076a426001613fdc565b94509050836128e55760008061019494509450945050506128fa565b60006128f08261366b565b955060c893505050505b9193909250565b60608060008061291588610a0c888a613fc5565b9150915081612966576040805160008082526020820190925290612949565b60608152602001906001900390816129345790505b506040805160008152602081019091529094509250612be7915050565b6000612972898961162e565b9093509050826129c55760408051600080825260208201909252906129a7565b60608152602001906001900390816129925790505b506040805160008152602081019091529095509350612be792505050565b60008060008867ffffffffffffffff8111156129e3576129e3613c79565b604051908082528060200260200182016040528015612a0c578160200160208202803683370190505b5090505b8883108015612a3357508482612a27866001613fdc565b612a319190613fc5565b115b15612a97576000612a488d6108478588613fc5565b9050612a548d82611782565b612a845780828581518110612a6b57612a6b613ff4565b602090810291909101015283612a808161400a565b9450505b82612a8e8161400a565b93505050612a10565b60008367ffffffffffffffff811115612ab257612ab2613c79565b604051908082528060200260200182016040528015612ae557816020015b6060815260200190600190039081612ad05790505b50905060008467ffffffffffffffff811115612b0357612b03613c79565b604051908082528060200260200182016040528015612b2c578160200160208202803683370190505b50905060005b85811015612bda578381612b47600189613fc5565b612b519190613fc5565b81518110612b6157612b61613ff4565b6020026020010151828281518110612b7b57612b7b613ff4565b602002602001018181525050612baa8f838381518110612b9d57612b9d613ff4565b60200260200101516123cd565b838281518110612bbc57612bbc613ff4565b60200260200101819052508080612bd29061400a565b915050612b32565b5090985096505050505050505b94509492505050565b60006001600160e01b031982167f80ac58cd000000000000000000000000000000000000000000000000000000001480612c5357506001600160e01b031982167f5b5e139f00000000000000000000000000000000000000000000000000000000145b80610ab857507f01ffc9a7000000000000000000000000000000000000000000000000000000006001600160e01b0319831614610ab8565b600081815260046020526040902080546001600160a01b0319166001600160a01b0384169081179091558190612cc0826119ff565b6001600160a01b03167f8c5be1e5ebec7d5bd14f71427d1e84f3dd0314c0f7b2291e5b200ac8c7c3b92560405160405180910390a45050565b60008381526006602090815260409182902080546001600160a01b0386166001600160e01b03199091168117600160a01b67ffffffffffffffff871690810291909117835593519384529092909186917f4e06b4e7000e659094299b3533b47b6aa8ad048e95e872d23d1f4ee55af89cfe910160405180910390a350505050565b805480612dc95760405162461bcd60e51b815260206004820152601b60248201527f436f756e7465723a2064656372656d656e74206f766572666c6f7700000000006044820152606401610bc5565b600019019055565b826001600160a01b0316612de4826119ff565b6001600160a01b031614612e485760405162461bcd60e51b815260206004820152602560248201527f4552433732313a207472616e736665722066726f6d20696e636f72726563742060448201526437bbb732b960d91b6064820152608401610bc5565b6001600160a01b038216612ec35760405162461bcd60e51b8152602060048201526024808201527f4552433732313a207472616e7366657220746f20746865207a65726f2061646460448201527f72657373000000000000000000000000000000000000000000000000000000006064820152608401610bc5565b612ece8383836136c2565b612ed9600082612c8b565b6001600160a01b0383166000908152600360205260408120805460019290612f02908490613fc5565b90915550506001600160a01b0382166000908152600360205260408120805460019290612f30908490613fdc565b909155505060008181526002602052604080822080546001600160a01b0319166001600160a01b0386811691821790925591518493918716917fddf252ad1be2c89b69c2b068fc378daa952ba7f163c4a11628f55a4df523b3ef91a4505050565b6000818152600260205260408120546001600160a01b031661300a5760405162461bcd60e51b815260206004820152602c60248201527f4552433732313a206f70657261746f7220717565727920666f72206e6f6e657860448201526b34b9ba32b73a103a37b5b2b760a11b6064820152608401610bc5565b6000613015836119ff565b9050806001600160a01b0316846001600160a01b031614806130505750836001600160a01b031661304584610b50565b6001600160a01b0316145b8061308057506001600160a01b0380821660009081526005602090815260408083209388168352929052205460ff165b949350505050565b6001600160a01b0382166130de5760405162461bcd60e51b815260206004820181905260248201527f4552433732313a206d696e7420746f20746865207a65726f20616464726573736044820152606401610bc5565b6000818152600260205260409020546001600160a01b0316156131435760405162461bcd60e51b815260206004820152601c60248201527f4552433732313a20746f6b656e20616c7265616479206d696e746564000000006044820152606401610bc5565b61314f600083836136c2565b6001600160a01b0382166000908152600360205260408120805460019290613178908490613fdc565b909155505060008181526002602052604080822080546001600160a01b0319166001600160a01b03861690811790915590518392907fddf252ad1be2c89b69c2b068fc378daa952ba7f163c4a11628f55a4df523b3ef908290a45050565b8115806131e35750600084115b61322f5760405162461bcd60e51b815260206004820152600e60248201527f70726963652072657175697265640000000000000000000000000000000000006044820152606401610bc5565b80158061323c5750600083115b6132885760405162461bcd60e51b815260206004820152601360248201527f72656e74207072696365207265717569726564000000000000000000000000006044820152606401610bc5565b604051806101800160405280868152602001336001600160a01b03168152602001306001600160a01b0316815260200185815260200184815260200182151581526020018315158152602001600067ffffffffffffffff1681526020018215158152602001831515815260200160001515815260200160001515815250600f60008781526020019081526020016000206000820151816000015560208201518160010160006101000a8154816001600160a01b0302191690836001600160a01b0316021790555060408201518160020160006101000a8154816001600160a01b0302191690836001600160a01b03160217905550606082015181600301556080820151816004015560a08201518160050160006101000a81548160ff02191690831515021790555060c08201518160050160016101000a81548160ff02191690831515021790555060e08201518160050160026101000a81548167ffffffffffffffff021916908367ffffffffffffffff16021790555061010082015181600501600a6101000a81548160ff02191690831515021790555061012082015181600501600b6101000a81548160ff02191690831515021790555061014082015181600501600c6101000a81548160ff02191690831515021790555061016082015181600501600d6101000a81548160ff021916908315150217905550905050613491333087612dd1565b60408051338152306020820152908101859052606081018490528115156080820181905283151560a08301819052600060c0840181905260e0840192909252610100830152610120820181905261014082015285907f492deeedddcf20d370b3e1bfd0cb18f72d909aedbaf5c6b6b196848bb234660d906101600160405180910390a25050505050565b816001600160a01b0316836001600160a01b0316141561357d5760405162461bcd60e51b815260206004820152601960248201527f4552433732313a20617070726f766520746f2063616c6c6572000000000000006044820152606401610bc5565b6001600160a01b03838116600081815260056020908152604080832094871680845294825291829020805460ff191686151590811790915591519182527f17307eab39ab6107e8899845ad3d59bd9653f200f220920489ca2b5937696c319101610f46565b6135ed848484612dd1565b6135f98484848461374c565b61223f5760405162461bcd60e51b815260206004820152603260248201527f4552433732313a207472616e7366657220746f206e6f6e20455243373231526560448201527f63656976657220696d706c656d656e74657200000000000000000000000000006064820152608401610bc5565b6000805b82518110156136bc5782818151811061368a5761368a613ff4565b016020015160f81c61369e8361010061424f565b6136a89190613fdc565b9150806136b48161400a565b91505061366f565b50919050565b816001600160a01b0316836001600160a01b0316141580156136fa57506000818152600660205260409020546001600160a01b031615155b15610d1757600081815260066020908152604080832080546001600160e01b03191690555182815283917f4e06b4e7000e659094299b3533b47b6aa8ad048e95e872d23d1f4ee55af89cfe9101610f46565b60006001600160a01b0384163b156138a457604051630a85bd0160e11b81526001600160a01b0385169063150b7a029061379090339089908890889060040161426e565b602060405180830381600087803b1580156137aa57600080fd5b505af19250505080156137da575060408051601f3d908101601f191682019092526137d7918101906142aa565b60015b61388a573d808015613808576040519150601f19603f3d011682016040523d82523d6000602084013e61380d565b606091505b5080516138825760405162461bcd60e51b815260206004820152603260248201527f4552433732313a207472616e7366657220746f206e6f6e20455243373231526560448201527f63656976657220696d706c656d656e74657200000000000000000000000000006064820152608401610bc5565b805181602001fd5b6001600160e01b031916630a85bd0160e11b149050613080565b506001949350505050565b8280546138bb90613f7a565b90600052602060002090601f0160209004810192826138dd5760008555613923565b82601f106138f657805160ff1916838001178555613923565b82800160010185558215613923579182015b82811115613923578251825591602001919060010190613908565b5061392f929150613933565b5090565b5b8082111561392f5760008155600101613934565b6001600160e01b03198116811461395e57600080fd5b50565b60006020828403121561397357600080fd5b813561181f81613948565b60005b83811015613999578181015183820152602001613981565b8381111561223f5750506000910152565b600081518084526139c281602086016020860161397e565b601f01601f19169290920160200192915050565b60208152600061181f60208301846139aa565b6000602082840312156139fb57600080fd5b5035919050565b6001600160a01b038116811461395e57600080fd5b60008060408385031215613a2a57600080fd5b8235613a3581613a02565b946020939093013593505050565b803567ffffffffffffffff811681146123c857600080fd5b60008060408385031215613a6e57600080fd5b82359150613a7e60208401613a43565b90509250929050565b602080825282518282018190526000919060409081850190868401855b82811015613b5557815180518552868101516001600160a01b0390811688870152868201511686860152606080820151908601526080808201519086015260a08082015115159086015260c08082015115159086015260e08082015167ffffffffffffffff1690860152610100808201511515908601526101208082015115159086015261014080820151151590860152610160908101511515908501526101809093019290850190600101613aa4565b5091979650505050505050565b600060208284031215613b7457600080fd5b813561181f81613a02565b801515811461395e57600080fd5b60008060008060008060c08789031215613ba657600080fd5b8635955060208701359450604087013593506060870135613bc681613b7f565b92506080870135613bd681613b7f565b915060a0870135613be681613b7f565b809150509295509295509295565b600080600060608486031215613c0957600080fd5b8335613c1481613a02565b92506020840135613c2481613a02565b929592945050506040919091013590565b60008060408385031215613c4857600080fd5b50508035926020909101359150565b604081526000613c6a60408301856139aa565b90508260208301529392505050565b634e487b7160e01b600052604160045260246000fd5b604051601f8201601f1916810167ffffffffffffffff81118282101715613cb857613cb8613c79565b604052919050565b600067ffffffffffffffff821115613cda57613cda613c79565b50601f01601f191660200190565b6000613cfb613cf684613cc0565b613c8f565b9050828152838383011115613d0f57600080fd5b828260208301376000602084830101529392505050565b60008060008060008060c08789031215613d3f57600080fd5b863567ffffffffffffffff811115613d5657600080fd5b8701601f81018913613d6757600080fd5b613d7689823560208401613ce8565b96505060208701359450604087013593506060870135613bc681613b7f565b60008060408385031215613da857600080fd5b8235613db381613a02565b91506020830135613dc381613b7f565b809150509250929050565b60008060008060808587031215613de457600080fd5b8435613def81613a02565b93506020850135613dff81613a02565b925060408501359150606085013567ffffffffffffffff811115613e2257600080fd5b8501601f81018713613e3357600080fd5b613e4287823560208401613ce8565b91505092959194509250565b600080600060608486031215613e6357600080fd5b833592506020840135613e7581613a02565b9150613e8360408501613a43565b90509250925092565b60008060408385031215613e9f57600080fd5b8235613eaa81613a02565b91506020830135613dc381613a02565b60008060008060808587031215613ed057600080fd5b5050823594602084013594506040840135936060013592509050565b6000604082016040835280855180835260608501915060608160051b8601019250602080880160005b83811015613f4357605f19888703018552613f318683516139aa565b95509382019390820190600101613f15565b50508584038187015286518085528782019482019350915060005b82811015613b5557845184529381019392810192600101613f5e565b600181811c90821680613f8e57607f821691505b602082108114156136bc57634e487b7160e01b600052602260045260246000fd5b634e487b7160e01b600052601160045260246000fd5b600082821015613fd757613fd7613faf565b500390565b60008219821115613fef57613fef613faf565b500190565b634e487b7160e01b600052603260045260246000fd5b600060001982141561401e5761401e613faf565b5060010190565b6000806040838503121561403857600080fd5b825161404381613b7f565b6020939093015192949293505050565b60006020828403121561406557600080fd5b815161181f81613b7f565b60006020828403121561408257600080fd5b5051919050565b600082601f83011261409a57600080fd5b81516140a8613cf682613cc0565b8181528460208386010111156140bd57600080fd5b61308082602083016020870161397e565b6000806000606084860312156140e357600080fd5b83516140ee81613b7f565b602085015190935067ffffffffffffffff81111561410b57600080fd5b61411786828701614089565b925050604084015190509250925092565b60006020828403121561413a57600080fd5b815167ffffffffffffffff81111561415157600080fd5b61308084828501614089565b600080835481600182811c91508083168061417957607f831692505b602080841082141561419957634e487b7160e01b86526022600452602486fd5b8180156141ad57600181146141be576141eb565b60ff198616895284890196506141eb565b60008a81526020902060005b868110156141e35781548b8201529085019083016141ca565b505084890196505b509498975050505050505050565b60006020828403121561420b57600080fd5b815161181f81613a02565b60008161422557614225613faf565b506000190190565b60008261424a57634e487b7160e01b600052601260045260246000fd5b500490565b600081600019048311821515161561426957614269613faf565b500290565b60006001600160a01b038087168352808616602084015250836040830152608060608301526142a060808301846139aa565b9695505050505050565b6000602082840312156142bc57600080fd5b815161181f8161394856fea26469706673582212208ee49fc053f1e77481c0bea159d2bcce10ba501d297e0786aec8ecc5d364921f64736f6c63430008090033",
  "linkReferences": {},
  "deployedLinkReferences": {}
}