{
  "_format": "hh-sol-artifact-1",
  "contractName": "RentableNFTMarketplace",
  "sourceName": "contracts/RentableNFTMarketplace.sol",
  "abi": [
    {
      "inputs": [],
      "stateMutability": "nonpayable",
      "type": "constructor"
    },
    {
      "anonymous": false,
      "inputs": [
        {
          "indexed": true,
          "internalType": "address",
          "name": "owner",
          "type": "address"
        },
        {
          "indexed": true,
          "internalType": "address",
          "name": "approved",
          "type": "address"
        },
        {
          "indexed": true,
          "internalType": "uint256",
          "name": "tokenId",
          "type": "uint256"
        }
      ],
      "name": "Approval",
      "type": "event"
    },
    {
      "anonymous": false,
      "inputs": [
        {
          "indexed": true,
          "internalType": "address",
          "name": "owner",
          "type": "address"
        },
        {
          "indexed": true,
          "internalType": "address",
          "name": "operator",
          "type": "address"
        },
        {
          "indexed": false,
          "internalType": "bool",
          "name": "approved",
          "type": "bool"
        }
      ],
      "name": "ApprovalForAll",
      "type": "event"
    },
    {
      "anonymous": false,
      "inputs": [
        {
          "indexed": true,
          "internalType": "uint256",
          "name": "tokenId",
          "type": "uint256"
        },
        {
          "indexed": false,
          "internalType": "address",
          "name": "seller",
          "type": "address"
        },
        {
          "indexed": false,
          "internalType": "address",
          "name": "owner",
          "type": "address"
        },
        {
          "indexed": false,
          "internalType": "uint256",
          "name": "price",
          "type": "uint256"
        },
        {
          "indexed": false,
          "internalType": "uint256",
          "name": "rentPrice",
          "type": "uint256"
        },
        {
          "indexed": false,
          "internalType": "bool",
          "name": "originalForRent",
          "type": "bool"
        },
        {
          "indexed": false,
          "internalType": "bool",
          "name": "originalForSale",
          "type": "bool"
        },
        {
          "indexed": false,
          "internalType": "uint64",
          "name": "expires",
          "type": "uint64"
        },
        {
          "indexed": false,
          "internalType": "bool",
          "name": "forRent",
          "type": "bool"
        },
        {
          "indexed": false,
          "internalType": "bool",
          "name": "forSale",
          "type": "bool"
        },
        {
          "indexed": false,
          "internalType": "bool",
          "name": "sold",
          "type": "bool"
        },
        {
          "indexed": false,
          "internalType": "bool",
          "name": "rented",
          "type": "bool"
        }
      ],
      "name": "MarketItemCreated",
      "type": "event"
    },
    {
      "anonymous": false,
      "inputs": [
        {
          "indexed": true,
          "internalType": "address",
          "name": "from",
          "type": "address"
        },
        {
          "indexed": true,
          "internalType": "address",
          "name": "to",
          "type": "address"
        },
        {
          "indexed": true,
          "internalType": "uint256",
          "name": "tokenId",
          "type": "uint256"
        }
      ],
      "name": "Transfer",
      "type": "event"
    },
    {
      "anonymous": false,
      "inputs": [
        {
          "indexed": true,
          "internalType": "uint256",
          "name": "tokenId",
          "type": "uint256"
        },
        {
          "indexed": true,
          "internalType": "address",
          "name": "user",
          "type": "address"
        },
        {
          "indexed": false,
          "internalType": "uint64",
          "name": "expires",
          "type": "uint64"
        }
      ],
      "name": "UpdateUser",
      "type": "event"
    },
    {
      "inputs": [],
      "name": "_itemsSold",
      "outputs": [
        {
          "internalType": "uint256",
          "name": "_value",
          "type": "uint256"
        }
      ],
      "stateMutability": "view",
      "type": "function"
    },
    {
      "inputs": [],
      "name": "_tokenIds",
      "outputs": [
        {
          "internalType": "uint256",
          "name": "_value",
          "type": "uint256"
        }
      ],
      "stateMutability": "view",
      "type": "function"
    },
    {
      "inputs": [
        {
          "internalType": "address",
          "name": "to",
          "type": "address"
        },
        {
          "internalType": "uint256",
          "name": "tokenId",
          "type": "uint256"
        }
      ],
      "name": "approve",
      "outputs": [],
      "stateMutability": "nonpayable",
      "type": "function"
    },
    {
      "inputs": [
        {
          "internalType": "address",
          "name": "owner",
          "type": "address"
        }
      ],
      "name": "balanceOf",
      "outputs": [
        {
          "internalType": "uint256",
          "name": "",
          "type": "uint256"
        }
      ],
      "stateMutability": "view",
      "type": "function"
    },
    {
      "inputs": [
        {
          "internalType": "bytes",
          "name": "checkData",
          "type": "bytes"
        }
      ],
      "name": "checkUpkeep",
      "outputs": [
        {
          "internalType": "bool",
          "name": "upkeepNeeded",
          "type": "bool"
        },
        {
          "internalType": "bytes",
          "name": "performData",
          "type": "bytes"
        }
      ],
      "stateMutability": "nonpayable",
      "type": "function"
    },
    {
      "inputs": [
        {
          "internalType": "uint256",
          "name": "tokenId",
          "type": "uint256"
        }
      ],
      "name": "createMarketSale",
      "outputs": [],
      "stateMutability": "payable",
      "type": "function"
    },
    {
      "inputs": [
        {
          "internalType": "string",
          "name": "_tokenURI",
          "type": "string"
        },
        {
          "internalType": "uint256",
          "name": "price",
          "type": "uint256"
        },
        {
          "internalType": "uint256",
          "name": "rent_price",
          "type": "uint256"
        },
        {
          "internalType": "bool",
          "name": "forSale",
          "type": "bool"
        },
        {
          "internalType": "bool",
          "name": "forRent",
          "type": "bool"
        },
        {
          "internalType": "bool",
          "name": "member",
          "type": "bool"
        }
      ],
      "name": "createToken",
      "outputs": [],
      "stateMutability": "payable",
      "type": "function"
    },
    {
      "inputs": [],
      "name": "fetchMarketItems",
      "outputs": [
        {
          "components": [
            {
              "internalType": "uint256",
              "name": "tokenId",
              "type": "uint256"
            },
            {
              "internalType": "address payable",
              "name": "seller",
              "type": "address"
            },
            {
              "internalType": "address payable",
              "name": "owner",
              "type": "address"
            },
            {
              "internalType": "uint256",
              "name": "price",
              "type": "uint256"
            },
            {
              "internalType": "uint256",
              "name": "rentPrice",
              "type": "uint256"
            },
            {
              "internalType": "bool",
              "name": "originalForRent",
              "type": "bool"
            },
            {
              "internalType": "bool",
              "name": "originalForSale",
              "type": "bool"
            },
            {
              "internalType": "uint64",
              "name": "expires",
              "type": "uint64"
            },
            {
              "internalType": "bool",
              "name": "forRent",
              "type": "bool"
            },
            {
              "internalType": "bool",
              "name": "forSale",
              "type": "bool"
            },
            {
              "internalType": "bool",
              "name": "sold",
              "type": "bool"
            },
            {
              "internalType": "bool",
              "name": "rented",
              "type": "bool"
            }
          ],
          "internalType": "struct RentableNFTMarketplace.MarketItem[]",
          "name": "",
          "type": "tuple[]"
        }
      ],
      "stateMutability": "view",
      "type": "function"
    },
    {
      "inputs": [],
      "name": "fetchMyNFTs",
      "outputs": [
        {
          "components": [
            {
              "internalType": "uint256",
              "name": "tokenId",
              "type": "uint256"
            },
            {
              "internalType": "address payable",
              "name": "seller",
              "type": "address"
            },
            {
              "internalType": "address payable",
              "name": "owner",
              "type": "address"
            },
            {
              "internalType": "uint256",
              "name": "price",
              "type": "uint256"
            },
            {
              "internalType": "uint256",
              "name": "rentPrice",
              "type": "uint256"
            },
            {
              "internalType": "bool",
              "name": "originalForRent",
              "type": "bool"
            },
            {
              "internalType": "bool",
              "name": "originalForSale",
              "type": "bool"
            },
            {
              "internalType": "uint64",
              "name": "expires",
              "type": "uint64"
            },
            {
              "internalType": "bool",
              "name": "forRent",
              "type": "bool"
            },
            {
              "internalType": "bool",
              "name": "forSale",
              "type": "bool"
            },
            {
              "internalType": "bool",
              "name": "sold",
              "type": "bool"
            },
            {
              "internalType": "bool",
              "name": "rented",
              "type": "bool"
            }
          ],
          "internalType": "struct RentableNFTMarketplace.MarketItem[]",
          "name": "",
          "type": "tuple[]"
        }
      ],
      "stateMutability": "view",
      "type": "function"
    },
    {
      "inputs": [],
      "name": "fetchMyRentedNFTs",
      "outputs": [
        {
          "components": [
            {
              "internalType": "uint256",
              "name": "tokenId",
              "type": "uint256"
            },
            {
              "internalType": "address payable",
              "name": "seller",
              "type": "address"
            },
            {
              "internalType": "address payable",
              "name": "owner",
              "type": "address"
            },
            {
              "internalType": "uint256",
              "name": "price",
              "type": "uint256"
            },
            {
              "internalType": "uint256",
              "name": "rentPrice",
              "type": "uint256"
            },
            {
              "internalType": "bool",
              "name": "originalForRent",
              "type": "bool"
            },
            {
              "internalType": "bool",
              "name": "originalForSale",
              "type": "bool"
            },
            {
              "internalType": "uint64",
              "name": "expires",
              "type": "uint64"
            },
            {
              "internalType": "bool",
              "name": "forRent",
              "type": "bool"
            },
            {
              "internalType": "bool",
              "name": "forSale",
              "type": "bool"
            },
            {
              "internalType": "bool",
              "name": "sold",
              "type": "bool"
            },
            {
              "internalType": "bool",
              "name": "rented",
              "type": "bool"
            }
          ],
          "internalType": "struct RentableNFTMarketplace.MarketItem[]",
          "name": "",
          "type": "tuple[]"
        }
      ],
      "stateMutability": "view",
      "type": "function"
    },
    {
      "inputs": [
        {
          "internalType": "uint256",
          "name": "tokenId",
          "type": "uint256"
        }
      ],
      "name": "getApproved",
      "outputs": [
        {
          "internalType": "address",
          "name": "",
          "type": "address"
        }
      ],
      "stateMutability": "view",
      "type": "function"
    },
    {
      "inputs": [],
      "name": "getListingPrice",
      "outputs": [
        {
          "internalType": "uint256",
          "name": "",
          "type": "uint256"
        }
      ],
      "stateMutability": "view",
      "type": "function"
    },
    {
      "inputs": [
        {
          "internalType": "uint256",
          "name": "tokenId",
          "type": "uint256"
        }
      ],
      "name": "getUserOf",
      "outputs": [
        {
          "internalType": "address",
          "name": "",
          "type": "address"
        }
      ],
      "stateMutability": "view",
      "type": "function"
    },
    {
      "inputs": [
        {
          "internalType": "uint256",
          "name": "",
          "type": "uint256"
        }
      ],
      "name": "idToMarketItem",
      "outputs": [
        {
          "internalType": "uint256",
          "name": "tokenId",
          "type": "uint256"
        },
        {
          "internalType": "address payable",
          "name": "seller",
          "type": "address"
        },
        {
          "internalType": "address payable",
          "name": "owner",
          "type": "address"
        },
        {
          "internalType": "uint256",
          "name": "price",
          "type": "uint256"
        },
        {
          "internalType": "uint256",
          "name": "rentPrice",
          "type": "uint256"
        },
        {
          "internalType": "bool",
          "name": "originalForRent",
          "type": "bool"
        },
        {
          "internalType": "bool",
          "name": "originalForSale",
          "type": "bool"
        },
        {
          "internalType": "uint64",
          "name": "expires",
          "type": "uint64"
        },
        {
          "internalType": "bool",
          "name": "forRent",
          "type": "bool"
        },
        {
          "internalType": "bool",
          "name": "forSale",
          "type": "bool"
        },
        {
          "internalType": "bool",
          "name": "sold",
          "type": "bool"
        },
        {
          "internalType": "bool",
          "name": "rented",
          "type": "bool"
        }
      ],
      "stateMutability": "view",
      "type": "function"
    },
    {
      "inputs": [
        {
          "internalType": "address",
          "name": "owner",
          "type": "address"
        },
        {
          "internalType": "address",
          "name": "operator",
          "type": "address"
        }
      ],
      "name": "isApprovedForAll",
      "outputs": [
        {
          "internalType": "bool",
          "name": "",
          "type": "bool"
        }
      ],
      "stateMutability": "view",
      "type": "function"
    },
    {
      "inputs": [],
      "name": "name",
      "outputs": [
        {
          "internalType": "string",
          "name": "",
          "type": "string"
        }
      ],
      "stateMutability": "view",
      "type": "function"
    },
    {
      "inputs": [],
      "name": "owner",
      "outputs": [
        {
          "internalType": "address payable",
          "name": "",
          "type": "address"
        }
      ],
      "stateMutability": "view",
      "type": "function"
    },
    {
      "inputs": [
        {
          "internalType": "uint256",
          "name": "tokenId",
          "type": "uint256"
        }
      ],
      "name": "ownerOf",
      "outputs": [
        {
          "internalType": "address",
          "name": "",
          "type": "address"
        }
      ],
      "stateMutability": "view",
      "type": "function"
    },
    {
      "inputs": [
        {
          "internalType": "bytes",
          "name": "performData",
          "type": "bytes"
        }
      ],
      "name": "performUpkeep",
      "outputs": [],
      "stateMutability": "nonpayable",
      "type": "function"
    },
    {
      "inputs": [
        {
          "internalType": "uint256",
          "name": "_tokenId",
          "type": "uint256"
        },
        {
          "internalType": "uint64",
          "name": "_expires",
          "type": "uint64"
        }
      ],
      "name": "rentOutToken",
      "outputs": [],
      "stateMutability": "payable",
      "type": "function"
    },
    {
      "inputs": [
        {
          "internalType": "uint256",
          "name": "tokenId",
          "type": "uint256"
        },
        {
          "internalType": "uint256",
          "name": "price",
          "type": "uint256"
        },
        {
          "internalType": "uint256",
          "name": "rentPrice",
          "type": "uint256"
        },
        {
          "internalType": "bool",
          "name": "forRent",
          "type": "bool"
        },
        {
          "internalType": "bool",
          "name": "forSale",
          "type": "bool"
        },
        {
          "internalType": "bool",
          "name": "member",
          "type": "bool"
        }
      ],
      "name": "resellToken",
      "outputs": [],
      "stateMutability": "payable",
      "type": "function"
    },
    {
      "inputs": [
        {
          "internalType": "address",
          "name": "from",
          "type": "address"
        },
        {
          "internalType": "address",
          "name": "to",
          "type": "address"
        },
        {
          "internalType": "uint256",
          "name": "tokenId",
          "type": "uint256"
        }
      ],
      "name": "safeTransferFrom",
      "outputs": [],
      "stateMutability": "nonpayable",
      "type": "function"
    },
    {
      "inputs": [
        {
          "internalType": "address",
          "name": "from",
          "type": "address"
        },
        {
          "internalType": "address",
          "name": "to",
          "type": "address"
        },
        {
          "internalType": "uint256",
          "name": "tokenId",
          "type": "uint256"
        },
        {
          "internalType": "bytes",
          "name": "_data",
          "type": "bytes"
        }
      ],
      "name": "safeTransferFrom",
      "outputs": [],
      "stateMutability": "nonpayable",
      "type": "function"
    },
    {
      "inputs": [
        {
          "internalType": "address",
          "name": "operator",
          "type": "address"
        },
        {
          "internalType": "bool",
          "name": "approved",
          "type": "bool"
        }
      ],
      "name": "setApprovalForAll",
      "outputs": [],
      "stateMutability": "nonpayable",
      "type": "function"
    },
    {
      "inputs": [
        {
          "internalType": "uint256",
          "name": "tokenId",
          "type": "uint256"
        },
        {
          "internalType": "address",
          "name": "user",
          "type": "address"
        },
        {
          "internalType": "uint64",
          "name": "expires",
          "type": "uint64"
        }
      ],
      "name": "setUser",
      "outputs": [],
      "stateMutability": "nonpayable",
      "type": "function"
    },
    {
      "inputs": [
        {
          "internalType": "bytes4",
          "name": "interfaceId",
          "type": "bytes4"
        }
      ],
      "name": "supportsInterface",
      "outputs": [
        {
          "internalType": "bool",
          "name": "",
          "type": "bool"
        }
      ],
      "stateMutability": "view",
      "type": "function"
    },
    {
      "inputs": [],
      "name": "symbol",
      "outputs": [
        {
          "internalType": "string",
          "name": "",
          "type": "string"
        }
      ],
      "stateMutability": "view",
      "type": "function"
    },
    {
      "inputs": [
        {
          "internalType": "uint256",
          "name": "_tokenId",
          "type": "uint256"
        }
      ],
      "name": "tokenURI",
      "outputs": [
        {
          "internalType": "string",
          "name": "",
          "type": "string"
        }
      ],
      "stateMutability": "view",
      "type": "function"
    },
    {
      "inputs": [
        {
          "internalType": "uint256",
          "name": "",
          "type": "uint256"
        }
      ],
      "name": "tokenURIs",
      "outputs": [
        {
          "internalType": "string",
          "name": "",
          "type": "string"
        }
      ],
      "stateMutability": "view",
      "type": "function"
    },
    {
      "inputs": [
        {
          "internalType": "address",
          "name": "from",
          "type": "address"
        },
        {
          "internalType": "address",
          "name": "to",
          "type": "address"
        },
        {
          "internalType": "uint256",
          "name": "tokenId",
          "type": "uint256"
        }
      ],
      "name": "transferFrom",
      "outputs": [],
      "stateMutability": "nonpayable",
      "type": "function"
    },
    {
      "inputs": [
        {
          "internalType": "uint256",
          "name": "_listingPrice",
          "type": "uint256"
        }
      ],
      "name": "updateListingPrice",
      "outputs": [],
      "stateMutability": "payable",
      "type": "function"
    },
    {
      "inputs": [
        {
          "internalType": "uint256",
          "name": "_tokenId",
          "type": "uint256"
        },
        {
          "internalType": "uint256",
          "name": "price",
          "type": "uint256"
        }
      ],
      "name": "updatePrice",
      "outputs": [],
      "stateMutability": "nonpayable",
      "type": "function"
    },
    {
      "inputs": [
        {
          "internalType": "uint256",
          "name": "_tokenId",
          "type": "uint256"
        },
        {
          "internalType": "uint256",
          "name": "rent_price",
          "type": "uint256"
        }
      ],
      "name": "updateRentPrice",
      "outputs": [],
      "stateMutability": "nonpayable",
      "type": "function"
    },
    {
      "inputs": [
        {
          "internalType": "uint256",
          "name": "tokenId",
          "type": "uint256"
        }
      ],
      "name": "userExpires",
      "outputs": [
        {
          "internalType": "uint256",
          "name": "",
          "type": "uint256"
        }
      ],
      "stateMutability": "view",
      "type": "function"
    },
    {
      "inputs": [
        {
          "internalType": "uint256",
          "name": "tokenId",
          "type": "uint256"
        }
      ],
      "name": "userOf",
      "outputs": [
        {
          "internalType": "address",
          "name": "",
          "type": "address"
        }
      ],
      "stateMutability": "view",
      "type": "function"
    },
    {
      "inputs": [],
      "name": "withdraw",
      "outputs": [],
      "stateMutability": "nonpayable",
      "type": "function"
    }
  ],
  "bytecode": "0x6080604052670de0b6b3a7640000600a553480156200001d57600080fd5b50604080518082018252600881526752656e7461626c6560c01b602080830191825283518085019094526002845261149560f21b908401528151919291839183916200006c91600091620000a0565b50805162000082906001906020840190620000a0565b5050600b80546001600160a01b031916331790555062000183915050565b828054620000ae9062000146565b90600052602060002090601f016020900481019282620000d257600085556200011d565b82601f10620000ed57805160ff19168380011785556200011d565b828001600101855582156200011d579182015b828111156200011d57825182559160200191906001019062000100565b506200012b9291506200012f565b5090565b5b808211156200012b576000815560010162000130565b600181811c908216806200015b57607f821691505b602082108114156200017d57634e487b7160e01b600052602260045260246000fd5b50919050565b6130be80620001936000396000f3fe60806040526004361061020f5760003560e01c80636e04ff0d11610118578063aa46a400116100a0578063c2f1f14a1161006f578063c2f1f14a146105d2578063c87b56dd146105f2578063e030565e14610612578063e61a70c014610632578063e985e9c51461074c57600080fd5b8063aa46a40014610575578063ae677aa31461058c578063b88d4fde1461059f578063be9af536146105bf57600080fd5b8063897db782116100e7578063897db782146104c35780638da5cb5b146104e35780638fc88c481461050357806395d89b4114610540578063a22cb4651461055557600080fd5b80636e04ff0d1461043e57806370a082311461046c57806382367b2d1461048c57806387506a0d146104ac57600080fd5b806323b872dd1161019b5780634feb29821161016a5780634feb2982146103b65780636352211e146103d657806367ea485c146103f65780636c8b703f1461040b5780636d6567101461042b57600080fd5b806323b872dd146103415780633ccfd60b1461036157806342842e0e146103765780634585e33b1461039657600080fd5b806309a26ba7116101e257806309a26ba7146102c55780630f08efe0146102d857806312e85585146102fa5780631f76e24214610319578063202e37401461032c57600080fd5b806301ffc9a71461021457806306fdde0314610249578063081812fc1461026b578063095ea7b3146102a3575b600080fd5b34801561022057600080fd5b5061023461022f366004612829565b610795565b60405190151581526020015b60405180910390f35b34801561025557600080fd5b5061025e6107c0565b604051610240919061289a565b34801561027757600080fd5b5061028b6102863660046128ad565b610852565b6040516001600160a01b039091168152602001610240565b3480156102af57600080fd5b506102c36102be3660046128dd565b6108ec565b005b6102c36102d336600461291e565b610a02565b3480156102e457600080fd5b506102ed610bfe565b604051610240919061294a565b34801561030657600080fd5b50600a545b604051908152602001610240565b6102c3610327366004612a34565b610de7565b34801561033857600080fd5b506102ed610f15565b34801561034d57600080fd5b506102c361035c366004612a93565b61113c565b34801561036d57600080fd5b506102c361116d565b34801561038257600080fd5b506102c3610391366004612a93565b6111fa565b3480156103a257600080fd5b506102c36103b1366004612acf565b611215565b3480156103c257600080fd5b506102c36103d1366004612b40565b61125e565b3480156103e257600080fd5b5061028b6103f13660046128ad565b6112ac565b34801561040257600080fd5b506102ed611323565b34801561041757600080fd5b5061025e6104263660046128ad565b611571565b6102c3610439366004612bed565b61160b565b34801561044a57600080fd5b5061045e610459366004612acf565b61168f565b604051610240929190612c59565b34801561047857600080fd5b5061030b610487366004612c74565b611750565b34801561049857600080fd5b506102c36104a7366004612b40565b6117d7565b3480156104b857600080fd5b5060085461030b9081565b3480156104cf57600080fd5b5061028b6104de3660046128ad565b611825565b3480156104ef57600080fd5b50600b5461028b906001600160a01b031681565b34801561050f57600080fd5b5061030b61051e3660046128ad565b600090815260066020526040902054600160a01b90046001600160401b031690565b34801561054c57600080fd5b5061025e611830565b34801561056157600080fd5b506102c3610570366004612c8f565b61183f565b34801561058157600080fd5b5060075461030b9081565b6102c361059a3660046128ad565b61184a565b3480156105ab57600080fd5b506102c36105ba366004612cb9565b611891565b6102c36105cd3660046128ad565b6118c3565b3480156105de57600080fd5b5061028b6105ed3660046128ad565b6119f3565b3480156105fe57600080fd5b5061025e61060d3660046128ad565b611a42565b34801561061e57600080fd5b506102c361062d366004612d34565b611a7d565b34801561063e57600080fd5b506106d461064d3660046128ad565b600c6020526000908152604090208054600182015460028301546003840154600485015460059095015493946001600160a01b03938416949290931692909160ff8082169161010081048216916001600160401b036201000083041691600160501b8104821691600160581b8204811691600160601b8104821691600160681b909104168c565b604080519c8d526001600160a01b039b8c1660208e015299909a16988b019890985260608a0196909652608089019490945291151560a0880152151560c08701526001600160401b031660e0860152151561010085015215156101208401521515610140830152151561016082015261018001610240565b34801561075857600080fd5b50610234610767366004612d70565b6001600160a01b03918216600090815260056020908152604080832093909416825291909152205460ff1690565b60006001600160e01b03198216632b424ad760e21b14806107ba57506107ba82611aae565b92915050565b6060600080546107cf90612d9a565b80601f01602080910402602001604051908101604052809291908181526020018280546107fb90612d9a565b80156108485780601f1061081d57610100808354040283529160200191610848565b820191906000526020600020905b81548152906001019060200180831161082b57829003601f168201915b5050505050905090565b6000818152600260205260408120546001600160a01b03166108d05760405162461bcd60e51b815260206004820152602c60248201527f4552433732313a20617070726f76656420717565727920666f72206e6f6e657860448201526b34b9ba32b73a103a37b5b2b760a11b60648201526084015b60405180910390fd5b506000908152600460205260409020546001600160a01b031690565b60006108f7826112ac565b9050806001600160a01b0316836001600160a01b031614156109655760405162461bcd60e51b815260206004820152602160248201527f4552433732313a20617070726f76616c20746f2063757272656e74206f776e656044820152603960f91b60648201526084016108c7565b336001600160a01b038216148061098157506109818133610767565b6109f35760405162461bcd60e51b815260206004820152603860248201527f4552433732313a20617070726f76652063616c6c6572206973206e6f74206f7760448201527f6e6572206e6f7220617070726f76656420666f7220616c6c000000000000000060648201526084016108c7565b6109fd8383611afe565b505050565b6000828152600c602052604090206005810154600160501b900460ff16610a6b5760405162461bcd60e51b815260206004820152601f60248201527f546f6b656e206973206e6f7420617661696c61626c6520666f722072656e740060448201526064016108c7565b6000610a76846119f3565b6001600160a01b031614610acc5760405162461bcd60e51b815260206004820152601760248201527f546f6b656e20697320616c72656164792072656e74656400000000000000000060448201526064016108c7565b8060040154341015610b2c5760405162461bcd60e51b8152602060048201526024808201527f496e73756666696369656e742066756e647320746f2072656e7420746865207460448201526337b5b2b760e11b60648201526084016108c7565b6000838152600c60205260409020600501805469ffffffffffffffffff00196dff000000000000000000000000ff19821660ff600160501b600160681b60ff60681b199095168517048116151591909117909217908116610100600160581b90920490921615150269ffffffffffffffff0000191617620100006001600160401b038516021761ffff60501b19169055610bc7833384611b6c565b5050600d80546001810182556000919091527fd7b6990105719101dabeb77144f2a3385c8033acd3af97e9423a695e81ad1eb50155565b60606000610c0b60075490565b90506000610c1860085490565b600754610c259190612deb565b9050600080826001600160401b03811115610c4257610c42612b62565b604051908082528060200260200182016040528015610c7b57816020015b610c68612713565b815260200190600190039081610c605790505b50905060005b84811015610dde5730600c6000610c99846001612e02565b81526020810191909152604001600020600201546001600160a01b03161415610dcc576000610cc9826001612e02565b6000818152600c60209081526040918290208251610180810184528154815260018201546001600160a01b03908116938201939093526002820154909216928201929092526003820154606082015260048201546080820152600582015460ff808216151560a08401526101008083048216151560c08501526001600160401b036201000084041660e0850152600160501b83048216151590840152600160581b820481161515610120840152600160601b820481161515610140840152600160681b90910416151561016082015285519293509091859087908110610db157610db1612e1a565b6020908102919091010152610dc7600186612e02565b945050505b80610dd681612e30565b915050610c81565b50949350505050565b6000868152600c60205260409020600201546001600160a01b03163314610e205760405162461bcd60e51b81526004016108c790612e4b565b8080610e2d5750600a5434145b610e495760405162461bcd60e51b81526004016108c790612e95565b6000868152600c6020526040902060058101805460038301889055600183018054336001600160a01b03199182161790915560028401805430921691909117905560049092018690556cff00000000000000000000ffff1990911661ff0019851515908116919091176101008515159081029190911761ffff60501b1916600160501b9290920260ff60581b191691909117600160581b91909102176dff000000ffffffffffffffff000019169055610f026008611bec565b610f0d333088611c43565b505050505050565b60606000610f2260075490565b905060008060005b83811015610f855733600c6000610f42846001612e02565b81526020810191909152604001600020600201546001600160a01b03161415610f7357610f70600184612e02565b92505b80610f7d81612e30565b915050610f2a565b506000826001600160401b03811115610fa057610fa0612b62565b604051908082528060200260200182016040528015610fd957816020015b610fc6612713565b815260200190600190039081610fbe5790505b50905060005b84811015610dde5733600c6000610ff7846001612e02565b81526020810191909152604001600020600201546001600160a01b0316141561112a576000611027826001612e02565b6000818152600c60209081526040918290208251610180810184528154815260018201546001600160a01b03908116938201939093526002820154909216928201929092526003820154606082015260048201546080820152600582015460ff808216151560a08401526101008083048216151560c08501526001600160401b036201000084041660e0850152600160501b83048216151590840152600160581b820481161515610120840152600160601b820481161515610140840152600160681b9091041615156101608201528551929350909185908790811061110f5761110f612e1a565b6020908102919091010152611125600186612e02565b945050505b8061113481612e30565b915050610fdf565b6111463382611dea565b6111625760405162461bcd60e51b81526004016108c790612ed9565b6109fd838383611c43565b600b546001600160a01b031633146111c75760405162461bcd60e51b815260206004820152601760248201527f4f6e6c79206f776e65722063616e20776974686472617700000000000000000060448201526064016108c7565b6040514790339082156108fc029083906000818181858888f193505050501580156111f6573d6000803e3d6000fd5b5050565b6109fd83838360405180602001604052806000815250611891565b6000611223828401846128ad565b6000818152600c602052604090206005810154919250906201000090046001600160401b031642106112585761125882611ee1565b50505050565b6000828152600c60205260409020600101546001600160a01b031633146112975760405162461bcd60e51b81526004016108c790612e4b565b6000918252600c602052604090912060040155565b6000818152600260205260408120546001600160a01b0316806107ba5760405162461bcd60e51b815260206004820152602960248201527f4552433732313a206f776e657220717565727920666f72206e6f6e657869737460448201526832b73a103a37b5b2b760b91b60648201526084016108c7565b6060600061133060075490565b9050600080826001600160401b0381111561134d5761134d612b62565b604051908082528060200260200182016040528015611376578160200160208202803683370190505b50905060005b838110156113ea57336113936105ed836001612e02565b6001600160a01b031614156113d8576113ad816001612e02565b8284815181106113bf576113bf612e1a565b60209081029190910101526113d5600184612e02565b92505b806113e281612e30565b91505061137c565b506000826001600160401b0381111561140557611405612b62565b60405190808252806020026020018201604052801561143e57816020015b61142b612713565b8152602001906001900390816114235790505b50905060005b83811015610dde57600083828151811061146057611460612e1a565b6020908102919091018101516000818152600c83526040908190208151610180810183528154815260018201546001600160a01b03908116958201959095526002820154909416918401919091526003810154606084015260048101546080840152600581015460ff808216151560a08601526101008083048216151560c08701526001600160401b036201000084041660e0870152600160501b83048216151590860152600160581b820481161515610120860152600160601b820481161515610140860152600160681b9091041615156101608401528551919350919085908590811061155157611551612e1a565b60200260200101819052505050808061156990612e30565b915050611444565b6009602052600090815260409020805461158a90612d9a565b80601f01602080910402602001604051908101604052809291908181526020018280546115b690612d9a565b80156116035780601f106115d857610100808354040283529160200191611603565b820191906000526020600020905b8154815290600101906020018083116115e657829003601f168201915b505050505081565b80806116185750600a5434145b6116345760405162461bcd60e51b81526004016108c790612e95565b611642600780546001019055565b600061164d60075490565b90506116593382612002565b60008181526009602090815260409091208851611678928a0190612777565b506116868187878787612150565b50505050505050565b6000606060005b600d54811015611734576000600d82815481106116b5576116b5612e1a565b6000918252602080832090910154808352600c90915260409091206005810154919250906001600160401b036201000090910416421061171f5760018260405160200161170491815260200190565b60405160208183030381529060405294509450505050611749565b5050808061172c90612e30565b915050611696565b50506040805160208101909152600080825291505b9250929050565b60006001600160a01b0382166117bb5760405162461bcd60e51b815260206004820152602a60248201527f4552433732313a2062616c616e636520717565727920666f7220746865207a65604482015269726f206164647265737360b01b60648201526084016108c7565b506001600160a01b031660009081526003602052604090205490565b6000828152600c60205260409020600101546001600160a01b031633146118105760405162461bcd60e51b81526004016108c790612e4b565b6000918252600c602052604090912060030155565b60006107ba826119f3565b6060600180546107cf90612d9a565b6111f6338383612479565b600b546001600160a01b0316331461188c5760405162461bcd60e51b815260206004820152600560248201526437bbb732b960d91b60448201526064016108c7565b600a55565b61189b3383611dea565b6118b75760405162461bcd60e51b81526004016108c790612ed9565b61125884848484612549565b6000818152600c6020526040902060038101546001909101546001600160a01b03163482111561195b5760405162461bcd60e51b815260206004820152603d60248201527f506c6561736520706179207468652061736b696e6720707269636520696e206f60448201527f7264657220746f20636f6d706c6574652074686520707572636861736500000060648201526084016108c7565b6000838152600c602052604090206002810180546001600160a01b031990811633179091556005820180546001909301805490921690915561ffff60581b19909116600160601b1790556119b3600880546001019055565b6119be303385611c43565b6040516001600160a01b038216903480156108fc02916000818181858888f19350505050158015611258573d6000803e3d6000fd5b60008181526006602052604081205442600160a01b9091046001600160401b031610611a3557506000908152600660205260409020546001600160a01b031690565b506000919050565b919050565b606060096000838152602001908152602001600020604051602001611a679190612f2a565b6040516020818303038152906040529050919050565b611a873384611dea565b611aa35760405162461bcd60e51b81526004016108c790612ed9565b6109fd838383611b6c565b60006001600160e01b031982166380ac58cd60e01b1480611adf57506001600160e01b03198216635b5e139f60e01b145b806107ba57506301ffc9a760e01b6001600160e01b03198316146107ba565b600081815260046020526040902080546001600160a01b0319166001600160a01b0384169081179091558190611b33826112ac565b6001600160a01b03167f8c5be1e5ebec7d5bd14f71427d1e84f3dd0314c0f7b2291e5b200ac8c7c3b92560405160405180910390a45050565b60008381526006602090815260409182902080546001600160a01b0386166001600160e01b03199091168117600160a01b6001600160401b03871690810291909117835593519384529092909186917f4e06b4e7000e659094299b3533b47b6aa8ad048e95e872d23d1f4ee55af89cfe910160405180910390a350505050565b805480611c3b5760405162461bcd60e51b815260206004820152601b60248201527f436f756e7465723a2064656372656d656e74206f766572666c6f77000000000060448201526064016108c7565b600019019055565b826001600160a01b0316611c56826112ac565b6001600160a01b031614611cba5760405162461bcd60e51b815260206004820152602560248201527f4552433732313a207472616e736665722066726f6d20696e636f72726563742060448201526437bbb732b960d91b60648201526084016108c7565b6001600160a01b038216611d1c5760405162461bcd60e51b8152602060048201526024808201527f4552433732313a207472616e7366657220746f20746865207a65726f206164646044820152637265737360e01b60648201526084016108c7565b611d2783838361257c565b611d32600082611afe565b6001600160a01b0383166000908152600360205260408120805460019290611d5b908490612deb565b90915550506001600160a01b0382166000908152600360205260408120805460019290611d89908490612e02565b909155505060008181526002602052604080822080546001600160a01b0319166001600160a01b0386811691821790925591518493918716917fddf252ad1be2c89b69c2b068fc378daa952ba7f163c4a11628f55a4df523b3ef91a4505050565b6000818152600260205260408120546001600160a01b0316611e635760405162461bcd60e51b815260206004820152602c60248201527f4552433732313a206f70657261746f7220717565727920666f72206e6f6e657860448201526b34b9ba32b73a103a37b5b2b760a11b60648201526084016108c7565b6000611e6e836112ac565b9050806001600160a01b0316846001600160a01b03161480611ea95750836001600160a01b0316611e9e84610852565b6001600160a01b0316145b80611ed957506001600160a01b0380821660009081526005602090815260408083209388168352929052205460ff165b949350505050565b6000818152600c6020526040812060058101805461010060ff8083161515600160501b0263ff0000ff60501b198416811792909204161515600160581b0260ff60581b1990911663ff00ffff60501b199092169190911717905590611f4890839080611b6c565b60005b600d548110156109fd5782600d8281548110611f6957611f69612e1a565b90600052602060002001541415611ff057600d8054611f8a90600190612deb565b81548110611f9a57611f9a612e1a565b9060005260206000200154600d8281548110611fb857611fb8612e1a565b600091825260209091200155600d805480611fd557611fd5612fc6565b60019003818190600052602060002001600090559055505050565b80611ffa81612e30565b915050611f4b565b6001600160a01b0382166120585760405162461bcd60e51b815260206004820181905260248201527f4552433732313a206d696e7420746f20746865207a65726f206164647265737360448201526064016108c7565b6000818152600260205260409020546001600160a01b0316156120bd5760405162461bcd60e51b815260206004820152601c60248201527f4552433732313a20746f6b656e20616c7265616479206d696e7465640000000060448201526064016108c7565b6120c96000838361257c565b6001600160a01b03821660009081526003602052604081208054600192906120f2908490612e02565b909155505060008181526002602052604080822080546001600160a01b0319166001600160a01b03861690811790915590518392907fddf252ad1be2c89b69c2b068fc378daa952ba7f163c4a11628f55a4df523b3ef908290a45050565b81158061215d5750600084115b61219a5760405162461bcd60e51b815260206004820152600e60248201526d1c1c9a58d9481c995c5d5a5c995960921b60448201526064016108c7565b8015806121a75750600083115b6121e95760405162461bcd60e51b81526020600482015260136024820152721c995b9d081c1c9a58d9481c995c5d5a5c9959606a1b60448201526064016108c7565b604051806101800160405280868152602001336001600160a01b03168152602001306001600160a01b031681526020018581526020018481526020018215158152602001831515815260200160006001600160401b031681526020018215158152602001831515815260200160001515815260200160001515815250600c60008781526020019081526020016000206000820151816000015560208201518160010160006101000a8154816001600160a01b0302191690836001600160a01b0316021790555060408201518160020160006101000a8154816001600160a01b0302191690836001600160a01b03160217905550606082015181600301556080820151816004015560a08201518160050160006101000a81548160ff02191690831515021790555060c08201518160050160016101000a81548160ff02191690831515021790555060e08201518160050160026101000a8154816001600160401b0302191690836001600160401b0316021790555061010082015181600501600a6101000a81548160ff02191690831515021790555061012082015181600501600b6101000a81548160ff02191690831515021790555061014082015181600501600c6101000a81548160ff02191690831515021790555061016082015181600501600d6101000a81548160ff0219169083151502179055509050506123ef333087611c43565b60408051338152306020820152908101859052606081018490528115156080820181905283151560a08301819052600060c0840181905260e0840192909252610100830152610120820181905261014082015285907f492deeedddcf20d370b3e1bfd0cb18f72d909aedbaf5c6b6b196848bb234660d906101600160405180910390a25050505050565b816001600160a01b0316836001600160a01b031614156124db5760405162461bcd60e51b815260206004820152601960248201527f4552433732313a20617070726f766520746f2063616c6c65720000000000000060448201526064016108c7565b6001600160a01b03838116600081815260056020908152604080832094871680845294825291829020805460ff191686151590811790915591519182527f17307eab39ab6107e8899845ad3d59bd9653f200f220920489ca2b5937696c3191015b60405180910390a3505050565b612554848484611c43565b61256084848484612606565b6112585760405162461bcd60e51b81526004016108c790612fdc565b816001600160a01b0316836001600160a01b0316141580156125b457506000818152600660205260409020546001600160a01b031615155b156109fd57600081815260066020908152604080832080546001600160e01b03191690555182815283917f4e06b4e7000e659094299b3533b47b6aa8ad048e95e872d23d1f4ee55af89cfe910161253c565b60006001600160a01b0384163b1561270857604051630a85bd0160e11b81526001600160a01b0385169063150b7a029061264a90339089908890889060040161302e565b602060405180830381600087803b15801561266457600080fd5b505af1925050508015612694575060408051601f3d908101601f191682019092526126919181019061306b565b60015b6126ee573d8080156126c2576040519150601f19603f3d011682016040523d82523d6000602084013e6126c7565b606091505b5080516126e65760405162461bcd60e51b81526004016108c790612fdc565b805181602001fd5b6001600160e01b031916630a85bd0160e11b149050611ed9565b506001949350505050565b6040805161018081018252600080825260208201819052918101829052606081018290526080810182905260a0810182905260c0810182905260e0810182905261010081018290526101208101829052610140810182905261016081019190915290565b82805461278390612d9a565b90600052602060002090601f0160209004810192826127a557600085556127eb565b82601f106127be57805160ff19168380011785556127eb565b828001600101855582156127eb579182015b828111156127eb5782518255916020019190600101906127d0565b506127f79291506127fb565b5090565b5b808211156127f757600081556001016127fc565b6001600160e01b03198116811461282657600080fd5b50565b60006020828403121561283b57600080fd5b813561284681612810565b9392505050565b6000815180845260005b8181101561287357602081850181015186830182015201612857565b81811115612885576000602083870101525b50601f01601f19169290920160200192915050565b602081526000612846602083018461284d565b6000602082840312156128bf57600080fd5b5035919050565b80356001600160a01b0381168114611a3d57600080fd5b600080604083850312156128f057600080fd5b6128f9836128c6565b946020939093013593505050565b80356001600160401b0381168114611a3d57600080fd5b6000806040838503121561293157600080fd5b8235915061294160208401612907565b90509250929050565b602080825282518282018190526000919060409081850190868401855b82811015612a1757815180518552868101516001600160a01b0390811688870152868201511686860152606080820151908601526080808201519086015260a08082015115159086015260c08082015115159086015260e0808201516001600160401b031690860152610100808201511515908601526101208082015115159086015261014080820151151590860152610160908101511515908501526101809093019290850190600101612967565b5091979650505050505050565b80358015158114611a3d57600080fd5b60008060008060008060c08789031215612a4d57600080fd5b863595506020870135945060408701359350612a6b60608801612a24565b9250612a7960808801612a24565b9150612a8760a08801612a24565b90509295509295509295565b600080600060608486031215612aa857600080fd5b612ab1846128c6565b9250612abf602085016128c6565b9150604084013590509250925092565b60008060208385031215612ae257600080fd5b82356001600160401b0380821115612af957600080fd5b818501915085601f830112612b0d57600080fd5b813581811115612b1c57600080fd5b866020828501011115612b2e57600080fd5b60209290920196919550909350505050565b60008060408385031215612b5357600080fd5b50508035926020909101359150565b634e487b7160e01b600052604160045260246000fd5b60006001600160401b0380841115612b9257612b92612b62565b604051601f8501601f19908116603f01168101908282118183101715612bba57612bba612b62565b81604052809350858152868686011115612bd357600080fd5b858560208301376000602087830101525050509392505050565b60008060008060008060c08789031215612c0657600080fd5b86356001600160401b03811115612c1c57600080fd5b8701601f81018913612c2d57600080fd5b612c3c89823560208401612b78565b9650506020870135945060408701359350612a6b60608801612a24565b8215158152604060208201526000611ed9604083018461284d565b600060208284031215612c8657600080fd5b612846826128c6565b60008060408385031215612ca257600080fd5b612cab836128c6565b915061294160208401612a24565b60008060008060808587031215612ccf57600080fd5b612cd8856128c6565b9350612ce6602086016128c6565b92506040850135915060608501356001600160401b03811115612d0857600080fd5b8501601f81018713612d1957600080fd5b612d2887823560208401612b78565b91505092959194509250565b600080600060608486031215612d4957600080fd5b83359250612d59602085016128c6565b9150612d6760408501612907565b90509250925092565b60008060408385031215612d8357600080fd5b612d8c836128c6565b9150612941602084016128c6565b600181811c90821680612dae57607f821691505b60208210811415612dcf57634e487b7160e01b600052602260045260246000fd5b50919050565b634e487b7160e01b600052601160045260246000fd5b600082821015612dfd57612dfd612dd5565b500390565b60008219821115612e1557612e15612dd5565b500190565b634e487b7160e01b600052603260045260246000fd5b6000600019821415612e4457612e44612dd5565b5060010190565b6020808252602a908201527f4f6e6c79206974656d206f776e65722063616e20706572666f726d20746869736040820152691037b832b930ba34b7b760b11b606082015260800190565b60208082526024908201527f5072696365206d75737420626520657175616c20746f206c697374696e6720706040820152637269636560e01b606082015260800190565b60208082526031908201527f4552433732313a207472616e736665722063616c6c6572206973206e6f74206f6040820152701ddb995c881b9bdc88185c1c1c9bdd9959607a1b606082015260800190565b600080835481600182811c915080831680612f4657607f831692505b6020808410821415612f6657634e487b7160e01b86526022600452602486fd5b818015612f7a5760018114612f8b57612fb8565b60ff19861689528489019650612fb8565b60008a81526020902060005b86811015612fb05781548b820152908501908301612f97565b505084890196505b509498975050505050505050565b634e487b7160e01b600052603160045260246000fd5b60208082526032908201527f4552433732313a207472616e7366657220746f206e6f6e20455243373231526560408201527131b2b4bb32b91034b6b83632b6b2b73a32b960711b606082015260800190565b6001600160a01b03858116825284166020820152604081018390526080606082018190526000906130619083018461284d565b9695505050505050565b60006020828403121561307d57600080fd5b81516128468161281056fea26469706673582212206c5ac5f985595b5ff3204cc8e19925e6c922714fabe392667925e59bce09168e64736f6c63430008090033",
  "linkReferences": {},
  "deployedLinkReferences": {}
}