{
  "_format": "hh-sol-artifact-1",
  "contractName": "RentableNFTMarketplace",
  "sourceName": "contracts/RentableNFTMarketplace.sol",
  "abi": [
    {
      "inputs": [
        {
          "internalType": "address",
          "name": "_wethAddress",
          "type": "address"
        }
      ],
      "stateMutability": "nonpayable",
      "type": "constructor"
    },
    {
      "anonymous": false,
      "inputs": [
        {
          "indexed": true,
          "internalType": "address",
          "name": "owner",
          "type": "address"
        },
        {
          "indexed": true,
          "internalType": "address",
          "name": "approved",
          "type": "address"
        },
        {
          "indexed": true,
          "internalType": "uint256",
          "name": "tokenId",
          "type": "uint256"
        }
      ],
      "name": "Approval",
      "type": "event"
    },
    {
      "anonymous": false,
      "inputs": [
        {
          "indexed": true,
          "internalType": "address",
          "name": "owner",
          "type": "address"
        },
        {
          "indexed": true,
          "internalType": "address",
          "name": "operator",
          "type": "address"
        },
        {
          "indexed": false,
          "internalType": "bool",
          "name": "approved",
          "type": "bool"
        }
      ],
      "name": "ApprovalForAll",
      "type": "event"
    },
    {
      "anonymous": false,
      "inputs": [
        {
          "indexed": true,
          "internalType": "uint256",
          "name": "tokenId",
          "type": "uint256"
        },
        {
          "indexed": false,
          "internalType": "address",
          "name": "owner",
          "type": "address"
        },
        {
          "indexed": false,
          "internalType": "bool",
          "name": "isWETH",
          "type": "bool"
        },
        {
          "indexed": false,
          "internalType": "uint256",
          "name": "price",
          "type": "uint256"
        },
        {
          "indexed": false,
          "internalType": "uint256",
          "name": "rentPrice",
          "type": "uint256"
        },
        {
          "indexed": false,
          "internalType": "bool",
          "name": "forRent",
          "type": "bool"
        },
        {
          "indexed": false,
          "internalType": "bool",
          "name": "forSale",
          "type": "bool"
        },
        {
          "indexed": false,
          "internalType": "bool",
          "name": "sold",
          "type": "bool"
        },
        {
          "indexed": false,
          "internalType": "bool",
          "name": "rented",
          "type": "bool"
        }
      ],
      "name": "MarketItemCreated",
      "type": "event"
    },
    {
      "anonymous": false,
      "inputs": [
        {
          "indexed": true,
          "internalType": "address",
          "name": "from",
          "type": "address"
        },
        {
          "indexed": true,
          "internalType": "address",
          "name": "to",
          "type": "address"
        },
        {
          "indexed": true,
          "internalType": "uint256",
          "name": "tokenId",
          "type": "uint256"
        }
      ],
      "name": "Transfer",
      "type": "event"
    },
    {
      "anonymous": false,
      "inputs": [
        {
          "indexed": true,
          "internalType": "uint256",
          "name": "tokenId",
          "type": "uint256"
        },
        {
          "indexed": true,
          "internalType": "address",
          "name": "user",
          "type": "address"
        },
        {
          "indexed": false,
          "internalType": "uint64",
          "name": "expires",
          "type": "uint64"
        }
      ],
      "name": "UpdateUser",
      "type": "event"
    },
    {
      "inputs": [],
      "name": "WETH_ADDRESS",
      "outputs": [
        {
          "internalType": "address",
          "name": "",
          "type": "address"
        }
      ],
      "stateMutability": "view",
      "type": "function"
    },
    {
      "inputs": [],
      "name": "_itemsRented",
      "outputs": [
        {
          "internalType": "uint256",
          "name": "_value",
          "type": "uint256"
        }
      ],
      "stateMutability": "view",
      "type": "function"
    },
    {
      "inputs": [],
      "name": "_itemsSold",
      "outputs": [
        {
          "internalType": "uint256",
          "name": "_value",
          "type": "uint256"
        }
      ],
      "stateMutability": "view",
      "type": "function"
    },
    {
      "inputs": [],
      "name": "_tokenIds",
      "outputs": [
        {
          "internalType": "uint256",
          "name": "_value",
          "type": "uint256"
        }
      ],
      "stateMutability": "view",
      "type": "function"
    },
    {
      "inputs": [
        {
          "internalType": "address",
          "name": "to",
          "type": "address"
        },
        {
          "internalType": "uint256",
          "name": "tokenId",
          "type": "uint256"
        }
      ],
      "name": "approve",
      "outputs": [],
      "stateMutability": "nonpayable",
      "type": "function"
    },
    {
      "inputs": [
        {
          "internalType": "address",
          "name": "owner",
          "type": "address"
        }
      ],
      "name": "balanceOf",
      "outputs": [
        {
          "internalType": "uint256",
          "name": "",
          "type": "uint256"
        }
      ],
      "stateMutability": "view",
      "type": "function"
    },
    {
      "inputs": [
        {
          "internalType": "bytes",
          "name": "",
          "type": "bytes"
        }
      ],
      "name": "checkUpkeep",
      "outputs": [
        {
          "internalType": "bool",
          "name": "upkeepNeeded",
          "type": "bool"
        },
        {
          "internalType": "bytes",
          "name": "performData",
          "type": "bytes"
        }
      ],
      "stateMutability": "view",
      "type": "function"
    },
    {
      "inputs": [
        {
          "internalType": "uint256",
          "name": "tokenId",
          "type": "uint256"
        }
      ],
      "name": "createMarketSale",
      "outputs": [],
      "stateMutability": "payable",
      "type": "function"
    },
    {
      "inputs": [
        {
          "internalType": "string",
          "name": "_tokenURI",
          "type": "string"
        },
        {
          "internalType": "bool",
          "name": "isWETH",
          "type": "bool"
        },
        {
          "internalType": "uint256",
          "name": "price",
          "type": "uint256"
        },
        {
          "internalType": "uint256",
          "name": "rentPrice",
          "type": "uint256"
        },
        {
          "internalType": "bool",
          "name": "forSale",
          "type": "bool"
        },
        {
          "internalType": "bool",
          "name": "forRent",
          "type": "bool"
        }
      ],
      "name": "createToken",
      "outputs": [],
      "stateMutability": "payable",
      "type": "function"
    },
    {
      "inputs": [],
      "name": "fetchMarketItems",
      "outputs": [
        {
          "components": [
            {
              "internalType": "uint256",
              "name": "tokenId",
              "type": "uint256"
            },
            {
              "internalType": "address payable",
              "name": "owner",
              "type": "address"
            },
            {
              "internalType": "bool",
              "name": "isWETH",
              "type": "bool"
            },
            {
              "internalType": "uint256",
              "name": "price",
              "type": "uint256"
            },
            {
              "internalType": "uint256",
              "name": "rentPrice",
              "type": "uint256"
            },
            {
              "internalType": "bool",
              "name": "forRent",
              "type": "bool"
            },
            {
              "internalType": "bool",
              "name": "forSale",
              "type": "bool"
            },
            {
              "internalType": "bool",
              "name": "sold",
              "type": "bool"
            },
            {
              "internalType": "bool",
              "name": "rented",
              "type": "bool"
            }
          ],
          "internalType": "struct RentableNFTMarketplace.MarketItem[]",
          "name": "",
          "type": "tuple[]"
        }
      ],
      "stateMutability": "view",
      "type": "function"
    },
    {
      "inputs": [],
      "name": "fetchMyNFTs",
      "outputs": [
        {
          "components": [
            {
              "internalType": "uint256",
              "name": "tokenId",
              "type": "uint256"
            },
            {
              "internalType": "address payable",
              "name": "owner",
              "type": "address"
            },
            {
              "internalType": "bool",
              "name": "isWETH",
              "type": "bool"
            },
            {
              "internalType": "uint256",
              "name": "price",
              "type": "uint256"
            },
            {
              "internalType": "uint256",
              "name": "rentPrice",
              "type": "uint256"
            },
            {
              "internalType": "bool",
              "name": "forRent",
              "type": "bool"
            },
            {
              "internalType": "bool",
              "name": "forSale",
              "type": "bool"
            },
            {
              "internalType": "bool",
              "name": "sold",
              "type": "bool"
            },
            {
              "internalType": "bool",
              "name": "rented",
              "type": "bool"
            }
          ],
          "internalType": "struct RentableNFTMarketplace.MarketItem[]",
          "name": "",
          "type": "tuple[]"
        }
      ],
      "stateMutability": "view",
      "type": "function"
    },
    {
      "inputs": [],
      "name": "fetchMyRentedNFTs",
      "outputs": [
        {
          "components": [
            {
              "internalType": "uint256",
              "name": "tokenId",
              "type": "uint256"
            },
            {
              "internalType": "address payable",
              "name": "owner",
              "type": "address"
            },
            {
              "internalType": "bool",
              "name": "isWETH",
              "type": "bool"
            },
            {
              "internalType": "uint256",
              "name": "price",
              "type": "uint256"
            },
            {
              "internalType": "uint256",
              "name": "rentPrice",
              "type": "uint256"
            },
            {
              "internalType": "bool",
              "name": "forRent",
              "type": "bool"
            },
            {
              "internalType": "bool",
              "name": "forSale",
              "type": "bool"
            },
            {
              "internalType": "bool",
              "name": "sold",
              "type": "bool"
            },
            {
              "internalType": "bool",
              "name": "rented",
              "type": "bool"
            },
            {
              "internalType": "address",
              "name": "renter",
              "type": "address"
            },
            {
              "internalType": "uint64",
              "name": "expires",
              "type": "uint64"
            }
          ],
          "internalType": "struct RentableNFTMarketplace.FullRentedItem[]",
          "name": "",
          "type": "tuple[]"
        }
      ],
      "stateMutability": "view",
      "type": "function"
    },
    {
      "inputs": [
        {
          "internalType": "uint256",
          "name": "tokenId",
          "type": "uint256"
        }
      ],
      "name": "getApproved",
      "outputs": [
        {
          "internalType": "address",
          "name": "",
          "type": "address"
        }
      ],
      "stateMutability": "view",
      "type": "function"
    },
    {
      "inputs": [],
      "name": "getListingPrice",
      "outputs": [
        {
          "internalType": "uint256",
          "name": "",
          "type": "uint256"
        }
      ],
      "stateMutability": "view",
      "type": "function"
    },
    {
      "inputs": [
        {
          "internalType": "uint256",
          "name": "tokenId",
          "type": "uint256"
        }
      ],
      "name": "getUserOf",
      "outputs": [
        {
          "internalType": "address",
          "name": "",
          "type": "address"
        }
      ],
      "stateMutability": "view",
      "type": "function"
    },
    {
      "inputs": [
        {
          "internalType": "uint256",
          "name": "",
          "type": "uint256"
        }
      ],
      "name": "idToMarketItem",
      "outputs": [
        {
          "internalType": "uint256",
          "name": "tokenId",
          "type": "uint256"
        },
        {
          "internalType": "address payable",
          "name": "owner",
          "type": "address"
        },
        {
          "internalType": "bool",
          "name": "isWETH",
          "type": "bool"
        },
        {
          "internalType": "uint256",
          "name": "price",
          "type": "uint256"
        },
        {
          "internalType": "uint256",
          "name": "rentPrice",
          "type": "uint256"
        },
        {
          "internalType": "bool",
          "name": "forRent",
          "type": "bool"
        },
        {
          "internalType": "bool",
          "name": "forSale",
          "type": "bool"
        },
        {
          "internalType": "bool",
          "name": "sold",
          "type": "bool"
        },
        {
          "internalType": "bool",
          "name": "rented",
          "type": "bool"
        }
      ],
      "stateMutability": "view",
      "type": "function"
    },
    {
      "inputs": [
        {
          "internalType": "uint256",
          "name": "",
          "type": "uint256"
        }
      ],
      "name": "idToRentedItem",
      "outputs": [
        {
          "internalType": "uint256",
          "name": "tokenId",
          "type": "uint256"
        },
        {
          "internalType": "address",
          "name": "renter",
          "type": "address"
        },
        {
          "internalType": "uint64",
          "name": "expires",
          "type": "uint64"
        }
      ],
      "stateMutability": "view",
      "type": "function"
    },
    {
      "inputs": [
        {
          "internalType": "address",
          "name": "owner",
          "type": "address"
        },
        {
          "internalType": "address",
          "name": "operator",
          "type": "address"
        }
      ],
      "name": "isApprovedForAll",
      "outputs": [
        {
          "internalType": "bool",
          "name": "",
          "type": "bool"
        }
      ],
      "stateMutability": "view",
      "type": "function"
    },
    {
      "inputs": [],
      "name": "name",
      "outputs": [
        {
          "internalType": "string",
          "name": "",
          "type": "string"
        }
      ],
      "stateMutability": "view",
      "type": "function"
    },
    {
      "inputs": [],
      "name": "owner",
      "outputs": [
        {
          "internalType": "address payable",
          "name": "",
          "type": "address"
        }
      ],
      "stateMutability": "view",
      "type": "function"
    },
    {
      "inputs": [
        {
          "internalType": "uint256",
          "name": "tokenId",
          "type": "uint256"
        }
      ],
      "name": "ownerOf",
      "outputs": [
        {
          "internalType": "address",
          "name": "",
          "type": "address"
        }
      ],
      "stateMutability": "view",
      "type": "function"
    },
    {
      "inputs": [
        {
          "internalType": "bytes",
          "name": "performData",
          "type": "bytes"
        }
      ],
      "name": "performUpkeep",
      "outputs": [],
      "stateMutability": "nonpayable",
      "type": "function"
    },
    {
      "inputs": [
        {
          "internalType": "uint256",
          "name": "_tokenId",
          "type": "uint256"
        },
        {
          "internalType": "uint64",
          "name": "_expires",
          "type": "uint64"
        }
      ],
      "name": "rentOutToken",
      "outputs": [],
      "stateMutability": "payable",
      "type": "function"
    },
    {
      "inputs": [
        {
          "internalType": "uint256",
          "name": "",
          "type": "uint256"
        }
      ],
      "name": "rentedTokenIds",
      "outputs": [
        {
          "internalType": "uint256",
          "name": "",
          "type": "uint256"
        }
      ],
      "stateMutability": "view",
      "type": "function"
    },
    {
      "inputs": [
        {
          "internalType": "uint256",
          "name": "tokenId",
          "type": "uint256"
        },
        {
          "internalType": "bool",
          "name": "isWETH",
          "type": "bool"
        },
        {
          "internalType": "uint256",
          "name": "price",
          "type": "uint256"
        },
        {
          "internalType": "uint256",
          "name": "rentPrice",
          "type": "uint256"
        },
        {
          "internalType": "bool",
          "name": "forRent",
          "type": "bool"
        },
        {
          "internalType": "bool",
          "name": "forSale",
          "type": "bool"
        }
      ],
      "name": "resellToken",
      "outputs": [],
      "stateMutability": "payable",
      "type": "function"
    },
    {
      "inputs": [
        {
          "internalType": "address",
          "name": "from",
          "type": "address"
        },
        {
          "internalType": "address",
          "name": "to",
          "type": "address"
        },
        {
          "internalType": "uint256",
          "name": "tokenId",
          "type": "uint256"
        }
      ],
      "name": "safeTransferFrom",
      "outputs": [],
      "stateMutability": "nonpayable",
      "type": "function"
    },
    {
      "inputs": [
        {
          "internalType": "address",
          "name": "from",
          "type": "address"
        },
        {
          "internalType": "address",
          "name": "to",
          "type": "address"
        },
        {
          "internalType": "uint256",
          "name": "tokenId",
          "type": "uint256"
        },
        {
          "internalType": "bytes",
          "name": "_data",
          "type": "bytes"
        }
      ],
      "name": "safeTransferFrom",
      "outputs": [],
      "stateMutability": "nonpayable",
      "type": "function"
    },
    {
      "inputs": [
        {
          "internalType": "address",
          "name": "operator",
          "type": "address"
        },
        {
          "internalType": "bool",
          "name": "approved",
          "type": "bool"
        }
      ],
      "name": "setApprovalForAll",
      "outputs": [],
      "stateMutability": "nonpayable",
      "type": "function"
    },
    {
      "inputs": [
        {
          "internalType": "uint256",
          "name": "tokenId",
          "type": "uint256"
        },
        {
          "internalType": "address",
          "name": "user",
          "type": "address"
        },
        {
          "internalType": "uint64",
          "name": "expires",
          "type": "uint64"
        }
      ],
      "name": "setUser",
      "outputs": [],
      "stateMutability": "nonpayable",
      "type": "function"
    },
    {
      "inputs": [
        {
          "internalType": "bytes4",
          "name": "interfaceId",
          "type": "bytes4"
        }
      ],
      "name": "supportsInterface",
      "outputs": [
        {
          "internalType": "bool",
          "name": "",
          "type": "bool"
        }
      ],
      "stateMutability": "view",
      "type": "function"
    },
    {
      "inputs": [],
      "name": "symbol",
      "outputs": [
        {
          "internalType": "string",
          "name": "",
          "type": "string"
        }
      ],
      "stateMutability": "view",
      "type": "function"
    },
    {
      "inputs": [
        {
          "internalType": "uint256",
          "name": "_tokenId",
          "type": "uint256"
        }
      ],
      "name": "tokenURI",
      "outputs": [
        {
          "internalType": "string",
          "name": "",
          "type": "string"
        }
      ],
      "stateMutability": "view",
      "type": "function"
    },
    {
      "inputs": [
        {
          "internalType": "uint256",
          "name": "",
          "type": "uint256"
        }
      ],
      "name": "tokenURIs",
      "outputs": [
        {
          "internalType": "string",
          "name": "",
          "type": "string"
        }
      ],
      "stateMutability": "view",
      "type": "function"
    },
    {
      "inputs": [
        {
          "internalType": "address",
          "name": "from",
          "type": "address"
        },
        {
          "internalType": "address",
          "name": "to",
          "type": "address"
        },
        {
          "internalType": "uint256",
          "name": "tokenId",
          "type": "uint256"
        }
      ],
      "name": "transferFrom",
      "outputs": [],
      "stateMutability": "nonpayable",
      "type": "function"
    },
    {
      "inputs": [
        {
          "internalType": "uint256",
          "name": "_listingPrice",
          "type": "uint256"
        }
      ],
      "name": "updateListingPrice",
      "outputs": [],
      "stateMutability": "nonpayable",
      "type": "function"
    },
    {
      "inputs": [
        {
          "internalType": "uint256",
          "name": "tokenId",
          "type": "uint256"
        }
      ],
      "name": "userExpires",
      "outputs": [
        {
          "internalType": "uint256",
          "name": "",
          "type": "uint256"
        }
      ],
      "stateMutability": "view",
      "type": "function"
    },
    {
      "inputs": [
        {
          "internalType": "uint256",
          "name": "tokenId",
          "type": "uint256"
        }
      ],
      "name": "userOf",
      "outputs": [
        {
          "internalType": "address",
          "name": "",
          "type": "address"
        }
      ],
      "stateMutability": "view",
      "type": "function"
    },
    {
      "inputs": [],
      "name": "withdraw",
      "outputs": [],
      "stateMutability": "nonpayable",
      "type": "function"
    }
  ],
  "bytecode": "0x6080604052662386f26fc10000600b553480156200001c57600080fd5b50604051620036cb380380620036cb8339810160408190526200003f916200018e565b604080518082018252600881526752656e7461626c6560c01b602080830191825283518085019094526002845261149560f21b908401528151919291839183916200008d91600091620000e8565b508051620000a3906001906020840190620000e8565b5050600c80546001600160a01b03199081163317909155600d80546001600160a01b0396909616958216861790556011805490911690941790935550620001fd915050565b828054620000f690620001c0565b90600052602060002090601f0160209004810192826200011a576000855562000165565b82601f106200013557805160ff191683800117855562000165565b8280016001018555821562000165579182015b828111156200016557825182559160200191906001019062000148565b506200017392915062000177565b5090565b5b8082111562000173576000815560010162000178565b600060208284031215620001a157600080fd5b81516001600160a01b0381168114620001b957600080fd5b9392505050565b600181811c90821680620001d557607f821691505b60208210811415620001f757634e487b7160e01b600052602260045260246000fd5b50919050565b6134be806200020d6000396000f3fe6080604052600436106102255760003560e01c80636e04ff0d11610123578063a22cb465116100ab578063c2f1f14a1161006f578063c2f1f14a14610694578063c87b56dd146106b4578063e030565e146106d4578063e61a70c0146106f4578063e985e9c5146107c657600080fd5b8063a22cb4651461060a578063aa46a4001461062a578063ae677aa314610641578063b88d4fde14610661578063be9af5361461068157600080fd5b80638d397995116100f25780638d3979951461056e5780638da5cb5b146105815780638fc88c48146105a1578063913f30d8146105de57806395d89b41146105f557600080fd5b80636e04ff0d146104e957806370a082311461051757806387506a0d14610537578063897db7821461054e57600080fd5b8063202e3740116101b15780636352211e116101755780636352211e146103f957806363868b581461041957806367ea485c1461042c5780636c8b703f1461044e5780636cec833c1461046e57600080fd5b8063202e37401461036f57806323b872dd146103845780633ccfd60b146103a457806342842e0e146103b95780634585e33b146103d957600080fd5b8063095ea7b3116101f8578063095ea7b3146102d957806309a26ba7146102fb5780630f08efe01461030e57806312e855851461033057806318684c2b1461034f57600080fd5b806301ffc9a71461022a578063040141e51461025f57806306fdde0314610297578063081812fc146102b9575b600080fd5b34801561023657600080fd5b5061024a610245366004612bde565b61080f565b60405190151581526020015b60405180910390f35b34801561026b57600080fd5b50600d5461027f906001600160a01b031681565b6040516001600160a01b039091168152602001610256565b3480156102a357600080fd5b506102ac61083a565b6040516102569190612c4f565b3480156102c557600080fd5b5061027f6102d4366004612c62565b6108cc565b3480156102e557600080fd5b506102f96102f4366004612c92565b610966565b005b6102f9610309366004612cd3565b610a7c565b34801561031a57600080fd5b50610323610e27565b6040516102569190612cff565b34801561033c57600080fd5b50600b545b604051908152602001610256565b34801561035b57600080fd5b5061034161036a366004612c62565b61107a565b34801561037b57600080fd5b5061032361109b565b34801561039057600080fd5b506102f961039f366004612daa565b6112fd565b3480156103b057600080fd5b506102f961132e565b3480156103c557600080fd5b506102f96103d4366004612daa565b6113bb565b3480156103e557600080fd5b506102f96103f4366004612de6565b6113d6565b34801561040557600080fd5b5061027f610414366004612c62565b611420565b6102f9610427366004612ef0565b611497565b34801561043857600080fd5b50610441611514565b6040516102569190612f8c565b34801561045a57600080fd5b506102ac610469366004612c62565b6117e0565b34801561047a57600080fd5b506104bd610489366004612c62565b600f60205260009081526040902080546001909101546001600160a01b03811690600160a01b90046001600160401b031683565b604080519384526001600160a01b0390921660208401526001600160401b031690820152606001610256565b3480156104f557600080fd5b50610509610504366004612de6565b61187a565b60405161025692919061304e565b34801561052357600080fd5b50610341610532366004613069565b61193c565b34801561054357600080fd5b506008546103419081565b34801561055a57600080fd5b5061027f610569366004612c62565b6119c3565b6102f961057c366004613084565b6119ce565b34801561058d57600080fd5b50600c5461027f906001600160a01b031681565b3480156105ad57600080fd5b506103416105bc366004612c62565b600090815260066020526040902054600160a01b90046001600160401b031690565b3480156105ea57600080fd5b506009546103419081565b34801561060157600080fd5b506102ac611ac3565b34801561061657600080fd5b506102f96106253660046130af565b611ad2565b34801561063657600080fd5b506007546103419081565b34801561064d57600080fd5b506102f961065c366004612c62565b611add565b34801561066d57600080fd5b506102f961067c3660046130e6565b611b50565b6102f961068f366004612c62565b611b82565b3480156106a057600080fd5b5061027f6106af366004612c62565b611e39565b3480156106c057600080fd5b506102ac6106cf366004612c62565b611e88565b3480156106e057600080fd5b506102f96106ef366004613161565b611ec3565b34801561070057600080fd5b5061076e61070f366004612c62565b600e602052600090815260409020805460018201546002830154600384015460049094015492936001600160a01b0383169360ff600160a01b909404841693818116916101008104821691620100008204811691630100000090041689565b60408051998a526001600160a01b0390981660208a01529515159688019690965260608701939093526080860191909152151560a0850152151560c084015290151560e0830152151561010082015261012001610256565b3480156107d257600080fd5b5061024a6107e136600461319d565b6001600160a01b03918216600090815260056020908152604080832093909416825291909152205460ff1690565b60006001600160e01b03198216632b424ad760e21b1480610834575061083482611ef4565b92915050565b606060008054610849906131c7565b80601f0160208091040260200160405190810160405280929190818152602001828054610875906131c7565b80156108c25780601f10610897576101008083540402835291602001916108c2565b820191906000526020600020905b8154815290600101906020018083116108a557829003601f168201915b5050505050905090565b6000818152600260205260408120546001600160a01b031661094a5760405162461bcd60e51b815260206004820152602c60248201527f4552433732313a20617070726f76656420717565727920666f72206e6f6e657860448201526b34b9ba32b73a103a37b5b2b760a11b60648201526084015b60405180910390fd5b506000908152600460205260409020546001600160a01b031690565b600061097182611420565b9050806001600160a01b0316836001600160a01b031614156109df5760405162461bcd60e51b815260206004820152602160248201527f4552433732313a20617070726f76616c20746f2063757272656e74206f776e656044820152603960f91b6064820152608401610941565b336001600160a01b03821614806109fb57506109fb81336107e1565b610a6d5760405162461bcd60e51b815260206004820152603860248201527f4552433732313a20617070726f76652063616c6c6572206973206e6f74206f7760448201527f6e6572206e6f7220617070726f76656420666f7220616c6c00000000000000006064820152608401610941565b610a778383611f44565b505050565b6000828152600e60205260409020600481015460ff16610ade5760405162461bcd60e51b815260206004820152601f60248201527f546f6b656e206973206e6f7420617661696c61626c6520666f722072656e74006044820152606401610941565b6000610ae984611e39565b6001600160a01b031614610b3f5760405162461bcd60e51b815260206004820152601760248201527f546f6b656e20697320616c72656164792072656e7465640000000000000000006044820152606401610941565b6001810154600160a01b900460ff16610b5f578060030154341015610b62565b34155b610bb95760405162461bcd60e51b815260206004820152602260248201527f496e636f7272656374207061796d656e74206d6574686f64206f7220616d6f756044820152611b9d60f21b6064820152608401610941565b6001810154600160a01b900460ff1615610cb457600d54600182015460038301546040516323b872dd60e01b81523360048201526001600160a01b03928316602482015260448101919091529116906323b872dd90606401602060405180830381600087803b158015610c2b57600080fd5b505af1158015610c3f573d6000803e3d6000fd5b505050506040513d601f19601f82011682018060405250810190610c639190613202565b610caf5760405162461bcd60e51b815260206004820181905260248201527f4661696c656420746f207472616e73666572205745544820666f722072656e746044820152606401610941565b610d5b565b8060030154341015610d1e5760405162461bcd60e51b815260206004820152602d60248201527f496e73756666696369656e742066756e647320746f2072656e7420746865207460448201526c6f6b656e20696e204d4154494360981b6064820152608401610941565b60018101546040516001600160a01b03909116903480156108fc02916000818181858888f19350505050158015610d59573d6000803e3d6000fd5b505b60048101805463ff00000019166301000000179055610d7e600980546001019055565b604080516060810182528481523360208083018281526001600160401b0380881685870190815260008a8152600f909452958320945185559051600194850180549651909216600160a01b026001600160e01b03199096166001600160a01b039190911617949094179093556010805492830181559092527f1b6847dc741a1b0cd08d278845f9d819d87b734759afb55fe2de5cb82a9ae67201849055610a7790849084611fb2565b60606000610e3460075490565b905060008060005b83811015610ec157600e6000610e53836001613235565b8152602081019190915260400160002060040154610100900460ff1680610e9c5750600e6000610e84836001613235565b815260208101919091526040016000206004015460ff165b15610eaf57610eac600184613235565b92505b80610eb98161324d565b915050610e3c565b506000826001600160401b03811115610edc57610edc612e57565b604051908082528060200260200182016040528015610f1557816020015b610f02612ae0565b815260200190600190039081610efa5790505b50905060005b8481101561107157600e6000610f32836001613235565b8152602081019190915260400160002060040154610100900460ff1680610f7b5750600e6000610f63836001613235565b815260208101919091526040016000206004015460ff165b1561105f576000610f8d826001613235565b6000818152600e60209081526040918290208251610120810184528154815260018201546001600160a01b0381169382019390935260ff600160a01b909304831615159381019390935260028101546060840152600381015460808401526004810154808316151560a08501526101008082048416151560c08601526201000082048416151560e0860152630100000090910490921615159183019190915285519293509185908790811061104457611044613268565b602090810291909101015261105a600186613235565b945050505b806110698161324d565b915050610f1b565b50949350505050565b6010818154811061108a57600080fd5b600091825260209091200154905081565b606060006110a860075490565b905060008060005b838110156111415733600e60006110c8846001613235565b81526020810191909152604001600020600101546001600160a01b031614801561111c5750600e60006110fc836001613235565b81526020810191909152604001600020600401546301000000900460ff16155b1561112f5761112c600184613235565b92505b806111398161324d565b9150506110b0565b506000826001600160401b0381111561115c5761115c612e57565b60405190808252806020026020018201604052801561119557816020015b611182612ae0565b81526020019060019003908161117a5790505b50905060005b848110156110715733600e60006111b3846001613235565b81526020810191909152604001600020600101546001600160a01b03161480156112075750600e60006111e7836001613235565b81526020810191909152604001600020600401546301000000900460ff16155b156112eb576000611219826001613235565b6000818152600e60209081526040918290208251610120810184528154815260018201546001600160a01b0381169382019390935260ff600160a01b909304831615159381019390935260028101546060840152600381015460808401526004810154808316151560a08501526101008082048416151560c08601526201000082048416151560e086015263010000009091049092161515918301919091528551929350918590879081106112d0576112d0613268565b60209081029190910101526112e6600186613235565b945050505b806112f58161324d565b91505061119b565b6113073382612032565b6113235760405162461bcd60e51b81526004016109419061327e565b610a77838383612129565b600c546001600160a01b031633146113885760405162461bcd60e51b815260206004820152601760248201527f4f6e6c79206f776e65722063616e2077697468647261770000000000000000006044820152606401610941565b6040514790339082156108fc029083906000818181858888f193505050501580156113b7573d6000803e3d6000fd5b5050565b610a7783838360405180602001604052806000815250611b50565b60006113e482840184612c62565b6000818152600f60205260409020600181015491925090600160a01b90046001600160401b0316421061141a5761141a826122d0565b50505050565b6000818152600260205260408120546001600160a01b0316806108345760405162461bcd60e51b815260206004820152602960248201527f4552433732313a206f776e657220717565727920666f72206e6f6e657869737460448201526832b73a103a37b5b2b760b91b6064820152608401610941565b600b5434146114b85760405162461bcd60e51b8152600401610941906132cf565b6114c6600780546001019055565b60006114d160075490565b90506114dd33826123b4565b6000818152600a6020908152604090912088516114fc928a0190612b2c565b5061150b818787878787612502565b50505050505050565b6060600061152160075490565b9050600080826001600160401b0381111561153e5761153e612e57565b604051908082528060200260200182016040528015611567578160200160208202803683370190505b50905060005b8381101561161057336115846106af836001613235565b6001600160a01b03161480156115c35750600e60006115a4836001613235565b81526020810191909152604001600020600401546301000000900460ff165b156115fe576115d3816001613235565b8284815181106115e5576115e5613268565b60209081029190910101526115fb600184613235565b92505b806116088161324d565b91505061156d565b506000826001600160401b0381111561162b5761162b612e57565b6040519080825280602002602001820160405280156116b257816020015b604080516101608101825260008082526020808301829052928201819052606082018190526080820181905260a0820181905260c0820181905260e082018190526101008201819052610120820181905261014082015282526000199092019101816116495790505b50905060005b838110156110715760008382815181106116d4576116d4613268565b6020908102919091018101516000818152600e83526040808220600f8552918190208151610160810183528481526001808501546001600160a01b0380821698840198909852600160a01b9081900460ff90811615159584019590955260028601546060840152600386015460808401526004860154808616151560a08501526101008082048716151560c08601526201000082048716151560e08601526301000000909104909516151594830194909452820154958616610120820152919094046001600160401b031661014082015286519294509092918690869081106117bf576117bf613268565b602002602001018190525050505080806117d89061324d565b9150506116b8565b600a60205260009081526040902080546117f9906131c7565b80601f0160208091040260200160405190810160405280929190818152602001828054611825906131c7565b80156118725780601f1061184757610100808354040283529160200191611872565b820191906000526020600020905b81548152906001019060200180831161185557829003601f168201915b505050505081565b6000606060005b601054811015611920576000601082815481106118a0576118a0613268565b6000918252602080832090910154808352600f90915260409091206001810154919250906001600160401b03600160a01b90910416421061190b576001826040516020016118f091815260200190565b60405160208183030381529060405294509450505050611935565b505080806119189061324d565b915050611881565b50506040805160208101909152600080825291505b9250929050565b60006001600160a01b0382166119a75760405162461bcd60e51b815260206004820152602a60248201527f4552433732313a2062616c616e636520717565727920666f7220746865207a65604482015269726f206164647265737360b01b6064820152608401610941565b506001600160a01b031660009081526003602052604090205490565b600061083482611e39565b6000868152600e60205260409020600101546001600160a01b03163314611a375760405162461bcd60e51b815260206004820152601a60248201527f4f6e6c79206974656d206f776e65722063616e20726573656c6c0000000000006044820152606401610941565b600b543414611a585760405162461bcd60e51b8152600401610941906132cf565b6000868152600e6020526040902060018101805460ff60a01b1916600160a01b881515021790556002810185905560038101849055600401805461ffff191683151561ff00191617610100831515021763ffff000019169055611abb60086127ef565b505050505050565b606060018054610849906131c7565b6113b7338383612846565b600c546001600160a01b03163314611b4b5760405162461bcd60e51b815260206004820152602b60248201527f4f6e6c7920636f6e7472616374206f776e65722063616e20706572666f726d2060448201526a3a3434b99030b1ba34b7b760a91b6064820152608401610941565b600b55565b611b5a3383612032565b611b765760405162461bcd60e51b81526004016109419061327e565b61141a84848484612916565b6000818152600e602052604090206001810154600282015460048301546001600160a01b039092169291610100900460ff16611bf45760405162461bcd60e51b81526020600482015260116024820152704974656d206e6f7420666f722073616c6560781b6044820152606401610941565b6001820154600160a01b900460ff16611c0f57803414611c12565b34155b611c525760405162461bcd60e51b8152602060048201526011602482015270125b98dbdc9c9958dd081c185e5b595b9d607a1b6044820152606401610941565b6001820154600160a01b900460ff1615611d4757600d5460018301546040516323b872dd60e01b81523360048201526001600160a01b039182166024820152604481018490529116906323b872dd90606401602060405180830381600087803b158015611cbe57600080fd5b505af1158015611cd2573d6000803e3d6000fd5b505050506040513d601f19601f82011682018060405250810190611cf69190613202565b611d425760405162461bcd60e51b815260206004820152601760248201527f4661696c656420746f207472616e7366657220574554480000000000000000006044820152606401610941565b611df9565b803414611dbc5760405162461bcd60e51b815260206004820152603d60248201527f506c6561736520706179207468652061736b696e6720707269636520696e204d60448201527f4154494320746f20636f6d706c657465207468652070757263686173650000006064820152608401610941565b60018201546040516001600160a01b03909116903480156108fc02916000818181858888f19350505050158015611df7573d6000803e3d6000fd5b505b6001820180546001600160a01b0319163317905560048201805462ffffff191662010000179055611e2e600880546001019055565b61141a833386612129565b60008181526006602052604081205442600160a01b9091046001600160401b031610611e7b57506000908152600660205260409020546001600160a01b031690565b506000919050565b919050565b6060600a6000838152602001908152602001600020604051602001611ead9190613313565b6040516020818303038152906040529050919050565b611ecd3384612032565b611ee95760405162461bcd60e51b81526004016109419061327e565b610a77838383611fb2565b60006001600160e01b031982166380ac58cd60e01b1480611f2557506001600160e01b03198216635b5e139f60e01b145b8061083457506301ffc9a760e01b6001600160e01b0319831614610834565b600081815260046020526040902080546001600160a01b0319166001600160a01b0384169081179091558190611f7982611420565b6001600160a01b03167f8c5be1e5ebec7d5bd14f71427d1e84f3dd0314c0f7b2291e5b200ac8c7c3b92560405160405180910390a45050565b60008381526006602090815260409182902080546001600160a01b0386166001600160e01b03199091168117600160a01b6001600160401b03871690810291909117835593519384529092909186917f4e06b4e7000e659094299b3533b47b6aa8ad048e95e872d23d1f4ee55af89cfe910160405180910390a350505050565b6000818152600260205260408120546001600160a01b03166120ab5760405162461bcd60e51b815260206004820152602c60248201527f4552433732313a206f70657261746f7220717565727920666f72206e6f6e657860448201526b34b9ba32b73a103a37b5b2b760a11b6064820152608401610941565b60006120b683611420565b9050806001600160a01b0316846001600160a01b031614806120f15750836001600160a01b03166120e6846108cc565b6001600160a01b0316145b8061212157506001600160a01b0380821660009081526005602090815260408083209388168352929052205460ff165b949350505050565b826001600160a01b031661213c82611420565b6001600160a01b0316146121a05760405162461bcd60e51b815260206004820152602560248201527f4552433732313a207472616e736665722066726f6d20696e636f72726563742060448201526437bbb732b960d91b6064820152608401610941565b6001600160a01b0382166122025760405162461bcd60e51b8152602060048201526024808201527f4552433732313a207472616e7366657220746f20746865207a65726f206164646044820152637265737360e01b6064820152608401610941565b61220d838383612949565b612218600082611f44565b6001600160a01b03831660009081526003602052604081208054600192906122419084906133af565b90915550506001600160a01b038216600090815260036020526040812080546001929061226f908490613235565b909155505060008181526002602052604080822080546001600160a01b0319166001600160a01b0386811691821790925591518493918716917fddf252ad1be2c89b69c2b068fc378daa952ba7f163c4a11628f55a4df523b3ef91a4505050565b6000818152600e6020526040812060048101805463ff00000019169055906122fa90839080611fb2565b60005b601054811015610a7757826010828154811061231b5761231b613268565b906000526020600020015414156123a2576010805461233c906001906133af565b8154811061234c5761234c613268565b90600052602060002001546010828154811061236a5761236a613268565b6000918252602090912001556010805480612387576123876133c6565b60019003818190600052602060002001600090559055505050565b806123ac8161324d565b9150506122fd565b6001600160a01b03821661240a5760405162461bcd60e51b815260206004820181905260248201527f4552433732313a206d696e7420746f20746865207a65726f20616464726573736044820152606401610941565b6000818152600260205260409020546001600160a01b03161561246f5760405162461bcd60e51b815260206004820152601c60248201527f4552433732313a20746f6b656e20616c7265616479206d696e746564000000006044820152606401610941565b61247b60008383612949565b6001600160a01b03821660009081526003602052604081208054600192906124a4908490613235565b909155505060008181526002602052604080822080546001600160a01b0319166001600160a01b03861690811790915590518392907fddf252ad1be2c89b69c2b068fc378daa952ba7f163c4a11628f55a4df523b3ef908290a45050565b3361250c87611420565b6001600160a01b03161461256c5760405162461bcd60e51b815260206004820152602160248201527f4f6e6c7920746865206f776e65722063616e206c6973742074686520746f6b656044820152603760f91b6064820152608401610941565b8115806125795750600084115b6125b65760405162461bcd60e51b815260206004820152600e60248201526d1c1c9a58d9481c995c5d5a5c995960921b6044820152606401610941565b8015806125c35750600083115b6126055760405162461bcd60e51b81526020600482015260136024820152721c995b9d081c1c9a58d9481c995c5d5a5c9959606a1b6044820152606401610941565b604051806101200160405280878152602001336001600160a01b0316815260200186151581526020018581526020018481526020018215158152602001831515815260200160001515815260200160001515815250600e60008881526020019081526020016000206000820151816000015560208201518160010160006101000a8154816001600160a01b0302191690836001600160a01b0316021790555060408201518160010160146101000a81548160ff021916908315150217905550606082015181600201556080820151816003015560a08201518160040160006101000a81548160ff02191690831515021790555060c08201518160040160016101000a81548160ff02191690831515021790555060e08201518160040160026101000a81548160ff0219169083151502179055506101008201518160040160036101000a81548160ff021916908315150217905550905050857f4542fed37775d324b1fc0aef5b8c53703e366c199b20ab4d6c75e2e8bf3fd8dc3387878786886000806040516127df9897969594939291906001600160a01b0398909816885295151560208801526040870194909452606086019290925215156080850152151560a0840152151560c0830152151560e08201526101000190565b60405180910390a2505050505050565b80548061283e5760405162461bcd60e51b815260206004820152601b60248201527f436f756e7465723a2064656372656d656e74206f766572666c6f7700000000006044820152606401610941565b600019019055565b816001600160a01b0316836001600160a01b031614156128a85760405162461bcd60e51b815260206004820152601960248201527f4552433732313a20617070726f766520746f2063616c6c6572000000000000006044820152606401610941565b6001600160a01b03838116600081815260056020908152604080832094871680845294825291829020805460ff191686151590811790915591519182527f17307eab39ab6107e8899845ad3d59bd9653f200f220920489ca2b5937696c3191015b60405180910390a3505050565b612921848484612129565b61292d848484846129d3565b61141a5760405162461bcd60e51b8152600401610941906133dc565b816001600160a01b0316836001600160a01b03161415801561298157506000818152600660205260409020546001600160a01b031615155b15610a7757600081815260066020908152604080832080546001600160e01b03191690555182815283917f4e06b4e7000e659094299b3533b47b6aa8ad048e95e872d23d1f4ee55af89cfe9101612909565b60006001600160a01b0384163b15612ad557604051630a85bd0160e11b81526001600160a01b0385169063150b7a0290612a1790339089908890889060040161342e565b602060405180830381600087803b158015612a3157600080fd5b505af1925050508015612a61575060408051601f3d908101601f19168201909252612a5e9181019061346b565b60015b612abb573d808015612a8f576040519150601f19603f3d011682016040523d82523d6000602084013e612a94565b606091505b508051612ab35760405162461bcd60e51b8152600401610941906133dc565b805181602001fd5b6001600160e01b031916630a85bd0160e11b149050612121565b506001949350505050565b6040805161012081018252600080825260208201819052918101829052606081018290526080810182905260a0810182905260c0810182905260e0810182905261010081019190915290565b828054612b38906131c7565b90600052602060002090601f016020900481019282612b5a5760008555612ba0565b82601f10612b7357805160ff1916838001178555612ba0565b82800160010185558215612ba0579182015b82811115612ba0578251825591602001919060010190612b85565b50612bac929150612bb0565b5090565b5b80821115612bac5760008155600101612bb1565b6001600160e01b031981168114612bdb57600080fd5b50565b600060208284031215612bf057600080fd5b8135612bfb81612bc5565b9392505050565b6000815180845260005b81811015612c2857602081850181015186830182015201612c0c565b81811115612c3a576000602083870101525b50601f01601f19169290920160200192915050565b602081526000612bfb6020830184612c02565b600060208284031215612c7457600080fd5b5035919050565b80356001600160a01b0381168114611e8357600080fd5b60008060408385031215612ca557600080fd5b612cae83612c7b565b946020939093013593505050565b80356001600160401b0381168114611e8357600080fd5b60008060408385031215612ce657600080fd5b82359150612cf660208401612cbc565b90509250929050565b602080825282518282018190526000919060409081850190868401855b82811015612d9d57815180518552868101516001600160a01b03168786015285810151151586860152606080820151908601526080808201519086015260a08082015115159086015260c08082015115159086015260e080820151151590860152610100908101511515908501526101209093019290850190600101612d1c565b5091979650505050505050565b600080600060608486031215612dbf57600080fd5b612dc884612c7b565b9250612dd660208501612c7b565b9150604084013590509250925092565b60008060208385031215612df957600080fd5b82356001600160401b0380821115612e1057600080fd5b818501915085601f830112612e2457600080fd5b813581811115612e3357600080fd5b866020828501011115612e4557600080fd5b60209290920196919550909350505050565b634e487b7160e01b600052604160045260246000fd5b60006001600160401b0380841115612e8757612e87612e57565b604051601f8501601f19908116603f01168101908282118183101715612eaf57612eaf612e57565b81604052809350858152868686011115612ec857600080fd5b858560208301376000602087830101525050509392505050565b8015158114612bdb57600080fd5b60008060008060008060c08789031215612f0957600080fd5b86356001600160401b03811115612f1f57600080fd5b8701601f81018913612f3057600080fd5b612f3f89823560208401612e6d565b9650506020870135612f5081612ee2565b945060408701359350606087013592506080870135612f6e81612ee2565b915060a0870135612f7e81612ee2565b809150509295509295509295565b602080825282518282018190526000919060409081850190868401855b82811015612d9d57815180518552868101516001600160a01b039081168887015286820151151587870152606080830151908701526080808301519087015260a08083015115159087015260c08083015115159087015260e080830151151590870152610100808301511515908701526101208083015190911690860152610140908101516001600160401b0316908501526101609093019290850190600101612fa9565b82151581526040602082015260006121216040830184612c02565b60006020828403121561307b57600080fd5b612bfb82612c7b565b60008060008060008060c0878903121561309d57600080fd5b863595506020870135612f5081612ee2565b600080604083850312156130c257600080fd5b6130cb83612c7b565b915060208301356130db81612ee2565b809150509250929050565b600080600080608085870312156130fc57600080fd5b61310585612c7b565b935061311360208601612c7b565b92506040850135915060608501356001600160401b0381111561313557600080fd5b8501601f8101871361314657600080fd5b61315587823560208401612e6d565b91505092959194509250565b60008060006060848603121561317657600080fd5b8335925061318660208501612c7b565b915061319460408501612cbc565b90509250925092565b600080604083850312156131b057600080fd5b6131b983612c7b565b9150612cf660208401612c7b565b600181811c908216806131db57607f821691505b602082108114156131fc57634e487b7160e01b600052602260045260246000fd5b50919050565b60006020828403121561321457600080fd5b8151612bfb81612ee2565b634e487b7160e01b600052601160045260246000fd5b600082198211156132485761324861321f565b500190565b60006000198214156132615761326161321f565b5060010190565b634e487b7160e01b600052603260045260246000fd5b60208082526031908201527f4552433732313a207472616e736665722063616c6c6572206973206e6f74206f6040820152701ddb995c881b9bdc88185c1c1c9bdd9959607a1b606082015260800190565b60208082526024908201527f5072696365206d75737420626520657175616c20746f206c697374696e6720706040820152637269636560e01b606082015260800190565b600080835481600182811c91508083168061332f57607f831692505b602080841082141561334f57634e487b7160e01b86526022600452602486fd5b8180156133635760018114613374576133a1565b60ff198616895284890196506133a1565b60008a81526020902060005b868110156133995781548b820152908501908301613380565b505084890196505b509498975050505050505050565b6000828210156133c1576133c161321f565b500390565b634e487b7160e01b600052603160045260246000fd5b60208082526032908201527f4552433732313a207472616e7366657220746f206e6f6e20455243373231526560408201527131b2b4bb32b91034b6b83632b6b2b73a32b960711b606082015260800190565b6001600160a01b038581168252841660208201526040810183905260806060820181905260009061346190830184612c02565b9695505050505050565b60006020828403121561347d57600080fd5b8151612bfb81612bc556fea2646970667358221220c09597b3841ac6547ae098b86e1d7195b57bdcbcfbf68e2f58986de40f29dda764736f6c63430008090033",
  "linkReferences": {},
  "deployedLinkReferences": {}
}