{
  "_format": "hh-sol-artifact-1",
  "contractName": "RentableNFTMarketplace",
  "sourceName": "contracts/RentableNFTMarketplace.sol",
  "abi": [
    {
      "inputs": [],
      "stateMutability": "nonpayable",
      "type": "constructor"
    },
    {
      "anonymous": false,
      "inputs": [
        {
          "indexed": true,
          "internalType": "address",
          "name": "owner",
          "type": "address"
        },
        {
          "indexed": true,
          "internalType": "address",
          "name": "approved",
          "type": "address"
        },
        {
          "indexed": true,
          "internalType": "uint256",
          "name": "tokenId",
          "type": "uint256"
        }
      ],
      "name": "Approval",
      "type": "event"
    },
    {
      "anonymous": false,
      "inputs": [
        {
          "indexed": true,
          "internalType": "address",
          "name": "owner",
          "type": "address"
        },
        {
          "indexed": true,
          "internalType": "address",
          "name": "operator",
          "type": "address"
        },
        {
          "indexed": false,
          "internalType": "bool",
          "name": "approved",
          "type": "bool"
        }
      ],
      "name": "ApprovalForAll",
      "type": "event"
    },
    {
      "anonymous": false,
      "inputs": [
        {
          "indexed": true,
          "internalType": "uint256",
          "name": "tokenId",
          "type": "uint256"
        },
        {
          "indexed": false,
          "internalType": "address",
          "name": "seller",
          "type": "address"
        },
        {
          "indexed": false,
          "internalType": "address",
          "name": "owner",
          "type": "address"
        },
        {
          "indexed": false,
          "internalType": "uint256",
          "name": "price",
          "type": "uint256"
        },
        {
          "indexed": false,
          "internalType": "uint256",
          "name": "rentPrice",
          "type": "uint256"
        },
        {
          "indexed": false,
          "internalType": "bool",
          "name": "originalForRent",
          "type": "bool"
        },
        {
          "indexed": false,
          "internalType": "bool",
          "name": "originalForSale",
          "type": "bool"
        },
        {
          "indexed": false,
          "internalType": "uint64",
          "name": "expires",
          "type": "uint64"
        },
        {
          "indexed": false,
          "internalType": "bool",
          "name": "forRent",
          "type": "bool"
        },
        {
          "indexed": false,
          "internalType": "bool",
          "name": "forSale",
          "type": "bool"
        },
        {
          "indexed": false,
          "internalType": "bool",
          "name": "sold",
          "type": "bool"
        },
        {
          "indexed": false,
          "internalType": "bool",
          "name": "rented",
          "type": "bool"
        }
      ],
      "name": "MarketItemCreated",
      "type": "event"
    },
    {
      "anonymous": false,
      "inputs": [
        {
          "indexed": true,
          "internalType": "address",
          "name": "from",
          "type": "address"
        },
        {
          "indexed": true,
          "internalType": "address",
          "name": "to",
          "type": "address"
        },
        {
          "indexed": true,
          "internalType": "uint256",
          "name": "tokenId",
          "type": "uint256"
        }
      ],
      "name": "Transfer",
      "type": "event"
    },
    {
      "anonymous": false,
      "inputs": [
        {
          "indexed": true,
          "internalType": "uint256",
          "name": "tokenId",
          "type": "uint256"
        },
        {
          "indexed": true,
          "internalType": "address",
          "name": "user",
          "type": "address"
        },
        {
          "indexed": false,
          "internalType": "uint64",
          "name": "expires",
          "type": "uint64"
        }
      ],
      "name": "UpdateUser",
      "type": "event"
    },
    {
      "inputs": [],
      "name": "_itemsSold",
      "outputs": [
        {
          "internalType": "uint256",
          "name": "_value",
          "type": "uint256"
        }
      ],
      "stateMutability": "view",
      "type": "function"
    },
    {
      "inputs": [],
      "name": "_tokenIds",
      "outputs": [
        {
          "internalType": "uint256",
          "name": "_value",
          "type": "uint256"
        }
      ],
      "stateMutability": "view",
      "type": "function"
    },
    {
      "inputs": [
        {
          "internalType": "address",
          "name": "to",
          "type": "address"
        },
        {
          "internalType": "uint256",
          "name": "tokenId",
          "type": "uint256"
        }
      ],
      "name": "approve",
      "outputs": [],
      "stateMutability": "nonpayable",
      "type": "function"
    },
    {
      "inputs": [
        {
          "internalType": "address",
          "name": "owner",
          "type": "address"
        }
      ],
      "name": "balanceOf",
      "outputs": [
        {
          "internalType": "uint256",
          "name": "",
          "type": "uint256"
        }
      ],
      "stateMutability": "view",
      "type": "function"
    },
    {
      "inputs": [
        {
          "internalType": "bytes",
          "name": "checkData",
          "type": "bytes"
        }
      ],
      "name": "checkUpkeep",
      "outputs": [
        {
          "internalType": "bool",
          "name": "upkeepNeeded",
          "type": "bool"
        },
        {
          "internalType": "bytes",
          "name": "performData",
          "type": "bytes"
        }
      ],
      "stateMutability": "nonpayable",
      "type": "function"
    },
    {
      "inputs": [
        {
          "internalType": "uint256",
          "name": "tokenId",
          "type": "uint256"
        }
      ],
      "name": "createMarketSale",
      "outputs": [],
      "stateMutability": "payable",
      "type": "function"
    },
    {
      "inputs": [
        {
          "internalType": "string",
          "name": "_tokenURI",
          "type": "string"
        },
        {
          "internalType": "uint256",
          "name": "price",
          "type": "uint256"
        },
        {
          "internalType": "uint256",
          "name": "rent_price",
          "type": "uint256"
        },
        {
          "internalType": "bool",
          "name": "forSale",
          "type": "bool"
        },
        {
          "internalType": "bool",
          "name": "forRent",
          "type": "bool"
        },
        {
          "internalType": "bool",
          "name": "member",
          "type": "bool"
        }
      ],
      "name": "createToken",
      "outputs": [],
      "stateMutability": "payable",
      "type": "function"
    },
    {
      "inputs": [],
      "name": "fetchMarketItems",
      "outputs": [
        {
          "components": [
            {
              "internalType": "uint256",
              "name": "tokenId",
              "type": "uint256"
            },
            {
              "internalType": "address payable",
              "name": "seller",
              "type": "address"
            },
            {
              "internalType": "address payable",
              "name": "owner",
              "type": "address"
            },
            {
              "internalType": "uint256",
              "name": "price",
              "type": "uint256"
            },
            {
              "internalType": "uint256",
              "name": "rentPrice",
              "type": "uint256"
            },
            {
              "internalType": "bool",
              "name": "originalForRent",
              "type": "bool"
            },
            {
              "internalType": "bool",
              "name": "originalForSale",
              "type": "bool"
            },
            {
              "internalType": "uint64",
              "name": "expires",
              "type": "uint64"
            },
            {
              "internalType": "bool",
              "name": "forRent",
              "type": "bool"
            },
            {
              "internalType": "bool",
              "name": "forSale",
              "type": "bool"
            },
            {
              "internalType": "bool",
              "name": "sold",
              "type": "bool"
            },
            {
              "internalType": "bool",
              "name": "rented",
              "type": "bool"
            }
          ],
          "internalType": "struct RentableNFTMarketplace.MarketItem[]",
          "name": "",
          "type": "tuple[]"
        }
      ],
      "stateMutability": "view",
      "type": "function"
    },
    {
      "inputs": [],
      "name": "fetchMyNFTs",
      "outputs": [
        {
          "components": [
            {
              "internalType": "uint256",
              "name": "tokenId",
              "type": "uint256"
            },
            {
              "internalType": "address payable",
              "name": "seller",
              "type": "address"
            },
            {
              "internalType": "address payable",
              "name": "owner",
              "type": "address"
            },
            {
              "internalType": "uint256",
              "name": "price",
              "type": "uint256"
            },
            {
              "internalType": "uint256",
              "name": "rentPrice",
              "type": "uint256"
            },
            {
              "internalType": "bool",
              "name": "originalForRent",
              "type": "bool"
            },
            {
              "internalType": "bool",
              "name": "originalForSale",
              "type": "bool"
            },
            {
              "internalType": "uint64",
              "name": "expires",
              "type": "uint64"
            },
            {
              "internalType": "bool",
              "name": "forRent",
              "type": "bool"
            },
            {
              "internalType": "bool",
              "name": "forSale",
              "type": "bool"
            },
            {
              "internalType": "bool",
              "name": "sold",
              "type": "bool"
            },
            {
              "internalType": "bool",
              "name": "rented",
              "type": "bool"
            }
          ],
          "internalType": "struct RentableNFTMarketplace.MarketItem[]",
          "name": "",
          "type": "tuple[]"
        }
      ],
      "stateMutability": "view",
      "type": "function"
    },
    {
      "inputs": [],
      "name": "fetchMyRentedNFTs",
      "outputs": [
        {
          "components": [
            {
              "internalType": "uint256",
              "name": "tokenId",
              "type": "uint256"
            },
            {
              "internalType": "address payable",
              "name": "seller",
              "type": "address"
            },
            {
              "internalType": "address payable",
              "name": "owner",
              "type": "address"
            },
            {
              "internalType": "uint256",
              "name": "price",
              "type": "uint256"
            },
            {
              "internalType": "uint256",
              "name": "rentPrice",
              "type": "uint256"
            },
            {
              "internalType": "bool",
              "name": "originalForRent",
              "type": "bool"
            },
            {
              "internalType": "bool",
              "name": "originalForSale",
              "type": "bool"
            },
            {
              "internalType": "uint64",
              "name": "expires",
              "type": "uint64"
            },
            {
              "internalType": "bool",
              "name": "forRent",
              "type": "bool"
            },
            {
              "internalType": "bool",
              "name": "forSale",
              "type": "bool"
            },
            {
              "internalType": "bool",
              "name": "sold",
              "type": "bool"
            },
            {
              "internalType": "bool",
              "name": "rented",
              "type": "bool"
            }
          ],
          "internalType": "struct RentableNFTMarketplace.MarketItem[]",
          "name": "",
          "type": "tuple[]"
        }
      ],
      "stateMutability": "view",
      "type": "function"
    },
    {
      "inputs": [
        {
          "internalType": "uint256",
          "name": "tokenId",
          "type": "uint256"
        }
      ],
      "name": "getApproved",
      "outputs": [
        {
          "internalType": "address",
          "name": "",
          "type": "address"
        }
      ],
      "stateMutability": "view",
      "type": "function"
    },
    {
      "inputs": [
        {
          "internalType": "bytes32",
          "name": "_queryId",
          "type": "bytes32"
        },
        {
          "internalType": "uint256",
          "name": "_timestamp",
          "type": "uint256"
        }
      ],
      "name": "getDataAfter",
      "outputs": [
        {
          "internalType": "bytes",
          "name": "_value",
          "type": "bytes"
        },
        {
          "internalType": "uint256",
          "name": "_timestampRetrieved",
          "type": "uint256"
        }
      ],
      "stateMutability": "view",
      "type": "function"
    },
    {
      "inputs": [
        {
          "internalType": "bytes32",
          "name": "_queryId",
          "type": "bytes32"
        },
        {
          "internalType": "uint256",
          "name": "_timestamp",
          "type": "uint256"
        }
      ],
      "name": "getDataBefore",
      "outputs": [
        {
          "internalType": "bytes",
          "name": "_value",
          "type": "bytes"
        },
        {
          "internalType": "uint256",
          "name": "_timestampRetrieved",
          "type": "uint256"
        }
      ],
      "stateMutability": "view",
      "type": "function"
    },
    {
      "inputs": [
        {
          "internalType": "bytes32",
          "name": "_queryId",
          "type": "bytes32"
        },
        {
          "internalType": "uint256",
          "name": "_timestamp",
          "type": "uint256"
        }
      ],
      "name": "getIndexForDataAfter",
      "outputs": [
        {
          "internalType": "bool",
          "name": "_found",
          "type": "bool"
        },
        {
          "internalType": "uint256",
          "name": "_index",
          "type": "uint256"
        }
      ],
      "stateMutability": "view",
      "type": "function"
    },
    {
      "inputs": [
        {
          "internalType": "bytes32",
          "name": "_queryId",
          "type": "bytes32"
        },
        {
          "internalType": "uint256",
          "name": "_timestamp",
          "type": "uint256"
        }
      ],
      "name": "getIndexForDataBefore",
      "outputs": [
        {
          "internalType": "bool",
          "name": "_found",
          "type": "bool"
        },
        {
          "internalType": "uint256",
          "name": "_index",
          "type": "uint256"
        }
      ],
      "stateMutability": "view",
      "type": "function"
    },
    {
      "inputs": [],
      "name": "getListingPrice",
      "outputs": [
        {
          "internalType": "uint256",
          "name": "",
          "type": "uint256"
        }
      ],
      "stateMutability": "view",
      "type": "function"
    },
    {
      "inputs": [
        {
          "internalType": "bytes32",
          "name": "_queryId",
          "type": "bytes32"
        },
        {
          "internalType": "uint256",
          "name": "_timestamp",
          "type": "uint256"
        },
        {
          "internalType": "uint256",
          "name": "_maxAge",
          "type": "uint256"
        },
        {
          "internalType": "uint256",
          "name": "_maxCount",
          "type": "uint256"
        }
      ],
      "name": "getMultipleValuesBefore",
      "outputs": [
        {
          "internalType": "bytes[]",
          "name": "_values",
          "type": "bytes[]"
        },
        {
          "internalType": "uint256[]",
          "name": "_timestamps",
          "type": "uint256[]"
        }
      ],
      "stateMutability": "view",
      "type": "function"
    },
    {
      "inputs": [
        {
          "internalType": "bytes32",
          "name": "_queryId",
          "type": "bytes32"
        }
      ],
      "name": "getNewValueCountbyQueryId",
      "outputs": [
        {
          "internalType": "uint256",
          "name": "",
          "type": "uint256"
        }
      ],
      "stateMutability": "view",
      "type": "function"
    },
    {
      "inputs": [
        {
          "internalType": "bytes32",
          "name": "_queryId",
          "type": "bytes32"
        },
        {
          "internalType": "uint256",
          "name": "_timestamp",
          "type": "uint256"
        }
      ],
      "name": "getReporterByTimestamp",
      "outputs": [
        {
          "internalType": "address",
          "name": "",
          "type": "address"
        }
      ],
      "stateMutability": "view",
      "type": "function"
    },
    {
      "inputs": [
        {
          "internalType": "bytes32",
          "name": "_queryId",
          "type": "bytes32"
        },
        {
          "internalType": "uint256",
          "name": "_index",
          "type": "uint256"
        }
      ],
      "name": "getTimestampbyQueryIdandIndex",
      "outputs": [
        {
          "internalType": "uint256",
          "name": "",
          "type": "uint256"
        }
      ],
      "stateMutability": "view",
      "type": "function"
    },
    {
      "inputs": [
        {
          "internalType": "uint256",
          "name": "tokenId",
          "type": "uint256"
        }
      ],
      "name": "getUserOf",
      "outputs": [
        {
          "internalType": "address",
          "name": "",
          "type": "address"
        }
      ],
      "stateMutability": "view",
      "type": "function"
    },
    {
      "inputs": [],
      "name": "idMappingContract",
      "outputs": [
        {
          "internalType": "contract IMappingContract",
          "name": "",
          "type": "address"
        }
      ],
      "stateMutability": "view",
      "type": "function"
    },
    {
      "inputs": [
        {
          "internalType": "uint256",
          "name": "",
          "type": "uint256"
        }
      ],
      "name": "idToMarketItem",
      "outputs": [
        {
          "internalType": "uint256",
          "name": "tokenId",
          "type": "uint256"
        },
        {
          "internalType": "address payable",
          "name": "seller",
          "type": "address"
        },
        {
          "internalType": "address payable",
          "name": "owner",
          "type": "address"
        },
        {
          "internalType": "uint256",
          "name": "price",
          "type": "uint256"
        },
        {
          "internalType": "uint256",
          "name": "rentPrice",
          "type": "uint256"
        },
        {
          "internalType": "bool",
          "name": "originalForRent",
          "type": "bool"
        },
        {
          "internalType": "bool",
          "name": "originalForSale",
          "type": "bool"
        },
        {
          "internalType": "uint64",
          "name": "expires",
          "type": "uint64"
        },
        {
          "internalType": "bool",
          "name": "forRent",
          "type": "bool"
        },
        {
          "internalType": "bool",
          "name": "forSale",
          "type": "bool"
        },
        {
          "internalType": "bool",
          "name": "sold",
          "type": "bool"
        },
        {
          "internalType": "bool",
          "name": "rented",
          "type": "bool"
        }
      ],
      "stateMutability": "view",
      "type": "function"
    },
    {
      "inputs": [
        {
          "internalType": "address",
          "name": "owner",
          "type": "address"
        },
        {
          "internalType": "address",
          "name": "operator",
          "type": "address"
        }
      ],
      "name": "isApprovedForAll",
      "outputs": [
        {
          "internalType": "bool",
          "name": "",
          "type": "bool"
        }
      ],
      "stateMutability": "view",
      "type": "function"
    },
    {
      "inputs": [
        {
          "internalType": "bytes32",
          "name": "_queryId",
          "type": "bytes32"
        },
        {
          "internalType": "uint256",
          "name": "_timestamp",
          "type": "uint256"
        }
      ],
      "name": "isInDispute",
      "outputs": [
        {
          "internalType": "bool",
          "name": "",
          "type": "bool"
        }
      ],
      "stateMutability": "view",
      "type": "function"
    },
    {
      "inputs": [],
      "name": "name",
      "outputs": [
        {
          "internalType": "string",
          "name": "",
          "type": "string"
        }
      ],
      "stateMutability": "view",
      "type": "function"
    },
    {
      "inputs": [],
      "name": "owner",
      "outputs": [
        {
          "internalType": "address payable",
          "name": "",
          "type": "address"
        }
      ],
      "stateMutability": "view",
      "type": "function"
    },
    {
      "inputs": [
        {
          "internalType": "uint256",
          "name": "tokenId",
          "type": "uint256"
        }
      ],
      "name": "ownerOf",
      "outputs": [
        {
          "internalType": "address",
          "name": "",
          "type": "address"
        }
      ],
      "stateMutability": "view",
      "type": "function"
    },
    {
      "inputs": [
        {
          "internalType": "bytes",
          "name": "performData",
          "type": "bytes"
        }
      ],
      "name": "performUpkeep",
      "outputs": [],
      "stateMutability": "nonpayable",
      "type": "function"
    },
    {
      "inputs": [
        {
          "internalType": "uint256",
          "name": "_tokenId",
          "type": "uint256"
        },
        {
          "internalType": "uint64",
          "name": "_expires",
          "type": "uint64"
        }
      ],
      "name": "rentOutToken",
      "outputs": [],
      "stateMutability": "payable",
      "type": "function"
    },
    {
      "inputs": [
        {
          "internalType": "uint256",
          "name": "tokenId",
          "type": "uint256"
        },
        {
          "internalType": "uint256",
          "name": "price",
          "type": "uint256"
        },
        {
          "internalType": "uint256",
          "name": "rentPrice",
          "type": "uint256"
        },
        {
          "internalType": "bool",
          "name": "forRent",
          "type": "bool"
        },
        {
          "internalType": "bool",
          "name": "forSale",
          "type": "bool"
        },
        {
          "internalType": "bool",
          "name": "member",
          "type": "bool"
        }
      ],
      "name": "resellToken",
      "outputs": [],
      "stateMutability": "payable",
      "type": "function"
    },
    {
      "inputs": [
        {
          "internalType": "bytes32",
          "name": "_queryId",
          "type": "bytes32"
        },
        {
          "internalType": "uint256",
          "name": "_timestamp",
          "type": "uint256"
        }
      ],
      "name": "retrieveData",
      "outputs": [
        {
          "internalType": "bytes",
          "name": "",
          "type": "bytes"
        }
      ],
      "stateMutability": "view",
      "type": "function"
    },
    {
      "inputs": [
        {
          "internalType": "address",
          "name": "from",
          "type": "address"
        },
        {
          "internalType": "address",
          "name": "to",
          "type": "address"
        },
        {
          "internalType": "uint256",
          "name": "tokenId",
          "type": "uint256"
        }
      ],
      "name": "safeTransferFrom",
      "outputs": [],
      "stateMutability": "nonpayable",
      "type": "function"
    },
    {
      "inputs": [
        {
          "internalType": "address",
          "name": "from",
          "type": "address"
        },
        {
          "internalType": "address",
          "name": "to",
          "type": "address"
        },
        {
          "internalType": "uint256",
          "name": "tokenId",
          "type": "uint256"
        },
        {
          "internalType": "bytes",
          "name": "_data",
          "type": "bytes"
        }
      ],
      "name": "safeTransferFrom",
      "outputs": [],
      "stateMutability": "nonpayable",
      "type": "function"
    },
    {
      "inputs": [
        {
          "internalType": "address",
          "name": "operator",
          "type": "address"
        },
        {
          "internalType": "bool",
          "name": "approved",
          "type": "bool"
        }
      ],
      "name": "setApprovalForAll",
      "outputs": [],
      "stateMutability": "nonpayable",
      "type": "function"
    },
    {
      "inputs": [
        {
          "internalType": "address",
          "name": "_addy",
          "type": "address"
        }
      ],
      "name": "setIdMappingContract",
      "outputs": [],
      "stateMutability": "nonpayable",
      "type": "function"
    },
    {
      "inputs": [
        {
          "internalType": "uint256",
          "name": "tokenId",
          "type": "uint256"
        },
        {
          "internalType": "address",
          "name": "user",
          "type": "address"
        },
        {
          "internalType": "uint64",
          "name": "expires",
          "type": "uint64"
        }
      ],
      "name": "setUser",
      "outputs": [],
      "stateMutability": "nonpayable",
      "type": "function"
    },
    {
      "inputs": [
        {
          "internalType": "bytes4",
          "name": "interfaceId",
          "type": "bytes4"
        }
      ],
      "name": "supportsInterface",
      "outputs": [
        {
          "internalType": "bool",
          "name": "",
          "type": "bool"
        }
      ],
      "stateMutability": "view",
      "type": "function"
    },
    {
      "inputs": [],
      "name": "symbol",
      "outputs": [
        {
          "internalType": "string",
          "name": "",
          "type": "string"
        }
      ],
      "stateMutability": "view",
      "type": "function"
    },
    {
      "inputs": [],
      "name": "tellor",
      "outputs": [
        {
          "internalType": "contract ITellor",
          "name": "",
          "type": "address"
        }
      ],
      "stateMutability": "view",
      "type": "function"
    },
    {
      "inputs": [
        {
          "internalType": "uint256",
          "name": "_tokenId",
          "type": "uint256"
        }
      ],
      "name": "tokenURI",
      "outputs": [
        {
          "internalType": "string",
          "name": "",
          "type": "string"
        }
      ],
      "stateMutability": "view",
      "type": "function"
    },
    {
      "inputs": [
        {
          "internalType": "uint256",
          "name": "",
          "type": "uint256"
        }
      ],
      "name": "tokenURIs",
      "outputs": [
        {
          "internalType": "string",
          "name": "",
          "type": "string"
        }
      ],
      "stateMutability": "view",
      "type": "function"
    },
    {
      "inputs": [
        {
          "internalType": "address",
          "name": "from",
          "type": "address"
        },
        {
          "internalType": "address",
          "name": "to",
          "type": "address"
        },
        {
          "internalType": "uint256",
          "name": "tokenId",
          "type": "uint256"
        }
      ],
      "name": "transferFrom",
      "outputs": [],
      "stateMutability": "nonpayable",
      "type": "function"
    },
    {
      "inputs": [
        {
          "internalType": "uint256",
          "name": "_listingPrice",
          "type": "uint256"
        }
      ],
      "name": "updateListingPrice",
      "outputs": [],
      "stateMutability": "payable",
      "type": "function"
    },
    {
      "inputs": [
        {
          "internalType": "uint256",
          "name": "_tokenId",
          "type": "uint256"
        },
        {
          "internalType": "uint256",
          "name": "price",
          "type": "uint256"
        }
      ],
      "name": "updatePrice",
      "outputs": [],
      "stateMutability": "nonpayable",
      "type": "function"
    },
    {
      "inputs": [
        {
          "internalType": "uint256",
          "name": "_tokenId",
          "type": "uint256"
        },
        {
          "internalType": "uint256",
          "name": "rent_price",
          "type": "uint256"
        }
      ],
      "name": "updateRentPrice",
      "outputs": [],
      "stateMutability": "nonpayable",
      "type": "function"
    },
    {
      "inputs": [
        {
          "internalType": "uint256",
          "name": "tokenId",
          "type": "uint256"
        }
      ],
      "name": "userExpires",
      "outputs": [
        {
          "internalType": "uint256",
          "name": "",
          "type": "uint256"
        }
      ],
      "stateMutability": "view",
      "type": "function"
    },
    {
      "inputs": [
        {
          "internalType": "uint256",
          "name": "tokenId",
          "type": "uint256"
        }
      ],
      "name": "userOf",
      "outputs": [
        {
          "internalType": "address",
          "name": "",
          "type": "address"
        }
      ],
      "stateMutability": "view",
      "type": "function"
    },
    {
      "inputs": [
        {
          "internalType": "bytes32",
          "name": "_id",
          "type": "bytes32"
        }
      ],
      "name": "valueFor",
      "outputs": [
        {
          "internalType": "int256",
          "name": "_value",
          "type": "int256"
        },
        {
          "internalType": "uint256",
          "name": "_timestamp",
          "type": "uint256"
        },
        {
          "internalType": "uint256",
          "name": "_statusCode",
          "type": "uint256"
        }
      ],
      "stateMutability": "view",
      "type": "function"
    },
    {
      "inputs": [],
      "name": "withdraw",
      "outputs": [],
      "stateMutability": "nonpayable",
      "type": "function"
    }
  ],
  "bytecode": "0x6080604052670de0b6b3a7640000600c55600e80546001600160a01b03191673840c23e39f9d029ffa888f47069aa6864f0401d71790553480156200004357600080fd5b50600e54604080518082018252600881526752656e7461626c6560c01b602080830191825283518085019094526002845261149560f21b9084015281516001600160a01b039094169391929183918391620000a191600091620000ec565b508051620000b7906001906020840190620000ec565b5050600780546001600160a01b039095166001600160a01b03199586161790555050600d8054909216331790915550620001cf565b828054620000fa9062000192565b90600052602060002090601f0160209004810192826200011e576000855562000169565b82601f106200013957805160ff191683800117855562000169565b8280016001018555821562000169579182015b82811115620001695782518255916020019190600101906200014c565b50620001779291506200017b565b5090565b5b808211156200017757600081556001016200017c565b600181811c90821680620001a757607f821691505b60208210811415620001c957634e487b7160e01b600052602260045260246000fd5b50919050565b61402680620001df6000396000f3fe6080604052600436106102c95760003560e01c806370a0823111610175578063b88d4fde116100dc578063e030565e11610095578063e985e9c51161006f578063e985e9c51461098b578063f66f49c3146109d4578063f78eea83146109f4578063fcd4a54614610a2f57600080fd5b8063e030565e14610831578063e07c548614610851578063e61a70c01461087157600080fd5b8063b88d4fde1461077e578063be9af5361461079e578063c2f1f14a146107b1578063c5958af9146107d1578063c87b56dd146107f1578063ce5e11bf1461081157600080fd5b80638fc88c481161012e5780638fc88c48146106c257806395d89b41146106ff578063a22cb46514610714578063a792765f14610734578063aa46a40014610754578063ae677aa31461076b57600080fd5b806370a082311461060b57806377b03e0d1461062b57806382367b2d1461064b57806387506a0d1461066b578063897db782146106825780638da5cb5b146106a257600080fd5b806329449085116102345780634feb2982116101ed57806367ea485c116101c757806367ea485c146105955780636c8b703f146105aa5780636d656710146105ca5780636e04ff0d146105dd57600080fd5b80634feb2982146105275780636352211e1461054757806364ee3c6d1461056757600080fd5b8063294490851461045b5780632af8aae0146104925780633ccfd60b146104b257806342842e0e146104c757806344e87f91146104e75780634585e33b1461050757600080fd5b806312e855851161028657806312e85585146103b4578063193b505b146103d35780631959ad5b146103f35780631f76e24214610413578063202e37401461042657806323b872dd1461043b57600080fd5b806301ffc9a7146102ce57806306fdde0314610303578063081812fc14610325578063095ea7b31461035d57806309a26ba71461037f5780630f08efe014610392575b600080fd5b3480156102da57600080fd5b506102ee6102e93660046134be565b610a5d565b60405190151581526020015b60405180910390f35b34801561030f57600080fd5b50610318610a88565b6040516102fa9190613533565b34801561033157600080fd5b50610345610340366004613546565b610b1a565b6040516001600160a01b0390911681526020016102fa565b34801561036957600080fd5b5061037d610378366004613574565b610bb4565b005b61037d61038d3660046135b7565b610cca565b34801561039e57600080fd5b506103a7610ec6565b6040516102fa91906135e3565b3480156103c057600080fd5b50600c545b6040519081526020016102fa565b3480156103df57600080fd5b5061037d6103ee3660046136bd565b6110af565b3480156103ff57600080fd5b50600754610345906001600160a01b031681565b61037d6104213660046136e8565b6110e7565b34801561043257600080fd5b506103a7611215565b34801561044757600080fd5b5061037d61045636600461374f565b6113e8565b34801561046757600080fd5b5061047b610476366004613790565b611419565b6040805192151583526020830191909152016102fa565b34801561049e57600080fd5b50600854610345906001600160a01b031681565b3480156104be57600080fd5b5061037d6114ac565b3480156104d357600080fd5b5061037d6104e236600461374f565b611539565b3480156104f357600080fd5b506102ee610502366004613790565b611554565b34801561051357600080fd5b5061037d6105223660046137b2565b6115df565b34801561053357600080fd5b5061037d610542366004613790565b611628565b34801561055357600080fd5b50610345610562366004613546565b611676565b34801561057357600080fd5b50610587610582366004613790565b6116ed565b6040516102fa929190613823565b3480156105a157600080fd5b506103a7611746565b3480156105b657600080fd5b506103186105c5366004613546565b611994565b61037d6105d83660046138f0565b611a2e565b3480156105e957600080fd5b506105fd6105f83660046137b2565b611ab2565b6040516102fa92919061395e565b34801561061757600080fd5b506103c56106263660046136bd565b611b72565b34801561063757600080fd5b506103c5610646366004613546565b611bf9565b34801561065757600080fd5b5061037d610666366004613790565b611c76565b34801561067757600080fd5b50600a546103c59081565b34801561068e57600080fd5b5061034561069d366004613546565b611cc4565b3480156106ae57600080fd5b50600d54610345906001600160a01b031681565b3480156106ce57600080fd5b506103c56106dd366004613546565b600090815260066020526040902054600160a01b90046001600160401b031690565b34801561070b57600080fd5b50610318611ccf565b34801561072057600080fd5b5061037d61072f366004613979565b611cde565b34801561074057600080fd5b5061058761074f366004613790565b611ce9565b34801561076057600080fd5b506009546103c59081565b61037d610779366004613546565b611d82565b34801561078a57600080fd5b5061037d6107993660046139b2565b611dc9565b61037d6107ac366004613546565b611dfb565b3480156107bd57600080fd5b506103456107cc366004613546565b611f2b565b3480156107dd57600080fd5b506103186107ec366004613790565b611f7a565b3480156107fd57600080fd5b5061031861080c366004613546565b612002565b34801561081d57600080fd5b506103c561082c366004613790565b61203d565b34801561083d57600080fd5b5061037d61084c366004613a31565b6120c1565b34801561085d57600080fd5b5061034561086c366004613790565b6120f2565b34801561087d57600080fd5b5061091361088c366004613546565b600f6020526000908152604090208054600182015460028301546003840154600485015460059095015493946001600160a01b03938416949290931692909160ff8082169161010081048216916001600160401b036201000083041691600160501b8104821691600160581b8204811691600160601b8104821691600160681b909104168c565b604080519c8d526001600160a01b039b8c1660208e015299909a16988b019890985260608a0196909652608089019490945291151560a0880152151560c08701526001600160401b031660e08601521515610100850152151561012084015215156101408301521515610160820152610180016102fa565b34801561099757600080fd5b506102ee6109a6366004613a6f565b6001600160a01b03918216600090815260056020908152604080832093909416825291909152205460ff1690565b3480156109e057600080fd5b5061047b6109ef366004613790565b612176565b348015610a0057600080fd5b50610a14610a0f366004613546565b612330565b604080519384526020840192909252908201526060016102fa565b348015610a3b57600080fd5b50610a4f610a4a366004613a9d565b612400565b6040516102fa929190613acf565b60006001600160e01b03198216632b424ad760e21b1480610a825750610a82826126ec565b92915050565b606060008054610a9790613b5d565b80601f0160208091040260200160405190810160405280929190818152602001828054610ac390613b5d565b8015610b105780601f10610ae557610100808354040283529160200191610b10565b820191906000526020600020905b815481529060010190602001808311610af357829003601f168201915b5050505050905090565b6000818152600260205260408120546001600160a01b0316610b985760405162461bcd60e51b815260206004820152602c60248201527f4552433732313a20617070726f76656420717565727920666f72206e6f6e657860448201526b34b9ba32b73a103a37b5b2b760a11b60648201526084015b60405180910390fd5b506000908152600460205260409020546001600160a01b031690565b6000610bbf82611676565b9050806001600160a01b0316836001600160a01b03161415610c2d5760405162461bcd60e51b815260206004820152602160248201527f4552433732313a20617070726f76616c20746f2063757272656e74206f776e656044820152603960f91b6064820152608401610b8f565b336001600160a01b0382161480610c495750610c4981336109a6565b610cbb5760405162461bcd60e51b815260206004820152603860248201527f4552433732313a20617070726f76652063616c6c6572206973206e6f74206f7760448201527f6e6572206e6f7220617070726f76656420666f7220616c6c00000000000000006064820152608401610b8f565b610cc5838361273c565b505050565b6000828152600f602052604090206005810154600160501b900460ff16610d335760405162461bcd60e51b815260206004820152601f60248201527f546f6b656e206973206e6f7420617661696c61626c6520666f722072656e74006044820152606401610b8f565b6000610d3e84611f2b565b6001600160a01b031614610d945760405162461bcd60e51b815260206004820152601760248201527f546f6b656e20697320616c72656164792072656e7465640000000000000000006044820152606401610b8f565b8060040154341015610df45760405162461bcd60e51b8152602060048201526024808201527f496e73756666696369656e742066756e647320746f2072656e7420746865207460448201526337b5b2b760e11b6064820152608401610b8f565b6000838152600f60205260409020600501805469ffffffffffffffffff00196dff000000000000000000000000ff19821660ff600160501b600160681b60ff60681b199095168517048116151591909117909217908116610100600160581b90920490921615150269ffffffffffffffff0000191617620100006001600160401b038516021761ffff60501b19169055610e8f8333846127aa565b5050601080546001810182556000919091527f1b6847dc741a1b0cd08d278845f9d819d87b734759afb55fe2de5cb82a9ae6720155565b60606000610ed360095490565b90506000610ee0600a5490565b600954610eed9190613ba8565b9050600080826001600160401b03811115610f0a57610f0a613845565b604051908082528060200260200182016040528015610f4357816020015b610f306133a8565b815260200190600190039081610f285790505b50905060005b848110156110a65730600f6000610f61846001613bbf565b81526020810191909152604001600020600201546001600160a01b03161415611094576000610f91826001613bbf565b6000818152600f60209081526040918290208251610180810184528154815260018201546001600160a01b03908116938201939093526002820154909216928201929092526003820154606082015260048201546080820152600582015460ff808216151560a08401526101008083048216151560c08501526001600160401b036201000084041660e0850152600160501b83048216151590840152600160581b820481161515610120840152600160601b820481161515610140840152600160681b9091041615156101608201528551929350909185908790811061107957611079613bd7565b602090810291909101015261108f600186613bbf565b945050505b8061109e81613bed565b915050610f49565b50949350505050565b6008546001600160a01b0316156110c557600080fd5b600880546001600160a01b0319166001600160a01b0392909216919091179055565b6000868152600f60205260409020600201546001600160a01b031633146111205760405162461bcd60e51b8152600401610b8f90613c08565b808061112d5750600c5434145b6111495760405162461bcd60e51b8152600401610b8f90613c52565b6000868152600f6020526040902060058101805460038301889055600183018054336001600160a01b03199182161790915560028401805430921691909117905560049092018690556cff00000000000000000000ffff1990911661ff0019851515908116919091176101008515159081029190911761ffff60501b1916600160501b9290920260ff60581b191691909117600160581b91909102176dff000000ffffffffffffffff000019169055611202600a61282a565b61120d333088612881565b505050505050565b6060600061122260095490565b9050600061122f600a5490565b9050600080826001600160401b0381111561124c5761124c613845565b60405190808252806020026020018201604052801561128557816020015b6112726133a8565b81526020019060019003908161126a5790505b50905060005b848110156110a65733600f60006112a3846001613bbf565b81526020810191909152604001600020600201546001600160a01b031614156113d65760006112d3826001613bbf565b6000818152600f60209081526040918290208251610180810184528154815260018201546001600160a01b03908116938201939093526002820154909216928201929092526003820154606082015260048201546080820152600582015460ff808216151560a08401526101008083048216151560c08501526001600160401b036201000084041660e0850152600160501b83048216151590840152600160581b820481161515610120840152600160601b820481161515610140840152600160681b909104161515610160820152855192935090918590879081106113bb576113bb613bd7565b60209081029190910101526113d1600186613bbf565b945050505b806113e081613bed565b91505061128b565b6113f23382612a28565b61140e5760405162461bcd60e51b8152600401610b8f90613c96565b610cc5838383612881565b600754604051632944908560e01b8152600481018490526024810183905260009182916001600160a01b0390911690632944908590604401604080518083038186803b15801561146857600080fd5b505afa15801561147c573d6000803e3d6000fd5b505050506040513d601f19601f820116820180604052508101906114a09190613ce7565b915091505b9250929050565b600d546001600160a01b031633146115065760405162461bcd60e51b815260206004820152601760248201527f4f6e6c79206f776e65722063616e2077697468647261770000000000000000006044820152606401610b8f565b6040514790339082156108fc029083906000818181858888f19350505050158015611535573d6000803e3d6000fd5b5050565b610cc583838360405180602001604052806000815250611dc9565b6007546040516344e87f9160e01b815260048101849052602481018390526000916001600160a01b0316906344e87f919060440160206040518083038186803b1580156115a057600080fd5b505afa1580156115b4573d6000803e3d6000fd5b505050506040513d601f19601f820116820180604052508101906115d89190613d15565b9392505050565b60006115ed82840184613546565b6000818152600f602052604090206005810154919250906201000090046001600160401b031642106116225761162282612b1f565b50505050565b6000828152600f60205260409020600101546001600160a01b031633146116615760405162461bcd60e51b8152600401610b8f90613c08565b6000918252600f602052604090912060040155565b6000818152600260205260408120546001600160a01b031680610a825760405162461bcd60e51b815260206004820152602960248201527f4552433732313a206f776e657220717565727920666f72206e6f6e657869737460448201526832b73a103a37b5b2b760b91b6064820152608401610b8f565b606060008060006116fe8686612176565b915091508161172557600060405180602001604052806000815250909350935050506114a5565b61172f868261203d565b925061173b8684611f7a565b935050509250929050565b6060600061175360095490565b9050600080826001600160401b0381111561177057611770613845565b604051908082528060200260200182016040528015611799578160200160208202803683370190505b50905060005b8381101561180d57336117b66107cc836001613bbf565b6001600160a01b031614156117fb576117d0816001613bbf565b8284815181106117e2576117e2613bd7565b60209081029190910101526117f8600184613bbf565b92505b8061180581613bed565b91505061179f565b506000826001600160401b0381111561182857611828613845565b60405190808252806020026020018201604052801561186157816020015b61184e6133a8565b8152602001906001900390816118465790505b50905060005b838110156110a657600083828151811061188357611883613bd7565b6020908102919091018101516000818152600f83526040908190208151610180810183528154815260018201546001600160a01b03908116958201959095526002820154909416918401919091526003810154606084015260048101546080840152600581015460ff808216151560a08601526101008083048216151560c08701526001600160401b036201000084041660e0870152600160501b83048216151590860152600160581b820481161515610120860152600160601b820481161515610140860152600160681b9091041615156101608401528551919350919085908590811061197457611974613bd7565b60200260200101819052505050808061198c90613bed565b915050611867565b600b60205260009081526040902080546119ad90613b5d565b80601f01602080910402602001604051908101604052809291908181526020018280546119d990613b5d565b8015611a265780601f106119fb57610100808354040283529160200191611a26565b820191906000526020600020905b815481529060010190602001808311611a0957829003601f168201915b505050505081565b8080611a3b5750600c5434145b611a575760405162461bcd60e51b8152600401610b8f90613c52565b611a65600980546001019055565b6000611a7060095490565b9050611a7c3382612c40565b6000818152600b602090815260409091208851611a9b928a019061340c565b50611aa98187878787612d8e565b50505050505050565b6000606060005b601054811015611b5757600060108281548110611ad857611ad8613bd7565b6000918252602080832090910154808352600f90915260409091206005810154919250906001600160401b0362010000909104164210611b4257600182604051602001611b2791815260200190565b604051602081830303815290604052945094505050506114a5565b50508080611b4f90613bed565b915050611ab9565b50506040805160208101909152600080825291509250929050565b60006001600160a01b038216611bdd5760405162461bcd60e51b815260206004820152602a60248201527f4552433732313a2062616c616e636520717565727920666f7220746865207a65604482015269726f206164647265737360b01b6064820152608401610b8f565b506001600160a01b031660009081526003602052604090205490565b6007546040516377b03e0d60e01b8152600481018390526000916001600160a01b0316906377b03e0d9060240160206040518083038186803b158015611c3e57600080fd5b505afa158015611c52573d6000803e3d6000fd5b505050506040513d601f19601f82011682018060405250810190610a829190613d32565b6000828152600f60205260409020600101546001600160a01b03163314611caf5760405162461bcd60e51b8152600401610b8f90613c08565b6000918252600f602052604090912060030155565b6000610a8282611f2b565b606060018054610a9790613b5d565b6115353383836130b7565b60075460405163a792765f60e01b815260048101849052602481018390526060916000916001600160a01b039091169063a792765f9060440160006040518083038186803b158015611d3a57600080fd5b505afa158015611d4e573d6000803e3d6000fd5b505050506040513d6000823e601f3d908101601f19168201604052611d769190810190613d90565b90969095509350505050565b600d546001600160a01b03163314611dc45760405162461bcd60e51b815260206004820152600560248201526437bbb732b960d91b6044820152606401610b8f565b600c55565b611dd33383612a28565b611def5760405162461bcd60e51b8152600401610b8f90613c96565b61162284848484613187565b6000818152600f6020526040902060038101546001909101546001600160a01b031634821115611e935760405162461bcd60e51b815260206004820152603d60248201527f506c6561736520706179207468652061736b696e6720707269636520696e206f60448201527f7264657220746f20636f6d706c657465207468652070757263686173650000006064820152608401610b8f565b6000838152600f602052604090206002810180546001600160a01b031990811633179091556005820180546001909301805490921690915561ffff60581b19909116600160601b179055611eeb600a80546001019055565b611ef6303385612881565b6040516001600160a01b038216903480156108fc02916000818181858888f19350505050158015611622573d6000803e3d6000fd5b60008181526006602052604081205442600160a01b9091046001600160401b031610611f6d57506000908152600660205260409020546001600160a01b031690565b506000919050565b919050565b60075460405163c5958af960e01b815260048101849052602481018390526060916001600160a01b03169063c5958af99060440160006040518083038186803b158015611fc657600080fd5b505afa158015611fda573d6000803e3d6000fd5b505050506040513d6000823e601f3d908101601f191682016040526115d89190810190613de9565b6060600b60008381526020019081526020016000206040516020016120279190613e1d565b6040516020818303038152906040529050919050565b60075460405163ce5e11bf60e01b815260048101849052602481018390526000916001600160a01b03169063ce5e11bf9060440160206040518083038186803b15801561208957600080fd5b505afa15801561209d573d6000803e3d6000fd5b505050506040513d601f19601f820116820180604052508101906115d89190613d32565b6120cb3384612a28565b6120e75760405162461bcd60e51b8152600401610b8f90613c96565b610cc58383836127aa565b60075460405163703e2a4360e11b815260048101849052602481018390526000916001600160a01b03169063e07c54869060440160206040518083038186803b15801561213e57600080fd5b505afa158015612152573d6000803e3d6000fd5b505050506040513d601f19601f820116820180604052508101906115d89190613eb9565b600080600061218485611bf9565b9050806121985760008092509250506114a5565b806121a281613ed6565b91506001905060008083816121b78a8361203d565b90508881116121d257600080975097505050505050506114a5565b6121dc8a8461203d565b9050888111156121eb57600094505b841561229b5760026121fd8484613bbf565b6122079190613eed565b93506122138a8561203d565b90508881111561225457600061222e8b61082c600188613ba8565b9050898111612240576000955061224e565b61224b600186613ba8565b92505b506121eb565b60006122658b61082c876001613bbf565b90508981111561228857600095508461227d81613bed565b95505080915061224e565b612293856001613bbf565b9350506121eb565b6122a58a82611554565b6122bb57600184975097505050505050506114a5565b6122c58a82611554565b80156122d057508584105b156122f357836122df81613bed565b9450506122ec8a8561203d565b90506122bb565b858414801561230757506123078a82611554565b1561231e57600080975097505050505050506114a5565b600184975097505050505050506114a5565b6008546040516387a475fd60e01b8152600481018390526000918291829182916001600160a01b03909116906387a475fd9060240160206040518083038186803b15801561237d57600080fd5b505afa158015612391573d6000803e3d6000fd5b505050506040513d601f19601f820116820180604052508101906123b59190613d32565b905060606123c88261074f426001613bbf565b94509050836123e45760008061019494509450945050506123f9565b60006123ef826131ba565b955060c893505050505b9193909250565b606080600080612414886109ef888a613ba8565b9150915081612465576040805160008082526020820190925290612448565b60608152602001906001900390816124335790505b5060408051600081526020810190915290945092506126e3915050565b60006124718989611419565b9093509050826124c45760408051600080825260208201909252906124a6565b60608152602001906001900390816124915790505b5060408051600081526020810190915290955093506126e392505050565b6000806000886001600160401b038111156124e1576124e1613845565b60405190808252806020026020018201604052801561250a578160200160208202803683370190505b5090505b888310801561253157508482612525866001613bbf565b61252f9190613ba8565b115b156125955760006125468d61082c8588613ba8565b90506125528d82611554565b612582578082858151811061256957612569613bd7565b60209081029190910101528361257e81613bed565b9450505b8261258c81613bed565b9350505061250e565b6000836001600160401b038111156125af576125af613845565b6040519080825280602002602001820160405280156125e257816020015b60608152602001906001900390816125cd5790505b5090506000846001600160401b038111156125ff576125ff613845565b604051908082528060200260200182016040528015612628578160200160208202803683370190505b50905060005b858110156126d6578381612643600189613ba8565b61264d9190613ba8565b8151811061265d5761265d613bd7565b602002602001015182828151811061267757612677613bd7565b6020026020010181815250506126a68f83838151811061269957612699613bd7565b6020026020010151611f7a565b8382815181106126b8576126b8613bd7565b602002602001018190525080806126ce90613bed565b91505061262e565b5090985096505050505050505b94509492505050565b60006001600160e01b031982166380ac58cd60e01b148061271d57506001600160e01b03198216635b5e139f60e01b145b80610a8257506301ffc9a760e01b6001600160e01b0319831614610a82565b600081815260046020526040902080546001600160a01b0319166001600160a01b038416908117909155819061277182611676565b6001600160a01b03167f8c5be1e5ebec7d5bd14f71427d1e84f3dd0314c0f7b2291e5b200ac8c7c3b92560405160405180910390a45050565b60008381526006602090815260409182902080546001600160a01b0386166001600160e01b03199091168117600160a01b6001600160401b03871690810291909117835593519384529092909186917f4e06b4e7000e659094299b3533b47b6aa8ad048e95e872d23d1f4ee55af89cfe910160405180910390a350505050565b8054806128795760405162461bcd60e51b815260206004820152601b60248201527f436f756e7465723a2064656372656d656e74206f766572666c6f7700000000006044820152606401610b8f565b600019019055565b826001600160a01b031661289482611676565b6001600160a01b0316146128f85760405162461bcd60e51b815260206004820152602560248201527f4552433732313a207472616e736665722066726f6d20696e636f72726563742060448201526437bbb732b960d91b6064820152608401610b8f565b6001600160a01b03821661295a5760405162461bcd60e51b8152602060048201526024808201527f4552433732313a207472616e7366657220746f20746865207a65726f206164646044820152637265737360e01b6064820152608401610b8f565b612965838383613211565b61297060008261273c565b6001600160a01b0383166000908152600360205260408120805460019290612999908490613ba8565b90915550506001600160a01b03821660009081526003602052604081208054600192906129c7908490613bbf565b909155505060008181526002602052604080822080546001600160a01b0319166001600160a01b0386811691821790925591518493918716917fddf252ad1be2c89b69c2b068fc378daa952ba7f163c4a11628f55a4df523b3ef91a4505050565b6000818152600260205260408120546001600160a01b0316612aa15760405162461bcd60e51b815260206004820152602c60248201527f4552433732313a206f70657261746f7220717565727920666f72206e6f6e657860448201526b34b9ba32b73a103a37b5b2b760a11b6064820152608401610b8f565b6000612aac83611676565b9050806001600160a01b0316846001600160a01b03161480612ae75750836001600160a01b0316612adc84610b1a565b6001600160a01b0316145b80612b1757506001600160a01b0380821660009081526005602090815260408083209388168352929052205460ff165b949350505050565b6000818152600f6020526040812060058101805461010060ff8083161515600160501b0263ff0000ff60501b198416811792909204161515600160581b0260ff60581b1990911663ff00ffff60501b199092169190911717905590612b86908390806127aa565b60005b601054811015610cc5578260108281548110612ba757612ba7613bd7565b90600052602060002001541415612c2e5760108054612bc890600190613ba8565b81548110612bd857612bd8613bd7565b906000526020600020015460108281548110612bf657612bf6613bd7565b6000918252602090912001556010805480612c1357612c13613f0f565b60019003818190600052602060002001600090559055505050565b80612c3881613bed565b915050612b89565b6001600160a01b038216612c965760405162461bcd60e51b815260206004820181905260248201527f4552433732313a206d696e7420746f20746865207a65726f20616464726573736044820152606401610b8f565b6000818152600260205260409020546001600160a01b031615612cfb5760405162461bcd60e51b815260206004820152601c60248201527f4552433732313a20746f6b656e20616c7265616479206d696e746564000000006044820152606401610b8f565b612d0760008383613211565b6001600160a01b0382166000908152600360205260408120805460019290612d30908490613bbf565b909155505060008181526002602052604080822080546001600160a01b0319166001600160a01b03861690811790915590518392907fddf252ad1be2c89b69c2b068fc378daa952ba7f163c4a11628f55a4df523b3ef908290a45050565b811580612d9b5750600084115b612dd85760405162461bcd60e51b815260206004820152600e60248201526d1c1c9a58d9481c995c5d5a5c995960921b6044820152606401610b8f565b801580612de55750600083115b612e275760405162461bcd60e51b81526020600482015260136024820152721c995b9d081c1c9a58d9481c995c5d5a5c9959606a1b6044820152606401610b8f565b604051806101800160405280868152602001336001600160a01b03168152602001306001600160a01b031681526020018581526020018481526020018215158152602001831515815260200160006001600160401b031681526020018215158152602001831515815260200160001515815260200160001515815250600f60008781526020019081526020016000206000820151816000015560208201518160010160006101000a8154816001600160a01b0302191690836001600160a01b0316021790555060408201518160020160006101000a8154816001600160a01b0302191690836001600160a01b03160217905550606082015181600301556080820151816004015560a08201518160050160006101000a81548160ff02191690831515021790555060c08201518160050160016101000a81548160ff02191690831515021790555060e08201518160050160026101000a8154816001600160401b0302191690836001600160401b0316021790555061010082015181600501600a6101000a81548160ff02191690831515021790555061012082015181600501600b6101000a81548160ff02191690831515021790555061014082015181600501600c6101000a81548160ff02191690831515021790555061016082015181600501600d6101000a81548160ff02191690831515021790555090505061302d333087612881565b60408051338152306020820152908101859052606081018490528115156080820181905283151560a08301819052600060c0840181905260e0840192909252610100830152610120820181905261014082015285907f492deeedddcf20d370b3e1bfd0cb18f72d909aedbaf5c6b6b196848bb234660d906101600160405180910390a25050505050565b816001600160a01b0316836001600160a01b031614156131195760405162461bcd60e51b815260206004820152601960248201527f4552433732313a20617070726f766520746f2063616c6c6572000000000000006044820152606401610b8f565b6001600160a01b03838116600081815260056020908152604080832094871680845294825291829020805460ff191686151590811790915591519182527f17307eab39ab6107e8899845ad3d59bd9653f200f220920489ca2b5937696c3191015b60405180910390a3505050565b613192848484612881565b61319e8484848461329b565b6116225760405162461bcd60e51b8152600401610b8f90613f25565b6000805b825181101561320b578281815181106131d9576131d9613bd7565b016020015160f81c6131ed83610100613f77565b6131f79190613bbf565b91508061320381613bed565b9150506131be565b50919050565b816001600160a01b0316836001600160a01b03161415801561324957506000818152600660205260409020546001600160a01b031615155b15610cc557600081815260066020908152604080832080546001600160e01b03191690555182815283917f4e06b4e7000e659094299b3533b47b6aa8ad048e95e872d23d1f4ee55af89cfe910161317a565b60006001600160a01b0384163b1561339d57604051630a85bd0160e11b81526001600160a01b0385169063150b7a02906132df903390899088908890600401613f96565b602060405180830381600087803b1580156132f957600080fd5b505af1925050508015613329575060408051601f3d908101601f1916820190925261332691810190613fd3565b60015b613383573d808015613357576040519150601f19603f3d011682016040523d82523d6000602084013e61335c565b606091505b50805161337b5760405162461bcd60e51b8152600401610b8f90613f25565b805181602001fd5b6001600160e01b031916630a85bd0160e11b149050612b17565b506001949350505050565b6040805161018081018252600080825260208201819052918101829052606081018290526080810182905260a0810182905260c0810182905260e0810182905261010081018290526101208101829052610140810182905261016081019190915290565b82805461341890613b5d565b90600052602060002090601f01602090048101928261343a5760008555613480565b82601f1061345357805160ff1916838001178555613480565b82800160010185558215613480579182015b82811115613480578251825591602001919060010190613465565b5061348c929150613490565b5090565b5b8082111561348c5760008155600101613491565b6001600160e01b0319811681146134bb57600080fd5b50565b6000602082840312156134d057600080fd5b81356115d8816134a5565b60005b838110156134f65781810151838201526020016134de565b838111156116225750506000910152565b6000815180845261351f8160208601602086016134db565b601f01601f19169290920160200192915050565b6020815260006115d86020830184613507565b60006020828403121561355857600080fd5b5035919050565b6001600160a01b03811681146134bb57600080fd5b6000806040838503121561358757600080fd5b82356135928161355f565b946020939093013593505050565b80356001600160401b0381168114611f7557600080fd5b600080604083850312156135ca57600080fd5b823591506135da602084016135a0565b90509250929050565b602080825282518282018190526000919060409081850190868401855b828110156136b057815180518552868101516001600160a01b0390811688870152868201511686860152606080820151908601526080808201519086015260a08082015115159086015260c08082015115159086015260e0808201516001600160401b031690860152610100808201511515908601526101208082015115159086015261014080820151151590860152610160908101511515908501526101809093019290850190600101613600565b5091979650505050505050565b6000602082840312156136cf57600080fd5b81356115d88161355f565b80151581146134bb57600080fd5b60008060008060008060c0878903121561370157600080fd5b8635955060208701359450604087013593506060870135613721816136da565b92506080870135613731816136da565b915060a0870135613741816136da565b809150509295509295509295565b60008060006060848603121561376457600080fd5b833561376f8161355f565b9250602084013561377f8161355f565b929592945050506040919091013590565b600080604083850312156137a357600080fd5b50508035926020909101359150565b600080602083850312156137c557600080fd5b82356001600160401b03808211156137dc57600080fd5b818501915085601f8301126137f057600080fd5b8135818111156137ff57600080fd5b86602082850101111561381157600080fd5b60209290920196919550909350505050565b6040815260006138366040830185613507565b90508260208301529392505050565b634e487b7160e01b600052604160045260246000fd5b604051601f8201601f191681016001600160401b038111828210171561388357613883613845565b604052919050565b60006001600160401b038211156138a4576138a4613845565b50601f01601f191660200190565b60006138c56138c08461388b565b61385b565b90508281528383830111156138d957600080fd5b828260208301376000602084830101529392505050565b60008060008060008060c0878903121561390957600080fd5b86356001600160401b0381111561391f57600080fd5b8701601f8101891361393057600080fd5b61393f898235602084016138b2565b96505060208701359450604087013593506060870135613721816136da565b8215158152604060208201526000612b176040830184613507565b6000806040838503121561398c57600080fd5b82356139978161355f565b915060208301356139a7816136da565b809150509250929050565b600080600080608085870312156139c857600080fd5b84356139d38161355f565b935060208501356139e38161355f565b92506040850135915060608501356001600160401b03811115613a0557600080fd5b8501601f81018713613a1657600080fd5b613a25878235602084016138b2565b91505092959194509250565b600080600060608486031215613a4657600080fd5b833592506020840135613a588161355f565b9150613a66604085016135a0565b90509250925092565b60008060408385031215613a8257600080fd5b8235613a8d8161355f565b915060208301356139a78161355f565b60008060008060808587031215613ab357600080fd5b5050823594602084013594506040840135936060013592509050565b6000604082016040835280855180835260608501915060608160051b8601019250602080880160005b83811015613b2657605f19888703018552613b14868351613507565b95509382019390820190600101613af8565b50508584038187015286518085528782019482019350915060005b828110156136b057845184529381019392810192600101613b41565b600181811c90821680613b7157607f821691505b6020821081141561320b57634e487b7160e01b600052602260045260246000fd5b634e487b7160e01b600052601160045260246000fd5b600082821015613bba57613bba613b92565b500390565b60008219821115613bd257613bd2613b92565b500190565b634e487b7160e01b600052603260045260246000fd5b6000600019821415613c0157613c01613b92565b5060010190565b6020808252602a908201527f4f6e6c79206974656d206f776e65722063616e20706572666f726d20746869736040820152691037b832b930ba34b7b760b11b606082015260800190565b60208082526024908201527f5072696365206d75737420626520657175616c20746f206c697374696e6720706040820152637269636560e01b606082015260800190565b60208082526031908201527f4552433732313a207472616e736665722063616c6c6572206973206e6f74206f6040820152701ddb995c881b9bdc88185c1c1c9bdd9959607a1b606082015260800190565b60008060408385031215613cfa57600080fd5b8251613d05816136da565b6020939093015192949293505050565b600060208284031215613d2757600080fd5b81516115d8816136da565b600060208284031215613d4457600080fd5b5051919050565b600082601f830112613d5c57600080fd5b8151613d6a6138c08261388b565b818152846020838601011115613d7f57600080fd5b612b178260208301602087016134db565b600080600060608486031215613da557600080fd5b8351613db0816136da565b60208501519093506001600160401b03811115613dcc57600080fd5b613dd886828701613d4b565b925050604084015190509250925092565b600060208284031215613dfb57600080fd5b81516001600160401b03811115613e1157600080fd5b612b1784828501613d4b565b600080835481600182811c915080831680613e3957607f831692505b6020808410821415613e5957634e487b7160e01b86526022600452602486fd5b818015613e6d5760018114613e7e57613eab565b60ff19861689528489019650613eab565b60008a81526020902060005b86811015613ea35781548b820152908501908301613e8a565b505084890196505b509498975050505050505050565b600060208284031215613ecb57600080fd5b81516115d88161355f565b600081613ee557613ee5613b92565b506000190190565b600082613f0a57634e487b7160e01b600052601260045260246000fd5b500490565b634e487b7160e01b600052603160045260246000fd5b60208082526032908201527f4552433732313a207472616e7366657220746f206e6f6e20455243373231526560408201527131b2b4bb32b91034b6b83632b6b2b73a32b960711b606082015260800190565b6000816000190483118215151615613f9157613f91613b92565b500290565b6001600160a01b0385811682528416602082015260408101839052608060608201819052600090613fc990830184613507565b9695505050505050565b600060208284031215613fe557600080fd5b81516115d8816134a556fea2646970667358221220da80c5c899060b26f4a785fba04d64df8830ffd6242ca33744394329a930053864736f6c63430008090033",
  "linkReferences": {},
  "deployedLinkReferences": {}
}