{
  "_format": "hh-sol-artifact-1",
  "contractName": "RentableNFTMarketplace",
  "sourceName": "contracts/RentableNFTMarketplace.sol",
  "abi": [
    {
      "inputs": [],
      "stateMutability": "nonpayable",
      "type": "constructor"
    },
    {
      "anonymous": false,
      "inputs": [
        {
          "indexed": true,
          "internalType": "address",
          "name": "owner",
          "type": "address"
        },
        {
          "indexed": true,
          "internalType": "address",
          "name": "approved",
          "type": "address"
        },
        {
          "indexed": true,
          "internalType": "uint256",
          "name": "tokenId",
          "type": "uint256"
        }
      ],
      "name": "Approval",
      "type": "event"
    },
    {
      "anonymous": false,
      "inputs": [
        {
          "indexed": true,
          "internalType": "address",
          "name": "owner",
          "type": "address"
        },
        {
          "indexed": true,
          "internalType": "address",
          "name": "operator",
          "type": "address"
        },
        {
          "indexed": false,
          "internalType": "bool",
          "name": "approved",
          "type": "bool"
        }
      ],
      "name": "ApprovalForAll",
      "type": "event"
    },
    {
      "anonymous": false,
      "inputs": [
        {
          "indexed": true,
          "internalType": "uint256",
          "name": "tokenId",
          "type": "uint256"
        },
        {
          "indexed": false,
          "internalType": "address",
          "name": "owner",
          "type": "address"
        },
        {
          "indexed": false,
          "internalType": "uint256",
          "name": "price",
          "type": "uint256"
        },
        {
          "indexed": false,
          "internalType": "uint256",
          "name": "rentPrice",
          "type": "uint256"
        },
        {
          "indexed": false,
          "internalType": "bool",
          "name": "forRent",
          "type": "bool"
        },
        {
          "indexed": false,
          "internalType": "bool",
          "name": "forSale",
          "type": "bool"
        },
        {
          "indexed": false,
          "internalType": "bool",
          "name": "sold",
          "type": "bool"
        },
        {
          "indexed": false,
          "internalType": "bool",
          "name": "rented",
          "type": "bool"
        }
      ],
      "name": "MarketItemCreated",
      "type": "event"
    },
    {
      "anonymous": false,
      "inputs": [
        {
          "indexed": true,
          "internalType": "address",
          "name": "from",
          "type": "address"
        },
        {
          "indexed": true,
          "internalType": "address",
          "name": "to",
          "type": "address"
        },
        {
          "indexed": true,
          "internalType": "uint256",
          "name": "tokenId",
          "type": "uint256"
        }
      ],
      "name": "Transfer",
      "type": "event"
    },
    {
      "anonymous": false,
      "inputs": [
        {
          "indexed": true,
          "internalType": "uint256",
          "name": "tokenId",
          "type": "uint256"
        },
        {
          "indexed": true,
          "internalType": "address",
          "name": "user",
          "type": "address"
        },
        {
          "indexed": false,
          "internalType": "uint64",
          "name": "expires",
          "type": "uint64"
        }
      ],
      "name": "UpdateUser",
      "type": "event"
    },
    {
      "inputs": [],
      "name": "_itemsRented",
      "outputs": [
        {
          "internalType": "uint256",
          "name": "_value",
          "type": "uint256"
        }
      ],
      "stateMutability": "view",
      "type": "function"
    },
    {
      "inputs": [],
      "name": "_itemsSold",
      "outputs": [
        {
          "internalType": "uint256",
          "name": "_value",
          "type": "uint256"
        }
      ],
      "stateMutability": "view",
      "type": "function"
    },
    {
      "inputs": [],
      "name": "_tokenIds",
      "outputs": [
        {
          "internalType": "uint256",
          "name": "_value",
          "type": "uint256"
        }
      ],
      "stateMutability": "view",
      "type": "function"
    },
    {
      "inputs": [
        {
          "internalType": "address",
          "name": "to",
          "type": "address"
        },
        {
          "internalType": "uint256",
          "name": "tokenId",
          "type": "uint256"
        }
      ],
      "name": "approve",
      "outputs": [],
      "stateMutability": "nonpayable",
      "type": "function"
    },
    {
      "inputs": [
        {
          "internalType": "address",
          "name": "owner",
          "type": "address"
        }
      ],
      "name": "balanceOf",
      "outputs": [
        {
          "internalType": "uint256",
          "name": "",
          "type": "uint256"
        }
      ],
      "stateMutability": "view",
      "type": "function"
    },
    {
      "inputs": [
        {
          "internalType": "bytes",
          "name": "",
          "type": "bytes"
        }
      ],
      "name": "checkUpkeep",
      "outputs": [
        {
          "internalType": "bool",
          "name": "upkeepNeeded",
          "type": "bool"
        },
        {
          "internalType": "bytes",
          "name": "performData",
          "type": "bytes"
        }
      ],
      "stateMutability": "view",
      "type": "function"
    },
    {
      "inputs": [
        {
          "internalType": "uint256",
          "name": "tokenId",
          "type": "uint256"
        }
      ],
      "name": "createMarketSale",
      "outputs": [],
      "stateMutability": "payable",
      "type": "function"
    },
    {
      "inputs": [
        {
          "internalType": "string",
          "name": "_tokenURI",
          "type": "string"
        },
        {
          "internalType": "uint256",
          "name": "price",
          "type": "uint256"
        },
        {
          "internalType": "uint256",
          "name": "rentPrice",
          "type": "uint256"
        },
        {
          "internalType": "bool",
          "name": "forSale",
          "type": "bool"
        },
        {
          "internalType": "bool",
          "name": "forRent",
          "type": "bool"
        }
      ],
      "name": "createToken",
      "outputs": [],
      "stateMutability": "payable",
      "type": "function"
    },
    {
      "inputs": [],
      "name": "fetchMarketItems",
      "outputs": [
        {
          "components": [
            {
              "internalType": "uint256",
              "name": "tokenId",
              "type": "uint256"
            },
            {
              "internalType": "address payable",
              "name": "owner",
              "type": "address"
            },
            {
              "internalType": "uint256",
              "name": "price",
              "type": "uint256"
            },
            {
              "internalType": "uint256",
              "name": "rentPrice",
              "type": "uint256"
            },
            {
              "internalType": "bool",
              "name": "forRent",
              "type": "bool"
            },
            {
              "internalType": "bool",
              "name": "forSale",
              "type": "bool"
            },
            {
              "internalType": "bool",
              "name": "sold",
              "type": "bool"
            },
            {
              "internalType": "bool",
              "name": "rented",
              "type": "bool"
            }
          ],
          "internalType": "struct RentableNFTMarketplace.MarketItem[]",
          "name": "",
          "type": "tuple[]"
        }
      ],
      "stateMutability": "view",
      "type": "function"
    },
    {
      "inputs": [],
      "name": "fetchMyNFTs",
      "outputs": [
        {
          "components": [
            {
              "internalType": "uint256",
              "name": "tokenId",
              "type": "uint256"
            },
            {
              "internalType": "address payable",
              "name": "owner",
              "type": "address"
            },
            {
              "internalType": "uint256",
              "name": "price",
              "type": "uint256"
            },
            {
              "internalType": "uint256",
              "name": "rentPrice",
              "type": "uint256"
            },
            {
              "internalType": "bool",
              "name": "forRent",
              "type": "bool"
            },
            {
              "internalType": "bool",
              "name": "forSale",
              "type": "bool"
            },
            {
              "internalType": "bool",
              "name": "sold",
              "type": "bool"
            },
            {
              "internalType": "bool",
              "name": "rented",
              "type": "bool"
            }
          ],
          "internalType": "struct RentableNFTMarketplace.MarketItem[]",
          "name": "",
          "type": "tuple[]"
        }
      ],
      "stateMutability": "view",
      "type": "function"
    },
    {
      "inputs": [],
      "name": "fetchMyRentedNFTs",
      "outputs": [
        {
          "components": [
            {
              "internalType": "uint256",
              "name": "tokenId",
              "type": "uint256"
            },
            {
              "internalType": "address payable",
              "name": "owner",
              "type": "address"
            },
            {
              "internalType": "uint256",
              "name": "price",
              "type": "uint256"
            },
            {
              "internalType": "uint256",
              "name": "rentPrice",
              "type": "uint256"
            },
            {
              "internalType": "bool",
              "name": "forRent",
              "type": "bool"
            },
            {
              "internalType": "bool",
              "name": "forSale",
              "type": "bool"
            },
            {
              "internalType": "bool",
              "name": "sold",
              "type": "bool"
            },
            {
              "internalType": "bool",
              "name": "rented",
              "type": "bool"
            },
            {
              "internalType": "address",
              "name": "renter",
              "type": "address"
            },
            {
              "internalType": "uint64",
              "name": "expires",
              "type": "uint64"
            }
          ],
          "internalType": "struct RentableNFTMarketplace.FullRentedItem[]",
          "name": "",
          "type": "tuple[]"
        }
      ],
      "stateMutability": "view",
      "type": "function"
    },
    {
      "inputs": [
        {
          "internalType": "uint256",
          "name": "tokenId",
          "type": "uint256"
        }
      ],
      "name": "getApproved",
      "outputs": [
        {
          "internalType": "address",
          "name": "",
          "type": "address"
        }
      ],
      "stateMutability": "view",
      "type": "function"
    },
    {
      "inputs": [],
      "name": "getListingPrice",
      "outputs": [
        {
          "internalType": "uint256",
          "name": "",
          "type": "uint256"
        }
      ],
      "stateMutability": "view",
      "type": "function"
    },
    {
      "inputs": [
        {
          "internalType": "uint256",
          "name": "tokenId",
          "type": "uint256"
        }
      ],
      "name": "getUserOf",
      "outputs": [
        {
          "internalType": "address",
          "name": "",
          "type": "address"
        }
      ],
      "stateMutability": "view",
      "type": "function"
    },
    {
      "inputs": [
        {
          "internalType": "uint256",
          "name": "",
          "type": "uint256"
        }
      ],
      "name": "idToMarketItem",
      "outputs": [
        {
          "internalType": "uint256",
          "name": "tokenId",
          "type": "uint256"
        },
        {
          "internalType": "address payable",
          "name": "owner",
          "type": "address"
        },
        {
          "internalType": "uint256",
          "name": "price",
          "type": "uint256"
        },
        {
          "internalType": "uint256",
          "name": "rentPrice",
          "type": "uint256"
        },
        {
          "internalType": "bool",
          "name": "forRent",
          "type": "bool"
        },
        {
          "internalType": "bool",
          "name": "forSale",
          "type": "bool"
        },
        {
          "internalType": "bool",
          "name": "sold",
          "type": "bool"
        },
        {
          "internalType": "bool",
          "name": "rented",
          "type": "bool"
        }
      ],
      "stateMutability": "view",
      "type": "function"
    },
    {
      "inputs": [
        {
          "internalType": "uint256",
          "name": "",
          "type": "uint256"
        }
      ],
      "name": "idToRentedItem",
      "outputs": [
        {
          "internalType": "uint256",
          "name": "tokenId",
          "type": "uint256"
        },
        {
          "internalType": "address",
          "name": "renter",
          "type": "address"
        },
        {
          "internalType": "uint64",
          "name": "expires",
          "type": "uint64"
        }
      ],
      "stateMutability": "view",
      "type": "function"
    },
    {
      "inputs": [
        {
          "internalType": "address",
          "name": "owner",
          "type": "address"
        },
        {
          "internalType": "address",
          "name": "operator",
          "type": "address"
        }
      ],
      "name": "isApprovedForAll",
      "outputs": [
        {
          "internalType": "bool",
          "name": "",
          "type": "bool"
        }
      ],
      "stateMutability": "view",
      "type": "function"
    },
    {
      "inputs": [],
      "name": "name",
      "outputs": [
        {
          "internalType": "string",
          "name": "",
          "type": "string"
        }
      ],
      "stateMutability": "view",
      "type": "function"
    },
    {
      "inputs": [],
      "name": "owner",
      "outputs": [
        {
          "internalType": "address payable",
          "name": "",
          "type": "address"
        }
      ],
      "stateMutability": "view",
      "type": "function"
    },
    {
      "inputs": [
        {
          "internalType": "uint256",
          "name": "tokenId",
          "type": "uint256"
        }
      ],
      "name": "ownerOf",
      "outputs": [
        {
          "internalType": "address",
          "name": "",
          "type": "address"
        }
      ],
      "stateMutability": "view",
      "type": "function"
    },
    {
      "inputs": [
        {
          "internalType": "bytes",
          "name": "performData",
          "type": "bytes"
        }
      ],
      "name": "performUpkeep",
      "outputs": [],
      "stateMutability": "nonpayable",
      "type": "function"
    },
    {
      "inputs": [
        {
          "internalType": "uint256",
          "name": "_tokenId",
          "type": "uint256"
        },
        {
          "internalType": "uint64",
          "name": "_expires",
          "type": "uint64"
        }
      ],
      "name": "rentOutToken",
      "outputs": [],
      "stateMutability": "payable",
      "type": "function"
    },
    {
      "inputs": [
        {
          "internalType": "uint256",
          "name": "",
          "type": "uint256"
        }
      ],
      "name": "rentedTokenIds",
      "outputs": [
        {
          "internalType": "uint256",
          "name": "",
          "type": "uint256"
        }
      ],
      "stateMutability": "view",
      "type": "function"
    },
    {
      "inputs": [
        {
          "internalType": "uint256",
          "name": "tokenId",
          "type": "uint256"
        },
        {
          "internalType": "uint256",
          "name": "price",
          "type": "uint256"
        },
        {
          "internalType": "uint256",
          "name": "rentPrice",
          "type": "uint256"
        },
        {
          "internalType": "bool",
          "name": "forRent",
          "type": "bool"
        },
        {
          "internalType": "bool",
          "name": "forSale",
          "type": "bool"
        }
      ],
      "name": "resellToken",
      "outputs": [],
      "stateMutability": "payable",
      "type": "function"
    },
    {
      "inputs": [
        {
          "internalType": "address",
          "name": "from",
          "type": "address"
        },
        {
          "internalType": "address",
          "name": "to",
          "type": "address"
        },
        {
          "internalType": "uint256",
          "name": "tokenId",
          "type": "uint256"
        }
      ],
      "name": "safeTransferFrom",
      "outputs": [],
      "stateMutability": "nonpayable",
      "type": "function"
    },
    {
      "inputs": [
        {
          "internalType": "address",
          "name": "from",
          "type": "address"
        },
        {
          "internalType": "address",
          "name": "to",
          "type": "address"
        },
        {
          "internalType": "uint256",
          "name": "tokenId",
          "type": "uint256"
        },
        {
          "internalType": "bytes",
          "name": "_data",
          "type": "bytes"
        }
      ],
      "name": "safeTransferFrom",
      "outputs": [],
      "stateMutability": "nonpayable",
      "type": "function"
    },
    {
      "inputs": [
        {
          "internalType": "address",
          "name": "operator",
          "type": "address"
        },
        {
          "internalType": "bool",
          "name": "approved",
          "type": "bool"
        }
      ],
      "name": "setApprovalForAll",
      "outputs": [],
      "stateMutability": "nonpayable",
      "type": "function"
    },
    {
      "inputs": [
        {
          "internalType": "uint256",
          "name": "tokenId",
          "type": "uint256"
        },
        {
          "internalType": "address",
          "name": "user",
          "type": "address"
        },
        {
          "internalType": "uint64",
          "name": "expires",
          "type": "uint64"
        }
      ],
      "name": "setUser",
      "outputs": [],
      "stateMutability": "nonpayable",
      "type": "function"
    },
    {
      "inputs": [
        {
          "internalType": "bytes4",
          "name": "interfaceId",
          "type": "bytes4"
        }
      ],
      "name": "supportsInterface",
      "outputs": [
        {
          "internalType": "bool",
          "name": "",
          "type": "bool"
        }
      ],
      "stateMutability": "view",
      "type": "function"
    },
    {
      "inputs": [],
      "name": "symbol",
      "outputs": [
        {
          "internalType": "string",
          "name": "",
          "type": "string"
        }
      ],
      "stateMutability": "view",
      "type": "function"
    },
    {
      "inputs": [
        {
          "internalType": "uint256",
          "name": "_tokenId",
          "type": "uint256"
        }
      ],
      "name": "tokenURI",
      "outputs": [
        {
          "internalType": "string",
          "name": "",
          "type": "string"
        }
      ],
      "stateMutability": "view",
      "type": "function"
    },
    {
      "inputs": [
        {
          "internalType": "uint256",
          "name": "",
          "type": "uint256"
        }
      ],
      "name": "tokenURIs",
      "outputs": [
        {
          "internalType": "string",
          "name": "",
          "type": "string"
        }
      ],
      "stateMutability": "view",
      "type": "function"
    },
    {
      "inputs": [
        {
          "internalType": "address",
          "name": "from",
          "type": "address"
        },
        {
          "internalType": "address",
          "name": "to",
          "type": "address"
        },
        {
          "internalType": "uint256",
          "name": "tokenId",
          "type": "uint256"
        }
      ],
      "name": "transferFrom",
      "outputs": [],
      "stateMutability": "nonpayable",
      "type": "function"
    },
    {
      "inputs": [
        {
          "internalType": "uint256",
          "name": "_listingPrice",
          "type": "uint256"
        }
      ],
      "name": "updateListingPrice",
      "outputs": [],
      "stateMutability": "nonpayable",
      "type": "function"
    },
    {
      "inputs": [
        {
          "internalType": "uint256",
          "name": "_tokenId",
          "type": "uint256"
        },
        {
          "internalType": "uint256",
          "name": "price",
          "type": "uint256"
        }
      ],
      "name": "updatePrice",
      "outputs": [],
      "stateMutability": "nonpayable",
      "type": "function"
    },
    {
      "inputs": [
        {
          "internalType": "uint256",
          "name": "_tokenId",
          "type": "uint256"
        },
        {
          "internalType": "uint256",
          "name": "rent_price",
          "type": "uint256"
        }
      ],
      "name": "updateRentPrice",
      "outputs": [],
      "stateMutability": "nonpayable",
      "type": "function"
    },
    {
      "inputs": [
        {
          "internalType": "uint256",
          "name": "tokenId",
          "type": "uint256"
        }
      ],
      "name": "userExpires",
      "outputs": [
        {
          "internalType": "uint256",
          "name": "",
          "type": "uint256"
        }
      ],
      "stateMutability": "view",
      "type": "function"
    },
    {
      "inputs": [
        {
          "internalType": "uint256",
          "name": "tokenId",
          "type": "uint256"
        }
      ],
      "name": "userOf",
      "outputs": [
        {
          "internalType": "address",
          "name": "",
          "type": "address"
        }
      ],
      "stateMutability": "view",
      "type": "function"
    },
    {
      "inputs": [],
      "name": "withdraw",
      "outputs": [],
      "stateMutability": "nonpayable",
      "type": "function"
    }
  ],
  "bytecode": "0x608060405266038d7ea4c68000600b553480156200001c57600080fd5b50604080518082018252600881526752656e7461626c6560c01b602080830191825283518085019094526002845261149560f21b908401528151919291839183916200006b916000916200009f565b508051620000819060019060208401906200009f565b5050600c80546001600160a01b031916331790555062000182915050565b828054620000ad9062000145565b90600052602060002090601f016020900481019282620000d157600085556200011c565b82601f10620000ec57805160ff19168380011785556200011c565b828001600101855582156200011c579182015b828111156200011c578251825591602001919060010190620000ff565b506200012a9291506200012e565b5090565b5b808211156200012a57600081556001016200012f565b600181811c908216806200015a57607f821691505b602082108114156200017c57634e487b7160e01b600052602260045260246000fd5b50919050565b6131bf80620001926000396000f3fe6080604052600436106102305760003560e01c80636cec833c1161012e578063a22cb465116100ab578063c2f1f14a1161006f578063c2f1f14a146106bf578063c87b56dd146106df578063e030565e146106ff578063e61a70c01461071f578063e985e9c5146107dd57600080fd5b8063a22cb46514610635578063aa46a40014610655578063ae677aa31461066c578063b88d4fde1461068c578063be9af536146106ac57600080fd5b8063897db782116100f2578063897db7821461058c5780638da5cb5b146105ac5780638fc88c48146105cc578063913f30d81461060957806395d89b411461062057600080fd5b80636cec833c1461048c5780636e04ff0d1461050757806370a082311461053557806382367b2d1461055557806387506a0d1461057557600080fd5b8063202e3740116101bc5780634585e33b116101805780634585e33b146103ea5780634feb29821461040a5780636352211e1461042a57806367ea485c1461044a5780636c8b703f1461046c57600080fd5b8063202e37401461036d57806323b872dd146103825780633b01b799146103a25780633ccfd60b146103b557806342842e0e146103ca57600080fd5b806309a26ba71161020357806309a26ba7146102e65780630f08efe0146102f957806312e855851461031b57806318684c2b1461033a5780631dd8e2711461035a57600080fd5b806301ffc9a71461023557806306fdde031461026a578063081812fc1461028c578063095ea7b3146102c4575b600080fd5b34801561024157600080fd5b506102556102503660046128c1565b610826565b60405190151581526020015b60405180910390f35b34801561027657600080fd5b5061027f610851565b6040516102619190612932565b34801561029857600080fd5b506102ac6102a7366004612945565b6108e3565b6040516001600160a01b039091168152602001610261565b3480156102d057600080fd5b506102e46102df366004612975565b61097d565b005b6102e46102f43660046129b6565b610a93565b34801561030557600080fd5b5061030e610ce6565b60405161026191906129e2565b34801561032757600080fd5b50600b545b604051908152602001610261565b34801561034657600080fd5b5061032c610355366004612945565b610f22565b6102e4610368366004612a90565b610f43565b34801561037957600080fd5b5061030e61101e565b34801561038e57600080fd5b506102e461039d366004612ae0565b611269565b6102e46103b0366004612ba7565b61129a565b3480156103c157600080fd5b506102e4611315565b3480156103d657600080fd5b506102e46103e5366004612ae0565b6113a2565b3480156103f657600080fd5b506102e4610405366004612c12565b6113bd565b34801561041657600080fd5b506102e4610425366004612c83565b611401565b34801561043657600080fd5b506102ac610445366004612945565b61144f565b34801561045657600080fd5b5061045f6114c6565b6040516102619190612ca5565b34801561047857600080fd5b5061027f610487366004612945565b611779565b34801561049857600080fd5b506104db6104a7366004612945565b600e60205260009081526040902080546001909101546001600160a01b03811690600160a01b90046001600160401b031683565b604080519384526001600160a01b0390921660208401526001600160401b031690820152606001610261565b34801561051357600080fd5b50610527610522366004612c12565b611813565b604051610261929190612d5a565b34801561054157600080fd5b5061032c610550366004612d75565b6118d5565b34801561056157600080fd5b506102e4610570366004612c83565b61195c565b34801561058157600080fd5b5060085461032c9081565b34801561059857600080fd5b506102ac6105a7366004612945565b6119aa565b3480156105b857600080fd5b50600c546102ac906001600160a01b031681565b3480156105d857600080fd5b5061032c6105e7366004612945565b600090815260066020526040902054600160a01b90046001600160401b031690565b34801561061557600080fd5b5060095461032c9081565b34801561062c57600080fd5b5061027f6119b5565b34801561064157600080fd5b506102e4610650366004612d90565b6119c4565b34801561066157600080fd5b5060075461032c9081565b34801561067857600080fd5b506102e4610687366004612945565b6119cf565b34801561069857600080fd5b506102e46106a7366004612dba565b611a42565b6102e46106ba366004612945565b611a74565b3480156106cb57600080fd5b506102ac6106da366004612945565b611b58565b3480156106eb57600080fd5b5061027f6106fa366004612945565b611ba7565b34801561070b57600080fd5b506102e461071a366004612e35565b611be2565b34801561072b57600080fd5b5061079261073a366004612945565b600d602052600090815260409020805460018201546002830154600384015460049094015492936001600160a01b039092169290919060ff808216916101008104821691620100008204811691630100000090041688565b604080519889526001600160a01b03909716602089015295870194909452606086019290925215156080850152151560a0840152151560c0830152151560e082015261010001610261565b3480156107e957600080fd5b506102556107f8366004612e71565b6001600160a01b03918216600090815260056020908152604080832093909416825291909152205460ff1690565b60006001600160e01b03198216632b424ad760e21b148061084b575061084b82611c13565b92915050565b60606000805461086090612e9b565b80601f016020809104026020016040519081016040528092919081815260200182805461088c90612e9b565b80156108d95780601f106108ae576101008083540402835291602001916108d9565b820191906000526020600020905b8154815290600101906020018083116108bc57829003601f168201915b5050505050905090565b6000818152600260205260408120546001600160a01b03166109615760405162461bcd60e51b815260206004820152602c60248201527f4552433732313a20617070726f76656420717565727920666f72206e6f6e657860448201526b34b9ba32b73a103a37b5b2b760a11b60648201526084015b60405180910390fd5b506000908152600460205260409020546001600160a01b031690565b60006109888261144f565b9050806001600160a01b0316836001600160a01b031614156109f65760405162461bcd60e51b815260206004820152602160248201527f4552433732313a20617070726f76616c20746f2063757272656e74206f776e656044820152603960f91b6064820152608401610958565b336001600160a01b0382161480610a125750610a1281336107f8565b610a845760405162461bcd60e51b815260206004820152603860248201527f4552433732313a20617070726f76652063616c6c6572206973206e6f74206f7760448201527f6e6572206e6f7220617070726f76656420666f7220616c6c00000000000000006064820152608401610958565b610a8e8383611c63565b505050565b6000828152600d602052604090206004015460ff16610af45760405162461bcd60e51b815260206004820152601f60248201527f546f6b656e206973206e6f7420617661696c61626c6520666f722072656e74006044820152606401610958565b6000610aff83611b58565b6001600160a01b031614610b555760405162461bcd60e51b815260206004820152601760248201527f546f6b656e20697320616c72656164792072656e7465640000000000000000006044820152606401610958565b6000828152600d6020526040902060030154341015610bc25760405162461bcd60e51b8152602060048201526024808201527f496e73756666696369656e742066756e647320746f2072656e7420746865207460448201526337b5b2b760e11b6064820152608401610958565b6000828152600d6020526040902060018101546004909101805463ff000000191663010000001790556001600160a01b0316610c02600980546001019055565b604080516060810182528481523360208083018281526001600160401b0380881685870190815260008a8152600e909452958320945185559051600194850180549651909216600160a01b026001600160e01b03199096166001600160a01b03919091161794909417909355600f805492830181559092527f8d1108e10bcb7c27dddfc02ed9d693a074039d026cf4ea4240b40f7d581ac80201849055610cab90849084611cd1565b6040516001600160a01b038216903480156108fc02916000818181858888f19350505050158015610ce0573d6000803e3d6000fd5b50505050565b60606000610cf360075490565b905060008060005b83811015610d8057600d6000610d12836001612eec565b8152602081019190915260400160002060040154610100900460ff1680610d5b5750600d6000610d43836001612eec565b815260208101919091526040016000206004015460ff165b15610d6e57610d6b600184612eec565b92505b80610d7881612f04565b915050610cfb565b506000826001600160401b03811115610d9b57610d9b612b1c565b604051908082528060200260200182016040528015610dd457816020015b610dc16127cb565b815260200190600190039081610db95790505b50905060005b84811015610f1957600d6000610df1836001612eec565b8152602081019190915260400160002060040154610100900460ff1680610e3a5750600d6000610e22836001612eec565b815260208101919091526040016000206004015460ff165b15610f07576000610e4c826001612eec565b6000818152600d6020908152604091829020825161010080820185528254825260018301546001600160a01b03169382019390935260028201549381019390935260038101546060840152600481015460ff808216151560808601529281048316151560a08501526201000081048316151560c085015263010000009004909116151560e0830152855192935091859087908110610eec57610eec612f1f565b6020908102919091010152610f02600186612eec565b945050505b80610f1181612f04565b915050610dda565b50949350505050565b600f8181548110610f3257600080fd5b600091825260209091200154905081565b6000858152600d60205260409020600101546001600160a01b03163314610fac5760405162461bcd60e51b815260206004820152601a60248201527f4f6e6c79206974656d206f776e65722063616e20726573656c6c0000000000006044820152606401610958565b600b543414610fcd5760405162461bcd60e51b815260040161095890612f35565b6000858152600d602052604090206002810185905560038101849055600401805461ffff191683151561ff00191617610100831515021763ffff0000191690556110176008611d51565b5050505050565b6060600061102b60075490565b905060008060005b838110156110c45733600d600061104b846001612eec565b81526020810191909152604001600020600101546001600160a01b031614801561109f5750600d600061107f836001612eec565b81526020810191909152604001600020600401546301000000900460ff16155b156110b2576110af600184612eec565b92505b806110bc81612f04565b915050611033565b506000826001600160401b038111156110df576110df612b1c565b60405190808252806020026020018201604052801561111857816020015b6111056127cb565b8152602001906001900390816110fd5790505b50905060005b84811015610f195733600d6000611136846001612eec565b81526020810191909152604001600020600101546001600160a01b031614801561118a5750600d600061116a836001612eec565b81526020810191909152604001600020600401546301000000900460ff16155b1561125757600061119c826001612eec565b6000818152600d6020908152604091829020825161010080820185528254825260018301546001600160a01b03169382019390935260028201549381019390935260038101546060840152600481015460ff808216151560808601529281048316151560a08501526201000081048316151560c085015263010000009004909116151560e083015285519293509185908790811061123c5761123c612f1f565b6020908102919091010152611252600186612eec565b945050505b8061126181612f04565b91505061111e565b6112733382611da8565b61128f5760405162461bcd60e51b815260040161095890612f79565b610a8e838383611e9f565b600b5434146112bb5760405162461bcd60e51b815260040161095890612f35565b6112c9600780546001019055565b60006112d460075490565b90506112e03382612046565b6000818152600a6020908152604090912087516112ff9289019061280f565b5061130d8186868686612194565b505050505050565b600c546001600160a01b0316331461136f5760405162461bcd60e51b815260206004820152601760248201527f4f6e6c79206f776e65722063616e2077697468647261770000000000000000006044820152606401610958565b6040514790339082156108fc029083906000818181858888f1935050505015801561139e573d6000803e3d6000fd5b5050565b610a8e83838360405180602001604052806000815250611a42565b60006113cb82840184612945565b6000818152600e60205260409020600181015491925090600160a01b90046001600160401b03164210610ce057610ce08261244d565b6000828152600d60205260409020600101546001600160a01b0316331461143a5760405162461bcd60e51b815260040161095890612fca565b6000918252600d602052604090912060030155565b6000818152600260205260408120546001600160a01b03168061084b5760405162461bcd60e51b815260206004820152602960248201527f4552433732313a206f776e657220717565727920666f72206e6f6e657869737460448201526832b73a103a37b5b2b760b91b6064820152608401610958565b606060006114d360075490565b9050600080826001600160401b038111156114f0576114f0612b1c565b604051908082528060200260200182016040528015611519578160200160208202803683370190505b50905060005b838110156115c257336115366106da836001612eec565b6001600160a01b03161480156115755750600d6000611556836001612eec565b81526020810191909152604001600020600401546301000000900460ff165b156115b057611585816001612eec565b82848151811061159757611597612f1f565b60209081029190910101526115ad600184612eec565b92505b806115ba81612f04565b91505061151f565b506000826001600160401b038111156115dd576115dd612b1c565b60405190808252806020026020018201604052801561165c57816020015b604080516101408101825260008082526020808301829052928201819052606082018190526080820181905260a0820181905260c0820181905260e08201819052610100820181905261012082015282526000199092019101816115fb5790505b50905060005b83811015610f1957600083828151811061167e5761167e612f1f565b6020908102919091018101516000818152600d83526040808220600e8552918190208151610140810183528481526001808501546001600160a01b039081169783019790975260028501549382019390935260038401546060820152600484015460ff808216151560808401526101008083048216151560a08501526201000083048216151560c0850152630100000090920416151560e08301529282015495861692810192909252600160a01b9094046001600160401b0316610120820152865192945090929186908690811061175857611758612f1f565b6020026020010181905250505050808061177190612f04565b915050611662565b600a602052600090815260409020805461179290612e9b565b80601f01602080910402602001604051908101604052809291908181526020018280546117be90612e9b565b801561180b5780601f106117e05761010080835404028352916020019161180b565b820191906000526020600020905b8154815290600101906020018083116117ee57829003601f168201915b505050505081565b6000606060005b600f548110156118b9576000600f828154811061183957611839612f1f565b6000918252602080832090910154808352600e90915260409091206001810154919250906001600160401b03600160a01b9091041642106118a45760018260405160200161188991815260200190565b604051602081830303815290604052945094505050506118ce565b505080806118b190612f04565b91505061181a565b50506040805160208101909152600080825291505b9250929050565b60006001600160a01b0382166119405760405162461bcd60e51b815260206004820152602a60248201527f4552433732313a2062616c616e636520717565727920666f7220746865207a65604482015269726f206164647265737360b01b6064820152608401610958565b506001600160a01b031660009081526003602052604090205490565b6000828152600d60205260409020600101546001600160a01b031633146119955760405162461bcd60e51b815260040161095890612fca565b6000918252600d602052604090912060020155565b600061084b82611b58565b60606001805461086090612e9b565b61139e338383612531565b600c546001600160a01b03163314611a3d5760405162461bcd60e51b815260206004820152602b60248201527f4f6e6c7920636f6e7472616374206f776e65722063616e20706572666f726d2060448201526a3a3434b99030b1ba34b7b760a91b6064820152608401610958565b600b55565b611a4c3383611da8565b611a685760405162461bcd60e51b815260040161095890612f79565b610ce084848484612601565b6000818152600d6020526040902060028101546001909101546001600160a01b0316348214611b0b5760405162461bcd60e51b815260206004820152603d60248201527f506c6561736520706179207468652061736b696e6720707269636520696e206f60448201527f7264657220746f20636f6d706c657465207468652070757263686173650000006064820152608401610958565b6000838152600d602052604090206001810180546001600160a01b03191633179055600401805462ffffff191662010000179055611b4d600880546001019055565b610cab813385611e9f565b60008181526006602052604081205442600160a01b9091046001600160401b031610611b9a57506000908152600660205260409020546001600160a01b031690565b506000919050565b919050565b6060600a6000838152602001908152602001600020604051602001611bcc9190613014565b6040516020818303038152906040529050919050565b611bec3384611da8565b611c085760405162461bcd60e51b815260040161095890612f79565b610a8e838383611cd1565b60006001600160e01b031982166380ac58cd60e01b1480611c4457506001600160e01b03198216635b5e139f60e01b145b8061084b57506301ffc9a760e01b6001600160e01b031983161461084b565b600081815260046020526040902080546001600160a01b0319166001600160a01b0384169081179091558190611c988261144f565b6001600160a01b03167f8c5be1e5ebec7d5bd14f71427d1e84f3dd0314c0f7b2291e5b200ac8c7c3b92560405160405180910390a45050565b60008381526006602090815260409182902080546001600160a01b0386166001600160e01b03199091168117600160a01b6001600160401b03871690810291909117835593519384529092909186917f4e06b4e7000e659094299b3533b47b6aa8ad048e95e872d23d1f4ee55af89cfe910160405180910390a350505050565b805480611da05760405162461bcd60e51b815260206004820152601b60248201527f436f756e7465723a2064656372656d656e74206f766572666c6f7700000000006044820152606401610958565b600019019055565b6000818152600260205260408120546001600160a01b0316611e215760405162461bcd60e51b815260206004820152602c60248201527f4552433732313a206f70657261746f7220717565727920666f72206e6f6e657860448201526b34b9ba32b73a103a37b5b2b760a11b6064820152608401610958565b6000611e2c8361144f565b9050806001600160a01b0316846001600160a01b03161480611e675750836001600160a01b0316611e5c846108e3565b6001600160a01b0316145b80611e9757506001600160a01b0380821660009081526005602090815260408083209388168352929052205460ff165b949350505050565b826001600160a01b0316611eb28261144f565b6001600160a01b031614611f165760405162461bcd60e51b815260206004820152602560248201527f4552433732313a207472616e736665722066726f6d20696e636f72726563742060448201526437bbb732b960d91b6064820152608401610958565b6001600160a01b038216611f785760405162461bcd60e51b8152602060048201526024808201527f4552433732313a207472616e7366657220746f20746865207a65726f206164646044820152637265737360e01b6064820152608401610958565b611f83838383612634565b611f8e600082611c63565b6001600160a01b0383166000908152600360205260408120805460019290611fb79084906130b0565b90915550506001600160a01b0382166000908152600360205260408120805460019290611fe5908490612eec565b909155505060008181526002602052604080822080546001600160a01b0319166001600160a01b0386811691821790925591518493918716917fddf252ad1be2c89b69c2b068fc378daa952ba7f163c4a11628f55a4df523b3ef91a4505050565b6001600160a01b03821661209c5760405162461bcd60e51b815260206004820181905260248201527f4552433732313a206d696e7420746f20746865207a65726f20616464726573736044820152606401610958565b6000818152600260205260409020546001600160a01b0316156121015760405162461bcd60e51b815260206004820152601c60248201527f4552433732313a20746f6b656e20616c7265616479206d696e746564000000006044820152606401610958565b61210d60008383612634565b6001600160a01b0382166000908152600360205260408120805460019290612136908490612eec565b909155505060008181526002602052604080822080546001600160a01b0319166001600160a01b03861690811790915590518392907fddf252ad1be2c89b69c2b068fc378daa952ba7f163c4a11628f55a4df523b3ef908290a45050565b3361219e8661144f565b6001600160a01b0316146121fe5760405162461bcd60e51b815260206004820152602160248201527f4f6e6c7920746865206f776e65722063616e206c6973742074686520746f6b656044820152603760f91b6064820152608401610958565b81158061220b5750600084115b6122485760405162461bcd60e51b815260206004820152600e60248201526d1c1c9a58d9481c995c5d5a5c995960921b6044820152606401610958565b8015806122555750600083115b6122975760405162461bcd60e51b81526020600482015260136024820152721c995b9d081c1c9a58d9481c995c5d5a5c9959606a1b6044820152606401610958565b604051806101000160405280868152602001336001600160a01b031681526020018581526020018481526020018215158152602001831515815260200160001515815260200160001515815250600d60008781526020019081526020016000206000820151816000015560208201518160010160006101000a8154816001600160a01b0302191690836001600160a01b03160217905550604082015181600201556060820151816003015560808201518160040160006101000a81548160ff02191690831515021790555060a08201518160040160016101000a81548160ff02191690831515021790555060c08201518160040160026101000a81548160ff02191690831515021790555060e08201518160040160036101000a81548160ff021916908315150217905550905050847f1aa79f1e7c6dadbba480b63c84b803a7257b314f82fb36e522db386569682455338686858760008060405161243e97969594939291906001600160a01b0397909716875260208701959095526040860193909352901515606085015215156080840152151560a0830152151560c082015260e00190565b60405180910390a25050505050565b6000818152600d6020526040812060048101805463ff000000191690559061247790839080611cd1565b60005b600f54811015610a8e5782600f828154811061249857612498612f1f565b9060005260206000200154141561251f57600f80546124b9906001906130b0565b815481106124c9576124c9612f1f565b9060005260206000200154600f82815481106124e7576124e7612f1f565b600091825260209091200155600f805480612504576125046130c7565b60019003818190600052602060002001600090559055505050565b8061252981612f04565b91505061247a565b816001600160a01b0316836001600160a01b031614156125935760405162461bcd60e51b815260206004820152601960248201527f4552433732313a20617070726f766520746f2063616c6c6572000000000000006044820152606401610958565b6001600160a01b03838116600081815260056020908152604080832094871680845294825291829020805460ff191686151590811790915591519182527f17307eab39ab6107e8899845ad3d59bd9653f200f220920489ca2b5937696c3191015b60405180910390a3505050565b61260c848484611e9f565b612618848484846126be565b610ce05760405162461bcd60e51b8152600401610958906130dd565b816001600160a01b0316836001600160a01b03161415801561266c57506000818152600660205260409020546001600160a01b031615155b15610a8e57600081815260066020908152604080832080546001600160e01b03191690555182815283917f4e06b4e7000e659094299b3533b47b6aa8ad048e95e872d23d1f4ee55af89cfe91016125f4565b60006001600160a01b0384163b156127c057604051630a85bd0160e11b81526001600160a01b0385169063150b7a029061270290339089908890889060040161312f565b602060405180830381600087803b15801561271c57600080fd5b505af192505050801561274c575060408051601f3d908101601f191682019092526127499181019061316c565b60015b6127a6573d80801561277a576040519150601f19603f3d011682016040523d82523d6000602084013e61277f565b606091505b50805161279e5760405162461bcd60e51b8152600401610958906130dd565b805181602001fd5b6001600160e01b031916630a85bd0160e11b149050611e97565b506001949350505050565b6040805161010081018252600080825260208201819052918101829052606081018290526080810182905260a0810182905260c0810182905260e081019190915290565b82805461281b90612e9b565b90600052602060002090601f01602090048101928261283d5760008555612883565b82601f1061285657805160ff1916838001178555612883565b82800160010185558215612883579182015b82811115612883578251825591602001919060010190612868565b5061288f929150612893565b5090565b5b8082111561288f5760008155600101612894565b6001600160e01b0319811681146128be57600080fd5b50565b6000602082840312156128d357600080fd5b81356128de816128a8565b9392505050565b6000815180845260005b8181101561290b576020818501810151868301820152016128ef565b8181111561291d576000602083870101525b50601f01601f19169290920160200192915050565b6020815260006128de60208301846128e5565b60006020828403121561295757600080fd5b5035919050565b80356001600160a01b0381168114611ba257600080fd5b6000806040838503121561298857600080fd5b6129918361295e565b946020939093013593505050565b80356001600160401b0381168114611ba257600080fd5b600080604083850312156129c957600080fd5b823591506129d96020840161299f565b90509250929050565b602080825282518282018190526000919060409081850190868401855b82811015612a7357815180518552868101516001600160a01b03168786015285810151868601526060808201519086015260808082015115159086015260a08082015115159086015260c08082015115159086015260e09081015115159085015261010090930192908501906001016129ff565b5091979650505050505050565b80358015158114611ba257600080fd5b600080600080600060a08688031215612aa857600080fd5b853594506020860135935060408601359250612ac660608701612a80565b9150612ad460808701612a80565b90509295509295909350565b600080600060608486031215612af557600080fd5b612afe8461295e565b9250612b0c6020850161295e565b9150604084013590509250925092565b634e487b7160e01b600052604160045260246000fd5b60006001600160401b0380841115612b4c57612b4c612b1c565b604051601f8501601f19908116603f01168101908282118183101715612b7457612b74612b1c565b81604052809350858152868686011115612b8d57600080fd5b858560208301376000602087830101525050509392505050565b600080600080600060a08688031215612bbf57600080fd5b85356001600160401b03811115612bd557600080fd5b8601601f81018813612be657600080fd5b612bf588823560208401612b32565b9550506020860135935060408601359250612ac660608701612a80565b60008060208385031215612c2557600080fd5b82356001600160401b0380821115612c3c57600080fd5b818501915085601f830112612c5057600080fd5b813581811115612c5f57600080fd5b866020828501011115612c7157600080fd5b60209290920196919550909350505050565b60008060408385031215612c9657600080fd5b50508035926020909101359150565b602080825282518282018190526000919060409081850190868401855b82811015612a7357815180518552868101516001600160a01b039081168887015286820151878701526060808301519087015260808083015115159087015260a08083015115159087015260c08083015115159087015260e0808301511515908701526101008083015190911690860152610120908101516001600160401b0316908501526101409093019290850190600101612cc2565b8215158152604060208201526000611e9760408301846128e5565b600060208284031215612d8757600080fd5b6128de8261295e565b60008060408385031215612da357600080fd5b612dac8361295e565b91506129d960208401612a80565b60008060008060808587031215612dd057600080fd5b612dd98561295e565b9350612de76020860161295e565b92506040850135915060608501356001600160401b03811115612e0957600080fd5b8501601f81018713612e1a57600080fd5b612e2987823560208401612b32565b91505092959194509250565b600080600060608486031215612e4a57600080fd5b83359250612e5a6020850161295e565b9150612e686040850161299f565b90509250925092565b60008060408385031215612e8457600080fd5b612e8d8361295e565b91506129d96020840161295e565b600181811c90821680612eaf57607f821691505b60208210811415612ed057634e487b7160e01b600052602260045260246000fd5b50919050565b634e487b7160e01b600052601160045260246000fd5b60008219821115612eff57612eff612ed6565b500190565b6000600019821415612f1857612f18612ed6565b5060010190565b634e487b7160e01b600052603260045260246000fd5b60208082526024908201527f5072696365206d75737420626520657175616c20746f206c697374696e6720706040820152637269636560e01b606082015260800190565b60208082526031908201527f4552433732313a207472616e736665722063616c6c6572206973206e6f74206f6040820152701ddb995c881b9bdc88185c1c1c9bdd9959607a1b606082015260800190565b6020808252602a908201527f4f6e6c79206974656d206f776e65722063616e20706572666f726d20746869736040820152691037b832b930ba34b7b760b11b606082015260800190565b600080835481600182811c91508083168061303057607f831692505b602080841082141561305057634e487b7160e01b86526022600452602486fd5b8180156130645760018114613075576130a2565b60ff198616895284890196506130a2565b60008a81526020902060005b8681101561309a5781548b820152908501908301613081565b505084890196505b509498975050505050505050565b6000828210156130c2576130c2612ed6565b500390565b634e487b7160e01b600052603160045260246000fd5b60208082526032908201527f4552433732313a207472616e7366657220746f206e6f6e20455243373231526560408201527131b2b4bb32b91034b6b83632b6b2b73a32b960711b606082015260800190565b6001600160a01b0385811682528416602082015260408101839052608060608201819052600090613162908301846128e5565b9695505050505050565b60006020828403121561317e57600080fd5b81516128de816128a856fea26469706673582212202907e7ac8498ab3ea9f649675f48fcc670d050fa3dba7517f7db45bef69e646964736f6c63430008090033",
  "linkReferences": {},
  "deployedLinkReferences": {}
}