{
  "_format": "hh-sol-artifact-1",
  "contractName": "RentableNFTMarketplace",
  "sourceName": "contracts/RentableNFTMarketplace.sol",
  "abi": [
    {
      "inputs": [],
      "stateMutability": "nonpayable",
      "type": "constructor"
    },
    {
      "anonymous": false,
      "inputs": [
        {
          "indexed": true,
          "internalType": "address",
          "name": "owner",
          "type": "address"
        },
        {
          "indexed": true,
          "internalType": "address",
          "name": "approved",
          "type": "address"
        },
        {
          "indexed": true,
          "internalType": "uint256",
          "name": "tokenId",
          "type": "uint256"
        }
      ],
      "name": "Approval",
      "type": "event"
    },
    {
      "anonymous": false,
      "inputs": [
        {
          "indexed": true,
          "internalType": "address",
          "name": "owner",
          "type": "address"
        },
        {
          "indexed": true,
          "internalType": "address",
          "name": "operator",
          "type": "address"
        },
        {
          "indexed": false,
          "internalType": "bool",
          "name": "approved",
          "type": "bool"
        }
      ],
      "name": "ApprovalForAll",
      "type": "event"
    },
    {
      "anonymous": false,
      "inputs": [
        {
          "indexed": true,
          "internalType": "uint256",
          "name": "tokenId",
          "type": "uint256"
        },
        {
          "indexed": false,
          "internalType": "address",
          "name": "seller",
          "type": "address"
        },
        {
          "indexed": false,
          "internalType": "address",
          "name": "owner",
          "type": "address"
        },
        {
          "indexed": false,
          "internalType": "uint256",
          "name": "price",
          "type": "uint256"
        },
        {
          "indexed": false,
          "internalType": "uint256",
          "name": "rentPrice",
          "type": "uint256"
        },
        {
          "indexed": false,
          "internalType": "bool",
          "name": "forRent",
          "type": "bool"
        },
        {
          "indexed": false,
          "internalType": "bool",
          "name": "forSale",
          "type": "bool"
        },
        {
          "indexed": false,
          "internalType": "bool",
          "name": "sold",
          "type": "bool"
        }
      ],
      "name": "MarketItemCreated",
      "type": "event"
    },
    {
      "anonymous": false,
      "inputs": [
        {
          "indexed": true,
          "internalType": "address",
          "name": "from",
          "type": "address"
        },
        {
          "indexed": true,
          "internalType": "address",
          "name": "to",
          "type": "address"
        },
        {
          "indexed": true,
          "internalType": "uint256",
          "name": "tokenId",
          "type": "uint256"
        }
      ],
      "name": "Transfer",
      "type": "event"
    },
    {
      "anonymous": false,
      "inputs": [
        {
          "indexed": true,
          "internalType": "uint256",
          "name": "tokenId",
          "type": "uint256"
        },
        {
          "indexed": true,
          "internalType": "address",
          "name": "user",
          "type": "address"
        },
        {
          "indexed": false,
          "internalType": "uint64",
          "name": "expires",
          "type": "uint64"
        }
      ],
      "name": "UpdateUser",
      "type": "event"
    },
    {
      "inputs": [],
      "name": "_itemsSold",
      "outputs": [
        {
          "internalType": "uint256",
          "name": "_value",
          "type": "uint256"
        }
      ],
      "stateMutability": "view",
      "type": "function"
    },
    {
      "inputs": [],
      "name": "_tokenIds",
      "outputs": [
        {
          "internalType": "uint256",
          "name": "_value",
          "type": "uint256"
        }
      ],
      "stateMutability": "view",
      "type": "function"
    },
    {
      "inputs": [
        {
          "internalType": "address",
          "name": "to",
          "type": "address"
        },
        {
          "internalType": "uint256",
          "name": "tokenId",
          "type": "uint256"
        }
      ],
      "name": "approve",
      "outputs": [],
      "stateMutability": "nonpayable",
      "type": "function"
    },
    {
      "inputs": [
        {
          "internalType": "address",
          "name": "owner",
          "type": "address"
        }
      ],
      "name": "balanceOf",
      "outputs": [
        {
          "internalType": "uint256",
          "name": "",
          "type": "uint256"
        }
      ],
      "stateMutability": "view",
      "type": "function"
    },
    {
      "inputs": [
        {
          "internalType": "uint256",
          "name": "tokenId",
          "type": "uint256"
        }
      ],
      "name": "createMarketSale",
      "outputs": [],
      "stateMutability": "payable",
      "type": "function"
    },
    {
      "inputs": [
        {
          "internalType": "string",
          "name": "_tokenURI",
          "type": "string"
        },
        {
          "internalType": "uint256",
          "name": "price",
          "type": "uint256"
        },
        {
          "internalType": "uint256",
          "name": "rent_price",
          "type": "uint256"
        },
        {
          "internalType": "bool",
          "name": "forSale",
          "type": "bool"
        },
        {
          "internalType": "bool",
          "name": "forRent",
          "type": "bool"
        },
        {
          "internalType": "bool",
          "name": "member",
          "type": "bool"
        }
      ],
      "name": "createToken",
      "outputs": [],
      "stateMutability": "payable",
      "type": "function"
    },
    {
      "inputs": [],
      "name": "fetchMarketItems",
      "outputs": [
        {
          "components": [
            {
              "internalType": "uint256",
              "name": "tokenId",
              "type": "uint256"
            },
            {
              "internalType": "address payable",
              "name": "seller",
              "type": "address"
            },
            {
              "internalType": "address payable",
              "name": "owner",
              "type": "address"
            },
            {
              "internalType": "uint256",
              "name": "price",
              "type": "uint256"
            },
            {
              "internalType": "uint256",
              "name": "rentPrice",
              "type": "uint256"
            },
            {
              "internalType": "bool",
              "name": "forRent",
              "type": "bool"
            },
            {
              "internalType": "bool",
              "name": "forSale",
              "type": "bool"
            },
            {
              "internalType": "bool",
              "name": "sold",
              "type": "bool"
            }
          ],
          "internalType": "struct RentableNFTMarketplace.MarketItem[]",
          "name": "",
          "type": "tuple[]"
        }
      ],
      "stateMutability": "view",
      "type": "function"
    },
    {
      "inputs": [],
      "name": "fetchMyNFTs",
      "outputs": [
        {
          "components": [
            {
              "internalType": "uint256",
              "name": "tokenId",
              "type": "uint256"
            },
            {
              "internalType": "address payable",
              "name": "seller",
              "type": "address"
            },
            {
              "internalType": "address payable",
              "name": "owner",
              "type": "address"
            },
            {
              "internalType": "uint256",
              "name": "price",
              "type": "uint256"
            },
            {
              "internalType": "uint256",
              "name": "rentPrice",
              "type": "uint256"
            },
            {
              "internalType": "bool",
              "name": "forRent",
              "type": "bool"
            },
            {
              "internalType": "bool",
              "name": "forSale",
              "type": "bool"
            },
            {
              "internalType": "bool",
              "name": "sold",
              "type": "bool"
            }
          ],
          "internalType": "struct RentableNFTMarketplace.MarketItem[]",
          "name": "",
          "type": "tuple[]"
        }
      ],
      "stateMutability": "view",
      "type": "function"
    },
    {
      "inputs": [],
      "name": "fetchMyRentedNFTs",
      "outputs": [
        {
          "components": [
            {
              "internalType": "uint256",
              "name": "tokenId",
              "type": "uint256"
            },
            {
              "internalType": "address payable",
              "name": "seller",
              "type": "address"
            },
            {
              "internalType": "address payable",
              "name": "owner",
              "type": "address"
            },
            {
              "internalType": "uint256",
              "name": "price",
              "type": "uint256"
            },
            {
              "internalType": "uint256",
              "name": "rentPrice",
              "type": "uint256"
            },
            {
              "internalType": "bool",
              "name": "forRent",
              "type": "bool"
            },
            {
              "internalType": "bool",
              "name": "forSale",
              "type": "bool"
            },
            {
              "internalType": "bool",
              "name": "sold",
              "type": "bool"
            }
          ],
          "internalType": "struct RentableNFTMarketplace.MarketItem[]",
          "name": "",
          "type": "tuple[]"
        }
      ],
      "stateMutability": "view",
      "type": "function"
    },
    {
      "inputs": [
        {
          "internalType": "uint256",
          "name": "tokenId",
          "type": "uint256"
        }
      ],
      "name": "getApproved",
      "outputs": [
        {
          "internalType": "address",
          "name": "",
          "type": "address"
        }
      ],
      "stateMutability": "view",
      "type": "function"
    },
    {
      "inputs": [
        {
          "internalType": "bytes32",
          "name": "_queryId",
          "type": "bytes32"
        },
        {
          "internalType": "uint256",
          "name": "_timestamp",
          "type": "uint256"
        }
      ],
      "name": "getDataAfter",
      "outputs": [
        {
          "internalType": "bytes",
          "name": "_value",
          "type": "bytes"
        },
        {
          "internalType": "uint256",
          "name": "_timestampRetrieved",
          "type": "uint256"
        }
      ],
      "stateMutability": "view",
      "type": "function"
    },
    {
      "inputs": [
        {
          "internalType": "bytes32",
          "name": "_queryId",
          "type": "bytes32"
        },
        {
          "internalType": "uint256",
          "name": "_timestamp",
          "type": "uint256"
        }
      ],
      "name": "getDataBefore",
      "outputs": [
        {
          "internalType": "bytes",
          "name": "_value",
          "type": "bytes"
        },
        {
          "internalType": "uint256",
          "name": "_timestampRetrieved",
          "type": "uint256"
        }
      ],
      "stateMutability": "view",
      "type": "function"
    },
    {
      "inputs": [
        {
          "internalType": "bytes32",
          "name": "_queryId",
          "type": "bytes32"
        },
        {
          "internalType": "uint256",
          "name": "_timestamp",
          "type": "uint256"
        }
      ],
      "name": "getIndexForDataAfter",
      "outputs": [
        {
          "internalType": "bool",
          "name": "_found",
          "type": "bool"
        },
        {
          "internalType": "uint256",
          "name": "_index",
          "type": "uint256"
        }
      ],
      "stateMutability": "view",
      "type": "function"
    },
    {
      "inputs": [
        {
          "internalType": "bytes32",
          "name": "_queryId",
          "type": "bytes32"
        },
        {
          "internalType": "uint256",
          "name": "_timestamp",
          "type": "uint256"
        }
      ],
      "name": "getIndexForDataBefore",
      "outputs": [
        {
          "internalType": "bool",
          "name": "_found",
          "type": "bool"
        },
        {
          "internalType": "uint256",
          "name": "_index",
          "type": "uint256"
        }
      ],
      "stateMutability": "view",
      "type": "function"
    },
    {
      "inputs": [],
      "name": "getListingPrice",
      "outputs": [
        {
          "internalType": "uint256",
          "name": "",
          "type": "uint256"
        }
      ],
      "stateMutability": "view",
      "type": "function"
    },
    {
      "inputs": [
        {
          "internalType": "bytes32",
          "name": "_queryId",
          "type": "bytes32"
        },
        {
          "internalType": "uint256",
          "name": "_timestamp",
          "type": "uint256"
        },
        {
          "internalType": "uint256",
          "name": "_maxAge",
          "type": "uint256"
        },
        {
          "internalType": "uint256",
          "name": "_maxCount",
          "type": "uint256"
        }
      ],
      "name": "getMultipleValuesBefore",
      "outputs": [
        {
          "internalType": "bytes[]",
          "name": "_values",
          "type": "bytes[]"
        },
        {
          "internalType": "uint256[]",
          "name": "_timestamps",
          "type": "uint256[]"
        }
      ],
      "stateMutability": "view",
      "type": "function"
    },
    {
      "inputs": [
        {
          "internalType": "bytes32",
          "name": "_queryId",
          "type": "bytes32"
        }
      ],
      "name": "getNewValueCountbyQueryId",
      "outputs": [
        {
          "internalType": "uint256",
          "name": "",
          "type": "uint256"
        }
      ],
      "stateMutability": "view",
      "type": "function"
    },
    {
      "inputs": [
        {
          "internalType": "bytes32",
          "name": "_queryId",
          "type": "bytes32"
        },
        {
          "internalType": "uint256",
          "name": "_timestamp",
          "type": "uint256"
        }
      ],
      "name": "getReporterByTimestamp",
      "outputs": [
        {
          "internalType": "address",
          "name": "",
          "type": "address"
        }
      ],
      "stateMutability": "view",
      "type": "function"
    },
    {
      "inputs": [
        {
          "internalType": "bytes32",
          "name": "_queryId",
          "type": "bytes32"
        },
        {
          "internalType": "uint256",
          "name": "_index",
          "type": "uint256"
        }
      ],
      "name": "getTimestampbyQueryIdandIndex",
      "outputs": [
        {
          "internalType": "uint256",
          "name": "",
          "type": "uint256"
        }
      ],
      "stateMutability": "view",
      "type": "function"
    },
    {
      "inputs": [],
      "name": "idMappingContract",
      "outputs": [
        {
          "internalType": "contract IMappingContract",
          "name": "",
          "type": "address"
        }
      ],
      "stateMutability": "view",
      "type": "function"
    },
    {
      "inputs": [
        {
          "internalType": "uint256",
          "name": "",
          "type": "uint256"
        }
      ],
      "name": "idToMarketItem",
      "outputs": [
        {
          "internalType": "uint256",
          "name": "tokenId",
          "type": "uint256"
        },
        {
          "internalType": "address payable",
          "name": "seller",
          "type": "address"
        },
        {
          "internalType": "address payable",
          "name": "owner",
          "type": "address"
        },
        {
          "internalType": "uint256",
          "name": "price",
          "type": "uint256"
        },
        {
          "internalType": "uint256",
          "name": "rentPrice",
          "type": "uint256"
        },
        {
          "internalType": "bool",
          "name": "forRent",
          "type": "bool"
        },
        {
          "internalType": "bool",
          "name": "forSale",
          "type": "bool"
        },
        {
          "internalType": "bool",
          "name": "sold",
          "type": "bool"
        }
      ],
      "stateMutability": "view",
      "type": "function"
    },
    {
      "inputs": [
        {
          "internalType": "address",
          "name": "owner",
          "type": "address"
        },
        {
          "internalType": "address",
          "name": "operator",
          "type": "address"
        }
      ],
      "name": "isApprovedForAll",
      "outputs": [
        {
          "internalType": "bool",
          "name": "",
          "type": "bool"
        }
      ],
      "stateMutability": "view",
      "type": "function"
    },
    {
      "inputs": [
        {
          "internalType": "bytes32",
          "name": "_queryId",
          "type": "bytes32"
        },
        {
          "internalType": "uint256",
          "name": "_timestamp",
          "type": "uint256"
        }
      ],
      "name": "isInDispute",
      "outputs": [
        {
          "internalType": "bool",
          "name": "",
          "type": "bool"
        }
      ],
      "stateMutability": "view",
      "type": "function"
    },
    {
      "inputs": [],
      "name": "name",
      "outputs": [
        {
          "internalType": "string",
          "name": "",
          "type": "string"
        }
      ],
      "stateMutability": "view",
      "type": "function"
    },
    {
      "inputs": [],
      "name": "owner",
      "outputs": [
        {
          "internalType": "address payable",
          "name": "",
          "type": "address"
        }
      ],
      "stateMutability": "view",
      "type": "function"
    },
    {
      "inputs": [
        {
          "internalType": "uint256",
          "name": "tokenId",
          "type": "uint256"
        }
      ],
      "name": "ownerOf",
      "outputs": [
        {
          "internalType": "address",
          "name": "",
          "type": "address"
        }
      ],
      "stateMutability": "view",
      "type": "function"
    },
    {
      "inputs": [
        {
          "internalType": "uint256",
          "name": "_tokenId",
          "type": "uint256"
        },
        {
          "internalType": "uint64",
          "name": "_expires",
          "type": "uint64"
        }
      ],
      "name": "rentOutToken",
      "outputs": [],
      "stateMutability": "payable",
      "type": "function"
    },
    {
      "inputs": [
        {
          "internalType": "uint256",
          "name": "tokenId",
          "type": "uint256"
        },
        {
          "internalType": "uint256",
          "name": "price",
          "type": "uint256"
        },
        {
          "internalType": "uint256",
          "name": "rent_price",
          "type": "uint256"
        },
        {
          "internalType": "bool",
          "name": "forRent",
          "type": "bool"
        },
        {
          "internalType": "bool",
          "name": "forSale",
          "type": "bool"
        },
        {
          "internalType": "bool",
          "name": "member",
          "type": "bool"
        }
      ],
      "name": "resellToken",
      "outputs": [],
      "stateMutability": "payable",
      "type": "function"
    },
    {
      "inputs": [
        {
          "internalType": "bytes32",
          "name": "_queryId",
          "type": "bytes32"
        },
        {
          "internalType": "uint256",
          "name": "_timestamp",
          "type": "uint256"
        }
      ],
      "name": "retrieveData",
      "outputs": [
        {
          "internalType": "bytes",
          "name": "",
          "type": "bytes"
        }
      ],
      "stateMutability": "view",
      "type": "function"
    },
    {
      "inputs": [
        {
          "internalType": "address",
          "name": "from",
          "type": "address"
        },
        {
          "internalType": "address",
          "name": "to",
          "type": "address"
        },
        {
          "internalType": "uint256",
          "name": "tokenId",
          "type": "uint256"
        }
      ],
      "name": "safeTransferFrom",
      "outputs": [],
      "stateMutability": "nonpayable",
      "type": "function"
    },
    {
      "inputs": [
        {
          "internalType": "address",
          "name": "from",
          "type": "address"
        },
        {
          "internalType": "address",
          "name": "to",
          "type": "address"
        },
        {
          "internalType": "uint256",
          "name": "tokenId",
          "type": "uint256"
        },
        {
          "internalType": "bytes",
          "name": "_data",
          "type": "bytes"
        }
      ],
      "name": "safeTransferFrom",
      "outputs": [],
      "stateMutability": "nonpayable",
      "type": "function"
    },
    {
      "inputs": [
        {
          "internalType": "address",
          "name": "operator",
          "type": "address"
        },
        {
          "internalType": "bool",
          "name": "approved",
          "type": "bool"
        }
      ],
      "name": "setApprovalForAll",
      "outputs": [],
      "stateMutability": "nonpayable",
      "type": "function"
    },
    {
      "inputs": [
        {
          "internalType": "address",
          "name": "_addy",
          "type": "address"
        }
      ],
      "name": "setIdMappingContract",
      "outputs": [],
      "stateMutability": "nonpayable",
      "type": "function"
    },
    {
      "inputs": [
        {
          "internalType": "uint256",
          "name": "tokenId",
          "type": "uint256"
        },
        {
          "internalType": "address",
          "name": "user",
          "type": "address"
        },
        {
          "internalType": "uint64",
          "name": "expires",
          "type": "uint64"
        }
      ],
      "name": "setUser",
      "outputs": [],
      "stateMutability": "nonpayable",
      "type": "function"
    },
    {
      "inputs": [
        {
          "internalType": "bytes4",
          "name": "interfaceId",
          "type": "bytes4"
        }
      ],
      "name": "supportsInterface",
      "outputs": [
        {
          "internalType": "bool",
          "name": "",
          "type": "bool"
        }
      ],
      "stateMutability": "view",
      "type": "function"
    },
    {
      "inputs": [],
      "name": "symbol",
      "outputs": [
        {
          "internalType": "string",
          "name": "",
          "type": "string"
        }
      ],
      "stateMutability": "view",
      "type": "function"
    },
    {
      "inputs": [],
      "name": "tellor",
      "outputs": [
        {
          "internalType": "contract ITellor",
          "name": "",
          "type": "address"
        }
      ],
      "stateMutability": "view",
      "type": "function"
    },
    {
      "inputs": [
        {
          "internalType": "uint256",
          "name": "_tokenId",
          "type": "uint256"
        }
      ],
      "name": "tokenURI",
      "outputs": [
        {
          "internalType": "string",
          "name": "",
          "type": "string"
        }
      ],
      "stateMutability": "view",
      "type": "function"
    },
    {
      "inputs": [
        {
          "internalType": "uint256",
          "name": "",
          "type": "uint256"
        }
      ],
      "name": "tokenURIs",
      "outputs": [
        {
          "internalType": "string",
          "name": "",
          "type": "string"
        }
      ],
      "stateMutability": "view",
      "type": "function"
    },
    {
      "inputs": [
        {
          "internalType": "address",
          "name": "from",
          "type": "address"
        },
        {
          "internalType": "address",
          "name": "to",
          "type": "address"
        },
        {
          "internalType": "uint256",
          "name": "tokenId",
          "type": "uint256"
        }
      ],
      "name": "transferFrom",
      "outputs": [],
      "stateMutability": "nonpayable",
      "type": "function"
    },
    {
      "inputs": [
        {
          "internalType": "uint256",
          "name": "_listingPrice",
          "type": "uint256"
        }
      ],
      "name": "updateListingPrice",
      "outputs": [],
      "stateMutability": "payable",
      "type": "function"
    },
    {
      "inputs": [
        {
          "internalType": "uint256",
          "name": "_tokenId",
          "type": "uint256"
        },
        {
          "internalType": "uint256",
          "name": "price",
          "type": "uint256"
        }
      ],
      "name": "updatePrice",
      "outputs": [],
      "stateMutability": "nonpayable",
      "type": "function"
    },
    {
      "inputs": [
        {
          "internalType": "uint256",
          "name": "_tokenId",
          "type": "uint256"
        },
        {
          "internalType": "uint256",
          "name": "rent_price",
          "type": "uint256"
        }
      ],
      "name": "updateRentPrice",
      "outputs": [],
      "stateMutability": "nonpayable",
      "type": "function"
    },
    {
      "inputs": [
        {
          "internalType": "uint256",
          "name": "tokenId",
          "type": "uint256"
        }
      ],
      "name": "userExpires",
      "outputs": [
        {
          "internalType": "uint256",
          "name": "",
          "type": "uint256"
        }
      ],
      "stateMutability": "view",
      "type": "function"
    },
    {
      "inputs": [
        {
          "internalType": "uint256",
          "name": "tokenId",
          "type": "uint256"
        }
      ],
      "name": "userOf",
      "outputs": [
        {
          "internalType": "address",
          "name": "",
          "type": "address"
        }
      ],
      "stateMutability": "view",
      "type": "function"
    },
    {
      "inputs": [
        {
          "internalType": "bytes32",
          "name": "_id",
          "type": "bytes32"
        }
      ],
      "name": "valueFor",
      "outputs": [
        {
          "internalType": "int256",
          "name": "_value",
          "type": "int256"
        },
        {
          "internalType": "uint256",
          "name": "_timestamp",
          "type": "uint256"
        },
        {
          "internalType": "uint256",
          "name": "_statusCode",
          "type": "uint256"
        }
      ],
      "stateMutability": "view",
      "type": "function"
    },
    {
      "inputs": [],
      "name": "withdraw",
      "outputs": [],
      "stateMutability": "nonpayable",
      "type": "function"
    }
  ],
  "bytecode": "0x6080604052670de0b6b3a7640000600c55600e80546001600160a01b03191673840c23e39f9d029ffa888f47069aa6864f0401d71790553480156200004357600080fd5b50600e54604080518082018252600881526752656e7461626c6560c01b602080830191825283518085019094526002845261149560f21b9084015281516001600160a01b039094169391929183918391620000a191600091620000ec565b508051620000b7906001906020840190620000ec565b5050600780546001600160a01b039095166001600160a01b03199586161790555050600d8054909216331790915550620001cf565b828054620000fa9062000192565b90600052602060002090601f0160209004810192826200011e576000855562000169565b82601f106200013957805160ff191683800117855562000169565b8280016001018555821562000169579182015b82811115620001695782518255916020019190600101906200014c565b50620001779291506200017b565b5090565b5b808211156200017757600081556001016200017c565b600181811c90821680620001a757607f821691505b60208210811415620001c957634e487b7160e01b600052602260045260246000fd5b50919050565b613d5c80620001df6000396000f3fe6080604052600436106103085760003560e01c806370a082311161019a578063be9af536116100e1578063e07c54861161008a578063f66f49c311610064578063f66f49c31461094c578063f78eea831461096c578063fcd4a546146109a757600080fd5b8063e07c548614610823578063e61a70c014610843578063e985e9c51461090357600080fd5b8063c87b56dd116100bb578063c87b56dd146107c3578063ce5e11bf146107e3578063e030565e1461080357600080fd5b8063be9af53614610770578063c2f1f14a14610783578063c5958af9146107a357600080fd5b806395d89b4111610143578063aa46a4001161011d578063aa46a40014610726578063ae677aa31461073d578063b88d4fde1461075057600080fd5b806395d89b41146106d1578063a22cb465146106e6578063a792765f1461070657600080fd5b806387506a0d1161017457806387506a0d1461065c5780638da5cb5b146106735780638fc88c481461069357600080fd5b806370a08231146105fc57806377b03e0d1461061c57806382367b2d1461063c57600080fd5b806323b872dd1161025e5780634feb29821161020757806367ea485c116101e157806367ea485c146105b45780636c8b703f146105c95780636d656710146105e957600080fd5b80634feb2982146105465780636352211e1461056657806364ee3c6d1461058657600080fd5b80633ccfd60b116102385780633ccfd60b146104f157806342842e0e1461050657806344e87f911461052657600080fd5b806323b872dd1461047a578063294490851461049a5780632af8aae0146104d157600080fd5b80630f08efe0116102c05780631959ad5b1161029a5780631959ad5b146104325780631f76e24214610452578063202e37401461046557600080fd5b80630f08efe0146103d157806312e85585146103f3578063193b505b1461041257600080fd5b8063081812fc116102f1578063081812fc14610364578063095ea7b31461039c57806309a26ba7146103be57600080fd5b806301ffc9a71461030d57806306fdde0314610342575b600080fd5b34801561031957600080fd5b5061032d6103283660046133fc565b6109d5565b60405190151581526020015b60405180910390f35b34801561034e57600080fd5b50610357610a19565b6040516103399190613471565b34801561037057600080fd5b5061038461037f366004613484565b610aab565b6040516001600160a01b039091168152602001610339565b3480156103a857600080fd5b506103bc6103b73660046134b2565b610b45565b005b6103bc6103cc3660046134f6565b610c77565b3480156103dd57600080fd5b506103e6610dbe565b6040516103399190613522565b3480156103ff57600080fd5b50600c545b604051908152602001610339565b34801561041e57600080fd5b506103bc61042d3660046135c1565b610f95565b34801561043e57600080fd5b50600754610384906001600160a01b031681565b6103bc6104603660046135ec565b610fcd565b34801561047157600080fd5b506103e661112f565b34801561048657600080fd5b506103bc610495366004613653565b6112f0565b3480156104a657600080fd5b506104ba6104b5366004613694565b61136b565b604080519215158352602083019190915201610339565b3480156104dd57600080fd5b50600854610384906001600160a01b031681565b3480156104fd57600080fd5b506103bc611417565b34801561051257600080fd5b506103bc610521366004613653565b6114a4565b34801561053257600080fd5b5061032d610541366004613694565b6114bf565b34801561055257600080fd5b506103bc610561366004613694565b611563565b34801561057257600080fd5b50610384610581366004613484565b6115f4565b34801561059257600080fd5b506105a66105a1366004613694565b61167f565b6040516103399291906136b6565b3480156105c057600080fd5b506103e66116d8565b3480156105d557600080fd5b506103576105e4366004613484565b611915565b6103bc6105f7366004613785565b6119af565b34801561060857600080fd5b506104046106173660046135c1565b611a6f565b34801561062857600080fd5b50610404610637366004613484565b611b09565b34801561064857600080fd5b506103bc610657366004613694565b611b9f565b34801561066857600080fd5b50600a546104049081565b34801561067f57600080fd5b50600d54610384906001600160a01b031681565b34801561069f57600080fd5b506104046106ae366004613484565b600090815260066020526040902054600160a01b900467ffffffffffffffff1690565b3480156106dd57600080fd5b50610357611c30565b3480156106f257600080fd5b506103bc6107013660046137f4565b611c3f565b34801561071257600080fd5b506105a6610721366004613694565b611c4a565b34801561073257600080fd5b506009546104049081565b6103bc61074b366004613484565b611cfc565b34801561075c57600080fd5b506103bc61076b36600461382d565b611d43565b6103bc61077e366004613484565b611dc5565b34801561078f57600080fd5b5061038461079e366004613484565b611eef565b3480156107af57600080fd5b506103576107be366004613694565b611f3f565b3480156107cf57600080fd5b506103576107de366004613484565b611fe0565b3480156107ef57600080fd5b506104046107fe366004613694565b61201b565b34801561080f57600080fd5b506103bc61081e3660046138ad565b6120b8565b34801561082f57600080fd5b5061038461083e366004613694565b612133565b34801561084f57600080fd5b506108b661085e366004613484565b600f6020526000908152604090208054600182015460028301546003840154600485015460059095015493946001600160a01b03938416949290931692909160ff808216916101008104821691620100009091041688565b604080519889526001600160a01b0397881660208a0152959096169487019490945260608601929092526080850152151560a0840152151560c0830152151560e082015261010001610339565b34801561090f57600080fd5b5061032d61091e3660046138eb565b6001600160a01b03918216600090815260056020908152604080832093909416825291909152205460ff1690565b34801561095857600080fd5b506104ba610967366004613694565b6121d0565b34801561097857600080fd5b5061098c610987366004613484565b61238a565b60408051938452602084019290925290820152606001610339565b3480156109b357600080fd5b506109c76109c2366004613919565b612473565b60405161033992919061394b565b60006001600160e01b031982167fad092b5c000000000000000000000000000000000000000000000000000000001480610a135750610a1382612762565b92915050565b606060008054610a28906139d9565b80601f0160208091040260200160405190810160405280929190818152602001828054610a54906139d9565b8015610aa15780601f10610a7657610100808354040283529160200191610aa1565b820191906000526020600020905b815481529060010190602001808311610a8457829003601f168201915b5050505050905090565b6000818152600260205260408120546001600160a01b0316610b295760405162461bcd60e51b815260206004820152602c60248201527f4552433732313a20617070726f76656420717565727920666f72206e6f6e657860448201526b34b9ba32b73a103a37b5b2b760a11b60648201526084015b60405180910390fd5b506000908152600460205260409020546001600160a01b031690565b6000610b50826115f4565b9050806001600160a01b0316836001600160a01b03161415610bda5760405162461bcd60e51b815260206004820152602160248201527f4552433732313a20617070726f76616c20746f2063757272656e74206f776e6560448201527f72000000000000000000000000000000000000000000000000000000000000006064820152608401610b20565b336001600160a01b0382161480610bf65750610bf6813361091e565b610c685760405162461bcd60e51b815260206004820152603860248201527f4552433732313a20617070726f76652063616c6c6572206973206e6f74206f7760448201527f6e6572206e6f7220617070726f76656420666f7220616c6c00000000000000006064820152608401610b20565b610c7283836127fd565b505050565b6000828152600f60205260409020600581015460ff16610cd95760405162461bcd60e51b815260206004820152601f60248201527f546f6b656e206973206e6f7420617661696c61626c6520666f722072656e74006044820152606401610b20565b6000610ce484611eef565b6001600160a01b031614610d3a5760405162461bcd60e51b815260206004820152601760248201527f546f6b656e20697320616c72656164792072656e7465640000000000000000006044820152606401610b20565b8060040154341015610db35760405162461bcd60e51b8152602060048201526024808201527f496e73756666696369656e742066756e647320746f2072656e7420746865207460448201527f6f6b656e000000000000000000000000000000000000000000000000000000006064820152608401610b20565b610c7283338461286b565b60606000610dcb60095490565b90506000610dd8600a5490565b600954610de59190613a24565b90506000808267ffffffffffffffff811115610e0357610e036136d8565b604051908082528060200260200182016040528015610e7257816020015b604080516101008101825260008082526020808301829052928201819052606082018190526080820181905260a0820181905260c0820181905260e08201528252600019909201910181610e215790505b50905060005b84811015610f8c5730600f6000610e90846001613a3b565b81526020810191909152604001600020600201546001600160a01b03161415610f7a576000610ec0826001613a3b565b6000818152600f6020908152604091829020825161010080820185528254825260018301546001600160a01b03908116948301949094526002830154909316938101939093526003810154606084015260048101546080840152600581015460ff808216151560a08601529281048316151560c0850152620100009004909116151560e0830152855192935091859087908110610f5f57610f5f613a53565b6020908102919091010152610f75600186613a3b565b945050505b80610f8481613a69565b915050610e78565b50949350505050565b6008546001600160a01b031615610fab57600080fd5b600880546001600160a01b0319166001600160a01b0392909216919091179055565b6000868152600f60205260409020600201546001600160a01b031633146110495760405162461bcd60e51b815260206004820152602a60248201527f4f6e6c79206974656d206f776e65722063616e20706572666f726d20746869736044820152691037b832b930ba34b7b760b11b6064820152608401610b20565b80806110565750600c5434145b6110ae5760405162461bcd60e51b8152602060048201526024808201527f5072696365206d75737420626520657175616c20746f206c697374696e6720706044820152637269636560e01b6064820152608401610b20565b6000868152600f6020526040902060058101805460038301889055600183018054336001600160a01b031991821617909155600284018054309216919091179055600490920186905562ffffff1990911684151561ff001916176101008415150217905561111c600a6128ec565b611127333088612943565b505050505050565b6060600061113c60095490565b90506000611149600a5490565b90506000808267ffffffffffffffff811115611167576111676136d8565b6040519080825280602002602001820160405280156111d657816020015b604080516101008101825260008082526020808301829052928201819052606082018190526080820181905260a0820181905260c0820181905260e082015282526000199092019101816111855790505b50905060005b84811015610f8c5733600f60006111f4846001613a3b565b81526020810191909152604001600020600201546001600160a01b031614156112de576000611224826001613a3b565b6000818152600f6020908152604091829020825161010080820185528254825260018301546001600160a01b03908116948301949094526002830154909316938101939093526003810154606084015260048101546080840152600581015460ff808216151560a08601529281048316151560c0850152620100009004909116151560e08301528551929350918590879081106112c3576112c3613a53565b60209081029190910101526112d9600186613a3b565b945050505b806112e881613a69565b9150506111dc565b6112fa3382612b03565b6113605760405162461bcd60e51b815260206004820152603160248201527f4552433732313a207472616e736665722063616c6c6572206973206e6f74206f6044820152701ddb995c881b9bdc88185c1c1c9bdd9959607a1b6064820152608401610b20565b610c72838383612943565b6007546040517f29449085000000000000000000000000000000000000000000000000000000008152600481018490526024810183905260009182916001600160a01b0390911690632944908590604401604080518083038186803b1580156113d357600080fd5b505afa1580156113e7573d6000803e3d6000fd5b505050506040513d601f19601f8201168201806040525081019061140b9190613a84565b915091505b9250929050565b600d546001600160a01b031633146114715760405162461bcd60e51b815260206004820152601760248201527f4f6e6c79206f776e65722063616e2077697468647261770000000000000000006044820152606401610b20565b6040514790339082156108fc029083906000818181858888f193505050501580156114a0573d6000803e3d6000fd5b5050565b610c7283838360405180602001604052806000815250611d43565b6007546040517f44e87f9100000000000000000000000000000000000000000000000000000000815260048101849052602481018390526000916001600160a01b0316906344e87f919060440160206040518083038186803b15801561152457600080fd5b505afa158015611538573d6000803e3d6000fd5b505050506040513d601f19601f8201168201806040525081019061155c9190613ab2565b9392505050565b6000828152600f60205260409020600101546001600160a01b031633146115df5760405162461bcd60e51b815260206004820152602a60248201527f4f6e6c79206974656d206f776e65722063616e20706572666f726d20746869736044820152691037b832b930ba34b7b760b11b6064820152608401610b20565b6000918252600f602052604090912060040155565b6000818152600260205260408120546001600160a01b031680610a135760405162461bcd60e51b815260206004820152602960248201527f4552433732313a206f776e657220717565727920666f72206e6f6e657869737460448201527f656e7420746f6b656e00000000000000000000000000000000000000000000006064820152608401610b20565b6060600080600061169086866121d0565b91509150816116b75760006040518060200160405280600081525090935093505050611410565b6116c1868261201b565b92506116cd8684611f3f565b935050509250929050565b606060006116e560095490565b90506000808267ffffffffffffffff811115611703576117036136d8565b60405190808252806020026020018201604052801561172c578160200160208202803683370190505b50905060005b838110156117a0573361174961079e836001613a3b565b6001600160a01b0316141561178e57611763816001613a3b565b82848151811061177557611775613a53565b602090810291909101015261178b600184613a3b565b92505b8061179881613a69565b915050611732565b5060008267ffffffffffffffff8111156117bc576117bc6136d8565b60405190808252806020026020018201604052801561182b57816020015b604080516101008101825260008082526020808301829052928201819052606082018190526080820181905260a0820181905260c0820181905260e082015282526000199092019101816117da5790505b50905060005b83811015610f8c57600083828151811061184d5761184d613a53565b6020908102919091018101516000818152600f8352604090819020815161010080820184528254825260018301546001600160a01b03908116968301969096526002830154909516928101929092526003810154606083015260048101546080830152600581015460ff808216151560a08501529481048516151560c0840152620100009004909316151560e08201528551919350908590859081106118f5576118f5613a53565b60200260200101819052505050808061190d90613a69565b915050611831565b600b602052600090815260409020805461192e906139d9565b80601f016020809104026020016040519081016040528092919081815260200182805461195a906139d9565b80156119a75780601f1061197c576101008083540402835291602001916119a7565b820191906000526020600020905b81548152906001019060200180831161198a57829003601f168201915b505050505081565b80806119bc5750600c5434145b611a145760405162461bcd60e51b8152602060048201526024808201527f5072696365206d75737420626520657175616c20746f206c697374696e6720706044820152637269636560e01b6064820152608401610b20565b611a22600980546001019055565b6000611a2d60095490565b9050611a393382612bfa565b6000818152600b602090815260409091208851611a58928a019061334a565b50611a668187878787612d48565b50505050505050565b60006001600160a01b038216611aed5760405162461bcd60e51b815260206004820152602a60248201527f4552433732313a2062616c616e636520717565727920666f7220746865207a6560448201527f726f2061646472657373000000000000000000000000000000000000000000006064820152608401610b20565b506001600160a01b031660009081526003602052604090205490565b6007546040517f77b03e0d000000000000000000000000000000000000000000000000000000008152600481018390526000916001600160a01b0316906377b03e0d9060240160206040518083038186803b158015611b6757600080fd5b505afa158015611b7b573d6000803e3d6000fd5b505050506040513d601f19601f82011682018060405250810190610a139190613acf565b6000828152600f60205260409020600101546001600160a01b03163314611c1b5760405162461bcd60e51b815260206004820152602a60248201527f4f6e6c79206974656d206f776e65722063616e20706572666f726d20746869736044820152691037b832b930ba34b7b760b11b6064820152608401610b20565b6000918252600f602052604090912060030155565b606060018054610a28906139d9565b6114a0338383612fad565b6007546040517fa792765f00000000000000000000000000000000000000000000000000000000815260048101849052602481018390526060916000916001600160a01b039091169063a792765f9060440160006040518083038186803b158015611cb457600080fd5b505afa158015611cc8573d6000803e3d6000fd5b505050506040513d6000823e601f3d908101601f19168201604052611cf09190810190613b2d565b90969095509350505050565b600d546001600160a01b03163314611d3e5760405162461bcd60e51b815260206004820152600560248201526437bbb732b960d91b6044820152606401610b20565b600c55565b611d4d3383612b03565b611db35760405162461bcd60e51b815260206004820152603160248201527f4552433732313a207472616e736665722063616c6c6572206973206e6f74206f6044820152701ddb995c881b9bdc88185c1c1c9bdd9959607a1b6064820152608401610b20565b611dbf8484848461307d565b50505050565b6000818152600f6020526040902060038101546001909101546001600160a01b031634821115611e5d5760405162461bcd60e51b815260206004820152603d60248201527f506c6561736520706179207468652061736b696e6720707269636520696e206f60448201527f7264657220746f20636f6d706c657465207468652070757263686173650000006064820152608401610b20565b6000838152600f602052604090206002810180546001600160a01b0319908116331790915560058201805462ff0000191662010000179055600190910180549091169055611eaf600a80546001019055565b611eba303385612943565b6040516001600160a01b038216903480156108fc02916000818181858888f19350505050158015611dbf573d6000803e3d6000fd5b60008181526006602052604081205442600160a01b90910467ffffffffffffffff1610611f3257506000908152600660205260409020546001600160a01b031690565b506000919050565b919050565b6007546040517fc5958af900000000000000000000000000000000000000000000000000000000815260048101849052602481018390526060916001600160a01b03169063c5958af99060440160006040518083038186803b158015611fa457600080fd5b505afa158015611fb8573d6000803e3d6000fd5b505050506040513d6000823e601f3d908101601f1916820160405261155c9190810190613b87565b6060600b60008381526020019081526020016000206040516020016120059190613bbc565b6040516020818303038152906040529050919050565b6007546040517fce5e11bf00000000000000000000000000000000000000000000000000000000815260048101849052602481018390526000916001600160a01b03169063ce5e11bf9060440160206040518083038186803b15801561208057600080fd5b505afa158015612094573d6000803e3d6000fd5b505050506040513d601f19601f8201168201806040525081019061155c9190613acf565b6120c23384612b03565b6121285760405162461bcd60e51b815260206004820152603160248201527f4552433732313a207472616e736665722063616c6c6572206973206e6f74206f6044820152701ddb995c881b9bdc88185c1c1c9bdd9959607a1b6064820152608401610b20565b610c7283838361286b565b6007546040517fe07c548600000000000000000000000000000000000000000000000000000000815260048101849052602481018390526000916001600160a01b03169063e07c54869060440160206040518083038186803b15801561219857600080fd5b505afa1580156121ac573d6000803e3d6000fd5b505050506040513d601f19601f8201168201806040525081019061155c9190613c58565b60008060006121de85611b09565b9050806121f2576000809250925050611410565b806121fc81613c75565b91506001905060008083816122118a8361201b565b905088811161222c5760008097509750505050505050611410565b6122368a8461201b565b90508881111561224557600094505b84156122f55760026122578484613a3b565b6122619190613c8c565b935061226d8a8561201b565b9050888111156122ae5760006122888b6107fe600188613a24565b905089811161229a57600095506122a8565b6122a5600186613a24565b92505b50612245565b60006122bf8b6107fe876001613a3b565b9050898111156122e25760009550846122d781613a69565b9550508091506122a8565b6122ed856001613a3b565b935050612245565b6122ff8a826114bf565b6123155760018497509750505050505050611410565b61231f8a826114bf565b801561232a57508584105b1561234d578361233981613a69565b9450506123468a8561201b565b9050612315565b858414801561236157506123618a826114bf565b156123785760008097509750505050505050611410565b60018497509750505050505050611410565b6008546040517f87a475fd000000000000000000000000000000000000000000000000000000008152600481018390526000918291829182916001600160a01b03909116906387a475fd9060240160206040518083038186803b1580156123f057600080fd5b505afa158015612404573d6000803e3d6000fd5b505050506040513d601f19601f820116820180604052508101906124289190613acf565b9050606061243b82610721426001613a3b565b945090508361245757600080610194945094509450505061246c565b600061246282613106565b955060c893505050505b9193909250565b60608060008061248788610967888a613a24565b91509150816124d85760408051600080825260208201909252906124bb565b60608152602001906001900390816124a65790505b506040805160008152602081019091529094509250612759915050565b60006124e4898961136b565b909350905082612537576040805160008082526020820190925290612519565b60608152602001906001900390816125045790505b50604080516000815260208101909152909550935061275992505050565b60008060008867ffffffffffffffff811115612555576125556136d8565b60405190808252806020026020018201604052801561257e578160200160208202803683370190505b5090505b88831080156125a557508482612599866001613a3b565b6125a39190613a24565b115b156126095760006125ba8d6107fe8588613a24565b90506125c68d826114bf565b6125f657808285815181106125dd576125dd613a53565b6020908102919091010152836125f281613a69565b9450505b8261260081613a69565b93505050612582565b60008367ffffffffffffffff811115612624576126246136d8565b60405190808252806020026020018201604052801561265757816020015b60608152602001906001900390816126425790505b50905060008467ffffffffffffffff811115612675576126756136d8565b60405190808252806020026020018201604052801561269e578160200160208202803683370190505b50905060005b8581101561274c5783816126b9600189613a24565b6126c39190613a24565b815181106126d3576126d3613a53565b60200260200101518282815181106126ed576126ed613a53565b60200260200101818152505061271c8f83838151811061270f5761270f613a53565b6020026020010151611f3f565b83828151811061272e5761272e613a53565b6020026020010181905250808061274490613a69565b9150506126a4565b5090985096505050505050505b94509492505050565b60006001600160e01b031982167f80ac58cd0000000000000000000000000000000000000000000000000000000014806127c557506001600160e01b031982167f5b5e139f00000000000000000000000000000000000000000000000000000000145b80610a1357507f01ffc9a7000000000000000000000000000000000000000000000000000000006001600160e01b0319831614610a13565b600081815260046020526040902080546001600160a01b0319166001600160a01b0384169081179091558190612832826115f4565b6001600160a01b03167f8c5be1e5ebec7d5bd14f71427d1e84f3dd0314c0f7b2291e5b200ac8c7c3b92560405160405180910390a45050565b60008381526006602090815260409182902080546001600160a01b0386166001600160e01b03199091168117600160a01b67ffffffffffffffff871690810291909117835593519384529092909186917f4e06b4e7000e659094299b3533b47b6aa8ad048e95e872d23d1f4ee55af89cfe910160405180910390a350505050565b80548061293b5760405162461bcd60e51b815260206004820152601b60248201527f436f756e7465723a2064656372656d656e74206f766572666c6f7700000000006044820152606401610b20565b600019019055565b826001600160a01b0316612956826115f4565b6001600160a01b0316146129ba5760405162461bcd60e51b815260206004820152602560248201527f4552433732313a207472616e736665722066726f6d20696e636f72726563742060448201526437bbb732b960d91b6064820152608401610b20565b6001600160a01b038216612a355760405162461bcd60e51b8152602060048201526024808201527f4552433732313a207472616e7366657220746f20746865207a65726f2061646460448201527f72657373000000000000000000000000000000000000000000000000000000006064820152608401610b20565b612a4083838361315d565b612a4b6000826127fd565b6001600160a01b0383166000908152600360205260408120805460019290612a74908490613a24565b90915550506001600160a01b0382166000908152600360205260408120805460019290612aa2908490613a3b565b909155505060008181526002602052604080822080546001600160a01b0319166001600160a01b0386811691821790925591518493918716917fddf252ad1be2c89b69c2b068fc378daa952ba7f163c4a11628f55a4df523b3ef91a4505050565b6000818152600260205260408120546001600160a01b0316612b7c5760405162461bcd60e51b815260206004820152602c60248201527f4552433732313a206f70657261746f7220717565727920666f72206e6f6e657860448201526b34b9ba32b73a103a37b5b2b760a11b6064820152608401610b20565b6000612b87836115f4565b9050806001600160a01b0316846001600160a01b03161480612bc25750836001600160a01b0316612bb784610aab565b6001600160a01b0316145b80612bf257506001600160a01b0380821660009081526005602090815260408083209388168352929052205460ff165b949350505050565b6001600160a01b038216612c505760405162461bcd60e51b815260206004820181905260248201527f4552433732313a206d696e7420746f20746865207a65726f20616464726573736044820152606401610b20565b6000818152600260205260409020546001600160a01b031615612cb55760405162461bcd60e51b815260206004820152601c60248201527f4552433732313a20746f6b656e20616c7265616479206d696e746564000000006044820152606401610b20565b612cc16000838361315d565b6001600160a01b0382166000908152600360205260408120805460019290612cea908490613a3b565b909155505060008181526002602052604080822080546001600160a01b0319166001600160a01b03861690811790915590518392907fddf252ad1be2c89b69c2b068fc378daa952ba7f163c4a11628f55a4df523b3ef908290a45050565b811580612d555750600084115b612da15760405162461bcd60e51b815260206004820152600e60248201527f70726963652072657175697265640000000000000000000000000000000000006044820152606401610b20565b801580612dae5750600083115b612dfa5760405162461bcd60e51b815260206004820152601360248201527f72656e74207072696365207265717569726564000000000000000000000000006044820152606401610b20565b604051806101000160405280868152602001336001600160a01b03168152602001306001600160a01b031681526020018581526020018481526020018215158152602001831515815260200160001515815250600f60008781526020019081526020016000206000820151816000015560208201518160010160006101000a8154816001600160a01b0302191690836001600160a01b0316021790555060408201518160020160006101000a8154816001600160a01b0302191690836001600160a01b03160217905550606082015181600301556080820151816004015560a08201518160050160006101000a81548160ff02191690831515021790555060c08201518160050160016101000a81548160ff02191690831515021790555060e08201518160050160026101000a81548160ff021916908315150217905550905050612f46333087612943565b6040805133815230602082015290810185905260608101849052811515608082015282151560a0820152600060c082015285907fa5ecbdfe0d34bdfb2fdab3e9fcecab077cb676f86e6452e959a66ec1bcbbdf039060e00160405180910390a25050505050565b816001600160a01b0316836001600160a01b0316141561300f5760405162461bcd60e51b815260206004820152601960248201527f4552433732313a20617070726f766520746f2063616c6c6572000000000000006044820152606401610b20565b6001600160a01b03838116600081815260056020908152604080832094871680845294825291829020805460ff191686151590811790915591519182527f17307eab39ab6107e8899845ad3d59bd9653f200f220920489ca2b5937696c3191015b60405180910390a3505050565b613088848484612943565b613094848484846131e7565b611dbf5760405162461bcd60e51b815260206004820152603260248201527f4552433732313a207472616e7366657220746f206e6f6e20455243373231526560448201527f63656976657220696d706c656d656e74657200000000000000000000000000006064820152608401610b20565b6000805b82518110156131575782818151811061312557613125613a53565b016020015160f81c61313983610100613cae565b6131439190613a3b565b91508061314f81613a69565b91505061310a565b50919050565b816001600160a01b0316836001600160a01b03161415801561319557506000818152600660205260409020546001600160a01b031615155b15610c7257600081815260066020908152604080832080546001600160e01b03191690555182815283917f4e06b4e7000e659094299b3533b47b6aa8ad048e95e872d23d1f4ee55af89cfe9101613070565b60006001600160a01b0384163b1561333f57604051630a85bd0160e11b81526001600160a01b0385169063150b7a029061322b903390899088908890600401613ccd565b602060405180830381600087803b15801561324557600080fd5b505af1925050508015613275575060408051601f3d908101601f1916820190925261327291810190613d09565b60015b613325573d8080156132a3576040519150601f19603f3d011682016040523d82523d6000602084013e6132a8565b606091505b50805161331d5760405162461bcd60e51b815260206004820152603260248201527f4552433732313a207472616e7366657220746f206e6f6e20455243373231526560448201527f63656976657220696d706c656d656e74657200000000000000000000000000006064820152608401610b20565b805181602001fd5b6001600160e01b031916630a85bd0160e11b149050612bf2565b506001949350505050565b828054613356906139d9565b90600052602060002090601f01602090048101928261337857600085556133be565b82601f1061339157805160ff19168380011785556133be565b828001600101855582156133be579182015b828111156133be5782518255916020019190600101906133a3565b506133ca9291506133ce565b5090565b5b808211156133ca57600081556001016133cf565b6001600160e01b0319811681146133f957600080fd5b50565b60006020828403121561340e57600080fd5b813561155c816133e3565b60005b8381101561343457818101518382015260200161341c565b83811115611dbf5750506000910152565b6000815180845261345d816020860160208601613419565b601f01601f19169290920160200192915050565b60208152600061155c6020830184613445565b60006020828403121561349657600080fd5b5035919050565b6001600160a01b03811681146133f957600080fd5b600080604083850312156134c557600080fd5b82356134d08161349d565b946020939093013593505050565b803567ffffffffffffffff81168114611f3a57600080fd5b6000806040838503121561350957600080fd5b82359150613519602084016134de565b90509250929050565b602080825282518282018190526000919060409081850190868401855b828110156135b457815180518552868101516001600160a01b0390811688870152868201511686860152606080820151908601526080808201519086015260a08082015115159086015260c08082015115159086015260e090810151151590850152610100909301929085019060010161353f565b5091979650505050505050565b6000602082840312156135d357600080fd5b813561155c8161349d565b80151581146133f957600080fd5b60008060008060008060c0878903121561360557600080fd5b8635955060208701359450604087013593506060870135613625816135de565b92506080870135613635816135de565b915060a0870135613645816135de565b809150509295509295509295565b60008060006060848603121561366857600080fd5b83356136738161349d565b925060208401356136838161349d565b929592945050506040919091013590565b600080604083850312156136a757600080fd5b50508035926020909101359150565b6040815260006136c96040830185613445565b90508260208301529392505050565b634e487b7160e01b600052604160045260246000fd5b604051601f8201601f1916810167ffffffffffffffff81118282101715613717576137176136d8565b604052919050565b600067ffffffffffffffff821115613739576137396136d8565b50601f01601f191660200190565b600061375a6137558461371f565b6136ee565b905082815283838301111561376e57600080fd5b828260208301376000602084830101529392505050565b60008060008060008060c0878903121561379e57600080fd5b863567ffffffffffffffff8111156137b557600080fd5b8701601f810189136137c657600080fd5b6137d589823560208401613747565b96505060208701359450604087013593506060870135613625816135de565b6000806040838503121561380757600080fd5b82356138128161349d565b91506020830135613822816135de565b809150509250929050565b6000806000806080858703121561384357600080fd5b843561384e8161349d565b9350602085013561385e8161349d565b925060408501359150606085013567ffffffffffffffff81111561388157600080fd5b8501601f8101871361389257600080fd5b6138a187823560208401613747565b91505092959194509250565b6000806000606084860312156138c257600080fd5b8335925060208401356138d48161349d565b91506138e2604085016134de565b90509250925092565b600080604083850312156138fe57600080fd5b82356139098161349d565b915060208301356138228161349d565b6000806000806080858703121561392f57600080fd5b5050823594602084013594506040840135936060013592509050565b6000604082016040835280855180835260608501915060608160051b8601019250602080880160005b838110156139a257605f19888703018552613990868351613445565b95509382019390820190600101613974565b50508584038187015286518085528782019482019350915060005b828110156135b4578451845293810193928101926001016139bd565b600181811c908216806139ed57607f821691505b6020821081141561315757634e487b7160e01b600052602260045260246000fd5b634e487b7160e01b600052601160045260246000fd5b600082821015613a3657613a36613a0e565b500390565b60008219821115613a4e57613a4e613a0e565b500190565b634e487b7160e01b600052603260045260246000fd5b6000600019821415613a7d57613a7d613a0e565b5060010190565b60008060408385031215613a9757600080fd5b8251613aa2816135de565b6020939093015192949293505050565b600060208284031215613ac457600080fd5b815161155c816135de565b600060208284031215613ae157600080fd5b5051919050565b600082601f830112613af957600080fd5b8151613b076137558261371f565b818152846020838601011115613b1c57600080fd5b612bf2826020830160208701613419565b600080600060608486031215613b4257600080fd5b8351613b4d816135de565b602085015190935067ffffffffffffffff811115613b6a57600080fd5b613b7686828701613ae8565b925050604084015190509250925092565b600060208284031215613b9957600080fd5b815167ffffffffffffffff811115613bb057600080fd5b612bf284828501613ae8565b600080835481600182811c915080831680613bd857607f831692505b6020808410821415613bf857634e487b7160e01b86526022600452602486fd5b818015613c0c5760018114613c1d57613c4a565b60ff19861689528489019650613c4a565b60008a81526020902060005b86811015613c425781548b820152908501908301613c29565b505084890196505b509498975050505050505050565b600060208284031215613c6a57600080fd5b815161155c8161349d565b600081613c8457613c84613a0e565b506000190190565b600082613ca957634e487b7160e01b600052601260045260246000fd5b500490565b6000816000190483118215151615613cc857613cc8613a0e565b500290565b60006001600160a01b03808716835280861660208401525083604083015260806060830152613cff6080830184613445565b9695505050505050565b600060208284031215613d1b57600080fd5b815161155c816133e356fea26469706673582212208f85b68341af93cabc97e9f35dace45856b498462d610aceece09b1462557de764736f6c63430008090033",
  "linkReferences": {},
  "deployedLinkReferences": {}
}