{
  "_format": "hh-sol-artifact-1",
  "contractName": "RentableNFTMarketplace",
  "sourceName": "contracts/RentableNFTMarketplace.sol",
  "abi": [
    {
      "inputs": [],
      "stateMutability": "nonpayable",
      "type": "constructor"
    },
    {
      "anonymous": false,
      "inputs": [
        {
          "indexed": true,
          "internalType": "address",
          "name": "owner",
          "type": "address"
        },
        {
          "indexed": true,
          "internalType": "address",
          "name": "approved",
          "type": "address"
        },
        {
          "indexed": true,
          "internalType": "uint256",
          "name": "tokenId",
          "type": "uint256"
        }
      ],
      "name": "Approval",
      "type": "event"
    },
    {
      "anonymous": false,
      "inputs": [
        {
          "indexed": true,
          "internalType": "address",
          "name": "owner",
          "type": "address"
        },
        {
          "indexed": true,
          "internalType": "address",
          "name": "operator",
          "type": "address"
        },
        {
          "indexed": false,
          "internalType": "bool",
          "name": "approved",
          "type": "bool"
        }
      ],
      "name": "ApprovalForAll",
      "type": "event"
    },
    {
      "anonymous": false,
      "inputs": [
        {
          "indexed": true,
          "internalType": "uint256",
          "name": "tokenId",
          "type": "uint256"
        },
        {
          "indexed": false,
          "internalType": "address",
          "name": "seller",
          "type": "address"
        },
        {
          "indexed": false,
          "internalType": "address",
          "name": "owner",
          "type": "address"
        },
        {
          "indexed": false,
          "internalType": "uint256",
          "name": "price",
          "type": "uint256"
        },
        {
          "indexed": false,
          "internalType": "uint256",
          "name": "rentPrice",
          "type": "uint256"
        },
        {
          "indexed": false,
          "internalType": "bool",
          "name": "originalForRent",
          "type": "bool"
        },
        {
          "indexed": false,
          "internalType": "bool",
          "name": "originalForSale",
          "type": "bool"
        },
        {
          "indexed": false,
          "internalType": "uint64",
          "name": "expires",
          "type": "uint64"
        },
        {
          "indexed": false,
          "internalType": "bool",
          "name": "forRent",
          "type": "bool"
        },
        {
          "indexed": false,
          "internalType": "bool",
          "name": "forSale",
          "type": "bool"
        },
        {
          "indexed": false,
          "internalType": "bool",
          "name": "sold",
          "type": "bool"
        },
        {
          "indexed": false,
          "internalType": "bool",
          "name": "rented",
          "type": "bool"
        }
      ],
      "name": "MarketItemCreated",
      "type": "event"
    },
    {
      "anonymous": false,
      "inputs": [
        {
          "indexed": true,
          "internalType": "address",
          "name": "from",
          "type": "address"
        },
        {
          "indexed": true,
          "internalType": "address",
          "name": "to",
          "type": "address"
        },
        {
          "indexed": true,
          "internalType": "uint256",
          "name": "tokenId",
          "type": "uint256"
        }
      ],
      "name": "Transfer",
      "type": "event"
    },
    {
      "anonymous": false,
      "inputs": [
        {
          "indexed": true,
          "internalType": "uint256",
          "name": "tokenId",
          "type": "uint256"
        },
        {
          "indexed": true,
          "internalType": "address",
          "name": "user",
          "type": "address"
        },
        {
          "indexed": false,
          "internalType": "uint64",
          "name": "expires",
          "type": "uint64"
        }
      ],
      "name": "UpdateUser",
      "type": "event"
    },
    {
      "inputs": [],
      "name": "_itemsSold",
      "outputs": [
        {
          "internalType": "uint256",
          "name": "_value",
          "type": "uint256"
        }
      ],
      "stateMutability": "view",
      "type": "function"
    },
    {
      "inputs": [],
      "name": "_tokenIds",
      "outputs": [
        {
          "internalType": "uint256",
          "name": "_value",
          "type": "uint256"
        }
      ],
      "stateMutability": "view",
      "type": "function"
    },
    {
      "inputs": [
        {
          "internalType": "address",
          "name": "to",
          "type": "address"
        },
        {
          "internalType": "uint256",
          "name": "tokenId",
          "type": "uint256"
        }
      ],
      "name": "approve",
      "outputs": [],
      "stateMutability": "nonpayable",
      "type": "function"
    },
    {
      "inputs": [
        {
          "internalType": "address",
          "name": "owner",
          "type": "address"
        }
      ],
      "name": "balanceOf",
      "outputs": [
        {
          "internalType": "uint256",
          "name": "",
          "type": "uint256"
        }
      ],
      "stateMutability": "view",
      "type": "function"
    },
    {
      "inputs": [
        {
          "internalType": "bytes",
          "name": "checkData",
          "type": "bytes"
        }
      ],
      "name": "checkUpkeep",
      "outputs": [
        {
          "internalType": "bool",
          "name": "upkeepNeeded",
          "type": "bool"
        },
        {
          "internalType": "bytes",
          "name": "performData",
          "type": "bytes"
        }
      ],
      "stateMutability": "nonpayable",
      "type": "function"
    },
    {
      "inputs": [
        {
          "internalType": "uint256",
          "name": "tokenId",
          "type": "uint256"
        }
      ],
      "name": "createMarketSale",
      "outputs": [],
      "stateMutability": "payable",
      "type": "function"
    },
    {
      "inputs": [
        {
          "internalType": "string",
          "name": "_tokenURI",
          "type": "string"
        },
        {
          "internalType": "uint256",
          "name": "price",
          "type": "uint256"
        },
        {
          "internalType": "uint256",
          "name": "rent_price",
          "type": "uint256"
        },
        {
          "internalType": "bool",
          "name": "forSale",
          "type": "bool"
        },
        {
          "internalType": "bool",
          "name": "forRent",
          "type": "bool"
        },
        {
          "internalType": "bool",
          "name": "member",
          "type": "bool"
        }
      ],
      "name": "createToken",
      "outputs": [],
      "stateMutability": "payable",
      "type": "function"
    },
    {
      "inputs": [],
      "name": "fetchMarketItems",
      "outputs": [
        {
          "components": [
            {
              "internalType": "uint256",
              "name": "tokenId",
              "type": "uint256"
            },
            {
              "internalType": "address payable",
              "name": "seller",
              "type": "address"
            },
            {
              "internalType": "address payable",
              "name": "owner",
              "type": "address"
            },
            {
              "internalType": "uint256",
              "name": "price",
              "type": "uint256"
            },
            {
              "internalType": "uint256",
              "name": "rentPrice",
              "type": "uint256"
            },
            {
              "internalType": "bool",
              "name": "originalForRent",
              "type": "bool"
            },
            {
              "internalType": "bool",
              "name": "originalForSale",
              "type": "bool"
            },
            {
              "internalType": "uint64",
              "name": "expires",
              "type": "uint64"
            },
            {
              "internalType": "bool",
              "name": "forRent",
              "type": "bool"
            },
            {
              "internalType": "bool",
              "name": "forSale",
              "type": "bool"
            },
            {
              "internalType": "bool",
              "name": "sold",
              "type": "bool"
            },
            {
              "internalType": "bool",
              "name": "rented",
              "type": "bool"
            }
          ],
          "internalType": "struct RentableNFTMarketplace.MarketItem[]",
          "name": "",
          "type": "tuple[]"
        }
      ],
      "stateMutability": "view",
      "type": "function"
    },
    {
      "inputs": [],
      "name": "fetchMyNFTs",
      "outputs": [
        {
          "components": [
            {
              "internalType": "uint256",
              "name": "tokenId",
              "type": "uint256"
            },
            {
              "internalType": "address payable",
              "name": "seller",
              "type": "address"
            },
            {
              "internalType": "address payable",
              "name": "owner",
              "type": "address"
            },
            {
              "internalType": "uint256",
              "name": "price",
              "type": "uint256"
            },
            {
              "internalType": "uint256",
              "name": "rentPrice",
              "type": "uint256"
            },
            {
              "internalType": "bool",
              "name": "originalForRent",
              "type": "bool"
            },
            {
              "internalType": "bool",
              "name": "originalForSale",
              "type": "bool"
            },
            {
              "internalType": "uint64",
              "name": "expires",
              "type": "uint64"
            },
            {
              "internalType": "bool",
              "name": "forRent",
              "type": "bool"
            },
            {
              "internalType": "bool",
              "name": "forSale",
              "type": "bool"
            },
            {
              "internalType": "bool",
              "name": "sold",
              "type": "bool"
            },
            {
              "internalType": "bool",
              "name": "rented",
              "type": "bool"
            }
          ],
          "internalType": "struct RentableNFTMarketplace.MarketItem[]",
          "name": "",
          "type": "tuple[]"
        }
      ],
      "stateMutability": "view",
      "type": "function"
    },
    {
      "inputs": [],
      "name": "fetchMyRentedNFTs",
      "outputs": [
        {
          "components": [
            {
              "internalType": "uint256",
              "name": "tokenId",
              "type": "uint256"
            },
            {
              "internalType": "address payable",
              "name": "seller",
              "type": "address"
            },
            {
              "internalType": "address payable",
              "name": "owner",
              "type": "address"
            },
            {
              "internalType": "uint256",
              "name": "price",
              "type": "uint256"
            },
            {
              "internalType": "uint256",
              "name": "rentPrice",
              "type": "uint256"
            },
            {
              "internalType": "bool",
              "name": "originalForRent",
              "type": "bool"
            },
            {
              "internalType": "bool",
              "name": "originalForSale",
              "type": "bool"
            },
            {
              "internalType": "uint64",
              "name": "expires",
              "type": "uint64"
            },
            {
              "internalType": "bool",
              "name": "forRent",
              "type": "bool"
            },
            {
              "internalType": "bool",
              "name": "forSale",
              "type": "bool"
            },
            {
              "internalType": "bool",
              "name": "sold",
              "type": "bool"
            },
            {
              "internalType": "bool",
              "name": "rented",
              "type": "bool"
            }
          ],
          "internalType": "struct RentableNFTMarketplace.MarketItem[]",
          "name": "",
          "type": "tuple[]"
        }
      ],
      "stateMutability": "view",
      "type": "function"
    },
    {
      "inputs": [
        {
          "internalType": "uint256",
          "name": "tokenId",
          "type": "uint256"
        }
      ],
      "name": "getApproved",
      "outputs": [
        {
          "internalType": "address",
          "name": "",
          "type": "address"
        }
      ],
      "stateMutability": "view",
      "type": "function"
    },
    {
      "inputs": [
        {
          "internalType": "bytes32",
          "name": "_queryId",
          "type": "bytes32"
        },
        {
          "internalType": "uint256",
          "name": "_timestamp",
          "type": "uint256"
        }
      ],
      "name": "getDataAfter",
      "outputs": [
        {
          "internalType": "bytes",
          "name": "_value",
          "type": "bytes"
        },
        {
          "internalType": "uint256",
          "name": "_timestampRetrieved",
          "type": "uint256"
        }
      ],
      "stateMutability": "view",
      "type": "function"
    },
    {
      "inputs": [
        {
          "internalType": "bytes32",
          "name": "_queryId",
          "type": "bytes32"
        },
        {
          "internalType": "uint256",
          "name": "_timestamp",
          "type": "uint256"
        }
      ],
      "name": "getDataBefore",
      "outputs": [
        {
          "internalType": "bytes",
          "name": "_value",
          "type": "bytes"
        },
        {
          "internalType": "uint256",
          "name": "_timestampRetrieved",
          "type": "uint256"
        }
      ],
      "stateMutability": "view",
      "type": "function"
    },
    {
      "inputs": [
        {
          "internalType": "bytes32",
          "name": "_queryId",
          "type": "bytes32"
        },
        {
          "internalType": "uint256",
          "name": "_timestamp",
          "type": "uint256"
        }
      ],
      "name": "getIndexForDataAfter",
      "outputs": [
        {
          "internalType": "bool",
          "name": "_found",
          "type": "bool"
        },
        {
          "internalType": "uint256",
          "name": "_index",
          "type": "uint256"
        }
      ],
      "stateMutability": "view",
      "type": "function"
    },
    {
      "inputs": [
        {
          "internalType": "bytes32",
          "name": "_queryId",
          "type": "bytes32"
        },
        {
          "internalType": "uint256",
          "name": "_timestamp",
          "type": "uint256"
        }
      ],
      "name": "getIndexForDataBefore",
      "outputs": [
        {
          "internalType": "bool",
          "name": "_found",
          "type": "bool"
        },
        {
          "internalType": "uint256",
          "name": "_index",
          "type": "uint256"
        }
      ],
      "stateMutability": "view",
      "type": "function"
    },
    {
      "inputs": [],
      "name": "getListingPrice",
      "outputs": [
        {
          "internalType": "uint256",
          "name": "",
          "type": "uint256"
        }
      ],
      "stateMutability": "view",
      "type": "function"
    },
    {
      "inputs": [
        {
          "internalType": "bytes32",
          "name": "_queryId",
          "type": "bytes32"
        },
        {
          "internalType": "uint256",
          "name": "_timestamp",
          "type": "uint256"
        },
        {
          "internalType": "uint256",
          "name": "_maxAge",
          "type": "uint256"
        },
        {
          "internalType": "uint256",
          "name": "_maxCount",
          "type": "uint256"
        }
      ],
      "name": "getMultipleValuesBefore",
      "outputs": [
        {
          "internalType": "bytes[]",
          "name": "_values",
          "type": "bytes[]"
        },
        {
          "internalType": "uint256[]",
          "name": "_timestamps",
          "type": "uint256[]"
        }
      ],
      "stateMutability": "view",
      "type": "function"
    },
    {
      "inputs": [
        {
          "internalType": "bytes32",
          "name": "_queryId",
          "type": "bytes32"
        }
      ],
      "name": "getNewValueCountbyQueryId",
      "outputs": [
        {
          "internalType": "uint256",
          "name": "",
          "type": "uint256"
        }
      ],
      "stateMutability": "view",
      "type": "function"
    },
    {
      "inputs": [
        {
          "internalType": "bytes32",
          "name": "_queryId",
          "type": "bytes32"
        },
        {
          "internalType": "uint256",
          "name": "_timestamp",
          "type": "uint256"
        }
      ],
      "name": "getReporterByTimestamp",
      "outputs": [
        {
          "internalType": "address",
          "name": "",
          "type": "address"
        }
      ],
      "stateMutability": "view",
      "type": "function"
    },
    {
      "inputs": [
        {
          "internalType": "bytes32",
          "name": "_queryId",
          "type": "bytes32"
        },
        {
          "internalType": "uint256",
          "name": "_index",
          "type": "uint256"
        }
      ],
      "name": "getTimestampbyQueryIdandIndex",
      "outputs": [
        {
          "internalType": "uint256",
          "name": "",
          "type": "uint256"
        }
      ],
      "stateMutability": "view",
      "type": "function"
    },
    {
      "inputs": [
        {
          "internalType": "uint256",
          "name": "tokenId",
          "type": "uint256"
        }
      ],
      "name": "getUserOf",
      "outputs": [
        {
          "internalType": "address",
          "name": "",
          "type": "address"
        }
      ],
      "stateMutability": "view",
      "type": "function"
    },
    {
      "inputs": [],
      "name": "idMappingContract",
      "outputs": [
        {
          "internalType": "contract IMappingContract",
          "name": "",
          "type": "address"
        }
      ],
      "stateMutability": "view",
      "type": "function"
    },
    {
      "inputs": [
        {
          "internalType": "uint256",
          "name": "",
          "type": "uint256"
        }
      ],
      "name": "idToMarketItem",
      "outputs": [
        {
          "internalType": "uint256",
          "name": "tokenId",
          "type": "uint256"
        },
        {
          "internalType": "address payable",
          "name": "seller",
          "type": "address"
        },
        {
          "internalType": "address payable",
          "name": "owner",
          "type": "address"
        },
        {
          "internalType": "uint256",
          "name": "price",
          "type": "uint256"
        },
        {
          "internalType": "uint256",
          "name": "rentPrice",
          "type": "uint256"
        },
        {
          "internalType": "bool",
          "name": "originalForRent",
          "type": "bool"
        },
        {
          "internalType": "bool",
          "name": "originalForSale",
          "type": "bool"
        },
        {
          "internalType": "uint64",
          "name": "expires",
          "type": "uint64"
        },
        {
          "internalType": "bool",
          "name": "forRent",
          "type": "bool"
        },
        {
          "internalType": "bool",
          "name": "forSale",
          "type": "bool"
        },
        {
          "internalType": "bool",
          "name": "sold",
          "type": "bool"
        },
        {
          "internalType": "bool",
          "name": "rented",
          "type": "bool"
        }
      ],
      "stateMutability": "view",
      "type": "function"
    },
    {
      "inputs": [
        {
          "internalType": "address",
          "name": "owner",
          "type": "address"
        },
        {
          "internalType": "address",
          "name": "operator",
          "type": "address"
        }
      ],
      "name": "isApprovedForAll",
      "outputs": [
        {
          "internalType": "bool",
          "name": "",
          "type": "bool"
        }
      ],
      "stateMutability": "view",
      "type": "function"
    },
    {
      "inputs": [
        {
          "internalType": "bytes32",
          "name": "_queryId",
          "type": "bytes32"
        },
        {
          "internalType": "uint256",
          "name": "_timestamp",
          "type": "uint256"
        }
      ],
      "name": "isInDispute",
      "outputs": [
        {
          "internalType": "bool",
          "name": "",
          "type": "bool"
        }
      ],
      "stateMutability": "view",
      "type": "function"
    },
    {
      "inputs": [],
      "name": "name",
      "outputs": [
        {
          "internalType": "string",
          "name": "",
          "type": "string"
        }
      ],
      "stateMutability": "view",
      "type": "function"
    },
    {
      "inputs": [],
      "name": "owner",
      "outputs": [
        {
          "internalType": "address payable",
          "name": "",
          "type": "address"
        }
      ],
      "stateMutability": "view",
      "type": "function"
    },
    {
      "inputs": [
        {
          "internalType": "uint256",
          "name": "tokenId",
          "type": "uint256"
        }
      ],
      "name": "ownerOf",
      "outputs": [
        {
          "internalType": "address",
          "name": "",
          "type": "address"
        }
      ],
      "stateMutability": "view",
      "type": "function"
    },
    {
      "inputs": [
        {
          "internalType": "bytes",
          "name": "performData",
          "type": "bytes"
        }
      ],
      "name": "performUpkeep",
      "outputs": [],
      "stateMutability": "nonpayable",
      "type": "function"
    },
    {
      "inputs": [
        {
          "internalType": "uint256",
          "name": "_tokenId",
          "type": "uint256"
        },
        {
          "internalType": "uint64",
          "name": "_expires",
          "type": "uint64"
        }
      ],
      "name": "rentOutToken",
      "outputs": [],
      "stateMutability": "payable",
      "type": "function"
    },
    {
      "inputs": [
        {
          "internalType": "uint256",
          "name": "tokenId",
          "type": "uint256"
        },
        {
          "internalType": "uint256",
          "name": "price",
          "type": "uint256"
        },
        {
          "internalType": "uint256",
          "name": "rentPrice",
          "type": "uint256"
        },
        {
          "internalType": "bool",
          "name": "forRent",
          "type": "bool"
        },
        {
          "internalType": "bool",
          "name": "forSale",
          "type": "bool"
        },
        {
          "internalType": "bool",
          "name": "member",
          "type": "bool"
        }
      ],
      "name": "resellToken",
      "outputs": [],
      "stateMutability": "payable",
      "type": "function"
    },
    {
      "inputs": [
        {
          "internalType": "bytes32",
          "name": "_queryId",
          "type": "bytes32"
        },
        {
          "internalType": "uint256",
          "name": "_timestamp",
          "type": "uint256"
        }
      ],
      "name": "retrieveData",
      "outputs": [
        {
          "internalType": "bytes",
          "name": "",
          "type": "bytes"
        }
      ],
      "stateMutability": "view",
      "type": "function"
    },
    {
      "inputs": [
        {
          "internalType": "address",
          "name": "from",
          "type": "address"
        },
        {
          "internalType": "address",
          "name": "to",
          "type": "address"
        },
        {
          "internalType": "uint256",
          "name": "tokenId",
          "type": "uint256"
        }
      ],
      "name": "safeTransferFrom",
      "outputs": [],
      "stateMutability": "nonpayable",
      "type": "function"
    },
    {
      "inputs": [
        {
          "internalType": "address",
          "name": "from",
          "type": "address"
        },
        {
          "internalType": "address",
          "name": "to",
          "type": "address"
        },
        {
          "internalType": "uint256",
          "name": "tokenId",
          "type": "uint256"
        },
        {
          "internalType": "bytes",
          "name": "_data",
          "type": "bytes"
        }
      ],
      "name": "safeTransferFrom",
      "outputs": [],
      "stateMutability": "nonpayable",
      "type": "function"
    },
    {
      "inputs": [
        {
          "internalType": "address",
          "name": "operator",
          "type": "address"
        },
        {
          "internalType": "bool",
          "name": "approved",
          "type": "bool"
        }
      ],
      "name": "setApprovalForAll",
      "outputs": [],
      "stateMutability": "nonpayable",
      "type": "function"
    },
    {
      "inputs": [
        {
          "internalType": "address",
          "name": "_addy",
          "type": "address"
        }
      ],
      "name": "setIdMappingContract",
      "outputs": [],
      "stateMutability": "nonpayable",
      "type": "function"
    },
    {
      "inputs": [
        {
          "internalType": "uint256",
          "name": "tokenId",
          "type": "uint256"
        },
        {
          "internalType": "address",
          "name": "user",
          "type": "address"
        },
        {
          "internalType": "uint64",
          "name": "expires",
          "type": "uint64"
        }
      ],
      "name": "setUser",
      "outputs": [],
      "stateMutability": "nonpayable",
      "type": "function"
    },
    {
      "inputs": [
        {
          "internalType": "bytes4",
          "name": "interfaceId",
          "type": "bytes4"
        }
      ],
      "name": "supportsInterface",
      "outputs": [
        {
          "internalType": "bool",
          "name": "",
          "type": "bool"
        }
      ],
      "stateMutability": "view",
      "type": "function"
    },
    {
      "inputs": [],
      "name": "symbol",
      "outputs": [
        {
          "internalType": "string",
          "name": "",
          "type": "string"
        }
      ],
      "stateMutability": "view",
      "type": "function"
    },
    {
      "inputs": [],
      "name": "tellor",
      "outputs": [
        {
          "internalType": "contract ITellor",
          "name": "",
          "type": "address"
        }
      ],
      "stateMutability": "view",
      "type": "function"
    },
    {
      "inputs": [
        {
          "internalType": "uint256",
          "name": "_tokenId",
          "type": "uint256"
        }
      ],
      "name": "tokenURI",
      "outputs": [
        {
          "internalType": "string",
          "name": "",
          "type": "string"
        }
      ],
      "stateMutability": "view",
      "type": "function"
    },
    {
      "inputs": [
        {
          "internalType": "uint256",
          "name": "",
          "type": "uint256"
        }
      ],
      "name": "tokenURIs",
      "outputs": [
        {
          "internalType": "string",
          "name": "",
          "type": "string"
        }
      ],
      "stateMutability": "view",
      "type": "function"
    },
    {
      "inputs": [
        {
          "internalType": "address",
          "name": "from",
          "type": "address"
        },
        {
          "internalType": "address",
          "name": "to",
          "type": "address"
        },
        {
          "internalType": "uint256",
          "name": "tokenId",
          "type": "uint256"
        }
      ],
      "name": "transferFrom",
      "outputs": [],
      "stateMutability": "nonpayable",
      "type": "function"
    },
    {
      "inputs": [
        {
          "internalType": "uint256",
          "name": "_listingPrice",
          "type": "uint256"
        }
      ],
      "name": "updateListingPrice",
      "outputs": [],
      "stateMutability": "payable",
      "type": "function"
    },
    {
      "inputs": [
        {
          "internalType": "uint256",
          "name": "_tokenId",
          "type": "uint256"
        },
        {
          "internalType": "uint256",
          "name": "price",
          "type": "uint256"
        }
      ],
      "name": "updatePrice",
      "outputs": [],
      "stateMutability": "nonpayable",
      "type": "function"
    },
    {
      "inputs": [
        {
          "internalType": "uint256",
          "name": "_tokenId",
          "type": "uint256"
        },
        {
          "internalType": "uint256",
          "name": "rent_price",
          "type": "uint256"
        }
      ],
      "name": "updateRentPrice",
      "outputs": [],
      "stateMutability": "nonpayable",
      "type": "function"
    },
    {
      "inputs": [
        {
          "internalType": "uint256",
          "name": "tokenId",
          "type": "uint256"
        }
      ],
      "name": "userExpires",
      "outputs": [
        {
          "internalType": "uint256",
          "name": "",
          "type": "uint256"
        }
      ],
      "stateMutability": "view",
      "type": "function"
    },
    {
      "inputs": [
        {
          "internalType": "uint256",
          "name": "tokenId",
          "type": "uint256"
        }
      ],
      "name": "userOf",
      "outputs": [
        {
          "internalType": "address",
          "name": "",
          "type": "address"
        }
      ],
      "stateMutability": "view",
      "type": "function"
    },
    {
      "inputs": [
        {
          "internalType": "bytes32",
          "name": "_id",
          "type": "bytes32"
        }
      ],
      "name": "valueFor",
      "outputs": [
        {
          "internalType": "int256",
          "name": "_value",
          "type": "int256"
        },
        {
          "internalType": "uint256",
          "name": "_timestamp",
          "type": "uint256"
        },
        {
          "internalType": "uint256",
          "name": "_statusCode",
          "type": "uint256"
        }
      ],
      "stateMutability": "view",
      "type": "function"
    },
    {
      "inputs": [],
      "name": "withdraw",
      "outputs": [],
      "stateMutability": "nonpayable",
      "type": "function"
    }
  ],
  "bytecode": "0x6080604052670de0b6b3a7640000600c55600e80546001600160a01b03191673840c23e39f9d029ffa888f47069aa6864f0401d71790553480156200004357600080fd5b50600e54604080518082018252600881526752656e7461626c6560c01b602080830191825283518085019094526002845261149560f21b9084015281516001600160a01b039094169391929183918391620000a191600091620000ec565b508051620000b7906001906020840190620000ec565b5050600780546001600160a01b039095166001600160a01b03199586161790555050600d8054909216331790915550620001cf565b828054620000fa9062000192565b90600052602060002090601f0160209004810192826200011e576000855562000169565b82601f106200013957805160ff191683800117855562000169565b8280016001018555821562000169579182015b82811115620001695782518255916020019190600101906200014c565b50620001779291506200017b565b5090565b5b808211156200017757600081556001016200017c565b600181811c90821680620001a757607f821691505b60208210811415620001c957634e487b7160e01b600052602260045260246000fd5b50919050565b61407a80620001df6000396000f3fe6080604052600436106102c95760003560e01c806370a0823111610175578063b88d4fde116100dc578063e030565e11610095578063e985e9c51161006f578063e985e9c51461098b578063f66f49c3146109d4578063f78eea83146109f4578063fcd4a54614610a2f57600080fd5b8063e030565e14610831578063e07c548614610851578063e61a70c01461087157600080fd5b8063b88d4fde1461077e578063be9af5361461079e578063c2f1f14a146107b1578063c5958af9146107d1578063c87b56dd146107f1578063ce5e11bf1461081157600080fd5b80638fc88c481161012e5780638fc88c48146106c257806395d89b41146106ff578063a22cb46514610714578063a792765f14610734578063aa46a40014610754578063ae677aa31461076b57600080fd5b806370a082311461060b57806377b03e0d1461062b57806382367b2d1461064b57806387506a0d1461066b578063897db782146106825780638da5cb5b146106a257600080fd5b806329449085116102345780634feb2982116101ed57806367ea485c116101c757806367ea485c146105955780636c8b703f146105aa5780636d656710146105ca5780636e04ff0d146105dd57600080fd5b80634feb2982146105275780636352211e1461054757806364ee3c6d1461056757600080fd5b8063294490851461045b5780632af8aae0146104925780633ccfd60b146104b257806342842e0e146104c757806344e87f91146104e75780634585e33b1461050757600080fd5b806312e855851161028657806312e85585146103b4578063193b505b146103d35780631959ad5b146103f35780631f76e24214610413578063202e37401461042657806323b872dd1461043b57600080fd5b806301ffc9a7146102ce57806306fdde0314610303578063081812fc14610325578063095ea7b31461035d57806309a26ba71461037f5780630f08efe014610392575b600080fd5b3480156102da57600080fd5b506102ee6102e9366004613512565b610a5d565b60405190151581526020015b60405180910390f35b34801561030f57600080fd5b50610318610a88565b6040516102fa9190613587565b34801561033157600080fd5b5061034561034036600461359a565b610b1a565b6040516001600160a01b0390911681526020016102fa565b34801561036957600080fd5b5061037d6103783660046135c8565b610bb4565b005b61037d61038d36600461360b565b610cca565b34801561039e57600080fd5b506103a7610ec6565b6040516102fa9190613637565b3480156103c057600080fd5b50600c545b6040519081526020016102fa565b3480156103df57600080fd5b5061037d6103ee366004613711565b6110af565b3480156103ff57600080fd5b50600754610345906001600160a01b031681565b61037d61042136600461373c565b6110e7565b34801561043257600080fd5b506103a7611215565b34801561044757600080fd5b5061037d6104563660046137a3565b61143c565b34801561046757600080fd5b5061047b6104763660046137e4565b61146d565b6040805192151583526020830191909152016102fa565b34801561049e57600080fd5b50600854610345906001600160a01b031681565b3480156104be57600080fd5b5061037d611500565b3480156104d357600080fd5b5061037d6104e23660046137a3565b61158d565b3480156104f357600080fd5b506102ee6105023660046137e4565b6115a8565b34801561051357600080fd5b5061037d610522366004613806565b611633565b34801561053357600080fd5b5061037d6105423660046137e4565b61167c565b34801561055357600080fd5b5061034561056236600461359a565b6116ca565b34801561057357600080fd5b506105876105823660046137e4565b611741565b6040516102fa929190613877565b3480156105a157600080fd5b506103a761179a565b3480156105b657600080fd5b506103186105c536600461359a565b6119e8565b61037d6105d8366004613944565b611a82565b3480156105e957600080fd5b506105fd6105f8366004613806565b611b06565b6040516102fa9291906139b2565b34801561061757600080fd5b506103c5610626366004613711565b611bc6565b34801561063757600080fd5b506103c561064636600461359a565b611c4d565b34801561065757600080fd5b5061037d6106663660046137e4565b611cca565b34801561067757600080fd5b50600a546103c59081565b34801561068e57600080fd5b5061034561069d36600461359a565b611d18565b3480156106ae57600080fd5b50600d54610345906001600160a01b031681565b3480156106ce57600080fd5b506103c56106dd36600461359a565b600090815260066020526040902054600160a01b90046001600160401b031690565b34801561070b57600080fd5b50610318611d23565b34801561072057600080fd5b5061037d61072f3660046139cd565b611d32565b34801561074057600080fd5b5061058761074f3660046137e4565b611d3d565b34801561076057600080fd5b506009546103c59081565b61037d61077936600461359a565b611dd6565b34801561078a57600080fd5b5061037d610799366004613a06565b611e1d565b61037d6107ac36600461359a565b611e4f565b3480156107bd57600080fd5b506103456107cc36600461359a565b611f7f565b3480156107dd57600080fd5b506103186107ec3660046137e4565b611fce565b3480156107fd57600080fd5b5061031861080c36600461359a565b612056565b34801561081d57600080fd5b506103c561082c3660046137e4565b612091565b34801561083d57600080fd5b5061037d61084c366004613a85565b612115565b34801561085d57600080fd5b5061034561086c3660046137e4565b612146565b34801561087d57600080fd5b5061091361088c36600461359a565b600f6020526000908152604090208054600182015460028301546003840154600485015460059095015493946001600160a01b03938416949290931692909160ff8082169161010081048216916001600160401b036201000083041691600160501b8104821691600160581b8204811691600160601b8104821691600160681b909104168c565b604080519c8d526001600160a01b039b8c1660208e015299909a16988b019890985260608a0196909652608089019490945291151560a0880152151560c08701526001600160401b031660e08601521515610100850152151561012084015215156101408301521515610160820152610180016102fa565b34801561099757600080fd5b506102ee6109a6366004613ac3565b6001600160a01b03918216600090815260056020908152604080832093909416825291909152205460ff1690565b3480156109e057600080fd5b5061047b6109ef3660046137e4565b6121ca565b348015610a0057600080fd5b50610a14610a0f36600461359a565b612384565b604080519384526020840192909252908201526060016102fa565b348015610a3b57600080fd5b50610a4f610a4a366004613af1565b612454565b6040516102fa929190613b23565b60006001600160e01b03198216632b424ad760e21b1480610a825750610a8282612740565b92915050565b606060008054610a9790613bb1565b80601f0160208091040260200160405190810160405280929190818152602001828054610ac390613bb1565b8015610b105780601f10610ae557610100808354040283529160200191610b10565b820191906000526020600020905b815481529060010190602001808311610af357829003601f168201915b5050505050905090565b6000818152600260205260408120546001600160a01b0316610b985760405162461bcd60e51b815260206004820152602c60248201527f4552433732313a20617070726f76656420717565727920666f72206e6f6e657860448201526b34b9ba32b73a103a37b5b2b760a11b60648201526084015b60405180910390fd5b506000908152600460205260409020546001600160a01b031690565b6000610bbf826116ca565b9050806001600160a01b0316836001600160a01b03161415610c2d5760405162461bcd60e51b815260206004820152602160248201527f4552433732313a20617070726f76616c20746f2063757272656e74206f776e656044820152603960f91b6064820152608401610b8f565b336001600160a01b0382161480610c495750610c4981336109a6565b610cbb5760405162461bcd60e51b815260206004820152603860248201527f4552433732313a20617070726f76652063616c6c6572206973206e6f74206f7760448201527f6e6572206e6f7220617070726f76656420666f7220616c6c00000000000000006064820152608401610b8f565b610cc58383612790565b505050565b6000828152600f602052604090206005810154600160501b900460ff16610d335760405162461bcd60e51b815260206004820152601f60248201527f546f6b656e206973206e6f7420617661696c61626c6520666f722072656e74006044820152606401610b8f565b6000610d3e84611f7f565b6001600160a01b031614610d945760405162461bcd60e51b815260206004820152601760248201527f546f6b656e20697320616c72656164792072656e7465640000000000000000006044820152606401610b8f565b8060040154341015610df45760405162461bcd60e51b8152602060048201526024808201527f496e73756666696369656e742066756e647320746f2072656e7420746865207460448201526337b5b2b760e11b6064820152608401610b8f565b6000838152600f60205260409020600501805469ffffffffffffffffff00196dff000000000000000000000000ff19821660ff600160501b600160681b60ff60681b199095168517048116151591909117909217908116610100600160581b90920490921615150269ffffffffffffffff0000191617620100006001600160401b038516021761ffff60501b19169055610e8f8333846127fe565b5050601080546001810182556000919091527f1b6847dc741a1b0cd08d278845f9d819d87b734759afb55fe2de5cb82a9ae6720155565b60606000610ed360095490565b90506000610ee0600a5490565b600954610eed9190613bfc565b9050600080826001600160401b03811115610f0a57610f0a613899565b604051908082528060200260200182016040528015610f4357816020015b610f306133fc565b815260200190600190039081610f285790505b50905060005b848110156110a65730600f6000610f61846001613c13565b81526020810191909152604001600020600201546001600160a01b03161415611094576000610f91826001613c13565b6000818152600f60209081526040918290208251610180810184528154815260018201546001600160a01b03908116938201939093526002820154909216928201929092526003820154606082015260048201546080820152600582015460ff808216151560a08401526101008083048216151560c08501526001600160401b036201000084041660e0850152600160501b83048216151590840152600160581b820481161515610120840152600160601b820481161515610140840152600160681b9091041615156101608201528551929350909185908790811061107957611079613c2b565b602090810291909101015261108f600186613c13565b945050505b8061109e81613c41565b915050610f49565b50949350505050565b6008546001600160a01b0316156110c557600080fd5b600880546001600160a01b0319166001600160a01b0392909216919091179055565b6000868152600f60205260409020600201546001600160a01b031633146111205760405162461bcd60e51b8152600401610b8f90613c5c565b808061112d5750600c5434145b6111495760405162461bcd60e51b8152600401610b8f90613ca6565b6000868152600f6020526040902060058101805460038301889055600183018054336001600160a01b03199182161790915560028401805430921691909117905560049092018690556cff00000000000000000000ffff1990911661ff0019851515908116919091176101008515159081029190911761ffff60501b1916600160501b9290920260ff60581b191691909117600160581b91909102176dff000000ffffffffffffffff000019169055611202600a61287e565b61120d3330886128d5565b505050505050565b6060600061122260095490565b905060008060005b838110156112855733600f6000611242846001613c13565b81526020810191909152604001600020600201546001600160a01b0316141561127357611270600184613c13565b92505b8061127d81613c41565b91505061122a565b506000826001600160401b038111156112a0576112a0613899565b6040519080825280602002602001820160405280156112d957816020015b6112c66133fc565b8152602001906001900390816112be5790505b50905060005b848110156110a65733600f60006112f7846001613c13565b81526020810191909152604001600020600201546001600160a01b0316141561142a576000611327826001613c13565b6000818152600f60209081526040918290208251610180810184528154815260018201546001600160a01b03908116938201939093526002820154909216928201929092526003820154606082015260048201546080820152600582015460ff808216151560a08401526101008083048216151560c08501526001600160401b036201000084041660e0850152600160501b83048216151590840152600160581b820481161515610120840152600160601b820481161515610140840152600160681b9091041615156101608201528551929350909185908790811061140f5761140f613c2b565b6020908102919091010152611425600186613c13565b945050505b8061143481613c41565b9150506112df565b6114463382612a7c565b6114625760405162461bcd60e51b8152600401610b8f90613cea565b610cc58383836128d5565b600754604051632944908560e01b8152600481018490526024810183905260009182916001600160a01b0390911690632944908590604401604080518083038186803b1580156114bc57600080fd5b505afa1580156114d0573d6000803e3d6000fd5b505050506040513d601f19601f820116820180604052508101906114f49190613d3b565b915091505b9250929050565b600d546001600160a01b0316331461155a5760405162461bcd60e51b815260206004820152601760248201527f4f6e6c79206f776e65722063616e2077697468647261770000000000000000006044820152606401610b8f565b6040514790339082156108fc029083906000818181858888f19350505050158015611589573d6000803e3d6000fd5b5050565b610cc583838360405180602001604052806000815250611e1d565b6007546040516344e87f9160e01b815260048101849052602481018390526000916001600160a01b0316906344e87f919060440160206040518083038186803b1580156115f457600080fd5b505afa158015611608573d6000803e3d6000fd5b505050506040513d601f19601f8201168201806040525081019061162c9190613d69565b9392505050565b60006116418284018461359a565b6000818152600f602052604090206005810154919250906201000090046001600160401b031642106116765761167682612b73565b50505050565b6000828152600f60205260409020600101546001600160a01b031633146116b55760405162461bcd60e51b8152600401610b8f90613c5c565b6000918252600f602052604090912060040155565b6000818152600260205260408120546001600160a01b031680610a825760405162461bcd60e51b815260206004820152602960248201527f4552433732313a206f776e657220717565727920666f72206e6f6e657869737460448201526832b73a103a37b5b2b760b91b6064820152608401610b8f565b6060600080600061175286866121ca565b915091508161177957600060405180602001604052806000815250909350935050506114f9565b6117838682612091565b925061178f8684611fce565b935050509250929050565b606060006117a760095490565b9050600080826001600160401b038111156117c4576117c4613899565b6040519080825280602002602001820160405280156117ed578160200160208202803683370190505b50905060005b83811015611861573361180a6107cc836001613c13565b6001600160a01b0316141561184f57611824816001613c13565b82848151811061183657611836613c2b565b602090810291909101015261184c600184613c13565b92505b8061185981613c41565b9150506117f3565b506000826001600160401b0381111561187c5761187c613899565b6040519080825280602002602001820160405280156118b557816020015b6118a26133fc565b81526020019060019003908161189a5790505b50905060005b838110156110a65760008382815181106118d7576118d7613c2b565b6020908102919091018101516000818152600f83526040908190208151610180810183528154815260018201546001600160a01b03908116958201959095526002820154909416918401919091526003810154606084015260048101546080840152600581015460ff808216151560a08601526101008083048216151560c08701526001600160401b036201000084041660e0870152600160501b83048216151590860152600160581b820481161515610120860152600160601b820481161515610140860152600160681b909104161515610160840152855191935091908590859081106119c8576119c8613c2b565b6020026020010181905250505080806119e090613c41565b9150506118bb565b600b6020526000908152604090208054611a0190613bb1565b80601f0160208091040260200160405190810160405280929190818152602001828054611a2d90613bb1565b8015611a7a5780601f10611a4f57610100808354040283529160200191611a7a565b820191906000526020600020905b815481529060010190602001808311611a5d57829003601f168201915b505050505081565b8080611a8f5750600c5434145b611aab5760405162461bcd60e51b8152600401610b8f90613ca6565b611ab9600980546001019055565b6000611ac460095490565b9050611ad03382612c94565b6000818152600b602090815260409091208851611aef928a0190613460565b50611afd8187878787612de2565b50505050505050565b6000606060005b601054811015611bab57600060108281548110611b2c57611b2c613c2b565b6000918252602080832090910154808352600f90915260409091206005810154919250906001600160401b0362010000909104164210611b9657600182604051602001611b7b91815260200190565b604051602081830303815290604052945094505050506114f9565b50508080611ba390613c41565b915050611b0d565b50506040805160208101909152600080825291509250929050565b60006001600160a01b038216611c315760405162461bcd60e51b815260206004820152602a60248201527f4552433732313a2062616c616e636520717565727920666f7220746865207a65604482015269726f206164647265737360b01b6064820152608401610b8f565b506001600160a01b031660009081526003602052604090205490565b6007546040516377b03e0d60e01b8152600481018390526000916001600160a01b0316906377b03e0d9060240160206040518083038186803b158015611c9257600080fd5b505afa158015611ca6573d6000803e3d6000fd5b505050506040513d601f19601f82011682018060405250810190610a829190613d86565b6000828152600f60205260409020600101546001600160a01b03163314611d035760405162461bcd60e51b8152600401610b8f90613c5c565b6000918252600f602052604090912060030155565b6000610a8282611f7f565b606060018054610a9790613bb1565b61158933838361310b565b60075460405163a792765f60e01b815260048101849052602481018390526060916000916001600160a01b039091169063a792765f9060440160006040518083038186803b158015611d8e57600080fd5b505afa158015611da2573d6000803e3d6000fd5b505050506040513d6000823e601f3d908101601f19168201604052611dca9190810190613de4565b90969095509350505050565b600d546001600160a01b03163314611e185760405162461bcd60e51b815260206004820152600560248201526437bbb732b960d91b6044820152606401610b8f565b600c55565b611e273383612a7c565b611e435760405162461bcd60e51b8152600401610b8f90613cea565b611676848484846131db565b6000818152600f6020526040902060038101546001909101546001600160a01b031634821115611ee75760405162461bcd60e51b815260206004820152603d60248201527f506c6561736520706179207468652061736b696e6720707269636520696e206f60448201527f7264657220746f20636f6d706c657465207468652070757263686173650000006064820152608401610b8f565b6000838152600f602052604090206002810180546001600160a01b031990811633179091556005820180546001909301805490921690915561ffff60581b19909116600160601b179055611f3f600a80546001019055565b611f4a3033856128d5565b6040516001600160a01b038216903480156108fc02916000818181858888f19350505050158015611676573d6000803e3d6000fd5b60008181526006602052604081205442600160a01b9091046001600160401b031610611fc157506000908152600660205260409020546001600160a01b031690565b506000919050565b919050565b60075460405163c5958af960e01b815260048101849052602481018390526060916001600160a01b03169063c5958af99060440160006040518083038186803b15801561201a57600080fd5b505afa15801561202e573d6000803e3d6000fd5b505050506040513d6000823e601f3d908101601f1916820160405261162c9190810190613e3d565b6060600b600083815260200190815260200160002060405160200161207b9190613e71565b6040516020818303038152906040529050919050565b60075460405163ce5e11bf60e01b815260048101849052602481018390526000916001600160a01b03169063ce5e11bf9060440160206040518083038186803b1580156120dd57600080fd5b505afa1580156120f1573d6000803e3d6000fd5b505050506040513d601f19601f8201168201806040525081019061162c9190613d86565b61211f3384612a7c565b61213b5760405162461bcd60e51b8152600401610b8f90613cea565b610cc58383836127fe565b60075460405163703e2a4360e11b815260048101849052602481018390526000916001600160a01b03169063e07c54869060440160206040518083038186803b15801561219257600080fd5b505afa1580156121a6573d6000803e3d6000fd5b505050506040513d601f19601f8201168201806040525081019061162c9190613f0d565b60008060006121d885611c4d565b9050806121ec5760008092509250506114f9565b806121f681613f2a565b915060019050600080838161220b8a83612091565b905088811161222657600080975097505050505050506114f9565b6122308a84612091565b90508881111561223f57600094505b84156122ef5760026122518484613c13565b61225b9190613f41565b93506122678a85612091565b9050888111156122a85760006122828b61082c600188613bfc565b905089811161229457600095506122a2565b61229f600186613bfc565b92505b5061223f565b60006122b98b61082c876001613c13565b9050898111156122dc5760009550846122d181613c41565b9550508091506122a2565b6122e7856001613c13565b93505061223f565b6122f98a826115a8565b61230f57600184975097505050505050506114f9565b6123198a826115a8565b801561232457508584105b15612347578361233381613c41565b9450506123408a85612091565b905061230f565b858414801561235b575061235b8a826115a8565b1561237257600080975097505050505050506114f9565b600184975097505050505050506114f9565b6008546040516387a475fd60e01b8152600481018390526000918291829182916001600160a01b03909116906387a475fd9060240160206040518083038186803b1580156123d157600080fd5b505afa1580156123e5573d6000803e3d6000fd5b505050506040513d601f19601f820116820180604052508101906124099190613d86565b9050606061241c8261074f426001613c13565b945090508361243857600080610194945094509450505061244d565b60006124438261320e565b955060c893505050505b9193909250565b606080600080612468886109ef888a613bfc565b91509150816124b957604080516000808252602082019092529061249c565b60608152602001906001900390816124875790505b506040805160008152602081019091529094509250612737915050565b60006124c5898961146d565b9093509050826125185760408051600080825260208201909252906124fa565b60608152602001906001900390816124e55790505b50604080516000815260208101909152909550935061273792505050565b6000806000886001600160401b0381111561253557612535613899565b60405190808252806020026020018201604052801561255e578160200160208202803683370190505b5090505b888310801561258557508482612579866001613c13565b6125839190613bfc565b115b156125e957600061259a8d61082c8588613bfc565b90506125a68d826115a8565b6125d657808285815181106125bd576125bd613c2b565b6020908102919091010152836125d281613c41565b9450505b826125e081613c41565b93505050612562565b6000836001600160401b0381111561260357612603613899565b60405190808252806020026020018201604052801561263657816020015b60608152602001906001900390816126215790505b5090506000846001600160401b0381111561265357612653613899565b60405190808252806020026020018201604052801561267c578160200160208202803683370190505b50905060005b8581101561272a578381612697600189613bfc565b6126a19190613bfc565b815181106126b1576126b1613c2b565b60200260200101518282815181106126cb576126cb613c2b565b6020026020010181815250506126fa8f8383815181106126ed576126ed613c2b565b6020026020010151611fce565b83828151811061270c5761270c613c2b565b6020026020010181905250808061272290613c41565b915050612682565b5090985096505050505050505b94509492505050565b60006001600160e01b031982166380ac58cd60e01b148061277157506001600160e01b03198216635b5e139f60e01b145b80610a8257506301ffc9a760e01b6001600160e01b0319831614610a82565b600081815260046020526040902080546001600160a01b0319166001600160a01b03841690811790915581906127c5826116ca565b6001600160a01b03167f8c5be1e5ebec7d5bd14f71427d1e84f3dd0314c0f7b2291e5b200ac8c7c3b92560405160405180910390a45050565b60008381526006602090815260409182902080546001600160a01b0386166001600160e01b03199091168117600160a01b6001600160401b03871690810291909117835593519384529092909186917f4e06b4e7000e659094299b3533b47b6aa8ad048e95e872d23d1f4ee55af89cfe910160405180910390a350505050565b8054806128cd5760405162461bcd60e51b815260206004820152601b60248201527f436f756e7465723a2064656372656d656e74206f766572666c6f7700000000006044820152606401610b8f565b600019019055565b826001600160a01b03166128e8826116ca565b6001600160a01b03161461294c5760405162461bcd60e51b815260206004820152602560248201527f4552433732313a207472616e736665722066726f6d20696e636f72726563742060448201526437bbb732b960d91b6064820152608401610b8f565b6001600160a01b0382166129ae5760405162461bcd60e51b8152602060048201526024808201527f4552433732313a207472616e7366657220746f20746865207a65726f206164646044820152637265737360e01b6064820152608401610b8f565b6129b9838383613265565b6129c4600082612790565b6001600160a01b03831660009081526003602052604081208054600192906129ed908490613bfc565b90915550506001600160a01b0382166000908152600360205260408120805460019290612a1b908490613c13565b909155505060008181526002602052604080822080546001600160a01b0319166001600160a01b0386811691821790925591518493918716917fddf252ad1be2c89b69c2b068fc378daa952ba7f163c4a11628f55a4df523b3ef91a4505050565b6000818152600260205260408120546001600160a01b0316612af55760405162461bcd60e51b815260206004820152602c60248201527f4552433732313a206f70657261746f7220717565727920666f72206e6f6e657860448201526b34b9ba32b73a103a37b5b2b760a11b6064820152608401610b8f565b6000612b00836116ca565b9050806001600160a01b0316846001600160a01b03161480612b3b5750836001600160a01b0316612b3084610b1a565b6001600160a01b0316145b80612b6b57506001600160a01b0380821660009081526005602090815260408083209388168352929052205460ff165b949350505050565b6000818152600f6020526040812060058101805461010060ff8083161515600160501b0263ff0000ff60501b198416811792909204161515600160581b0260ff60581b1990911663ff00ffff60501b199092169190911717905590612bda908390806127fe565b60005b601054811015610cc5578260108281548110612bfb57612bfb613c2b565b90600052602060002001541415612c825760108054612c1c90600190613bfc565b81548110612c2c57612c2c613c2b565b906000526020600020015460108281548110612c4a57612c4a613c2b565b6000918252602090912001556010805480612c6757612c67613f63565b60019003818190600052602060002001600090559055505050565b80612c8c81613c41565b915050612bdd565b6001600160a01b038216612cea5760405162461bcd60e51b815260206004820181905260248201527f4552433732313a206d696e7420746f20746865207a65726f20616464726573736044820152606401610b8f565b6000818152600260205260409020546001600160a01b031615612d4f5760405162461bcd60e51b815260206004820152601c60248201527f4552433732313a20746f6b656e20616c7265616479206d696e746564000000006044820152606401610b8f565b612d5b60008383613265565b6001600160a01b0382166000908152600360205260408120805460019290612d84908490613c13565b909155505060008181526002602052604080822080546001600160a01b0319166001600160a01b03861690811790915590518392907fddf252ad1be2c89b69c2b068fc378daa952ba7f163c4a11628f55a4df523b3ef908290a45050565b811580612def5750600084115b612e2c5760405162461bcd60e51b815260206004820152600e60248201526d1c1c9a58d9481c995c5d5a5c995960921b6044820152606401610b8f565b801580612e395750600083115b612e7b5760405162461bcd60e51b81526020600482015260136024820152721c995b9d081c1c9a58d9481c995c5d5a5c9959606a1b6044820152606401610b8f565b604051806101800160405280868152602001336001600160a01b03168152602001306001600160a01b031681526020018581526020018481526020018215158152602001831515815260200160006001600160401b031681526020018215158152602001831515815260200160001515815260200160001515815250600f60008781526020019081526020016000206000820151816000015560208201518160010160006101000a8154816001600160a01b0302191690836001600160a01b0316021790555060408201518160020160006101000a8154816001600160a01b0302191690836001600160a01b03160217905550606082015181600301556080820151816004015560a08201518160050160006101000a81548160ff02191690831515021790555060c08201518160050160016101000a81548160ff02191690831515021790555060e08201518160050160026101000a8154816001600160401b0302191690836001600160401b0316021790555061010082015181600501600a6101000a81548160ff02191690831515021790555061012082015181600501600b6101000a81548160ff02191690831515021790555061014082015181600501600c6101000a81548160ff02191690831515021790555061016082015181600501600d6101000a81548160ff0219169083151502179055509050506130813330876128d5565b60408051338152306020820152908101859052606081018490528115156080820181905283151560a08301819052600060c0840181905260e0840192909252610100830152610120820181905261014082015285907f492deeedddcf20d370b3e1bfd0cb18f72d909aedbaf5c6b6b196848bb234660d906101600160405180910390a25050505050565b816001600160a01b0316836001600160a01b0316141561316d5760405162461bcd60e51b815260206004820152601960248201527f4552433732313a20617070726f766520746f2063616c6c6572000000000000006044820152606401610b8f565b6001600160a01b03838116600081815260056020908152604080832094871680845294825291829020805460ff191686151590811790915591519182527f17307eab39ab6107e8899845ad3d59bd9653f200f220920489ca2b5937696c3191015b60405180910390a3505050565b6131e68484846128d5565b6131f2848484846132ef565b6116765760405162461bcd60e51b8152600401610b8f90613f79565b6000805b825181101561325f5782818151811061322d5761322d613c2b565b016020015160f81c61324183610100613fcb565b61324b9190613c13565b91508061325781613c41565b915050613212565b50919050565b816001600160a01b0316836001600160a01b03161415801561329d57506000818152600660205260409020546001600160a01b031615155b15610cc557600081815260066020908152604080832080546001600160e01b03191690555182815283917f4e06b4e7000e659094299b3533b47b6aa8ad048e95e872d23d1f4ee55af89cfe91016131ce565b60006001600160a01b0384163b156133f157604051630a85bd0160e11b81526001600160a01b0385169063150b7a0290613333903390899088908890600401613fea565b602060405180830381600087803b15801561334d57600080fd5b505af192505050801561337d575060408051601f3d908101601f1916820190925261337a91810190614027565b60015b6133d7573d8080156133ab576040519150601f19603f3d011682016040523d82523d6000602084013e6133b0565b606091505b5080516133cf5760405162461bcd60e51b8152600401610b8f90613f79565b805181602001fd5b6001600160e01b031916630a85bd0160e11b149050612b6b565b506001949350505050565b6040805161018081018252600080825260208201819052918101829052606081018290526080810182905260a0810182905260c0810182905260e0810182905261010081018290526101208101829052610140810182905261016081019190915290565b82805461346c90613bb1565b90600052602060002090601f01602090048101928261348e57600085556134d4565b82601f106134a757805160ff19168380011785556134d4565b828001600101855582156134d4579182015b828111156134d45782518255916020019190600101906134b9565b506134e09291506134e4565b5090565b5b808211156134e057600081556001016134e5565b6001600160e01b03198116811461350f57600080fd5b50565b60006020828403121561352457600080fd5b813561162c816134f9565b60005b8381101561354a578181015183820152602001613532565b838111156116765750506000910152565b6000815180845261357381602086016020860161352f565b601f01601f19169290920160200192915050565b60208152600061162c602083018461355b565b6000602082840312156135ac57600080fd5b5035919050565b6001600160a01b038116811461350f57600080fd5b600080604083850312156135db57600080fd5b82356135e6816135b3565b946020939093013593505050565b80356001600160401b0381168114611fc957600080fd5b6000806040838503121561361e57600080fd5b8235915061362e602084016135f4565b90509250929050565b602080825282518282018190526000919060409081850190868401855b8281101561370457815180518552868101516001600160a01b0390811688870152868201511686860152606080820151908601526080808201519086015260a08082015115159086015260c08082015115159086015260e0808201516001600160401b031690860152610100808201511515908601526101208082015115159086015261014080820151151590860152610160908101511515908501526101809093019290850190600101613654565b5091979650505050505050565b60006020828403121561372357600080fd5b813561162c816135b3565b801515811461350f57600080fd5b60008060008060008060c0878903121561375557600080fd5b86359550602087013594506040870135935060608701356137758161372e565b925060808701356137858161372e565b915060a08701356137958161372e565b809150509295509295509295565b6000806000606084860312156137b857600080fd5b83356137c3816135b3565b925060208401356137d3816135b3565b929592945050506040919091013590565b600080604083850312156137f757600080fd5b50508035926020909101359150565b6000806020838503121561381957600080fd5b82356001600160401b038082111561383057600080fd5b818501915085601f83011261384457600080fd5b81358181111561385357600080fd5b86602082850101111561386557600080fd5b60209290920196919550909350505050565b60408152600061388a604083018561355b565b90508260208301529392505050565b634e487b7160e01b600052604160045260246000fd5b604051601f8201601f191681016001600160401b03811182821017156138d7576138d7613899565b604052919050565b60006001600160401b038211156138f8576138f8613899565b50601f01601f191660200190565b6000613919613914846138df565b6138af565b905082815283838301111561392d57600080fd5b828260208301376000602084830101529392505050565b60008060008060008060c0878903121561395d57600080fd5b86356001600160401b0381111561397357600080fd5b8701601f8101891361398457600080fd5b61399389823560208401613906565b965050602087013594506040870135935060608701356137758161372e565b8215158152604060208201526000612b6b604083018461355b565b600080604083850312156139e057600080fd5b82356139eb816135b3565b915060208301356139fb8161372e565b809150509250929050565b60008060008060808587031215613a1c57600080fd5b8435613a27816135b3565b93506020850135613a37816135b3565b92506040850135915060608501356001600160401b03811115613a5957600080fd5b8501601f81018713613a6a57600080fd5b613a7987823560208401613906565b91505092959194509250565b600080600060608486031215613a9a57600080fd5b833592506020840135613aac816135b3565b9150613aba604085016135f4565b90509250925092565b60008060408385031215613ad657600080fd5b8235613ae1816135b3565b915060208301356139fb816135b3565b60008060008060808587031215613b0757600080fd5b5050823594602084013594506040840135936060013592509050565b6000604082016040835280855180835260608501915060608160051b8601019250602080880160005b83811015613b7a57605f19888703018552613b6886835161355b565b95509382019390820190600101613b4c565b50508584038187015286518085528782019482019350915060005b8281101561370457845184529381019392810192600101613b95565b600181811c90821680613bc557607f821691505b6020821081141561325f57634e487b7160e01b600052602260045260246000fd5b634e487b7160e01b600052601160045260246000fd5b600082821015613c0e57613c0e613be6565b500390565b60008219821115613c2657613c26613be6565b500190565b634e487b7160e01b600052603260045260246000fd5b6000600019821415613c5557613c55613be6565b5060010190565b6020808252602a908201527f4f6e6c79206974656d206f776e65722063616e20706572666f726d20746869736040820152691037b832b930ba34b7b760b11b606082015260800190565b60208082526024908201527f5072696365206d75737420626520657175616c20746f206c697374696e6720706040820152637269636560e01b606082015260800190565b60208082526031908201527f4552433732313a207472616e736665722063616c6c6572206973206e6f74206f6040820152701ddb995c881b9bdc88185c1c1c9bdd9959607a1b606082015260800190565b60008060408385031215613d4e57600080fd5b8251613d598161372e565b6020939093015192949293505050565b600060208284031215613d7b57600080fd5b815161162c8161372e565b600060208284031215613d9857600080fd5b5051919050565b600082601f830112613db057600080fd5b8151613dbe613914826138df565b818152846020838601011115613dd357600080fd5b612b6b82602083016020870161352f565b600080600060608486031215613df957600080fd5b8351613e048161372e565b60208501519093506001600160401b03811115613e2057600080fd5b613e2c86828701613d9f565b925050604084015190509250925092565b600060208284031215613e4f57600080fd5b81516001600160401b03811115613e6557600080fd5b612b6b84828501613d9f565b600080835481600182811c915080831680613e8d57607f831692505b6020808410821415613ead57634e487b7160e01b86526022600452602486fd5b818015613ec15760018114613ed257613eff565b60ff19861689528489019650613eff565b60008a81526020902060005b86811015613ef75781548b820152908501908301613ede565b505084890196505b509498975050505050505050565b600060208284031215613f1f57600080fd5b815161162c816135b3565b600081613f3957613f39613be6565b506000190190565b600082613f5e57634e487b7160e01b600052601260045260246000fd5b500490565b634e487b7160e01b600052603160045260246000fd5b60208082526032908201527f4552433732313a207472616e7366657220746f206e6f6e20455243373231526560408201527131b2b4bb32b91034b6b83632b6b2b73a32b960711b606082015260800190565b6000816000190483118215151615613fe557613fe5613be6565b500290565b6001600160a01b038581168252841660208201526040810183905260806060820181905260009061401d9083018461355b565b9695505050505050565b60006020828403121561403957600080fd5b815161162c816134f956fea2646970667358221220eec151eedf5cdc334f21d2eca2afc8dd84f6d315c6c10503b02da2407f86eb7364736f6c63430008090033",
  "linkReferences": {},
  "deployedLinkReferences": {}
}