{
  "_format": "hh-sol-artifact-1",
  "contractName": "RentableNFTMarketplace",
  "sourceName": "contracts/RentableNFTMarketplace.sol",
  "abi": [
    {
      "inputs": [],
      "stateMutability": "nonpayable",
      "type": "constructor"
    },
    {
      "anonymous": false,
      "inputs": [
        {
          "indexed": true,
          "internalType": "address",
          "name": "owner",
          "type": "address"
        },
        {
          "indexed": true,
          "internalType": "address",
          "name": "approved",
          "type": "address"
        },
        {
          "indexed": true,
          "internalType": "uint256",
          "name": "tokenId",
          "type": "uint256"
        }
      ],
      "name": "Approval",
      "type": "event"
    },
    {
      "anonymous": false,
      "inputs": [
        {
          "indexed": true,
          "internalType": "address",
          "name": "owner",
          "type": "address"
        },
        {
          "indexed": true,
          "internalType": "address",
          "name": "operator",
          "type": "address"
        },
        {
          "indexed": false,
          "internalType": "bool",
          "name": "approved",
          "type": "bool"
        }
      ],
      "name": "ApprovalForAll",
      "type": "event"
    },
    {
      "anonymous": false,
      "inputs": [
        {
          "indexed": true,
          "internalType": "uint256",
          "name": "tokenId",
          "type": "uint256"
        },
        {
          "indexed": false,
          "internalType": "address",
          "name": "seller",
          "type": "address"
        },
        {
          "indexed": false,
          "internalType": "address",
          "name": "owner",
          "type": "address"
        },
        {
          "indexed": false,
          "internalType": "uint256",
          "name": "price",
          "type": "uint256"
        },
        {
          "indexed": false,
          "internalType": "uint256",
          "name": "rentPrice",
          "type": "uint256"
        },
        {
          "indexed": false,
          "internalType": "bool",
          "name": "originalForRent",
          "type": "bool"
        },
        {
          "indexed": false,
          "internalType": "bool",
          "name": "originalForSale",
          "type": "bool"
        },
        {
          "indexed": false,
          "internalType": "uint64",
          "name": "expires",
          "type": "uint64"
        },
        {
          "indexed": false,
          "internalType": "bool",
          "name": "forRent",
          "type": "bool"
        },
        {
          "indexed": false,
          "internalType": "bool",
          "name": "forSale",
          "type": "bool"
        },
        {
          "indexed": false,
          "internalType": "bool",
          "name": "sold",
          "type": "bool"
        },
        {
          "indexed": false,
          "internalType": "bool",
          "name": "rented",
          "type": "bool"
        }
      ],
      "name": "MarketItemCreated",
      "type": "event"
    },
    {
      "anonymous": false,
      "inputs": [
        {
          "indexed": true,
          "internalType": "address",
          "name": "from",
          "type": "address"
        },
        {
          "indexed": true,
          "internalType": "address",
          "name": "to",
          "type": "address"
        },
        {
          "indexed": true,
          "internalType": "uint256",
          "name": "tokenId",
          "type": "uint256"
        }
      ],
      "name": "Transfer",
      "type": "event"
    },
    {
      "anonymous": false,
      "inputs": [
        {
          "indexed": true,
          "internalType": "uint256",
          "name": "tokenId",
          "type": "uint256"
        },
        {
          "indexed": true,
          "internalType": "address",
          "name": "user",
          "type": "address"
        },
        {
          "indexed": false,
          "internalType": "uint64",
          "name": "expires",
          "type": "uint64"
        }
      ],
      "name": "UpdateUser",
      "type": "event"
    },
    {
      "inputs": [],
      "name": "_itemsSold",
      "outputs": [
        {
          "internalType": "uint256",
          "name": "_value",
          "type": "uint256"
        }
      ],
      "stateMutability": "view",
      "type": "function"
    },
    {
      "inputs": [],
      "name": "_tokenIds",
      "outputs": [
        {
          "internalType": "uint256",
          "name": "_value",
          "type": "uint256"
        }
      ],
      "stateMutability": "view",
      "type": "function"
    },
    {
      "inputs": [
        {
          "internalType": "address",
          "name": "to",
          "type": "address"
        },
        {
          "internalType": "uint256",
          "name": "tokenId",
          "type": "uint256"
        }
      ],
      "name": "approve",
      "outputs": [],
      "stateMutability": "nonpayable",
      "type": "function"
    },
    {
      "inputs": [
        {
          "internalType": "address",
          "name": "owner",
          "type": "address"
        }
      ],
      "name": "balanceOf",
      "outputs": [
        {
          "internalType": "uint256",
          "name": "",
          "type": "uint256"
        }
      ],
      "stateMutability": "view",
      "type": "function"
    },
    {
      "inputs": [
        {
          "internalType": "uint256",
          "name": "_tokenId",
          "type": "uint256"
        }
      ],
      "name": "checkExpiryAndResetState",
      "outputs": [],
      "stateMutability": "nonpayable",
      "type": "function"
    },
    {
      "inputs": [
        {
          "internalType": "uint256",
          "name": "tokenId",
          "type": "uint256"
        }
      ],
      "name": "createMarketSale",
      "outputs": [],
      "stateMutability": "payable",
      "type": "function"
    },
    {
      "inputs": [
        {
          "internalType": "string",
          "name": "_tokenURI",
          "type": "string"
        },
        {
          "internalType": "uint256",
          "name": "price",
          "type": "uint256"
        },
        {
          "internalType": "uint256",
          "name": "rent_price",
          "type": "uint256"
        },
        {
          "internalType": "bool",
          "name": "forSale",
          "type": "bool"
        },
        {
          "internalType": "bool",
          "name": "forRent",
          "type": "bool"
        },
        {
          "internalType": "bool",
          "name": "member",
          "type": "bool"
        }
      ],
      "name": "createToken",
      "outputs": [],
      "stateMutability": "payable",
      "type": "function"
    },
    {
      "inputs": [],
      "name": "fetchMarketItems",
      "outputs": [
        {
          "components": [
            {
              "internalType": "uint256",
              "name": "tokenId",
              "type": "uint256"
            },
            {
              "internalType": "address payable",
              "name": "seller",
              "type": "address"
            },
            {
              "internalType": "address payable",
              "name": "owner",
              "type": "address"
            },
            {
              "internalType": "uint256",
              "name": "price",
              "type": "uint256"
            },
            {
              "internalType": "uint256",
              "name": "rentPrice",
              "type": "uint256"
            },
            {
              "internalType": "bool",
              "name": "originalForRent",
              "type": "bool"
            },
            {
              "internalType": "bool",
              "name": "originalForSale",
              "type": "bool"
            },
            {
              "internalType": "uint64",
              "name": "expires",
              "type": "uint64"
            },
            {
              "internalType": "bool",
              "name": "forRent",
              "type": "bool"
            },
            {
              "internalType": "bool",
              "name": "forSale",
              "type": "bool"
            },
            {
              "internalType": "bool",
              "name": "sold",
              "type": "bool"
            },
            {
              "internalType": "bool",
              "name": "rented",
              "type": "bool"
            }
          ],
          "internalType": "struct RentableNFTMarketplace.MarketItem[]",
          "name": "",
          "type": "tuple[]"
        }
      ],
      "stateMutability": "view",
      "type": "function"
    },
    {
      "inputs": [],
      "name": "fetchMyNFTs",
      "outputs": [
        {
          "components": [
            {
              "internalType": "uint256",
              "name": "tokenId",
              "type": "uint256"
            },
            {
              "internalType": "address payable",
              "name": "seller",
              "type": "address"
            },
            {
              "internalType": "address payable",
              "name": "owner",
              "type": "address"
            },
            {
              "internalType": "uint256",
              "name": "price",
              "type": "uint256"
            },
            {
              "internalType": "uint256",
              "name": "rentPrice",
              "type": "uint256"
            },
            {
              "internalType": "bool",
              "name": "originalForRent",
              "type": "bool"
            },
            {
              "internalType": "bool",
              "name": "originalForSale",
              "type": "bool"
            },
            {
              "internalType": "uint64",
              "name": "expires",
              "type": "uint64"
            },
            {
              "internalType": "bool",
              "name": "forRent",
              "type": "bool"
            },
            {
              "internalType": "bool",
              "name": "forSale",
              "type": "bool"
            },
            {
              "internalType": "bool",
              "name": "sold",
              "type": "bool"
            },
            {
              "internalType": "bool",
              "name": "rented",
              "type": "bool"
            }
          ],
          "internalType": "struct RentableNFTMarketplace.MarketItem[]",
          "name": "",
          "type": "tuple[]"
        }
      ],
      "stateMutability": "view",
      "type": "function"
    },
    {
      "inputs": [],
      "name": "fetchMyRentedNFTs",
      "outputs": [
        {
          "components": [
            {
              "internalType": "uint256",
              "name": "tokenId",
              "type": "uint256"
            },
            {
              "internalType": "address payable",
              "name": "seller",
              "type": "address"
            },
            {
              "internalType": "address payable",
              "name": "owner",
              "type": "address"
            },
            {
              "internalType": "uint256",
              "name": "price",
              "type": "uint256"
            },
            {
              "internalType": "uint256",
              "name": "rentPrice",
              "type": "uint256"
            },
            {
              "internalType": "bool",
              "name": "originalForRent",
              "type": "bool"
            },
            {
              "internalType": "bool",
              "name": "originalForSale",
              "type": "bool"
            },
            {
              "internalType": "uint64",
              "name": "expires",
              "type": "uint64"
            },
            {
              "internalType": "bool",
              "name": "forRent",
              "type": "bool"
            },
            {
              "internalType": "bool",
              "name": "forSale",
              "type": "bool"
            },
            {
              "internalType": "bool",
              "name": "sold",
              "type": "bool"
            },
            {
              "internalType": "bool",
              "name": "rented",
              "type": "bool"
            }
          ],
          "internalType": "struct RentableNFTMarketplace.MarketItem[]",
          "name": "",
          "type": "tuple[]"
        }
      ],
      "stateMutability": "view",
      "type": "function"
    },
    {
      "inputs": [
        {
          "internalType": "uint256",
          "name": "tokenId",
          "type": "uint256"
        }
      ],
      "name": "getApproved",
      "outputs": [
        {
          "internalType": "address",
          "name": "",
          "type": "address"
        }
      ],
      "stateMutability": "view",
      "type": "function"
    },
    {
      "inputs": [
        {
          "internalType": "bytes32",
          "name": "_queryId",
          "type": "bytes32"
        },
        {
          "internalType": "uint256",
          "name": "_timestamp",
          "type": "uint256"
        }
      ],
      "name": "getDataAfter",
      "outputs": [
        {
          "internalType": "bytes",
          "name": "_value",
          "type": "bytes"
        },
        {
          "internalType": "uint256",
          "name": "_timestampRetrieved",
          "type": "uint256"
        }
      ],
      "stateMutability": "view",
      "type": "function"
    },
    {
      "inputs": [
        {
          "internalType": "bytes32",
          "name": "_queryId",
          "type": "bytes32"
        },
        {
          "internalType": "uint256",
          "name": "_timestamp",
          "type": "uint256"
        }
      ],
      "name": "getDataBefore",
      "outputs": [
        {
          "internalType": "bytes",
          "name": "_value",
          "type": "bytes"
        },
        {
          "internalType": "uint256",
          "name": "_timestampRetrieved",
          "type": "uint256"
        }
      ],
      "stateMutability": "view",
      "type": "function"
    },
    {
      "inputs": [
        {
          "internalType": "bytes32",
          "name": "_queryId",
          "type": "bytes32"
        },
        {
          "internalType": "uint256",
          "name": "_timestamp",
          "type": "uint256"
        }
      ],
      "name": "getIndexForDataAfter",
      "outputs": [
        {
          "internalType": "bool",
          "name": "_found",
          "type": "bool"
        },
        {
          "internalType": "uint256",
          "name": "_index",
          "type": "uint256"
        }
      ],
      "stateMutability": "view",
      "type": "function"
    },
    {
      "inputs": [
        {
          "internalType": "bytes32",
          "name": "_queryId",
          "type": "bytes32"
        },
        {
          "internalType": "uint256",
          "name": "_timestamp",
          "type": "uint256"
        }
      ],
      "name": "getIndexForDataBefore",
      "outputs": [
        {
          "internalType": "bool",
          "name": "_found",
          "type": "bool"
        },
        {
          "internalType": "uint256",
          "name": "_index",
          "type": "uint256"
        }
      ],
      "stateMutability": "view",
      "type": "function"
    },
    {
      "inputs": [],
      "name": "getListingPrice",
      "outputs": [
        {
          "internalType": "uint256",
          "name": "",
          "type": "uint256"
        }
      ],
      "stateMutability": "view",
      "type": "function"
    },
    {
      "inputs": [
        {
          "internalType": "bytes32",
          "name": "_queryId",
          "type": "bytes32"
        },
        {
          "internalType": "uint256",
          "name": "_timestamp",
          "type": "uint256"
        },
        {
          "internalType": "uint256",
          "name": "_maxAge",
          "type": "uint256"
        },
        {
          "internalType": "uint256",
          "name": "_maxCount",
          "type": "uint256"
        }
      ],
      "name": "getMultipleValuesBefore",
      "outputs": [
        {
          "internalType": "bytes[]",
          "name": "_values",
          "type": "bytes[]"
        },
        {
          "internalType": "uint256[]",
          "name": "_timestamps",
          "type": "uint256[]"
        }
      ],
      "stateMutability": "view",
      "type": "function"
    },
    {
      "inputs": [
        {
          "internalType": "bytes32",
          "name": "_queryId",
          "type": "bytes32"
        }
      ],
      "name": "getNewValueCountbyQueryId",
      "outputs": [
        {
          "internalType": "uint256",
          "name": "",
          "type": "uint256"
        }
      ],
      "stateMutability": "view",
      "type": "function"
    },
    {
      "inputs": [
        {
          "internalType": "bytes32",
          "name": "_queryId",
          "type": "bytes32"
        },
        {
          "internalType": "uint256",
          "name": "_timestamp",
          "type": "uint256"
        }
      ],
      "name": "getReporterByTimestamp",
      "outputs": [
        {
          "internalType": "address",
          "name": "",
          "type": "address"
        }
      ],
      "stateMutability": "view",
      "type": "function"
    },
    {
      "inputs": [
        {
          "internalType": "bytes32",
          "name": "_queryId",
          "type": "bytes32"
        },
        {
          "internalType": "uint256",
          "name": "_index",
          "type": "uint256"
        }
      ],
      "name": "getTimestampbyQueryIdandIndex",
      "outputs": [
        {
          "internalType": "uint256",
          "name": "",
          "type": "uint256"
        }
      ],
      "stateMutability": "view",
      "type": "function"
    },
    {
      "inputs": [],
      "name": "idMappingContract",
      "outputs": [
        {
          "internalType": "contract IMappingContract",
          "name": "",
          "type": "address"
        }
      ],
      "stateMutability": "view",
      "type": "function"
    },
    {
      "inputs": [
        {
          "internalType": "uint256",
          "name": "",
          "type": "uint256"
        }
      ],
      "name": "idToMarketItem",
      "outputs": [
        {
          "internalType": "uint256",
          "name": "tokenId",
          "type": "uint256"
        },
        {
          "internalType": "address payable",
          "name": "seller",
          "type": "address"
        },
        {
          "internalType": "address payable",
          "name": "owner",
          "type": "address"
        },
        {
          "internalType": "uint256",
          "name": "price",
          "type": "uint256"
        },
        {
          "internalType": "uint256",
          "name": "rentPrice",
          "type": "uint256"
        },
        {
          "internalType": "bool",
          "name": "originalForRent",
          "type": "bool"
        },
        {
          "internalType": "bool",
          "name": "originalForSale",
          "type": "bool"
        },
        {
          "internalType": "uint64",
          "name": "expires",
          "type": "uint64"
        },
        {
          "internalType": "bool",
          "name": "forRent",
          "type": "bool"
        },
        {
          "internalType": "bool",
          "name": "forSale",
          "type": "bool"
        },
        {
          "internalType": "bool",
          "name": "sold",
          "type": "bool"
        },
        {
          "internalType": "bool",
          "name": "rented",
          "type": "bool"
        }
      ],
      "stateMutability": "view",
      "type": "function"
    },
    {
      "inputs": [
        {
          "internalType": "address",
          "name": "owner",
          "type": "address"
        },
        {
          "internalType": "address",
          "name": "operator",
          "type": "address"
        }
      ],
      "name": "isApprovedForAll",
      "outputs": [
        {
          "internalType": "bool",
          "name": "",
          "type": "bool"
        }
      ],
      "stateMutability": "view",
      "type": "function"
    },
    {
      "inputs": [
        {
          "internalType": "bytes32",
          "name": "_queryId",
          "type": "bytes32"
        },
        {
          "internalType": "uint256",
          "name": "_timestamp",
          "type": "uint256"
        }
      ],
      "name": "isInDispute",
      "outputs": [
        {
          "internalType": "bool",
          "name": "",
          "type": "bool"
        }
      ],
      "stateMutability": "view",
      "type": "function"
    },
    {
      "inputs": [],
      "name": "name",
      "outputs": [
        {
          "internalType": "string",
          "name": "",
          "type": "string"
        }
      ],
      "stateMutability": "view",
      "type": "function"
    },
    {
      "inputs": [],
      "name": "owner",
      "outputs": [
        {
          "internalType": "address payable",
          "name": "",
          "type": "address"
        }
      ],
      "stateMutability": "view",
      "type": "function"
    },
    {
      "inputs": [
        {
          "internalType": "uint256",
          "name": "tokenId",
          "type": "uint256"
        }
      ],
      "name": "ownerOf",
      "outputs": [
        {
          "internalType": "address",
          "name": "",
          "type": "address"
        }
      ],
      "stateMutability": "view",
      "type": "function"
    },
    {
      "inputs": [
        {
          "internalType": "uint256",
          "name": "_tokenId",
          "type": "uint256"
        },
        {
          "internalType": "uint64",
          "name": "_expires",
          "type": "uint64"
        }
      ],
      "name": "rentOutToken",
      "outputs": [],
      "stateMutability": "payable",
      "type": "function"
    },
    {
      "inputs": [
        {
          "internalType": "uint256",
          "name": "tokenId",
          "type": "uint256"
        },
        {
          "internalType": "uint256",
          "name": "price",
          "type": "uint256"
        },
        {
          "internalType": "uint256",
          "name": "rent_price",
          "type": "uint256"
        },
        {
          "internalType": "bool",
          "name": "forRent",
          "type": "bool"
        },
        {
          "internalType": "bool",
          "name": "forSale",
          "type": "bool"
        },
        {
          "internalType": "bool",
          "name": "member",
          "type": "bool"
        }
      ],
      "name": "resellToken",
      "outputs": [],
      "stateMutability": "payable",
      "type": "function"
    },
    {
      "inputs": [
        {
          "internalType": "bytes32",
          "name": "_queryId",
          "type": "bytes32"
        },
        {
          "internalType": "uint256",
          "name": "_timestamp",
          "type": "uint256"
        }
      ],
      "name": "retrieveData",
      "outputs": [
        {
          "internalType": "bytes",
          "name": "",
          "type": "bytes"
        }
      ],
      "stateMutability": "view",
      "type": "function"
    },
    {
      "inputs": [
        {
          "internalType": "address",
          "name": "from",
          "type": "address"
        },
        {
          "internalType": "address",
          "name": "to",
          "type": "address"
        },
        {
          "internalType": "uint256",
          "name": "tokenId",
          "type": "uint256"
        }
      ],
      "name": "safeTransferFrom",
      "outputs": [],
      "stateMutability": "nonpayable",
      "type": "function"
    },
    {
      "inputs": [
        {
          "internalType": "address",
          "name": "from",
          "type": "address"
        },
        {
          "internalType": "address",
          "name": "to",
          "type": "address"
        },
        {
          "internalType": "uint256",
          "name": "tokenId",
          "type": "uint256"
        },
        {
          "internalType": "bytes",
          "name": "_data",
          "type": "bytes"
        }
      ],
      "name": "safeTransferFrom",
      "outputs": [],
      "stateMutability": "nonpayable",
      "type": "function"
    },
    {
      "inputs": [
        {
          "internalType": "address",
          "name": "operator",
          "type": "address"
        },
        {
          "internalType": "bool",
          "name": "approved",
          "type": "bool"
        }
      ],
      "name": "setApprovalForAll",
      "outputs": [],
      "stateMutability": "nonpayable",
      "type": "function"
    },
    {
      "inputs": [
        {
          "internalType": "address",
          "name": "_addy",
          "type": "address"
        }
      ],
      "name": "setIdMappingContract",
      "outputs": [],
      "stateMutability": "nonpayable",
      "type": "function"
    },
    {
      "inputs": [
        {
          "internalType": "uint256",
          "name": "tokenId",
          "type": "uint256"
        },
        {
          "internalType": "address",
          "name": "user",
          "type": "address"
        },
        {
          "internalType": "uint64",
          "name": "expires",
          "type": "uint64"
        }
      ],
      "name": "setUser",
      "outputs": [],
      "stateMutability": "nonpayable",
      "type": "function"
    },
    {
      "inputs": [
        {
          "internalType": "bytes4",
          "name": "interfaceId",
          "type": "bytes4"
        }
      ],
      "name": "supportsInterface",
      "outputs": [
        {
          "internalType": "bool",
          "name": "",
          "type": "bool"
        }
      ],
      "stateMutability": "view",
      "type": "function"
    },
    {
      "inputs": [],
      "name": "symbol",
      "outputs": [
        {
          "internalType": "string",
          "name": "",
          "type": "string"
        }
      ],
      "stateMutability": "view",
      "type": "function"
    },
    {
      "inputs": [],
      "name": "tellor",
      "outputs": [
        {
          "internalType": "contract ITellor",
          "name": "",
          "type": "address"
        }
      ],
      "stateMutability": "view",
      "type": "function"
    },
    {
      "inputs": [
        {
          "internalType": "uint256",
          "name": "_tokenId",
          "type": "uint256"
        }
      ],
      "name": "tokenURI",
      "outputs": [
        {
          "internalType": "string",
          "name": "",
          "type": "string"
        }
      ],
      "stateMutability": "view",
      "type": "function"
    },
    {
      "inputs": [
        {
          "internalType": "uint256",
          "name": "",
          "type": "uint256"
        }
      ],
      "name": "tokenURIs",
      "outputs": [
        {
          "internalType": "string",
          "name": "",
          "type": "string"
        }
      ],
      "stateMutability": "view",
      "type": "function"
    },
    {
      "inputs": [
        {
          "internalType": "address",
          "name": "from",
          "type": "address"
        },
        {
          "internalType": "address",
          "name": "to",
          "type": "address"
        },
        {
          "internalType": "uint256",
          "name": "tokenId",
          "type": "uint256"
        }
      ],
      "name": "transferFrom",
      "outputs": [],
      "stateMutability": "nonpayable",
      "type": "function"
    },
    {
      "inputs": [
        {
          "internalType": "uint256",
          "name": "_listingPrice",
          "type": "uint256"
        }
      ],
      "name": "updateListingPrice",
      "outputs": [],
      "stateMutability": "payable",
      "type": "function"
    },
    {
      "inputs": [
        {
          "internalType": "uint256",
          "name": "_tokenId",
          "type": "uint256"
        },
        {
          "internalType": "uint256",
          "name": "price",
          "type": "uint256"
        }
      ],
      "name": "updatePrice",
      "outputs": [],
      "stateMutability": "nonpayable",
      "type": "function"
    },
    {
      "inputs": [
        {
          "internalType": "uint256",
          "name": "_tokenId",
          "type": "uint256"
        },
        {
          "internalType": "uint256",
          "name": "rent_price",
          "type": "uint256"
        }
      ],
      "name": "updateRentPrice",
      "outputs": [],
      "stateMutability": "nonpayable",
      "type": "function"
    },
    {
      "inputs": [
        {
          "internalType": "uint256",
          "name": "tokenId",
          "type": "uint256"
        }
      ],
      "name": "userExpires",
      "outputs": [
        {
          "internalType": "uint256",
          "name": "",
          "type": "uint256"
        }
      ],
      "stateMutability": "view",
      "type": "function"
    },
    {
      "inputs": [
        {
          "internalType": "uint256",
          "name": "tokenId",
          "type": "uint256"
        }
      ],
      "name": "userOf",
      "outputs": [
        {
          "internalType": "address",
          "name": "",
          "type": "address"
        }
      ],
      "stateMutability": "view",
      "type": "function"
    },
    {
      "inputs": [
        {
          "internalType": "bytes32",
          "name": "_id",
          "type": "bytes32"
        }
      ],
      "name": "valueFor",
      "outputs": [
        {
          "internalType": "int256",
          "name": "_value",
          "type": "int256"
        },
        {
          "internalType": "uint256",
          "name": "_timestamp",
          "type": "uint256"
        },
        {
          "internalType": "uint256",
          "name": "_statusCode",
          "type": "uint256"
        }
      ],
      "stateMutability": "view",
      "type": "function"
    },
    {
      "inputs": [],
      "name": "withdraw",
      "outputs": [],
      "stateMutability": "nonpayable",
      "type": "function"
    }
  ],
  "bytecode": "0x6080604052670de0b6b3a7640000600c55600e80546001600160a01b03191673840c23e39f9d029ffa888f47069aa6864f0401d71790553480156200004357600080fd5b50600e54604080518082018252600881526752656e7461626c6560c01b602080830191825283518085019094526002845261149560f21b9084015281516001600160a01b039094169391929183918391620000a191600091620000ec565b508051620000b7906001906020840190620000ec565b5050600780546001600160a01b039095166001600160a01b03199586161790555050600d8054909216331790915550620001cf565b828054620000fa9062000192565b90600052602060002090601f0160209004810192826200011e576000855562000169565b82601f106200013957805160ff191683800117855562000169565b8280016001018555821562000169579182015b82811115620001695782518255916020019190600101906200014c565b50620001779291506200017b565b5090565b5b808211156200017757600081556001016200017c565b600181811c90821680620001a757607f821691505b60208210811415620001c957634e487b7160e01b600052602260045260246000fd5b50919050565b6141ff80620001df6000396000f3fe6080604052600436106103135760003560e01c806370a082311161019a578063be9af536116100e1578063e07c54861161008a578063f66f49c311610064578063f66f49c3146109d3578063f78eea83146109f3578063fcd4a54614610a2e57600080fd5b8063e07c54861461084e578063e61a70c01461086e578063e985e9c51461098a57600080fd5b8063c87b56dd116100bb578063c87b56dd146107ee578063ce5e11bf1461080e578063e030565e1461082e57600080fd5b8063be9af5361461079b578063c2f1f14a146107ae578063c5958af9146107ce57600080fd5b806395d89b4111610143578063aa46a4001161011d578063aa46a40014610751578063ae677aa314610768578063b88d4fde1461077b57600080fd5b806395d89b41146106fc578063a22cb46514610711578063a792765f1461073157600080fd5b806387506a0d1161017457806387506a0d146106875780638da5cb5b1461069e5780638fc88c48146106be57600080fd5b806370a082311461062757806377b03e0d1461064757806382367b2d1461066757600080fd5b806323b872dd1161025e5780634feb29821161020757806367ea485c116101e157806367ea485c146105df5780636c8b703f146105f45780636d6567101461061457600080fd5b80634feb2982146105715780636352211e1461059157806364ee3c6d146105b157600080fd5b80633ccfd60b116102385780633ccfd60b1461051c57806342842e0e1461053157806344e87f911461055157600080fd5b806323b872dd146104a557806329449085146104c55780632af8aae0146104fc57600080fd5b806312e85585116102c05780631959ad5b1161029a5780631959ad5b1461045d5780631f76e2421461047d578063202e37401461049057600080fd5b806312e85585146103fe5780631773b0061461041d578063193b505b1461043d57600080fd5b8063095ea7b3116102f1578063095ea7b3146103a757806309a26ba7146103c95780630f08efe0146103dc57600080fd5b806301ffc9a71461031857806306fdde031461034d578063081812fc1461036f575b600080fd5b34801561032457600080fd5b50610338610333366004613863565b610a5c565b60405190151581526020015b60405180910390f35b34801561035957600080fd5b50610362610aa0565b60405161034491906138d8565b34801561037b57600080fd5b5061038f61038a3660046138eb565b610b32565b6040516001600160a01b039091168152602001610344565b3480156103b357600080fd5b506103c76103c2366004613919565b610bcc565b005b6103c76103d736600461395d565b610cfe565b3480156103e857600080fd5b506103f1610eee565b6040516103449190613989565b34801561040a57600080fd5b50600c545b604051908152602001610344565b34801561042957600080fd5b506103c76104383660046138eb565b61112f565b34801561044957600080fd5b506103c7610458366004613a64565b6111e7565b34801561046957600080fd5b5060075461038f906001600160a01b031681565b6103c761048b366004613a8f565b61121f565b34801561049c57600080fd5b506103f16113db565b3480156104b157600080fd5b506103c76104c0366004613af6565b611606565b3480156104d157600080fd5b506104e56104e0366004613b37565b611681565b604080519215158352602083019190915201610344565b34801561050857600080fd5b5060085461038f906001600160a01b031681565b34801561052857600080fd5b506103c761172d565b34801561053d57600080fd5b506103c761054c366004613af6565b6117b6565b34801561055d57600080fd5b5061033861056c366004613b37565b6117d1565b34801561057d57600080fd5b506103c761058c366004613b37565b611875565b34801561059d57600080fd5b5061038f6105ac3660046138eb565b611906565b3480156105bd57600080fd5b506105d16105cc366004613b37565b611991565b604051610344929190613b59565b3480156105eb57600080fd5b506103f16119ea565b34801561060057600080fd5b5061036261060f3660046138eb565b611c91565b6103c7610622366004613c28565b611d2b565b34801561063357600080fd5b5061040f610642366004613a64565b611deb565b34801561065357600080fd5b5061040f6106623660046138eb565b611e85565b34801561067357600080fd5b506103c7610682366004613b37565b611f1b565b34801561069357600080fd5b50600a5461040f9081565b3480156106aa57600080fd5b50600d5461038f906001600160a01b031681565b3480156106ca57600080fd5b5061040f6106d93660046138eb565b600090815260066020526040902054600160a01b900467ffffffffffffffff1690565b34801561070857600080fd5b50610362611fac565b34801561071d57600080fd5b506103c761072c366004613c97565b611fbb565b34801561073d57600080fd5b506105d161074c366004613b37565b611fc6565b34801561075d57600080fd5b5060095461040f9081565b6103c76107763660046138eb565b612078565b34801561078757600080fd5b506103c7610796366004613cd0565b6120bf565b6103c76107a93660046138eb565b612141565b3480156107ba57600080fd5b5061038f6107c93660046138eb565b612276565b3480156107da57600080fd5b506103626107e9366004613b37565b6122c6565b3480156107fa57600080fd5b506103626108093660046138eb565b612367565b34801561081a57600080fd5b5061040f610829366004613b37565b6123a2565b34801561083a57600080fd5b506103c7610849366004613d50565b61243f565b34801561085a57600080fd5b5061038f610869366004613b37565b6124ba565b34801561087a57600080fd5b506109116108893660046138eb565b600f6020526000908152604090208054600182015460028301546003840154600485015460059095015493946001600160a01b03938416949290931692909160ff80821691610100810482169167ffffffffffffffff6201000083041691600160501b8104821691600160581b8204811691600160601b8104821691600160681b909104168c565b604080519c8d526001600160a01b039b8c1660208e015299909a16988b019890985260608a0196909652608089019490945291151560a0880152151560c087015267ffffffffffffffff1660e0860152151561010085015215156101208401521515610140830152151561016082015261018001610344565b34801561099657600080fd5b506103386109a5366004613d8e565b6001600160a01b03918216600090815260056020908152604080832093909416825291909152205460ff1690565b3480156109df57600080fd5b506104e56109ee366004613b37565b612557565b3480156109ff57600080fd5b50610a13610a0e3660046138eb565b612711565b60408051938452602084019290925290820152606001610344565b348015610a3a57600080fd5b50610a4e610a49366004613dbc565b6127fa565b604051610344929190613dee565b60006001600160e01b031982167fad092b5c000000000000000000000000000000000000000000000000000000001480610a9a5750610a9a82612ae9565b92915050565b606060008054610aaf90613e7c565b80601f0160208091040260200160405190810160405280929190818152602001828054610adb90613e7c565b8015610b285780601f10610afd57610100808354040283529160200191610b28565b820191906000526020600020905b815481529060010190602001808311610b0b57829003601f168201915b5050505050905090565b6000818152600260205260408120546001600160a01b0316610bb05760405162461bcd60e51b815260206004820152602c60248201527f4552433732313a20617070726f76656420717565727920666f72206e6f6e657860448201526b34b9ba32b73a103a37b5b2b760a11b60648201526084015b60405180910390fd5b506000908152600460205260409020546001600160a01b031690565b6000610bd782611906565b9050806001600160a01b0316836001600160a01b03161415610c615760405162461bcd60e51b815260206004820152602160248201527f4552433732313a20617070726f76616c20746f2063757272656e74206f776e6560448201527f72000000000000000000000000000000000000000000000000000000000000006064820152608401610ba7565b336001600160a01b0382161480610c7d5750610c7d81336109a5565b610cef5760405162461bcd60e51b815260206004820152603860248201527f4552433732313a20617070726f76652063616c6c6572206973206e6f74206f7760448201527f6e6572206e6f7220617070726f76656420666f7220616c6c00000000000000006064820152608401610ba7565b610cf98383612b84565b505050565b6000828152600f602052604090206005810154600160501b900460ff16610d675760405162461bcd60e51b815260206004820152601f60248201527f546f6b656e206973206e6f7420617661696c61626c6520666f722072656e74006044820152606401610ba7565b6000610d7284612276565b6001600160a01b031614610dc85760405162461bcd60e51b815260206004820152601760248201527f546f6b656e20697320616c72656164792072656e7465640000000000000000006044820152606401610ba7565b8060040154341015610e415760405162461bcd60e51b8152602060048201526024808201527f496e73756666696369656e742066756e647320746f2072656e7420746865207460448201527f6f6b656e000000000000000000000000000000000000000000000000000000006064820152608401610ba7565b6000838152600f60205260409020600501805469ffffffffffffffffff00196dff000000000000000000000000ff19821660ff600160501b600160681b6dff00000000000000000000000000199095168517048116151591909117909217908116610100600160581b90920490921615150269ffffffffffffffff00001916176201000067ffffffffffffffff851602176bffff0000000000000000000019169055610cf9833384612bf2565b60606000610efb60095490565b90506000610f08600a5490565b600954610f159190613ec7565b90506000808267ffffffffffffffff811115610f3357610f33613b7b565b604051908082528060200260200182016040528015610fc257816020015b604080516101808101825260008082526020808301829052928201819052606082018190526080820181905260a0820181905260c0820181905260e082018190526101008201819052610120820181905261014082018190526101608201528252600019909201910181610f515790505b50905060005b848110156111265730600f6000610fe0846001613ede565b81526020810191909152604001600020600201546001600160a01b03161415611114576000611010826001613ede565b6000818152600f60209081526040918290208251610180810184528154815260018201546001600160a01b03908116938201939093526002820154909216928201929092526003820154606082015260048201546080820152600582015460ff808216151560a08401526101008083048216151560c085015267ffffffffffffffff6201000084041660e0850152600160501b83048216151590840152600160581b820481161515610120840152600160601b820481161515610140840152600160681b909104161515610160820152855192935090918590879081106110f9576110f9613ef6565b602090810291909101015261110f600186613ede565b945050505b8061111e81613f0c565b915050610fc8565b50949350505050565b6000818152600f60205260409020600581015462010000900467ffffffffffffffff164211156111e3576000828152600f6020526040812060050180546dff000000000000000000000000001961010060ff8084161515600160501b026aff00000000000000000000198516811792909204161515600160581b026bff0000000000000000000000199091166bffff000000000000000000001990931692909217919091171690556111e390839080612bf2565b5050565b6008546001600160a01b0316156111fd57600080fd5b600880546001600160a01b0319166001600160a01b0392909216919091179055565b6000868152600f60205260409020600201546001600160a01b0316331461129b5760405162461bcd60e51b815260206004820152602a60248201527f4f6e6c79206974656d206f776e65722063616e20706572666f726d20746869736044820152691037b832b930ba34b7b760b11b6064820152608401610ba7565b80806112a85750600c5434145b6113005760405162461bcd60e51b8152602060048201526024808201527f5072696365206d75737420626520657175616c20746f206c697374696e6720706044820152637269636560e01b6064820152608401610ba7565b6000868152600f6020526040902060058101805460038301889055600183018054336001600160a01b03199182161790915560028401805430921691909117905560049092018690556cff00000000000000000000ffff1990911661ff001985151590811691909117610100851515908102919091176bffff000000000000000000001916600160501b929092026bff0000000000000000000000191691909117600160581b91909102176dff000000ffffffffffffffff0000191690556113c8600a612c73565b6113d3333088612cca565b505050505050565b606060006113e860095490565b905060006113f5600a5490565b90506000808267ffffffffffffffff81111561141357611413613b7b565b6040519080825280602002602001820160405280156114a257816020015b604080516101808101825260008082526020808301829052928201819052606082018190526080820181905260a0820181905260c0820181905260e0820181905261010082018190526101208201819052610140820181905261016082015282526000199092019101816114315790505b50905060005b848110156111265733600f60006114c0846001613ede565b81526020810191909152604001600020600201546001600160a01b031614156115f45760006114f0826001613ede565b6000818152600f60209081526040918290208251610180810184528154815260018201546001600160a01b03908116938201939093526002820154909216928201929092526003820154606082015260048201546080820152600582015460ff808216151560a08401526101008083048216151560c085015267ffffffffffffffff6201000084041660e0850152600160501b83048216151590840152600160581b820481161515610120840152600160601b820481161515610140840152600160681b909104161515610160820152855192935090918590879081106115d9576115d9613ef6565b60209081029190910101526115ef600186613ede565b945050505b806115fe81613f0c565b9150506114a8565b6116103382612e8a565b6116765760405162461bcd60e51b815260206004820152603160248201527f4552433732313a207472616e736665722063616c6c6572206973206e6f74206f6044820152701ddb995c881b9bdc88185c1c1c9bdd9959607a1b6064820152608401610ba7565b610cf9838383612cca565b6007546040517f29449085000000000000000000000000000000000000000000000000000000008152600481018490526024810183905260009182916001600160a01b0390911690632944908590604401604080518083038186803b1580156116e957600080fd5b505afa1580156116fd573d6000803e3d6000fd5b505050506040513d601f19601f820116820180604052508101906117219190613f27565b915091505b9250929050565b600d546001600160a01b031633146117875760405162461bcd60e51b815260206004820152601760248201527f4f6e6c79206f776e65722063616e2077697468647261770000000000000000006044820152606401610ba7565b6040514790339082156108fc029083906000818181858888f193505050501580156111e3573d6000803e3d6000fd5b610cf9838383604051806020016040528060008152506120bf565b6007546040517f44e87f9100000000000000000000000000000000000000000000000000000000815260048101849052602481018390526000916001600160a01b0316906344e87f919060440160206040518083038186803b15801561183657600080fd5b505afa15801561184a573d6000803e3d6000fd5b505050506040513d601f19601f8201168201806040525081019061186e9190613f55565b9392505050565b6000828152600f60205260409020600101546001600160a01b031633146118f15760405162461bcd60e51b815260206004820152602a60248201527f4f6e6c79206974656d206f776e65722063616e20706572666f726d20746869736044820152691037b832b930ba34b7b760b11b6064820152608401610ba7565b6000918252600f602052604090912060040155565b6000818152600260205260408120546001600160a01b031680610a9a5760405162461bcd60e51b815260206004820152602960248201527f4552433732313a206f776e657220717565727920666f72206e6f6e657869737460448201527f656e7420746f6b656e00000000000000000000000000000000000000000000006064820152608401610ba7565b606060008060006119a28686612557565b91509150816119c95760006040518060200160405280600081525090935093505050611726565b6119d386826123a2565b92506119df86846122c6565b935050509250929050565b606060006119f760095490565b90506000808267ffffffffffffffff811115611a1557611a15613b7b565b604051908082528060200260200182016040528015611a3e578160200160208202803683370190505b50905060005b83811015611ab25733611a5b6107c9836001613ede565b6001600160a01b03161415611aa057611a75816001613ede565b828481518110611a8757611a87613ef6565b6020908102919091010152611a9d600184613ede565b92505b80611aaa81613f0c565b915050611a44565b5060008267ffffffffffffffff811115611ace57611ace613b7b565b604051908082528060200260200182016040528015611b5d57816020015b604080516101808101825260008082526020808301829052928201819052606082018190526080820181905260a0820181905260c0820181905260e082018190526101008201819052610120820181905261014082018190526101608201528252600019909201910181611aec5790505b50905060005b83811015611126576000838281518110611b7f57611b7f613ef6565b6020908102919091018101516000818152600f83526040908190208151610180810183528154815260018201546001600160a01b03908116958201959095526002820154909416918401919091526003810154606084015260048101546080840152600581015460ff808216151560a08601526101008083048216151560c087015267ffffffffffffffff6201000084041660e0870152600160501b83048216151590860152600160581b820481161515610120860152600160601b820481161515610140860152600160681b90910416151561016084015285519193509190859085908110611c7157611c71613ef6565b602002602001018190525050508080611c8990613f0c565b915050611b63565b600b6020526000908152604090208054611caa90613e7c565b80601f0160208091040260200160405190810160405280929190818152602001828054611cd690613e7c565b8015611d235780601f10611cf857610100808354040283529160200191611d23565b820191906000526020600020905b815481529060010190602001808311611d0657829003601f168201915b505050505081565b8080611d385750600c5434145b611d905760405162461bcd60e51b8152602060048201526024808201527f5072696365206d75737420626520657175616c20746f206c697374696e6720706044820152637269636560e01b6064820152608401610ba7565b611d9e600980546001019055565b6000611da960095490565b9050611db53382612f81565b6000818152600b602090815260409091208851611dd4928a01906137b1565b50611de281878787876130cf565b50505050505050565b60006001600160a01b038216611e695760405162461bcd60e51b815260206004820152602a60248201527f4552433732313a2062616c616e636520717565727920666f7220746865207a6560448201527f726f2061646472657373000000000000000000000000000000000000000000006064820152608401610ba7565b506001600160a01b031660009081526003602052604090205490565b6007546040517f77b03e0d000000000000000000000000000000000000000000000000000000008152600481018390526000916001600160a01b0316906377b03e0d9060240160206040518083038186803b158015611ee357600080fd5b505afa158015611ef7573d6000803e3d6000fd5b505050506040513d601f19601f82011682018060405250810190610a9a9190613f72565b6000828152600f60205260409020600101546001600160a01b03163314611f975760405162461bcd60e51b815260206004820152602a60248201527f4f6e6c79206974656d206f776e65722063616e20706572666f726d20746869736044820152691037b832b930ba34b7b760b11b6064820152608401610ba7565b6000918252600f602052604090912060030155565b606060018054610aaf90613e7c565b6111e3338383613414565b6007546040517fa792765f00000000000000000000000000000000000000000000000000000000815260048101849052602481018390526060916000916001600160a01b039091169063a792765f9060440160006040518083038186803b15801561203057600080fd5b505afa158015612044573d6000803e3d6000fd5b505050506040513d6000823e601f3d908101601f1916820160405261206c9190810190613fd0565b90969095509350505050565b600d546001600160a01b031633146120ba5760405162461bcd60e51b815260206004820152600560248201526437bbb732b960d91b6044820152606401610ba7565b600c55565b6120c93383612e8a565b61212f5760405162461bcd60e51b815260206004820152603160248201527f4552433732313a207472616e736665722063616c6c6572206973206e6f74206f6044820152701ddb995c881b9bdc88185c1c1c9bdd9959607a1b6064820152608401610ba7565b61213b848484846134e4565b50505050565b6000818152600f6020526040902060038101546001909101546001600160a01b0316348211156121d95760405162461bcd60e51b815260206004820152603d60248201527f506c6561736520706179207468652061736b696e6720707269636520696e206f60448201527f7264657220746f20636f6d706c657465207468652070757263686173650000006064820152608401610ba7565b6000838152600f602052604090206002810180546001600160a01b031990811633179091556005820180546cff0000000000000000000000001916600160601b179055600190910180549091169055612236600a80546001019055565b612241303385612cca565b6040516001600160a01b038216903480156108fc02916000818181858888f1935050505015801561213b573d6000803e3d6000fd5b60008181526006602052604081205442600160a01b90910467ffffffffffffffff16106122b957506000908152600660205260409020546001600160a01b031690565b506000919050565b919050565b6007546040517fc5958af900000000000000000000000000000000000000000000000000000000815260048101849052602481018390526060916001600160a01b03169063c5958af99060440160006040518083038186803b15801561232b57600080fd5b505afa15801561233f573d6000803e3d6000fd5b505050506040513d6000823e601f3d908101601f1916820160405261186e919081019061402a565b6060600b600083815260200190815260200160002060405160200161238c919061405f565b6040516020818303038152906040529050919050565b6007546040517fce5e11bf00000000000000000000000000000000000000000000000000000000815260048101849052602481018390526000916001600160a01b03169063ce5e11bf9060440160206040518083038186803b15801561240757600080fd5b505afa15801561241b573d6000803e3d6000fd5b505050506040513d601f19601f8201168201806040525081019061186e9190613f72565b6124493384612e8a565b6124af5760405162461bcd60e51b815260206004820152603160248201527f4552433732313a207472616e736665722063616c6c6572206973206e6f74206f6044820152701ddb995c881b9bdc88185c1c1c9bdd9959607a1b6064820152608401610ba7565b610cf9838383612bf2565b6007546040517fe07c548600000000000000000000000000000000000000000000000000000000815260048101849052602481018390526000916001600160a01b03169063e07c54869060440160206040518083038186803b15801561251f57600080fd5b505afa158015612533573d6000803e3d6000fd5b505050506040513d601f19601f8201168201806040525081019061186e91906140fb565b600080600061256585611e85565b905080612579576000809250925050611726565b8061258381614118565b91506001905060008083816125988a836123a2565b90508881116125b35760008097509750505050505050611726565b6125bd8a846123a2565b9050888111156125cc57600094505b841561267c5760026125de8484613ede565b6125e8919061412f565b93506125f48a856123a2565b90508881111561263557600061260f8b610829600188613ec7565b9050898111612621576000955061262f565b61262c600186613ec7565b92505b506125cc565b60006126468b610829876001613ede565b90508981111561266957600095508461265e81613f0c565b95505080915061262f565b612674856001613ede565b9350506125cc565b6126868a826117d1565b61269c5760018497509750505050505050611726565b6126a68a826117d1565b80156126b157508584105b156126d457836126c081613f0c565b9450506126cd8a856123a2565b905061269c565b85841480156126e857506126e88a826117d1565b156126ff5760008097509750505050505050611726565b60018497509750505050505050611726565b6008546040517f87a475fd000000000000000000000000000000000000000000000000000000008152600481018390526000918291829182916001600160a01b03909116906387a475fd9060240160206040518083038186803b15801561277757600080fd5b505afa15801561278b573d6000803e3d6000fd5b505050506040513d601f19601f820116820180604052508101906127af9190613f72565b905060606127c28261074c426001613ede565b94509050836127de5760008061019494509450945050506127f3565b60006127e98261356d565b955060c893505050505b9193909250565b60608060008061280e886109ee888a613ec7565b915091508161285f576040805160008082526020820190925290612842565b606081526020019060019003908161282d5790505b506040805160008152602081019091529094509250612ae0915050565b600061286b8989611681565b9093509050826128be5760408051600080825260208201909252906128a0565b606081526020019060019003908161288b5790505b506040805160008152602081019091529095509350612ae092505050565b60008060008867ffffffffffffffff8111156128dc576128dc613b7b565b604051908082528060200260200182016040528015612905578160200160208202803683370190505b5090505b888310801561292c57508482612920866001613ede565b61292a9190613ec7565b115b156129905760006129418d6108298588613ec7565b905061294d8d826117d1565b61297d578082858151811061296457612964613ef6565b60209081029190910101528361297981613f0c565b9450505b8261298781613f0c565b93505050612909565b60008367ffffffffffffffff8111156129ab576129ab613b7b565b6040519080825280602002602001820160405280156129de57816020015b60608152602001906001900390816129c95790505b50905060008467ffffffffffffffff8111156129fc576129fc613b7b565b604051908082528060200260200182016040528015612a25578160200160208202803683370190505b50905060005b85811015612ad3578381612a40600189613ec7565b612a4a9190613ec7565b81518110612a5a57612a5a613ef6565b6020026020010151828281518110612a7457612a74613ef6565b602002602001018181525050612aa38f838381518110612a9657612a96613ef6565b60200260200101516122c6565b838281518110612ab557612ab5613ef6565b60200260200101819052508080612acb90613f0c565b915050612a2b565b5090985096505050505050505b94509492505050565b60006001600160e01b031982167f80ac58cd000000000000000000000000000000000000000000000000000000001480612b4c57506001600160e01b031982167f5b5e139f00000000000000000000000000000000000000000000000000000000145b80610a9a57507f01ffc9a7000000000000000000000000000000000000000000000000000000006001600160e01b0319831614610a9a565b600081815260046020526040902080546001600160a01b0319166001600160a01b0384169081179091558190612bb982611906565b6001600160a01b03167f8c5be1e5ebec7d5bd14f71427d1e84f3dd0314c0f7b2291e5b200ac8c7c3b92560405160405180910390a45050565b60008381526006602090815260409182902080546001600160a01b0386166001600160e01b03199091168117600160a01b67ffffffffffffffff871690810291909117835593519384529092909186917f4e06b4e7000e659094299b3533b47b6aa8ad048e95e872d23d1f4ee55af89cfe910160405180910390a350505050565b805480612cc25760405162461bcd60e51b815260206004820152601b60248201527f436f756e7465723a2064656372656d656e74206f766572666c6f7700000000006044820152606401610ba7565b600019019055565b826001600160a01b0316612cdd82611906565b6001600160a01b031614612d415760405162461bcd60e51b815260206004820152602560248201527f4552433732313a207472616e736665722066726f6d20696e636f72726563742060448201526437bbb732b960d91b6064820152608401610ba7565b6001600160a01b038216612dbc5760405162461bcd60e51b8152602060048201526024808201527f4552433732313a207472616e7366657220746f20746865207a65726f2061646460448201527f72657373000000000000000000000000000000000000000000000000000000006064820152608401610ba7565b612dc78383836135c4565b612dd2600082612b84565b6001600160a01b0383166000908152600360205260408120805460019290612dfb908490613ec7565b90915550506001600160a01b0382166000908152600360205260408120805460019290612e29908490613ede565b909155505060008181526002602052604080822080546001600160a01b0319166001600160a01b0386811691821790925591518493918716917fddf252ad1be2c89b69c2b068fc378daa952ba7f163c4a11628f55a4df523b3ef91a4505050565b6000818152600260205260408120546001600160a01b0316612f035760405162461bcd60e51b815260206004820152602c60248201527f4552433732313a206f70657261746f7220717565727920666f72206e6f6e657860448201526b34b9ba32b73a103a37b5b2b760a11b6064820152608401610ba7565b6000612f0e83611906565b9050806001600160a01b0316846001600160a01b03161480612f495750836001600160a01b0316612f3e84610b32565b6001600160a01b0316145b80612f7957506001600160a01b0380821660009081526005602090815260408083209388168352929052205460ff165b949350505050565b6001600160a01b038216612fd75760405162461bcd60e51b815260206004820181905260248201527f4552433732313a206d696e7420746f20746865207a65726f20616464726573736044820152606401610ba7565b6000818152600260205260409020546001600160a01b03161561303c5760405162461bcd60e51b815260206004820152601c60248201527f4552433732313a20746f6b656e20616c7265616479206d696e746564000000006044820152606401610ba7565b613048600083836135c4565b6001600160a01b0382166000908152600360205260408120805460019290613071908490613ede565b909155505060008181526002602052604080822080546001600160a01b0319166001600160a01b03861690811790915590518392907fddf252ad1be2c89b69c2b068fc378daa952ba7f163c4a11628f55a4df523b3ef908290a45050565b8115806130dc5750600084115b6131285760405162461bcd60e51b815260206004820152600e60248201527f70726963652072657175697265640000000000000000000000000000000000006044820152606401610ba7565b8015806131355750600083115b6131815760405162461bcd60e51b815260206004820152601360248201527f72656e74207072696365207265717569726564000000000000000000000000006044820152606401610ba7565b604051806101800160405280868152602001336001600160a01b03168152602001306001600160a01b0316815260200185815260200184815260200182151581526020018315158152602001600067ffffffffffffffff1681526020018215158152602001831515815260200160001515815260200160001515815250600f60008781526020019081526020016000206000820151816000015560208201518160010160006101000a8154816001600160a01b0302191690836001600160a01b0316021790555060408201518160020160006101000a8154816001600160a01b0302191690836001600160a01b03160217905550606082015181600301556080820151816004015560a08201518160050160006101000a81548160ff02191690831515021790555060c08201518160050160016101000a81548160ff02191690831515021790555060e08201518160050160026101000a81548167ffffffffffffffff021916908367ffffffffffffffff16021790555061010082015181600501600a6101000a81548160ff02191690831515021790555061012082015181600501600b6101000a81548160ff02191690831515021790555061014082015181600501600c6101000a81548160ff02191690831515021790555061016082015181600501600d6101000a81548160ff02191690831515021790555090505061338a333087612cca565b60408051338152306020820152908101859052606081018490528115156080820181905283151560a08301819052600060c0840181905260e0840192909252610100830152610120820181905261014082015285907f492deeedddcf20d370b3e1bfd0cb18f72d909aedbaf5c6b6b196848bb234660d906101600160405180910390a25050505050565b816001600160a01b0316836001600160a01b031614156134765760405162461bcd60e51b815260206004820152601960248201527f4552433732313a20617070726f766520746f2063616c6c6572000000000000006044820152606401610ba7565b6001600160a01b03838116600081815260056020908152604080832094871680845294825291829020805460ff191686151590811790915591519182527f17307eab39ab6107e8899845ad3d59bd9653f200f220920489ca2b5937696c3191015b60405180910390a3505050565b6134ef848484612cca565b6134fb8484848461364e565b61213b5760405162461bcd60e51b815260206004820152603260248201527f4552433732313a207472616e7366657220746f206e6f6e20455243373231526560448201527f63656976657220696d706c656d656e74657200000000000000000000000000006064820152608401610ba7565b6000805b82518110156135be5782818151811061358c5761358c613ef6565b016020015160f81c6135a083610100614151565b6135aa9190613ede565b9150806135b681613f0c565b915050613571565b50919050565b816001600160a01b0316836001600160a01b0316141580156135fc57506000818152600660205260409020546001600160a01b031615155b15610cf957600081815260066020908152604080832080546001600160e01b03191690555182815283917f4e06b4e7000e659094299b3533b47b6aa8ad048e95e872d23d1f4ee55af89cfe91016134d7565b60006001600160a01b0384163b156137a657604051630a85bd0160e11b81526001600160a01b0385169063150b7a0290613692903390899088908890600401614170565b602060405180830381600087803b1580156136ac57600080fd5b505af19250505080156136dc575060408051601f3d908101601f191682019092526136d9918101906141ac565b60015b61378c573d80801561370a576040519150601f19603f3d011682016040523d82523d6000602084013e61370f565b606091505b5080516137845760405162461bcd60e51b815260206004820152603260248201527f4552433732313a207472616e7366657220746f206e6f6e20455243373231526560448201527f63656976657220696d706c656d656e74657200000000000000000000000000006064820152608401610ba7565b805181602001fd5b6001600160e01b031916630a85bd0160e11b149050612f79565b506001949350505050565b8280546137bd90613e7c565b90600052602060002090601f0160209004810192826137df5760008555613825565b82601f106137f857805160ff1916838001178555613825565b82800160010185558215613825579182015b8281111561382557825182559160200191906001019061380a565b50613831929150613835565b5090565b5b808211156138315760008155600101613836565b6001600160e01b03198116811461386057600080fd5b50565b60006020828403121561387557600080fd5b813561186e8161384a565b60005b8381101561389b578181015183820152602001613883565b8381111561213b5750506000910152565b600081518084526138c4816020860160208601613880565b601f01601f19169290920160200192915050565b60208152600061186e60208301846138ac565b6000602082840312156138fd57600080fd5b5035919050565b6001600160a01b038116811461386057600080fd5b6000806040838503121561392c57600080fd5b823561393781613904565b946020939093013593505050565b803567ffffffffffffffff811681146122c157600080fd5b6000806040838503121561397057600080fd5b8235915061398060208401613945565b90509250929050565b602080825282518282018190526000919060409081850190868401855b82811015613a5757815180518552868101516001600160a01b0390811688870152868201511686860152606080820151908601526080808201519086015260a08082015115159086015260c08082015115159086015260e08082015167ffffffffffffffff16908601526101008082015115159086015261012080820151151590860152610140808201511515908601526101609081015115159085015261018090930192908501906001016139a6565b5091979650505050505050565b600060208284031215613a7657600080fd5b813561186e81613904565b801515811461386057600080fd5b60008060008060008060c08789031215613aa857600080fd5b8635955060208701359450604087013593506060870135613ac881613a81565b92506080870135613ad881613a81565b915060a0870135613ae881613a81565b809150509295509295509295565b600080600060608486031215613b0b57600080fd5b8335613b1681613904565b92506020840135613b2681613904565b929592945050506040919091013590565b60008060408385031215613b4a57600080fd5b50508035926020909101359150565b604081526000613b6c60408301856138ac565b90508260208301529392505050565b634e487b7160e01b600052604160045260246000fd5b604051601f8201601f1916810167ffffffffffffffff81118282101715613bba57613bba613b7b565b604052919050565b600067ffffffffffffffff821115613bdc57613bdc613b7b565b50601f01601f191660200190565b6000613bfd613bf884613bc2565b613b91565b9050828152838383011115613c1157600080fd5b828260208301376000602084830101529392505050565b60008060008060008060c08789031215613c4157600080fd5b863567ffffffffffffffff811115613c5857600080fd5b8701601f81018913613c6957600080fd5b613c7889823560208401613bea565b96505060208701359450604087013593506060870135613ac881613a81565b60008060408385031215613caa57600080fd5b8235613cb581613904565b91506020830135613cc581613a81565b809150509250929050565b60008060008060808587031215613ce657600080fd5b8435613cf181613904565b93506020850135613d0181613904565b925060408501359150606085013567ffffffffffffffff811115613d2457600080fd5b8501601f81018713613d3557600080fd5b613d4487823560208401613bea565b91505092959194509250565b600080600060608486031215613d6557600080fd5b833592506020840135613d7781613904565b9150613d8560408501613945565b90509250925092565b60008060408385031215613da157600080fd5b8235613dac81613904565b91506020830135613cc581613904565b60008060008060808587031215613dd257600080fd5b5050823594602084013594506040840135936060013592509050565b6000604082016040835280855180835260608501915060608160051b8601019250602080880160005b83811015613e4557605f19888703018552613e338683516138ac565b95509382019390820190600101613e17565b50508584038187015286518085528782019482019350915060005b82811015613a5757845184529381019392810192600101613e60565b600181811c90821680613e9057607f821691505b602082108114156135be57634e487b7160e01b600052602260045260246000fd5b634e487b7160e01b600052601160045260246000fd5b600082821015613ed957613ed9613eb1565b500390565b60008219821115613ef157613ef1613eb1565b500190565b634e487b7160e01b600052603260045260246000fd5b6000600019821415613f2057613f20613eb1565b5060010190565b60008060408385031215613f3a57600080fd5b8251613f4581613a81565b6020939093015192949293505050565b600060208284031215613f6757600080fd5b815161186e81613a81565b600060208284031215613f8457600080fd5b5051919050565b600082601f830112613f9c57600080fd5b8151613faa613bf882613bc2565b818152846020838601011115613fbf57600080fd5b612f79826020830160208701613880565b600080600060608486031215613fe557600080fd5b8351613ff081613a81565b602085015190935067ffffffffffffffff81111561400d57600080fd5b61401986828701613f8b565b925050604084015190509250925092565b60006020828403121561403c57600080fd5b815167ffffffffffffffff81111561405357600080fd5b612f7984828501613f8b565b600080835481600182811c91508083168061407b57607f831692505b602080841082141561409b57634e487b7160e01b86526022600452602486fd5b8180156140af57600181146140c0576140ed565b60ff198616895284890196506140ed565b60008a81526020902060005b868110156140e55781548b8201529085019083016140cc565b505084890196505b509498975050505050505050565b60006020828403121561410d57600080fd5b815161186e81613904565b60008161412757614127613eb1565b506000190190565b60008261414c57634e487b7160e01b600052601260045260246000fd5b500490565b600081600019048311821515161561416b5761416b613eb1565b500290565b60006001600160a01b038087168352808616602084015250836040830152608060608301526141a260808301846138ac565b9695505050505050565b6000602082840312156141be57600080fd5b815161186e8161384a56fea2646970667358221220c13d1a5395bac3fe2a0d5046a055ea7ad5ba9c418ba38da1df28cb88a8dffbea64736f6c63430008090033",
  "linkReferences": {},
  "deployedLinkReferences": {}
}