{
  "_format": "hh-sol-artifact-1",
  "contractName": "RentableNFTMarketplace",
  "sourceName": "contracts/RentableNFTMarketplace.sol",
  "abi": [
    {
      "inputs": [],
      "stateMutability": "nonpayable",
      "type": "constructor"
    },
    {
      "anonymous": false,
      "inputs": [
        {
          "indexed": true,
          "internalType": "address",
          "name": "owner",
          "type": "address"
        },
        {
          "indexed": true,
          "internalType": "address",
          "name": "approved",
          "type": "address"
        },
        {
          "indexed": true,
          "internalType": "uint256",
          "name": "tokenId",
          "type": "uint256"
        }
      ],
      "name": "Approval",
      "type": "event"
    },
    {
      "anonymous": false,
      "inputs": [
        {
          "indexed": true,
          "internalType": "address",
          "name": "owner",
          "type": "address"
        },
        {
          "indexed": true,
          "internalType": "address",
          "name": "operator",
          "type": "address"
        },
        {
          "indexed": false,
          "internalType": "bool",
          "name": "approved",
          "type": "bool"
        }
      ],
      "name": "ApprovalForAll",
      "type": "event"
    },
    {
      "anonymous": false,
      "inputs": [
        {
          "indexed": true,
          "internalType": "uint256",
          "name": "tokenId",
          "type": "uint256"
        },
        {
          "indexed": false,
          "internalType": "address",
          "name": "seller",
          "type": "address"
        },
        {
          "indexed": false,
          "internalType": "address",
          "name": "owner",
          "type": "address"
        },
        {
          "indexed": false,
          "internalType": "uint256",
          "name": "price",
          "type": "uint256"
        },
        {
          "indexed": false,
          "internalType": "uint256",
          "name": "rentPrice",
          "type": "uint256"
        },
        {
          "indexed": false,
          "internalType": "bool",
          "name": "forRent",
          "type": "bool"
        },
        {
          "indexed": false,
          "internalType": "bool",
          "name": "forSale",
          "type": "bool"
        },
        {
          "indexed": false,
          "internalType": "bool",
          "name": "sold",
          "type": "bool"
        }
      ],
      "name": "MarketItemCreated",
      "type": "event"
    },
    {
      "anonymous": false,
      "inputs": [
        {
          "indexed": true,
          "internalType": "address",
          "name": "from",
          "type": "address"
        },
        {
          "indexed": true,
          "internalType": "address",
          "name": "to",
          "type": "address"
        },
        {
          "indexed": true,
          "internalType": "uint256",
          "name": "tokenId",
          "type": "uint256"
        }
      ],
      "name": "Transfer",
      "type": "event"
    },
    {
      "anonymous": false,
      "inputs": [
        {
          "indexed": true,
          "internalType": "uint256",
          "name": "tokenId",
          "type": "uint256"
        },
        {
          "indexed": true,
          "internalType": "address",
          "name": "user",
          "type": "address"
        },
        {
          "indexed": false,
          "internalType": "uint64",
          "name": "expires",
          "type": "uint64"
        }
      ],
      "name": "UpdateUser",
      "type": "event"
    },
    {
      "inputs": [],
      "name": "_itemsSold",
      "outputs": [
        {
          "internalType": "uint256",
          "name": "_value",
          "type": "uint256"
        }
      ],
      "stateMutability": "view",
      "type": "function"
    },
    {
      "inputs": [],
      "name": "_tokenIds",
      "outputs": [
        {
          "internalType": "uint256",
          "name": "_value",
          "type": "uint256"
        }
      ],
      "stateMutability": "view",
      "type": "function"
    },
    {
      "inputs": [
        {
          "internalType": "address",
          "name": "to",
          "type": "address"
        },
        {
          "internalType": "uint256",
          "name": "tokenId",
          "type": "uint256"
        }
      ],
      "name": "approve",
      "outputs": [],
      "stateMutability": "nonpayable",
      "type": "function"
    },
    {
      "inputs": [
        {
          "internalType": "address",
          "name": "owner",
          "type": "address"
        }
      ],
      "name": "balanceOf",
      "outputs": [
        {
          "internalType": "uint256",
          "name": "",
          "type": "uint256"
        }
      ],
      "stateMutability": "view",
      "type": "function"
    },
    {
      "inputs": [
        {
          "internalType": "uint256",
          "name": "tokenId",
          "type": "uint256"
        }
      ],
      "name": "createMarketSale",
      "outputs": [],
      "stateMutability": "payable",
      "type": "function"
    },
    {
      "inputs": [
        {
          "internalType": "string",
          "name": "_tokenURI",
          "type": "string"
        },
        {
          "internalType": "uint256",
          "name": "price",
          "type": "uint256"
        },
        {
          "internalType": "uint256",
          "name": "rent_price",
          "type": "uint256"
        },
        {
          "internalType": "bool",
          "name": "forRent",
          "type": "bool"
        },
        {
          "internalType": "bool",
          "name": "forSale",
          "type": "bool"
        },
        {
          "internalType": "bool",
          "name": "member",
          "type": "bool"
        }
      ],
      "name": "createToken",
      "outputs": [],
      "stateMutability": "payable",
      "type": "function"
    },
    {
      "inputs": [],
      "name": "fetchMarketItems",
      "outputs": [
        {
          "components": [
            {
              "internalType": "uint256",
              "name": "tokenId",
              "type": "uint256"
            },
            {
              "internalType": "address payable",
              "name": "seller",
              "type": "address"
            },
            {
              "internalType": "address payable",
              "name": "owner",
              "type": "address"
            },
            {
              "internalType": "uint256",
              "name": "price",
              "type": "uint256"
            },
            {
              "internalType": "uint256",
              "name": "rentPrice",
              "type": "uint256"
            },
            {
              "internalType": "bool",
              "name": "forRent",
              "type": "bool"
            },
            {
              "internalType": "bool",
              "name": "forSale",
              "type": "bool"
            },
            {
              "internalType": "bool",
              "name": "sold",
              "type": "bool"
            }
          ],
          "internalType": "struct RentableNFTMarketplace.MarketItem[]",
          "name": "",
          "type": "tuple[]"
        }
      ],
      "stateMutability": "view",
      "type": "function"
    },
    {
      "inputs": [],
      "name": "fetchMyNFTs",
      "outputs": [
        {
          "components": [
            {
              "internalType": "uint256",
              "name": "tokenId",
              "type": "uint256"
            },
            {
              "internalType": "address payable",
              "name": "seller",
              "type": "address"
            },
            {
              "internalType": "address payable",
              "name": "owner",
              "type": "address"
            },
            {
              "internalType": "uint256",
              "name": "price",
              "type": "uint256"
            },
            {
              "internalType": "uint256",
              "name": "rentPrice",
              "type": "uint256"
            },
            {
              "internalType": "bool",
              "name": "forRent",
              "type": "bool"
            },
            {
              "internalType": "bool",
              "name": "forSale",
              "type": "bool"
            },
            {
              "internalType": "bool",
              "name": "sold",
              "type": "bool"
            }
          ],
          "internalType": "struct RentableNFTMarketplace.MarketItem[]",
          "name": "",
          "type": "tuple[]"
        }
      ],
      "stateMutability": "view",
      "type": "function"
    },
    {
      "inputs": [],
      "name": "fetchMyRentedNFTs",
      "outputs": [
        {
          "components": [
            {
              "internalType": "uint256",
              "name": "tokenId",
              "type": "uint256"
            },
            {
              "internalType": "address payable",
              "name": "seller",
              "type": "address"
            },
            {
              "internalType": "address payable",
              "name": "owner",
              "type": "address"
            },
            {
              "internalType": "uint256",
              "name": "price",
              "type": "uint256"
            },
            {
              "internalType": "uint256",
              "name": "rentPrice",
              "type": "uint256"
            },
            {
              "internalType": "bool",
              "name": "forRent",
              "type": "bool"
            },
            {
              "internalType": "bool",
              "name": "forSale",
              "type": "bool"
            },
            {
              "internalType": "bool",
              "name": "sold",
              "type": "bool"
            }
          ],
          "internalType": "struct RentableNFTMarketplace.MarketItem[]",
          "name": "",
          "type": "tuple[]"
        }
      ],
      "stateMutability": "view",
      "type": "function"
    },
    {
      "inputs": [
        {
          "internalType": "uint256",
          "name": "tokenId",
          "type": "uint256"
        }
      ],
      "name": "getApproved",
      "outputs": [
        {
          "internalType": "address",
          "name": "",
          "type": "address"
        }
      ],
      "stateMutability": "view",
      "type": "function"
    },
    {
      "inputs": [
        {
          "internalType": "bytes32",
          "name": "_queryId",
          "type": "bytes32"
        },
        {
          "internalType": "uint256",
          "name": "_timestamp",
          "type": "uint256"
        }
      ],
      "name": "getDataAfter",
      "outputs": [
        {
          "internalType": "bytes",
          "name": "_value",
          "type": "bytes"
        },
        {
          "internalType": "uint256",
          "name": "_timestampRetrieved",
          "type": "uint256"
        }
      ],
      "stateMutability": "view",
      "type": "function"
    },
    {
      "inputs": [
        {
          "internalType": "bytes32",
          "name": "_queryId",
          "type": "bytes32"
        },
        {
          "internalType": "uint256",
          "name": "_timestamp",
          "type": "uint256"
        }
      ],
      "name": "getDataBefore",
      "outputs": [
        {
          "internalType": "bytes",
          "name": "_value",
          "type": "bytes"
        },
        {
          "internalType": "uint256",
          "name": "_timestampRetrieved",
          "type": "uint256"
        }
      ],
      "stateMutability": "view",
      "type": "function"
    },
    {
      "inputs": [
        {
          "internalType": "bytes32",
          "name": "_queryId",
          "type": "bytes32"
        },
        {
          "internalType": "uint256",
          "name": "_timestamp",
          "type": "uint256"
        }
      ],
      "name": "getIndexForDataAfter",
      "outputs": [
        {
          "internalType": "bool",
          "name": "_found",
          "type": "bool"
        },
        {
          "internalType": "uint256",
          "name": "_index",
          "type": "uint256"
        }
      ],
      "stateMutability": "view",
      "type": "function"
    },
    {
      "inputs": [
        {
          "internalType": "bytes32",
          "name": "_queryId",
          "type": "bytes32"
        },
        {
          "internalType": "uint256",
          "name": "_timestamp",
          "type": "uint256"
        }
      ],
      "name": "getIndexForDataBefore",
      "outputs": [
        {
          "internalType": "bool",
          "name": "_found",
          "type": "bool"
        },
        {
          "internalType": "uint256",
          "name": "_index",
          "type": "uint256"
        }
      ],
      "stateMutability": "view",
      "type": "function"
    },
    {
      "inputs": [],
      "name": "getListingPrice",
      "outputs": [
        {
          "internalType": "uint256",
          "name": "",
          "type": "uint256"
        }
      ],
      "stateMutability": "view",
      "type": "function"
    },
    {
      "inputs": [
        {
          "internalType": "bytes32",
          "name": "_queryId",
          "type": "bytes32"
        },
        {
          "internalType": "uint256",
          "name": "_timestamp",
          "type": "uint256"
        },
        {
          "internalType": "uint256",
          "name": "_maxAge",
          "type": "uint256"
        },
        {
          "internalType": "uint256",
          "name": "_maxCount",
          "type": "uint256"
        }
      ],
      "name": "getMultipleValuesBefore",
      "outputs": [
        {
          "internalType": "bytes[]",
          "name": "_values",
          "type": "bytes[]"
        },
        {
          "internalType": "uint256[]",
          "name": "_timestamps",
          "type": "uint256[]"
        }
      ],
      "stateMutability": "view",
      "type": "function"
    },
    {
      "inputs": [
        {
          "internalType": "bytes32",
          "name": "_queryId",
          "type": "bytes32"
        }
      ],
      "name": "getNewValueCountbyQueryId",
      "outputs": [
        {
          "internalType": "uint256",
          "name": "",
          "type": "uint256"
        }
      ],
      "stateMutability": "view",
      "type": "function"
    },
    {
      "inputs": [
        {
          "internalType": "bytes32",
          "name": "_queryId",
          "type": "bytes32"
        },
        {
          "internalType": "uint256",
          "name": "_timestamp",
          "type": "uint256"
        }
      ],
      "name": "getReporterByTimestamp",
      "outputs": [
        {
          "internalType": "address",
          "name": "",
          "type": "address"
        }
      ],
      "stateMutability": "view",
      "type": "function"
    },
    {
      "inputs": [
        {
          "internalType": "bytes32",
          "name": "_queryId",
          "type": "bytes32"
        },
        {
          "internalType": "uint256",
          "name": "_index",
          "type": "uint256"
        }
      ],
      "name": "getTimestampbyQueryIdandIndex",
      "outputs": [
        {
          "internalType": "uint256",
          "name": "",
          "type": "uint256"
        }
      ],
      "stateMutability": "view",
      "type": "function"
    },
    {
      "inputs": [],
      "name": "idMappingContract",
      "outputs": [
        {
          "internalType": "contract IMappingContract",
          "name": "",
          "type": "address"
        }
      ],
      "stateMutability": "view",
      "type": "function"
    },
    {
      "inputs": [
        {
          "internalType": "uint256",
          "name": "",
          "type": "uint256"
        }
      ],
      "name": "idToMarketItem",
      "outputs": [
        {
          "internalType": "uint256",
          "name": "tokenId",
          "type": "uint256"
        },
        {
          "internalType": "address payable",
          "name": "seller",
          "type": "address"
        },
        {
          "internalType": "address payable",
          "name": "owner",
          "type": "address"
        },
        {
          "internalType": "uint256",
          "name": "price",
          "type": "uint256"
        },
        {
          "internalType": "uint256",
          "name": "rentPrice",
          "type": "uint256"
        },
        {
          "internalType": "bool",
          "name": "forRent",
          "type": "bool"
        },
        {
          "internalType": "bool",
          "name": "forSale",
          "type": "bool"
        },
        {
          "internalType": "bool",
          "name": "sold",
          "type": "bool"
        }
      ],
      "stateMutability": "view",
      "type": "function"
    },
    {
      "inputs": [
        {
          "internalType": "address",
          "name": "owner",
          "type": "address"
        },
        {
          "internalType": "address",
          "name": "operator",
          "type": "address"
        }
      ],
      "name": "isApprovedForAll",
      "outputs": [
        {
          "internalType": "bool",
          "name": "",
          "type": "bool"
        }
      ],
      "stateMutability": "view",
      "type": "function"
    },
    {
      "inputs": [
        {
          "internalType": "bytes32",
          "name": "_queryId",
          "type": "bytes32"
        },
        {
          "internalType": "uint256",
          "name": "_timestamp",
          "type": "uint256"
        }
      ],
      "name": "isInDispute",
      "outputs": [
        {
          "internalType": "bool",
          "name": "",
          "type": "bool"
        }
      ],
      "stateMutability": "view",
      "type": "function"
    },
    {
      "inputs": [],
      "name": "name",
      "outputs": [
        {
          "internalType": "string",
          "name": "",
          "type": "string"
        }
      ],
      "stateMutability": "view",
      "type": "function"
    },
    {
      "inputs": [],
      "name": "owner",
      "outputs": [
        {
          "internalType": "address payable",
          "name": "",
          "type": "address"
        }
      ],
      "stateMutability": "view",
      "type": "function"
    },
    {
      "inputs": [
        {
          "internalType": "uint256",
          "name": "tokenId",
          "type": "uint256"
        }
      ],
      "name": "ownerOf",
      "outputs": [
        {
          "internalType": "address",
          "name": "",
          "type": "address"
        }
      ],
      "stateMutability": "view",
      "type": "function"
    },
    {
      "inputs": [
        {
          "internalType": "uint256",
          "name": "_tokenId",
          "type": "uint256"
        },
        {
          "internalType": "uint64",
          "name": "_expires",
          "type": "uint64"
        }
      ],
      "name": "rentOutToken",
      "outputs": [],
      "stateMutability": "payable",
      "type": "function"
    },
    {
      "inputs": [
        {
          "internalType": "uint256",
          "name": "tokenId",
          "type": "uint256"
        },
        {
          "internalType": "uint256",
          "name": "price",
          "type": "uint256"
        },
        {
          "internalType": "uint256",
          "name": "rent_price",
          "type": "uint256"
        },
        {
          "internalType": "bool",
          "name": "forRent",
          "type": "bool"
        },
        {
          "internalType": "bool",
          "name": "forSale",
          "type": "bool"
        },
        {
          "internalType": "bool",
          "name": "member",
          "type": "bool"
        }
      ],
      "name": "resellToken",
      "outputs": [],
      "stateMutability": "payable",
      "type": "function"
    },
    {
      "inputs": [
        {
          "internalType": "bytes32",
          "name": "_queryId",
          "type": "bytes32"
        },
        {
          "internalType": "uint256",
          "name": "_timestamp",
          "type": "uint256"
        }
      ],
      "name": "retrieveData",
      "outputs": [
        {
          "internalType": "bytes",
          "name": "",
          "type": "bytes"
        }
      ],
      "stateMutability": "view",
      "type": "function"
    },
    {
      "inputs": [
        {
          "internalType": "address",
          "name": "from",
          "type": "address"
        },
        {
          "internalType": "address",
          "name": "to",
          "type": "address"
        },
        {
          "internalType": "uint256",
          "name": "tokenId",
          "type": "uint256"
        }
      ],
      "name": "safeTransferFrom",
      "outputs": [],
      "stateMutability": "nonpayable",
      "type": "function"
    },
    {
      "inputs": [
        {
          "internalType": "address",
          "name": "from",
          "type": "address"
        },
        {
          "internalType": "address",
          "name": "to",
          "type": "address"
        },
        {
          "internalType": "uint256",
          "name": "tokenId",
          "type": "uint256"
        },
        {
          "internalType": "bytes",
          "name": "_data",
          "type": "bytes"
        }
      ],
      "name": "safeTransferFrom",
      "outputs": [],
      "stateMutability": "nonpayable",
      "type": "function"
    },
    {
      "inputs": [
        {
          "internalType": "address",
          "name": "operator",
          "type": "address"
        },
        {
          "internalType": "bool",
          "name": "approved",
          "type": "bool"
        }
      ],
      "name": "setApprovalForAll",
      "outputs": [],
      "stateMutability": "nonpayable",
      "type": "function"
    },
    {
      "inputs": [
        {
          "internalType": "address",
          "name": "_addy",
          "type": "address"
        }
      ],
      "name": "setIdMappingContract",
      "outputs": [],
      "stateMutability": "nonpayable",
      "type": "function"
    },
    {
      "inputs": [
        {
          "internalType": "uint256",
          "name": "tokenId",
          "type": "uint256"
        },
        {
          "internalType": "address",
          "name": "user",
          "type": "address"
        },
        {
          "internalType": "uint64",
          "name": "expires",
          "type": "uint64"
        }
      ],
      "name": "setUser",
      "outputs": [],
      "stateMutability": "nonpayable",
      "type": "function"
    },
    {
      "inputs": [
        {
          "internalType": "bytes4",
          "name": "interfaceId",
          "type": "bytes4"
        }
      ],
      "name": "supportsInterface",
      "outputs": [
        {
          "internalType": "bool",
          "name": "",
          "type": "bool"
        }
      ],
      "stateMutability": "view",
      "type": "function"
    },
    {
      "inputs": [],
      "name": "symbol",
      "outputs": [
        {
          "internalType": "string",
          "name": "",
          "type": "string"
        }
      ],
      "stateMutability": "view",
      "type": "function"
    },
    {
      "inputs": [],
      "name": "tellor",
      "outputs": [
        {
          "internalType": "contract ITellor",
          "name": "",
          "type": "address"
        }
      ],
      "stateMutability": "view",
      "type": "function"
    },
    {
      "inputs": [
        {
          "internalType": "uint256",
          "name": "_tokenId",
          "type": "uint256"
        }
      ],
      "name": "tokenURI",
      "outputs": [
        {
          "internalType": "string",
          "name": "",
          "type": "string"
        }
      ],
      "stateMutability": "view",
      "type": "function"
    },
    {
      "inputs": [
        {
          "internalType": "uint256",
          "name": "",
          "type": "uint256"
        }
      ],
      "name": "tokenURIs",
      "outputs": [
        {
          "internalType": "string",
          "name": "",
          "type": "string"
        }
      ],
      "stateMutability": "view",
      "type": "function"
    },
    {
      "inputs": [
        {
          "internalType": "address",
          "name": "from",
          "type": "address"
        },
        {
          "internalType": "address",
          "name": "to",
          "type": "address"
        },
        {
          "internalType": "uint256",
          "name": "tokenId",
          "type": "uint256"
        }
      ],
      "name": "transferFrom",
      "outputs": [],
      "stateMutability": "nonpayable",
      "type": "function"
    },
    {
      "inputs": [
        {
          "internalType": "uint256",
          "name": "_listingPrice",
          "type": "uint256"
        }
      ],
      "name": "updateListingPrice",
      "outputs": [],
      "stateMutability": "payable",
      "type": "function"
    },
    {
      "inputs": [
        {
          "internalType": "uint256",
          "name": "_tokenId",
          "type": "uint256"
        },
        {
          "internalType": "uint256",
          "name": "price",
          "type": "uint256"
        }
      ],
      "name": "updatePrice",
      "outputs": [],
      "stateMutability": "nonpayable",
      "type": "function"
    },
    {
      "inputs": [
        {
          "internalType": "uint256",
          "name": "_tokenId",
          "type": "uint256"
        },
        {
          "internalType": "uint256",
          "name": "rent_price",
          "type": "uint256"
        }
      ],
      "name": "updateRentPrice",
      "outputs": [],
      "stateMutability": "nonpayable",
      "type": "function"
    },
    {
      "inputs": [
        {
          "internalType": "uint256",
          "name": "tokenId",
          "type": "uint256"
        }
      ],
      "name": "userExpires",
      "outputs": [
        {
          "internalType": "uint256",
          "name": "",
          "type": "uint256"
        }
      ],
      "stateMutability": "view",
      "type": "function"
    },
    {
      "inputs": [
        {
          "internalType": "uint256",
          "name": "tokenId",
          "type": "uint256"
        }
      ],
      "name": "userOf",
      "outputs": [
        {
          "internalType": "address",
          "name": "",
          "type": "address"
        }
      ],
      "stateMutability": "view",
      "type": "function"
    },
    {
      "inputs": [
        {
          "internalType": "bytes32",
          "name": "_id",
          "type": "bytes32"
        }
      ],
      "name": "valueFor",
      "outputs": [
        {
          "internalType": "int256",
          "name": "_value",
          "type": "int256"
        },
        {
          "internalType": "uint256",
          "name": "_timestamp",
          "type": "uint256"
        },
        {
          "internalType": "uint256",
          "name": "_statusCode",
          "type": "uint256"
        }
      ],
      "stateMutability": "view",
      "type": "function"
    },
    {
      "inputs": [],
      "name": "withdraw",
      "outputs": [],
      "stateMutability": "nonpayable",
      "type": "function"
    }
  ],
  "bytecode": "0x6080604052670de0b6b3a7640000600c55600e80546001600160a01b03191673840c23e39f9d029ffa888f47069aa6864f0401d71790553480156200004357600080fd5b50600e54604080518082018252600881526752656e7461626c6560c01b602080830191825283518085019094526002845261149560f21b9084015281516001600160a01b039094169391929183918391620000a191600091620000ec565b508051620000b7906001906020840190620000ec565b5050600780546001600160a01b039095166001600160a01b03199586161790555050600d8054909216331790915550620001cf565b828054620000fa9062000192565b90600052602060002090601f0160209004810192826200011e576000855562000169565b82601f106200013957805160ff191683800117855562000169565b8280016001018555821562000169579182015b82811115620001695782518255916020019190600101906200014c565b50620001779291506200017b565b5090565b5b808211156200017757600081556001016200017c565b600181811c90821680620001a757607f821691505b60208210811415620001c957634e487b7160e01b600052602260045260246000fd5b50919050565b613caa80620001df6000396000f3fe6080604052600436106103085760003560e01c806370a082311161019a578063be9af536116100e1578063e07c54861161008a578063f66f49c311610064578063f66f49c31461094c578063f78eea831461096c578063fcd4a546146109a757600080fd5b8063e07c548614610823578063e61a70c014610843578063e985e9c51461090357600080fd5b8063c87b56dd116100bb578063c87b56dd146107c3578063ce5e11bf146107e3578063e030565e1461080357600080fd5b8063be9af53614610770578063c2f1f14a14610783578063c5958af9146107a357600080fd5b806395d89b4111610143578063aa46a4001161011d578063aa46a40014610726578063ae677aa31461073d578063b88d4fde1461075057600080fd5b806395d89b41146106d1578063a22cb465146106e6578063a792765f1461070657600080fd5b806387506a0d1161017457806387506a0d1461065c5780638da5cb5b146106735780638fc88c481461069357600080fd5b806370a08231146105fc57806377b03e0d1461061c57806382367b2d1461063c57600080fd5b806323b872dd1161025e5780634feb29821161020757806367ea485c116101e157806367ea485c146105b45780636c8b703f146105c95780636d656710146105e957600080fd5b80634feb2982146105465780636352211e1461056657806364ee3c6d1461058657600080fd5b80633ccfd60b116102385780633ccfd60b146104f157806342842e0e1461050657806344e87f911461052657600080fd5b806323b872dd1461047a578063294490851461049a5780632af8aae0146104d157600080fd5b80630f08efe0116102c05780631959ad5b1161029a5780631959ad5b146104325780631f76e24214610452578063202e37401461046557600080fd5b80630f08efe0146103d157806312e85585146103f3578063193b505b1461041257600080fd5b8063081812fc116102f1578063081812fc14610364578063095ea7b31461039c57806309a26ba7146103be57600080fd5b806301ffc9a71461030d57806306fdde0314610342575b600080fd5b34801561031957600080fd5b5061032d61032836600461334a565b6109d5565b60405190151581526020015b60405180910390f35b34801561034e57600080fd5b50610357610a19565b60405161033991906133bf565b34801561037057600080fd5b5061038461037f3660046133d2565b610aab565b6040516001600160a01b039091168152602001610339565b3480156103a857600080fd5b506103bc6103b7366004613400565b610b45565b005b6103bc6103cc366004613444565b610c77565b3480156103dd57600080fd5b506103e6610da6565b6040516103399190613470565b3480156103ff57600080fd5b50600c545b604051908152602001610339565b34801561041e57600080fd5b506103bc61042d36600461350f565b610f7d565b34801561043e57600080fd5b50600754610384906001600160a01b031681565b6103bc61046036600461353a565b610fb5565b34801561047157600080fd5b506103e6611117565b34801561048657600080fd5b506103bc6104953660046135a1565b6112d8565b3480156104a657600080fd5b506104ba6104b53660046135e2565b611353565b604080519215158352602083019190915201610339565b3480156104dd57600080fd5b50600854610384906001600160a01b031681565b3480156104fd57600080fd5b506103bc6113ff565b34801561051257600080fd5b506103bc6105213660046135a1565b61148c565b34801561053257600080fd5b5061032d6105413660046135e2565b6114a7565b34801561055257600080fd5b506103bc6105613660046135e2565b61154b565b34801561057257600080fd5b506103846105813660046133d2565b6115dc565b34801561059257600080fd5b506105a66105a13660046135e2565b611667565b604051610339929190613604565b3480156105c057600080fd5b506103e66116c0565b3480156105d557600080fd5b506103576105e43660046133d2565b61186c565b6103bc6105f73660046136d3565b611906565b34801561060857600080fd5b5061040461061736600461350f565b6119c6565b34801561062857600080fd5b506104046106373660046133d2565b611a60565b34801561064857600080fd5b506103bc6106573660046135e2565b611af6565b34801561066857600080fd5b50600a546104049081565b34801561067f57600080fd5b50600d54610384906001600160a01b031681565b34801561069f57600080fd5b506104046106ae3660046133d2565b600090815260066020526040902054600160a01b900467ffffffffffffffff1690565b3480156106dd57600080fd5b50610357611b87565b3480156106f257600080fd5b506103bc610701366004613742565b611b96565b34801561071257600080fd5b506105a66107213660046135e2565b611ba1565b34801561073257600080fd5b506009546104049081565b6103bc61074b3660046133d2565b611c53565b34801561075c57600080fd5b506103bc61076b36600461377b565b611c9a565b6103bc61077e3660046133d2565b611d1c565b34801561078f57600080fd5b5061038461079e3660046133d2565b611e46565b3480156107af57600080fd5b506103576107be3660046135e2565b611e96565b3480156107cf57600080fd5b506103576107de3660046133d2565b611f37565b3480156107ef57600080fd5b506104046107fe3660046135e2565b611f72565b34801561080f57600080fd5b506103bc61081e3660046137fb565b61200f565b34801561082f57600080fd5b5061038461083e3660046135e2565b61208a565b34801561084f57600080fd5b506108b661085e3660046133d2565b600f6020526000908152604090208054600182015460028301546003840154600485015460059095015493946001600160a01b03938416949290931692909160ff808216916101008104821691620100009091041688565b604080519889526001600160a01b0397881660208a0152959096169487019490945260608601929092526080850152151560a0840152151560c0830152151560e082015261010001610339565b34801561090f57600080fd5b5061032d61091e366004613839565b6001600160a01b03918216600090815260056020908152604080832093909416825291909152205460ff1690565b34801561095857600080fd5b506104ba6109673660046135e2565b612127565b34801561097857600080fd5b5061098c6109873660046133d2565b6122e1565b60408051938452602084019290925290820152606001610339565b3480156109b357600080fd5b506109c76109c2366004613867565b6123ca565b604051610339929190613899565b60006001600160e01b031982167fad092b5c000000000000000000000000000000000000000000000000000000001480610a135750610a13826126b9565b92915050565b606060008054610a2890613927565b80601f0160208091040260200160405190810160405280929190818152602001828054610a5490613927565b8015610aa15780601f10610a7657610100808354040283529160200191610aa1565b820191906000526020600020905b815481529060010190602001808311610a8457829003601f168201915b5050505050905090565b6000818152600260205260408120546001600160a01b0316610b295760405162461bcd60e51b815260206004820152602c60248201527f4552433732313a20617070726f76656420717565727920666f72206e6f6e657860448201526b34b9ba32b73a103a37b5b2b760a11b60648201526084015b60405180910390fd5b506000908152600460205260409020546001600160a01b031690565b6000610b50826115dc565b9050806001600160a01b0316836001600160a01b03161415610bda5760405162461bcd60e51b815260206004820152602160248201527f4552433732313a20617070726f76616c20746f2063757272656e74206f776e6560448201527f72000000000000000000000000000000000000000000000000000000000000006064820152608401610b20565b336001600160a01b0382161480610bf65750610bf6813361091e565b610c685760405162461bcd60e51b815260206004820152603860248201527f4552433732313a20617070726f76652063616c6c6572206973206e6f74206f7760448201527f6e6572206e6f7220617070726f76656420666f7220616c6c00000000000000006064820152608401610b20565b610c728383612754565b505050565b6000828152600f602052604090206005015460ff16610cd85760405162461bcd60e51b815260206004820152601960248201527f546f6b656e20776173206e6f7420666f722072656e74696e67000000000000006044820152606401610b20565b6000610ce383611e46565b6001600160a01b031614610d395760405162461bcd60e51b815260206004820152601760248201527f546f6b656e20697320616c72656164792072656e7465640000000000000000006044820152606401610b20565b6000828152600f602052604090206004015434811115610d9b5760405162461bcd60e51b815260206004820152601260248201527f706179207468652072656e7420707269636500000000000000000000000000006044820152606401610b20565b610c728333846127c2565b60606000610db360095490565b90506000610dc0600a5490565b600954610dcd9190613972565b90506000808267ffffffffffffffff811115610deb57610deb613626565b604051908082528060200260200182016040528015610e5a57816020015b604080516101008101825260008082526020808301829052928201819052606082018190526080820181905260a0820181905260c0820181905260e08201528252600019909201910181610e095790505b50905060005b84811015610f745730600f6000610e78846001613989565b81526020810191909152604001600020600201546001600160a01b03161415610f62576000610ea8826001613989565b6000818152600f6020908152604091829020825161010080820185528254825260018301546001600160a01b03908116948301949094526002830154909316938101939093526003810154606084015260048101546080840152600581015460ff808216151560a08601529281048316151560c0850152620100009004909116151560e0830152855192935091859087908110610f4757610f476139a1565b6020908102919091010152610f5d600186613989565b945050505b80610f6c816139b7565b915050610e60565b50949350505050565b6008546001600160a01b031615610f9357600080fd5b600880546001600160a01b0319166001600160a01b0392909216919091179055565b6000868152600f60205260409020600201546001600160a01b031633146110315760405162461bcd60e51b815260206004820152602a60248201527f4f6e6c79206974656d206f776e65722063616e20706572666f726d20746869736044820152691037b832b930ba34b7b760b11b6064820152608401610b20565b808061103e5750600c5434145b6110965760405162461bcd60e51b8152602060048201526024808201527f5072696365206d75737420626520657175616c20746f206c697374696e6720706044820152637269636560e01b6064820152608401610b20565b6000868152600f6020526040902060058101805460038301889055600183018054336001600160a01b031991821617909155600284018054309216919091179055600490920186905562ffffff1990911684151561ff0019161761010084151502179055611104600a612843565b61110f33308861289a565b505050505050565b6060600061112460095490565b90506000611131600a5490565b90506000808267ffffffffffffffff81111561114f5761114f613626565b6040519080825280602002602001820160405280156111be57816020015b604080516101008101825260008082526020808301829052928201819052606082018190526080820181905260a0820181905260c0820181905260e0820152825260001990920191018161116d5790505b50905060005b84811015610f745733600f60006111dc846001613989565b81526020810191909152604001600020600201546001600160a01b031614156112c657600061120c826001613989565b6000818152600f6020908152604091829020825161010080820185528254825260018301546001600160a01b03908116948301949094526002830154909316938101939093526003810154606084015260048101546080840152600581015460ff808216151560a08601529281048316151560c0850152620100009004909116151560e08301528551929350918590879081106112ab576112ab6139a1565b60209081029190910101526112c1600186613989565b945050505b806112d0816139b7565b9150506111c4565b6112e23382612a5a565b6113485760405162461bcd60e51b815260206004820152603160248201527f4552433732313a207472616e736665722063616c6c6572206973206e6f74206f6044820152701ddb995c881b9bdc88185c1c1c9bdd9959607a1b6064820152608401610b20565b610c7283838361289a565b6007546040517f29449085000000000000000000000000000000000000000000000000000000008152600481018490526024810183905260009182916001600160a01b0390911690632944908590604401604080518083038186803b1580156113bb57600080fd5b505afa1580156113cf573d6000803e3d6000fd5b505050506040513d601f19601f820116820180604052508101906113f391906139d2565b915091505b9250929050565b600d546001600160a01b031633146114595760405162461bcd60e51b815260206004820152601760248201527f4f6e6c79206f776e65722063616e2077697468647261770000000000000000006044820152606401610b20565b6040514790339082156108fc029083906000818181858888f19350505050158015611488573d6000803e3d6000fd5b5050565b610c7283838360405180602001604052806000815250611c9a565b6007546040517f44e87f9100000000000000000000000000000000000000000000000000000000815260048101849052602481018390526000916001600160a01b0316906344e87f919060440160206040518083038186803b15801561150c57600080fd5b505afa158015611520573d6000803e3d6000fd5b505050506040513d601f19601f820116820180604052508101906115449190613a00565b9392505050565b6000828152600f60205260409020600101546001600160a01b031633146115c75760405162461bcd60e51b815260206004820152602a60248201527f4f6e6c79206974656d206f776e65722063616e20706572666f726d20746869736044820152691037b832b930ba34b7b760b11b6064820152608401610b20565b6000918252600f602052604090912060040155565b6000818152600260205260408120546001600160a01b031680610a135760405162461bcd60e51b815260206004820152602960248201527f4552433732313a206f776e657220717565727920666f72206e6f6e657869737460448201527f656e7420746f6b656e00000000000000000000000000000000000000000000006064820152608401610b20565b606060008060006116788686612127565b915091508161169f57600060405180602001604052806000815250909350935050506113f8565b6116a98682611f72565b92506116b58684611e96565b935050509250929050565b606060006116cd60095490565b905060006116da600a5490565b90506000808267ffffffffffffffff8111156116f8576116f8613626565b60405190808252806020026020018201604052801561176757816020015b604080516101008101825260008082526020808301829052928201819052606082018190526080820181905260a0820181905260c0820181905260e082015282526000199092019101816117165790505b50905060005b84811015610f74573361178461079e836001613989565b6001600160a01b0316141561185a5760006117a0826001613989565b6000818152600f6020908152604091829020825161010080820185528254825260018301546001600160a01b03908116948301949094526002830154909316938101939093526003810154606084015260048101546080840152600581015460ff808216151560a08601529281048316151560c0850152620100009004909116151560e083015285519293509185908790811061183f5761183f6139a1565b6020908102919091010152611855600186613989565b945050505b80611864816139b7565b91505061176d565b600b602052600090815260409020805461188590613927565b80601f01602080910402602001604051908101604052809291908181526020018280546118b190613927565b80156118fe5780601f106118d3576101008083540402835291602001916118fe565b820191906000526020600020905b8154815290600101906020018083116118e157829003601f168201915b505050505081565b80806119135750600c5434145b61196b5760405162461bcd60e51b8152602060048201526024808201527f5072696365206d75737420626520657175616c20746f206c697374696e6720706044820152637269636560e01b6064820152608401610b20565b611979600980546001019055565b600061198460095490565b90506119903382612b51565b6000818152600b6020908152604090912088516119af928a0190613298565b506119bd8187878787612c9f565b50505050505050565b60006001600160a01b038216611a445760405162461bcd60e51b815260206004820152602a60248201527f4552433732313a2062616c616e636520717565727920666f7220746865207a6560448201527f726f2061646472657373000000000000000000000000000000000000000000006064820152608401610b20565b506001600160a01b031660009081526003602052604090205490565b6007546040517f77b03e0d000000000000000000000000000000000000000000000000000000008152600481018390526000916001600160a01b0316906377b03e0d9060240160206040518083038186803b158015611abe57600080fd5b505afa158015611ad2573d6000803e3d6000fd5b505050506040513d601f19601f82011682018060405250810190610a139190613a1d565b6000828152600f60205260409020600101546001600160a01b03163314611b725760405162461bcd60e51b815260206004820152602a60248201527f4f6e6c79206974656d206f776e65722063616e20706572666f726d20746869736044820152691037b832b930ba34b7b760b11b6064820152608401610b20565b6000918252600f602052604090912060030155565b606060018054610a2890613927565b611488338383612efb565b6007546040517fa792765f00000000000000000000000000000000000000000000000000000000815260048101849052602481018390526060916000916001600160a01b039091169063a792765f9060440160006040518083038186803b158015611c0b57600080fd5b505afa158015611c1f573d6000803e3d6000fd5b505050506040513d6000823e601f3d908101601f19168201604052611c479190810190613a7b565b90969095509350505050565b600d546001600160a01b03163314611c955760405162461bcd60e51b815260206004820152600560248201526437bbb732b960d91b6044820152606401610b20565b600c55565b611ca43383612a5a565b611d0a5760405162461bcd60e51b815260206004820152603160248201527f4552433732313a207472616e736665722063616c6c6572206973206e6f74206f6044820152701ddb995c881b9bdc88185c1c1c9bdd9959607a1b6064820152608401610b20565b611d1684848484612fcb565b50505050565b6000818152600f6020526040902060038101546001909101546001600160a01b031634821115611db45760405162461bcd60e51b815260206004820152603d60248201527f506c6561736520706179207468652061736b696e6720707269636520696e206f60448201527f7264657220746f20636f6d706c657465207468652070757263686173650000006064820152608401610b20565b6000838152600f602052604090206002810180546001600160a01b0319908116331790915560058201805462ff0000191662010000179055600190910180549091169055611e06600a80546001019055565b611e1130338561289a565b6040516001600160a01b038216903480156108fc02916000818181858888f19350505050158015611d16573d6000803e3d6000fd5b60008181526006602052604081205442600160a01b90910467ffffffffffffffff1610611e8957506000908152600660205260409020546001600160a01b031690565b506000919050565b919050565b6007546040517fc5958af900000000000000000000000000000000000000000000000000000000815260048101849052602481018390526060916001600160a01b03169063c5958af99060440160006040518083038186803b158015611efb57600080fd5b505afa158015611f0f573d6000803e3d6000fd5b505050506040513d6000823e601f3d908101601f191682016040526115449190810190613ad5565b6060600b6000838152602001908152602001600020604051602001611f5c9190613b0a565b6040516020818303038152906040529050919050565b6007546040517fce5e11bf00000000000000000000000000000000000000000000000000000000815260048101849052602481018390526000916001600160a01b03169063ce5e11bf9060440160206040518083038186803b158015611fd757600080fd5b505afa158015611feb573d6000803e3d6000fd5b505050506040513d601f19601f820116820180604052508101906115449190613a1d565b6120193384612a5a565b61207f5760405162461bcd60e51b815260206004820152603160248201527f4552433732313a207472616e736665722063616c6c6572206973206e6f74206f6044820152701ddb995c881b9bdc88185c1c1c9bdd9959607a1b6064820152608401610b20565b610c728383836127c2565b6007546040517fe07c548600000000000000000000000000000000000000000000000000000000815260048101849052602481018390526000916001600160a01b03169063e07c54869060440160206040518083038186803b1580156120ef57600080fd5b505afa158015612103573d6000803e3d6000fd5b505050506040513d601f19601f820116820180604052508101906115449190613ba6565b600080600061213585611a60565b9050806121495760008092509250506113f8565b8061215381613bc3565b91506001905060008083816121688a83611f72565b905088811161218357600080975097505050505050506113f8565b61218d8a84611f72565b90508881111561219c57600094505b841561224c5760026121ae8484613989565b6121b89190613bda565b93506121c48a85611f72565b9050888111156122055760006121df8b6107fe600188613972565b90508981116121f157600095506121ff565b6121fc600186613972565b92505b5061219c565b60006122168b6107fe876001613989565b90508981111561223957600095508461222e816139b7565b9550508091506121ff565b612244856001613989565b93505061219c565b6122568a826114a7565b61226c57600184975097505050505050506113f8565b6122768a826114a7565b801561228157508584105b156122a45783612290816139b7565b94505061229d8a85611f72565b905061226c565b85841480156122b857506122b88a826114a7565b156122cf57600080975097505050505050506113f8565b600184975097505050505050506113f8565b6008546040517f87a475fd000000000000000000000000000000000000000000000000000000008152600481018390526000918291829182916001600160a01b03909116906387a475fd9060240160206040518083038186803b15801561234757600080fd5b505afa15801561235b573d6000803e3d6000fd5b505050506040513d601f19601f8201168201806040525081019061237f9190613a1d565b9050606061239282610721426001613989565b94509050836123ae5760008061019494509450945050506123c3565b60006123b982613054565b955060c893505050505b9193909250565b6060806000806123de88610967888a613972565b915091508161242f576040805160008082526020820190925290612412565b60608152602001906001900390816123fd5790505b5060408051600081526020810190915290945092506126b0915050565b600061243b8989611353565b90935090508261248e576040805160008082526020820190925290612470565b606081526020019060019003908161245b5790505b5060408051600081526020810190915290955093506126b092505050565b60008060008867ffffffffffffffff8111156124ac576124ac613626565b6040519080825280602002602001820160405280156124d5578160200160208202803683370190505b5090505b88831080156124fc575084826124f0866001613989565b6124fa9190613972565b115b156125605760006125118d6107fe8588613972565b905061251d8d826114a7565b61254d5780828581518110612534576125346139a1565b602090810291909101015283612549816139b7565b9450505b82612557816139b7565b935050506124d9565b60008367ffffffffffffffff81111561257b5761257b613626565b6040519080825280602002602001820160405280156125ae57816020015b60608152602001906001900390816125995790505b50905060008467ffffffffffffffff8111156125cc576125cc613626565b6040519080825280602002602001820160405280156125f5578160200160208202803683370190505b50905060005b858110156126a3578381612610600189613972565b61261a9190613972565b8151811061262a5761262a6139a1565b6020026020010151828281518110612644576126446139a1565b6020026020010181815250506126738f838381518110612666576126666139a1565b6020026020010151611e96565b838281518110612685576126856139a1565b6020026020010181905250808061269b906139b7565b9150506125fb565b5090985096505050505050505b94509492505050565b60006001600160e01b031982167f80ac58cd00000000000000000000000000000000000000000000000000000000148061271c57506001600160e01b031982167f5b5e139f00000000000000000000000000000000000000000000000000000000145b80610a1357507f01ffc9a7000000000000000000000000000000000000000000000000000000006001600160e01b0319831614610a13565b600081815260046020526040902080546001600160a01b0319166001600160a01b0384169081179091558190612789826115dc565b6001600160a01b03167f8c5be1e5ebec7d5bd14f71427d1e84f3dd0314c0f7b2291e5b200ac8c7c3b92560405160405180910390a45050565b60008381526006602090815260409182902080546001600160a01b0386166001600160e01b03199091168117600160a01b67ffffffffffffffff871690810291909117835593519384529092909186917f4e06b4e7000e659094299b3533b47b6aa8ad048e95e872d23d1f4ee55af89cfe910160405180910390a350505050565b8054806128925760405162461bcd60e51b815260206004820152601b60248201527f436f756e7465723a2064656372656d656e74206f766572666c6f7700000000006044820152606401610b20565b600019019055565b826001600160a01b03166128ad826115dc565b6001600160a01b0316146129115760405162461bcd60e51b815260206004820152602560248201527f4552433732313a207472616e736665722066726f6d20696e636f72726563742060448201526437bbb732b960d91b6064820152608401610b20565b6001600160a01b03821661298c5760405162461bcd60e51b8152602060048201526024808201527f4552433732313a207472616e7366657220746f20746865207a65726f2061646460448201527f72657373000000000000000000000000000000000000000000000000000000006064820152608401610b20565b6129978383836130ab565b6129a2600082612754565b6001600160a01b03831660009081526003602052604081208054600192906129cb908490613972565b90915550506001600160a01b03821660009081526003602052604081208054600192906129f9908490613989565b909155505060008181526002602052604080822080546001600160a01b0319166001600160a01b0386811691821790925591518493918716917fddf252ad1be2c89b69c2b068fc378daa952ba7f163c4a11628f55a4df523b3ef91a4505050565b6000818152600260205260408120546001600160a01b0316612ad35760405162461bcd60e51b815260206004820152602c60248201527f4552433732313a206f70657261746f7220717565727920666f72206e6f6e657860448201526b34b9ba32b73a103a37b5b2b760a11b6064820152608401610b20565b6000612ade836115dc565b9050806001600160a01b0316846001600160a01b03161480612b195750836001600160a01b0316612b0e84610aab565b6001600160a01b0316145b80612b4957506001600160a01b0380821660009081526005602090815260408083209388168352929052205460ff165b949350505050565b6001600160a01b038216612ba75760405162461bcd60e51b815260206004820181905260248201527f4552433732313a206d696e7420746f20746865207a65726f20616464726573736044820152606401610b20565b6000818152600260205260409020546001600160a01b031615612c0c5760405162461bcd60e51b815260206004820152601c60248201527f4552433732313a20746f6b656e20616c7265616479206d696e746564000000006044820152606401610b20565b612c18600083836130ab565b6001600160a01b0382166000908152600360205260408120805460019290612c41908490613989565b909155505060008181526002602052604080822080546001600160a01b0319166001600160a01b03861690811790915590518392907fddf252ad1be2c89b69c2b068fc378daa952ba7f163c4a11628f55a4df523b3ef908290a45050565b60008411612cef5760405162461bcd60e51b815260206004820152600e60248201527f70726963652072657175697265640000000000000000000000000000000000006044820152606401610b20565b811580612cfc5750600083115b612d485760405162461bcd60e51b815260206004820152601360248201527f72656e74207072696365207265717569726564000000000000000000000000006044820152606401610b20565b604051806101000160405280868152602001336001600160a01b03168152602001306001600160a01b031681526020018581526020018481526020018315158152602001821515815260200160001515815250600f60008781526020019081526020016000206000820151816000015560208201518160010160006101000a8154816001600160a01b0302191690836001600160a01b0316021790555060408201518160020160006101000a8154816001600160a01b0302191690836001600160a01b03160217905550606082015181600301556080820151816004015560a08201518160050160006101000a81548160ff02191690831515021790555060c08201518160050160016101000a81548160ff02191690831515021790555060e08201518160050160026101000a81548160ff021916908315150217905550905050612e9433308761289a565b6040805133815230602082015290810185905260608101849052821515608082015281151560a0820152600060c082015285907fa5ecbdfe0d34bdfb2fdab3e9fcecab077cb676f86e6452e959a66ec1bcbbdf039060e00160405180910390a25050505050565b816001600160a01b0316836001600160a01b03161415612f5d5760405162461bcd60e51b815260206004820152601960248201527f4552433732313a20617070726f766520746f2063616c6c6572000000000000006044820152606401610b20565b6001600160a01b03838116600081815260056020908152604080832094871680845294825291829020805460ff191686151590811790915591519182527f17307eab39ab6107e8899845ad3d59bd9653f200f220920489ca2b5937696c3191015b60405180910390a3505050565b612fd684848461289a565b612fe284848484613135565b611d165760405162461bcd60e51b815260206004820152603260248201527f4552433732313a207472616e7366657220746f206e6f6e20455243373231526560448201527f63656976657220696d706c656d656e74657200000000000000000000000000006064820152608401610b20565b6000805b82518110156130a557828181518110613073576130736139a1565b016020015160f81c61308783610100613bfc565b6130919190613989565b91508061309d816139b7565b915050613058565b50919050565b816001600160a01b0316836001600160a01b0316141580156130e357506000818152600660205260409020546001600160a01b031615155b15610c7257600081815260066020908152604080832080546001600160e01b03191690555182815283917f4e06b4e7000e659094299b3533b47b6aa8ad048e95e872d23d1f4ee55af89cfe9101612fbe565b60006001600160a01b0384163b1561328d57604051630a85bd0160e11b81526001600160a01b0385169063150b7a0290613179903390899088908890600401613c1b565b602060405180830381600087803b15801561319357600080fd5b505af19250505080156131c3575060408051601f3d908101601f191682019092526131c091810190613c57565b60015b613273573d8080156131f1576040519150601f19603f3d011682016040523d82523d6000602084013e6131f6565b606091505b50805161326b5760405162461bcd60e51b815260206004820152603260248201527f4552433732313a207472616e7366657220746f206e6f6e20455243373231526560448201527f63656976657220696d706c656d656e74657200000000000000000000000000006064820152608401610b20565b805181602001fd5b6001600160e01b031916630a85bd0160e11b149050612b49565b506001949350505050565b8280546132a490613927565b90600052602060002090601f0160209004810192826132c6576000855561330c565b82601f106132df57805160ff191683800117855561330c565b8280016001018555821561330c579182015b8281111561330c5782518255916020019190600101906132f1565b5061331892915061331c565b5090565b5b80821115613318576000815560010161331d565b6001600160e01b03198116811461334757600080fd5b50565b60006020828403121561335c57600080fd5b813561154481613331565b60005b8381101561338257818101518382015260200161336a565b83811115611d165750506000910152565b600081518084526133ab816020860160208601613367565b601f01601f19169290920160200192915050565b6020815260006115446020830184613393565b6000602082840312156133e457600080fd5b5035919050565b6001600160a01b038116811461334757600080fd5b6000806040838503121561341357600080fd5b823561341e816133eb565b946020939093013593505050565b803567ffffffffffffffff81168114611e9157600080fd5b6000806040838503121561345757600080fd5b823591506134676020840161342c565b90509250929050565b602080825282518282018190526000919060409081850190868401855b8281101561350257815180518552868101516001600160a01b0390811688870152868201511686860152606080820151908601526080808201519086015260a08082015115159086015260c08082015115159086015260e090810151151590850152610100909301929085019060010161348d565b5091979650505050505050565b60006020828403121561352157600080fd5b8135611544816133eb565b801515811461334757600080fd5b60008060008060008060c0878903121561355357600080fd5b86359550602087013594506040870135935060608701356135738161352c565b925060808701356135838161352c565b915060a08701356135938161352c565b809150509295509295509295565b6000806000606084860312156135b657600080fd5b83356135c1816133eb565b925060208401356135d1816133eb565b929592945050506040919091013590565b600080604083850312156135f557600080fd5b50508035926020909101359150565b6040815260006136176040830185613393565b90508260208301529392505050565b634e487b7160e01b600052604160045260246000fd5b604051601f8201601f1916810167ffffffffffffffff8111828210171561366557613665613626565b604052919050565b600067ffffffffffffffff82111561368757613687613626565b50601f01601f191660200190565b60006136a86136a38461366d565b61363c565b90508281528383830111156136bc57600080fd5b828260208301376000602084830101529392505050565b60008060008060008060c087890312156136ec57600080fd5b863567ffffffffffffffff81111561370357600080fd5b8701601f8101891361371457600080fd5b61372389823560208401613695565b965050602087013594506040870135935060608701356135738161352c565b6000806040838503121561375557600080fd5b8235613760816133eb565b915060208301356137708161352c565b809150509250929050565b6000806000806080858703121561379157600080fd5b843561379c816133eb565b935060208501356137ac816133eb565b925060408501359150606085013567ffffffffffffffff8111156137cf57600080fd5b8501601f810187136137e057600080fd5b6137ef87823560208401613695565b91505092959194509250565b60008060006060848603121561381057600080fd5b833592506020840135613822816133eb565b91506138306040850161342c565b90509250925092565b6000806040838503121561384c57600080fd5b8235613857816133eb565b91506020830135613770816133eb565b6000806000806080858703121561387d57600080fd5b5050823594602084013594506040840135936060013592509050565b6000604082016040835280855180835260608501915060608160051b8601019250602080880160005b838110156138f057605f198887030185526138de868351613393565b955093820193908201906001016138c2565b50508584038187015286518085528782019482019350915060005b828110156135025784518452938101939281019260010161390b565b600181811c9082168061393b57607f821691505b602082108114156130a557634e487b7160e01b600052602260045260246000fd5b634e487b7160e01b600052601160045260246000fd5b6000828210156139845761398461395c565b500390565b6000821982111561399c5761399c61395c565b500190565b634e487b7160e01b600052603260045260246000fd5b60006000198214156139cb576139cb61395c565b5060010190565b600080604083850312156139e557600080fd5b82516139f08161352c565b6020939093015192949293505050565b600060208284031215613a1257600080fd5b81516115448161352c565b600060208284031215613a2f57600080fd5b5051919050565b600082601f830112613a4757600080fd5b8151613a556136a38261366d565b818152846020838601011115613a6a57600080fd5b612b49826020830160208701613367565b600080600060608486031215613a9057600080fd5b8351613a9b8161352c565b602085015190935067ffffffffffffffff811115613ab857600080fd5b613ac486828701613a36565b925050604084015190509250925092565b600060208284031215613ae757600080fd5b815167ffffffffffffffff811115613afe57600080fd5b612b4984828501613a36565b600080835481600182811c915080831680613b2657607f831692505b6020808410821415613b4657634e487b7160e01b86526022600452602486fd5b818015613b5a5760018114613b6b57613b98565b60ff19861689528489019650613b98565b60008a81526020902060005b86811015613b905781548b820152908501908301613b77565b505084890196505b509498975050505050505050565b600060208284031215613bb857600080fd5b8151611544816133eb565b600081613bd257613bd261395c565b506000190190565b600082613bf757634e487b7160e01b600052601260045260246000fd5b500490565b6000816000190483118215151615613c1657613c1661395c565b500290565b60006001600160a01b03808716835280861660208401525083604083015260806060830152613c4d6080830184613393565b9695505050505050565b600060208284031215613c6957600080fd5b81516115448161333156fea26469706673582212207f57a759b8cf91cc012cc376af268f8737c91b6434c65c77faddecac8b58838964736f6c63430008090033",
  "linkReferences": {},
  "deployedLinkReferences": {}
}