{
  "_format": "hh-sol-artifact-1",
  "contractName": "RentableNFTMarketplace",
  "sourceName": "contracts/RentableNFTMarketplace.sol",
  "abi": [
    {
      "inputs": [
        {
          "internalType": "address",
          "name": "_wethAddress",
          "type": "address"
        }
      ],
      "stateMutability": "nonpayable",
      "type": "constructor"
    },
    {
      "anonymous": false,
      "inputs": [
        {
          "indexed": true,
          "internalType": "address",
          "name": "owner",
          "type": "address"
        },
        {
          "indexed": true,
          "internalType": "address",
          "name": "approved",
          "type": "address"
        },
        {
          "indexed": true,
          "internalType": "uint256",
          "name": "tokenId",
          "type": "uint256"
        }
      ],
      "name": "Approval",
      "type": "event"
    },
    {
      "anonymous": false,
      "inputs": [
        {
          "indexed": true,
          "internalType": "address",
          "name": "owner",
          "type": "address"
        },
        {
          "indexed": true,
          "internalType": "address",
          "name": "operator",
          "type": "address"
        },
        {
          "indexed": false,
          "internalType": "bool",
          "name": "approved",
          "type": "bool"
        }
      ],
      "name": "ApprovalForAll",
      "type": "event"
    },
    {
      "anonymous": false,
      "inputs": [
        {
          "indexed": true,
          "internalType": "uint256",
          "name": "tokenId",
          "type": "uint256"
        },
        {
          "indexed": false,
          "internalType": "address",
          "name": "owner",
          "type": "address"
        },
        {
          "indexed": false,
          "internalType": "bool",
          "name": "isWETH",
          "type": "bool"
        },
        {
          "indexed": false,
          "internalType": "uint256",
          "name": "price",
          "type": "uint256"
        },
        {
          "indexed": false,
          "internalType": "uint256",
          "name": "rentPrice",
          "type": "uint256"
        },
        {
          "indexed": false,
          "internalType": "bool",
          "name": "forRent",
          "type": "bool"
        },
        {
          "indexed": false,
          "internalType": "bool",
          "name": "forSale",
          "type": "bool"
        },
        {
          "indexed": false,
          "internalType": "bool",
          "name": "sold",
          "type": "bool"
        },
        {
          "indexed": false,
          "internalType": "bool",
          "name": "rented",
          "type": "bool"
        }
      ],
      "name": "MarketItemCreated",
      "type": "event"
    },
    {
      "anonymous": false,
      "inputs": [
        {
          "indexed": true,
          "internalType": "address",
          "name": "from",
          "type": "address"
        },
        {
          "indexed": true,
          "internalType": "address",
          "name": "to",
          "type": "address"
        },
        {
          "indexed": true,
          "internalType": "uint256",
          "name": "tokenId",
          "type": "uint256"
        }
      ],
      "name": "Transfer",
      "type": "event"
    },
    {
      "inputs": [],
      "name": "WETH_ADDRESS",
      "outputs": [
        {
          "internalType": "address",
          "name": "",
          "type": "address"
        }
      ],
      "stateMutability": "view",
      "type": "function"
    },
    {
      "inputs": [],
      "name": "_itemsImported",
      "outputs": [
        {
          "internalType": "uint256",
          "name": "_value",
          "type": "uint256"
        }
      ],
      "stateMutability": "view",
      "type": "function"
    },
    {
      "inputs": [],
      "name": "_itemsRented",
      "outputs": [
        {
          "internalType": "uint256",
          "name": "_value",
          "type": "uint256"
        }
      ],
      "stateMutability": "view",
      "type": "function"
    },
    {
      "inputs": [],
      "name": "_itemsSold",
      "outputs": [
        {
          "internalType": "uint256",
          "name": "_value",
          "type": "uint256"
        }
      ],
      "stateMutability": "view",
      "type": "function"
    },
    {
      "inputs": [],
      "name": "_tokenIds",
      "outputs": [
        {
          "internalType": "uint256",
          "name": "_value",
          "type": "uint256"
        }
      ],
      "stateMutability": "view",
      "type": "function"
    },
    {
      "inputs": [
        {
          "internalType": "address",
          "name": "to",
          "type": "address"
        },
        {
          "internalType": "uint256",
          "name": "tokenId",
          "type": "uint256"
        }
      ],
      "name": "approve",
      "outputs": [],
      "stateMutability": "nonpayable",
      "type": "function"
    },
    {
      "inputs": [
        {
          "internalType": "address",
          "name": "owner",
          "type": "address"
        }
      ],
      "name": "balanceOf",
      "outputs": [
        {
          "internalType": "uint256",
          "name": "",
          "type": "uint256"
        }
      ],
      "stateMutability": "view",
      "type": "function"
    },
    {
      "inputs": [
        {
          "internalType": "bytes",
          "name": "",
          "type": "bytes"
        }
      ],
      "name": "checkUpkeep",
      "outputs": [
        {
          "internalType": "bool",
          "name": "upkeepNeeded",
          "type": "bool"
        },
        {
          "internalType": "bytes",
          "name": "performData",
          "type": "bytes"
        }
      ],
      "stateMutability": "view",
      "type": "function"
    },
    {
      "inputs": [
        {
          "internalType": "uint256",
          "name": "tokenId",
          "type": "uint256"
        }
      ],
      "name": "createMarketSale",
      "outputs": [],
      "stateMutability": "payable",
      "type": "function"
    },
    {
      "inputs": [
        {
          "internalType": "string",
          "name": "_tokenURI",
          "type": "string"
        },
        {
          "internalType": "bool",
          "name": "isWETH",
          "type": "bool"
        },
        {
          "internalType": "uint256",
          "name": "price",
          "type": "uint256"
        },
        {
          "internalType": "uint256",
          "name": "rentPrice",
          "type": "uint256"
        },
        {
          "internalType": "bool",
          "name": "forSale",
          "type": "bool"
        },
        {
          "internalType": "bool",
          "name": "forRent",
          "type": "bool"
        }
      ],
      "name": "createToken",
      "outputs": [],
      "stateMutability": "payable",
      "type": "function"
    },
    {
      "inputs": [
        {
          "internalType": "bytes32",
          "name": "rentalId",
          "type": "bytes32"
        }
      ],
      "name": "decodeImportedRentedKey",
      "outputs": [
        {
          "internalType": "address",
          "name": "",
          "type": "address"
        },
        {
          "internalType": "uint256",
          "name": "",
          "type": "uint256"
        }
      ],
      "stateMutability": "view",
      "type": "function"
    },
    {
      "inputs": [],
      "name": "fetchImportedMarketItems",
      "outputs": [
        {
          "components": [
            {
              "internalType": "uint256",
              "name": "tokenId",
              "type": "uint256"
            },
            {
              "internalType": "address",
              "name": "collection",
              "type": "address"
            },
            {
              "internalType": "address",
              "name": "owner",
              "type": "address"
            },
            {
              "internalType": "bool",
              "name": "isWETH",
              "type": "bool"
            },
            {
              "internalType": "uint256",
              "name": "rentalPrice",
              "type": "uint256"
            },
            {
              "internalType": "uint256",
              "name": "expiry",
              "type": "uint256"
            },
            {
              "internalType": "address",
              "name": "renter",
              "type": "address"
            },
            {
              "internalType": "bool",
              "name": "rented",
              "type": "bool"
            }
          ],
          "internalType": "struct RentableNFTMarketplace.ImportedItem[]",
          "name": "",
          "type": "tuple[]"
        }
      ],
      "stateMutability": "view",
      "type": "function"
    },
    {
      "inputs": [],
      "name": "fetchMarketItems",
      "outputs": [
        {
          "components": [
            {
              "internalType": "uint256",
              "name": "tokenId",
              "type": "uint256"
            },
            {
              "internalType": "address payable",
              "name": "owner",
              "type": "address"
            },
            {
              "internalType": "bool",
              "name": "isWETH",
              "type": "bool"
            },
            {
              "internalType": "uint256",
              "name": "price",
              "type": "uint256"
            },
            {
              "internalType": "uint256",
              "name": "rentPrice",
              "type": "uint256"
            },
            {
              "internalType": "bool",
              "name": "forRent",
              "type": "bool"
            },
            {
              "internalType": "bool",
              "name": "forSale",
              "type": "bool"
            },
            {
              "internalType": "bool",
              "name": "sold",
              "type": "bool"
            },
            {
              "internalType": "bool",
              "name": "rented",
              "type": "bool"
            }
          ],
          "internalType": "struct RentableNFTMarketplace.MarketItem[]",
          "name": "",
          "type": "tuple[]"
        }
      ],
      "stateMutability": "view",
      "type": "function"
    },
    {
      "inputs": [],
      "name": "fetchMyNFTs",
      "outputs": [
        {
          "components": [
            {
              "internalType": "uint256",
              "name": "tokenId",
              "type": "uint256"
            },
            {
              "internalType": "address payable",
              "name": "owner",
              "type": "address"
            },
            {
              "internalType": "bool",
              "name": "isWETH",
              "type": "bool"
            },
            {
              "internalType": "uint256",
              "name": "price",
              "type": "uint256"
            },
            {
              "internalType": "uint256",
              "name": "rentPrice",
              "type": "uint256"
            },
            {
              "internalType": "bool",
              "name": "forRent",
              "type": "bool"
            },
            {
              "internalType": "bool",
              "name": "forSale",
              "type": "bool"
            },
            {
              "internalType": "bool",
              "name": "sold",
              "type": "bool"
            },
            {
              "internalType": "bool",
              "name": "rented",
              "type": "bool"
            }
          ],
          "internalType": "struct RentableNFTMarketplace.MarketItem[]",
          "name": "",
          "type": "tuple[]"
        }
      ],
      "stateMutability": "view",
      "type": "function"
    },
    {
      "inputs": [],
      "name": "fetchMyRentedImportedNFTs",
      "outputs": [
        {
          "components": [
            {
              "internalType": "uint256",
              "name": "tokenId",
              "type": "uint256"
            },
            {
              "internalType": "address",
              "name": "collection",
              "type": "address"
            },
            {
              "internalType": "address",
              "name": "owner",
              "type": "address"
            },
            {
              "internalType": "bool",
              "name": "isWETH",
              "type": "bool"
            },
            {
              "internalType": "uint256",
              "name": "rentalPrice",
              "type": "uint256"
            },
            {
              "internalType": "uint256",
              "name": "expiry",
              "type": "uint256"
            },
            {
              "internalType": "address",
              "name": "renter",
              "type": "address"
            },
            {
              "internalType": "bool",
              "name": "rented",
              "type": "bool"
            }
          ],
          "internalType": "struct RentableNFTMarketplace.ImportedItem[]",
          "name": "",
          "type": "tuple[]"
        }
      ],
      "stateMutability": "view",
      "type": "function"
    },
    {
      "inputs": [],
      "name": "fetchMyRentedNFTs",
      "outputs": [
        {
          "components": [
            {
              "internalType": "uint256",
              "name": "tokenId",
              "type": "uint256"
            },
            {
              "internalType": "address payable",
              "name": "owner",
              "type": "address"
            },
            {
              "internalType": "bool",
              "name": "isWETH",
              "type": "bool"
            },
            {
              "internalType": "uint256",
              "name": "price",
              "type": "uint256"
            },
            {
              "internalType": "uint256",
              "name": "rentPrice",
              "type": "uint256"
            },
            {
              "internalType": "bool",
              "name": "forRent",
              "type": "bool"
            },
            {
              "internalType": "bool",
              "name": "forSale",
              "type": "bool"
            },
            {
              "internalType": "bool",
              "name": "sold",
              "type": "bool"
            },
            {
              "internalType": "bool",
              "name": "rented",
              "type": "bool"
            },
            {
              "internalType": "address",
              "name": "renter",
              "type": "address"
            },
            {
              "internalType": "uint64",
              "name": "expires",
              "type": "uint64"
            }
          ],
          "internalType": "struct RentableNFTMarketplace.FullRentedItem[]",
          "name": "",
          "type": "tuple[]"
        }
      ],
      "stateMutability": "view",
      "type": "function"
    },
    {
      "inputs": [
        {
          "internalType": "uint256",
          "name": "tokenId",
          "type": "uint256"
        }
      ],
      "name": "getApproved",
      "outputs": [
        {
          "internalType": "address",
          "name": "",
          "type": "address"
        }
      ],
      "stateMutability": "view",
      "type": "function"
    },
    {
      "inputs": [],
      "name": "getImportedRentedKeys",
      "outputs": [
        {
          "internalType": "bytes32[]",
          "name": "",
          "type": "bytes32[]"
        }
      ],
      "stateMutability": "view",
      "type": "function"
    },
    {
      "inputs": [],
      "name": "getListingPrice",
      "outputs": [
        {
          "internalType": "uint256",
          "name": "",
          "type": "uint256"
        }
      ],
      "stateMutability": "view",
      "type": "function"
    },
    {
      "inputs": [
        {
          "internalType": "uint256",
          "name": "tokenId",
          "type": "uint256"
        }
      ],
      "name": "getUserOf",
      "outputs": [
        {
          "internalType": "address",
          "name": "",
          "type": "address"
        }
      ],
      "stateMutability": "view",
      "type": "function"
    },
    {
      "inputs": [
        {
          "internalType": "bytes32",
          "name": "",
          "type": "bytes32"
        }
      ],
      "name": "idToImportedItem",
      "outputs": [
        {
          "internalType": "uint256",
          "name": "tokenId",
          "type": "uint256"
        },
        {
          "internalType": "address",
          "name": "collection",
          "type": "address"
        },
        {
          "internalType": "address",
          "name": "owner",
          "type": "address"
        },
        {
          "internalType": "bool",
          "name": "isWETH",
          "type": "bool"
        },
        {
          "internalType": "uint256",
          "name": "rentalPrice",
          "type": "uint256"
        },
        {
          "internalType": "uint256",
          "name": "expiry",
          "type": "uint256"
        },
        {
          "internalType": "address",
          "name": "renter",
          "type": "address"
        },
        {
          "internalType": "bool",
          "name": "rented",
          "type": "bool"
        }
      ],
      "stateMutability": "view",
      "type": "function"
    },
    {
      "inputs": [
        {
          "internalType": "uint256",
          "name": "",
          "type": "uint256"
        }
      ],
      "name": "idToMarketItem",
      "outputs": [
        {
          "internalType": "uint256",
          "name": "tokenId",
          "type": "uint256"
        },
        {
          "internalType": "address payable",
          "name": "owner",
          "type": "address"
        },
        {
          "internalType": "bool",
          "name": "isWETH",
          "type": "bool"
        },
        {
          "internalType": "uint256",
          "name": "price",
          "type": "uint256"
        },
        {
          "internalType": "uint256",
          "name": "rentPrice",
          "type": "uint256"
        },
        {
          "internalType": "bool",
          "name": "forRent",
          "type": "bool"
        },
        {
          "internalType": "bool",
          "name": "forSale",
          "type": "bool"
        },
        {
          "internalType": "bool",
          "name": "sold",
          "type": "bool"
        },
        {
          "internalType": "bool",
          "name": "rented",
          "type": "bool"
        }
      ],
      "stateMutability": "view",
      "type": "function"
    },
    {
      "inputs": [
        {
          "internalType": "uint256",
          "name": "",
          "type": "uint256"
        }
      ],
      "name": "idToRentedItem",
      "outputs": [
        {
          "internalType": "uint256",
          "name": "tokenId",
          "type": "uint256"
        },
        {
          "internalType": "address",
          "name": "renter",
          "type": "address"
        },
        {
          "internalType": "uint64",
          "name": "expires",
          "type": "uint64"
        }
      ],
      "stateMutability": "view",
      "type": "function"
    },
    {
      "inputs": [
        {
          "internalType": "address",
          "name": "_collection",
          "type": "address"
        },
        {
          "internalType": "uint256",
          "name": "_tokenId",
          "type": "uint256"
        },
        {
          "internalType": "bool",
          "name": "_isWETH",
          "type": "bool"
        },
        {
          "internalType": "uint256",
          "name": "_rentalPrice",
          "type": "uint256"
        }
      ],
      "name": "importNFT",
      "outputs": [],
      "stateMutability": "payable",
      "type": "function"
    },
    {
      "inputs": [
        {
          "internalType": "address",
          "name": "owner",
          "type": "address"
        },
        {
          "internalType": "address",
          "name": "operator",
          "type": "address"
        }
      ],
      "name": "isApprovedForAll",
      "outputs": [
        {
          "internalType": "bool",
          "name": "",
          "type": "bool"
        }
      ],
      "stateMutability": "view",
      "type": "function"
    },
    {
      "inputs": [],
      "name": "name",
      "outputs": [
        {
          "internalType": "string",
          "name": "",
          "type": "string"
        }
      ],
      "stateMutability": "view",
      "type": "function"
    },
    {
      "inputs": [],
      "name": "owner",
      "outputs": [
        {
          "internalType": "address payable",
          "name": "",
          "type": "address"
        }
      ],
      "stateMutability": "view",
      "type": "function"
    },
    {
      "inputs": [
        {
          "internalType": "uint256",
          "name": "tokenId",
          "type": "uint256"
        }
      ],
      "name": "ownerOf",
      "outputs": [
        {
          "internalType": "address",
          "name": "",
          "type": "address"
        }
      ],
      "stateMutability": "view",
      "type": "function"
    },
    {
      "inputs": [
        {
          "internalType": "bytes",
          "name": "performData",
          "type": "bytes"
        }
      ],
      "name": "performUpkeep",
      "outputs": [],
      "stateMutability": "nonpayable",
      "type": "function"
    },
    {
      "inputs": [
        {
          "internalType": "uint256",
          "name": "_tokenId",
          "type": "uint256"
        },
        {
          "internalType": "address",
          "name": "_collection",
          "type": "address"
        },
        {
          "internalType": "uint64",
          "name": "_expires",
          "type": "uint64"
        }
      ],
      "name": "rentImportedNFT",
      "outputs": [],
      "stateMutability": "payable",
      "type": "function"
    },
    {
      "inputs": [
        {
          "internalType": "uint256",
          "name": "_tokenId",
          "type": "uint256"
        },
        {
          "internalType": "uint64",
          "name": "_expires",
          "type": "uint64"
        }
      ],
      "name": "rentOutToken",
      "outputs": [],
      "stateMutability": "payable",
      "type": "function"
    },
    {
      "inputs": [
        {
          "internalType": "uint256",
          "name": "",
          "type": "uint256"
        }
      ],
      "name": "rentedTokenIds",
      "outputs": [
        {
          "internalType": "uint256",
          "name": "",
          "type": "uint256"
        }
      ],
      "stateMutability": "view",
      "type": "function"
    },
    {
      "inputs": [
        {
          "internalType": "uint256",
          "name": "tokenId",
          "type": "uint256"
        },
        {
          "internalType": "bool",
          "name": "isWETH",
          "type": "bool"
        },
        {
          "internalType": "uint256",
          "name": "price",
          "type": "uint256"
        },
        {
          "internalType": "uint256",
          "name": "rentPrice",
          "type": "uint256"
        },
        {
          "internalType": "bool",
          "name": "forRent",
          "type": "bool"
        },
        {
          "internalType": "bool",
          "name": "forSale",
          "type": "bool"
        }
      ],
      "name": "resellToken",
      "outputs": [],
      "stateMutability": "payable",
      "type": "function"
    },
    {
      "inputs": [
        {
          "internalType": "address",
          "name": "from",
          "type": "address"
        },
        {
          "internalType": "address",
          "name": "to",
          "type": "address"
        },
        {
          "internalType": "uint256",
          "name": "tokenId",
          "type": "uint256"
        }
      ],
      "name": "safeTransferFrom",
      "outputs": [],
      "stateMutability": "nonpayable",
      "type": "function"
    },
    {
      "inputs": [
        {
          "internalType": "address",
          "name": "from",
          "type": "address"
        },
        {
          "internalType": "address",
          "name": "to",
          "type": "address"
        },
        {
          "internalType": "uint256",
          "name": "tokenId",
          "type": "uint256"
        },
        {
          "internalType": "bytes",
          "name": "_data",
          "type": "bytes"
        }
      ],
      "name": "safeTransferFrom",
      "outputs": [],
      "stateMutability": "nonpayable",
      "type": "function"
    },
    {
      "inputs": [
        {
          "internalType": "address",
          "name": "operator",
          "type": "address"
        },
        {
          "internalType": "bool",
          "name": "approved",
          "type": "bool"
        }
      ],
      "name": "setApprovalForAll",
      "outputs": [],
      "stateMutability": "nonpayable",
      "type": "function"
    },
    {
      "inputs": [
        {
          "internalType": "bytes4",
          "name": "interfaceId",
          "type": "bytes4"
        }
      ],
      "name": "supportsInterface",
      "outputs": [
        {
          "internalType": "bool",
          "name": "",
          "type": "bool"
        }
      ],
      "stateMutability": "view",
      "type": "function"
    },
    {
      "inputs": [],
      "name": "symbol",
      "outputs": [
        {
          "internalType": "string",
          "name": "",
          "type": "string"
        }
      ],
      "stateMutability": "view",
      "type": "function"
    },
    {
      "inputs": [
        {
          "internalType": "uint256",
          "name": "_tokenId",
          "type": "uint256"
        }
      ],
      "name": "tokenURI",
      "outputs": [
        {
          "internalType": "string",
          "name": "",
          "type": "string"
        }
      ],
      "stateMutability": "view",
      "type": "function"
    },
    {
      "inputs": [
        {
          "internalType": "uint256",
          "name": "",
          "type": "uint256"
        }
      ],
      "name": "tokenURIs",
      "outputs": [
        {
          "internalType": "string",
          "name": "",
          "type": "string"
        }
      ],
      "stateMutability": "view",
      "type": "function"
    },
    {
      "inputs": [
        {
          "internalType": "address",
          "name": "from",
          "type": "address"
        },
        {
          "internalType": "address",
          "name": "to",
          "type": "address"
        },
        {
          "internalType": "uint256",
          "name": "tokenId",
          "type": "uint256"
        }
      ],
      "name": "transferFrom",
      "outputs": [],
      "stateMutability": "nonpayable",
      "type": "function"
    },
    {
      "inputs": [
        {
          "internalType": "uint256",
          "name": "_listingPrice",
          "type": "uint256"
        }
      ],
      "name": "updateListingPrice",
      "outputs": [],
      "stateMutability": "nonpayable",
      "type": "function"
    },
    {
      "inputs": [],
      "name": "withdraw",
      "outputs": [],
      "stateMutability": "nonpayable",
      "type": "function"
    }
  ],
  "bytecode": "0x60806040526509184e72a000600b553480156200001b57600080fd5b506040516200465c3803806200465c8339810160408190526200003e9162000186565b604080518082018252600881526752656e7461626c6560c01b602080830191825283518085019094526002845261149560f21b9084015281519192916200008891600091620000e0565b5080516200009e906001906020840190620000e0565b5050600c80546001600160a01b03199081163317909155600d80546001600160a01b0394909416938216841790556012805490911690921790915550620001f5565b828054620000ee90620001b8565b90600052602060002090601f0160209004810192826200011257600085556200015d565b82601f106200012d57805160ff19168380011785556200015d565b828001600101855582156200015d579182015b828111156200015d57825182559160200191906001019062000140565b506200016b9291506200016f565b5090565b5b808211156200016b576000815560010162000170565b6000602082840312156200019957600080fd5b81516001600160a01b0381168114620001b157600080fd5b9392505050565b600181811c90821680620001cd57607f821691505b60208210811415620001ef57634e487b7160e01b600052602260045260246000fd5b50919050565b61445780620002056000396000f3fe60806040526004361061025c5760003560e01c80636cec833c11610144578063aa46a400116100b6578063c87b56dd1161007a578063c87b56dd14610801578063c94b0c5a14610821578063e61a70c014610834578063e985e9c514610906578063f5b3f1a21461094f578063fae6afc71461096657600080fd5b8063aa46a400146106d8578063ae677aa3146106ef578063b88d4fde1461070f578063be9af5361461072f578063bf5366411461074257600080fd5b80638d397995116101085780638d397995146106375780638da5cb5b1461064a578063913f30d81461066a57806395d89b4114610681578063a22cb46514610696578063a6aae4ff146106b657600080fd5b80636cec833c146105375780636e04ff0d146105b257806370a08231146105e057806387506a0d14610600578063897db7821461061757600080fd5b806318684c2b116101dd5780634585e33b116101a15780634585e33b1461048057806356e49870146104a05780636352211e146104c257806363868b58146104e257806367ea485c146104f55780636c8b703f1461051757600080fd5b806318684c2b146103f6578063202e37401461041657806323b872dd1461042b5780633ccfd60b1461044b57806342842e0e1461046057600080fd5b8063081812fc11610224578063081812fc14610362578063095ea7b31461038257806309a26ba7146103a25780630f08efe0146103b557806312e85585146103d757600080fd5b8063019ad4e71461026157806301c17c77146102c357806301ffc9a7146102d8578063040141e51461030857806306fdde0314610340575b600080fd5b34801561026d57600080fd5b5061029f61027c36600461394f565b6000908152601060205260409020600181015490546001600160a01b0390911691565b604080516001600160a01b0390931683526020830191909152015b60405180910390f35b6102d66102d136600461398e565b61097b565b005b3480156102e457600080fd5b506102f86102f33660046139ec565b610bdf565b60405190151581526020016102ba565b34801561031457600080fd5b50600d54610328906001600160a01b031681565b6040516001600160a01b0390911681526020016102ba565b34801561034c57600080fd5b50610355610c31565b6040516102ba9190613a5d565b34801561036e57600080fd5b5061032861037d36600461394f565b610cc3565b34801561038e57600080fd5b506102d661039d366004613a70565b610d58565b6102d66103b0366004613ab8565b610e6e565b3480156103c157600080fd5b506103ca6111f1565b6040516102ba9190613ae4565b3480156103e357600080fd5b50600b545b6040519081526020016102ba565b34801561040257600080fd5b506103e861041136600461394f565b611444565b34801561042257600080fd5b506103ca611465565b34801561043757600080fd5b506102d6610446366004613b8f565b6116c7565b34801561045757600080fd5b506102d66116f8565b34801561046c57600080fd5b506102d661047b366004613b8f565b611785565b34801561048c57600080fd5b506102d661049b366004613bd0565b6117a0565b3480156104ac57600080fd5b506104b5611837565b6040516102ba9190613c41565b3480156104ce57600080fd5b506103286104dd36600461394f565b6119e4565b6102d66104f0366004613d6e565b611a5b565b34801561050157600080fd5b5061050a611acf565b6040516102ba9190613e0a565b34801561052357600080fd5b5061035561053236600461394f565b611d9b565b34801561054357600080fd5b5061058661055236600461394f565b600f60205260009081526040902080546001909101546001600160a01b03811690600160a01b90046001600160401b031683565b604080519384526001600160a01b0390921660208401526001600160401b0316908201526060016102ba565b3480156105be57600080fd5b506105d26105cd366004613bd0565b611e35565b6040516102ba929190613ecc565b3480156105ec57600080fd5b506103e86105fb366004613ee7565b611f9e565b34801561060c57600080fd5b506007546103e89081565b34801561062357600080fd5b5061032861063236600461394f565b612025565b6102d6610645366004613f04565b612030565b34801561065657600080fd5b50600c54610328906001600160a01b031681565b34801561067657600080fd5b506008546103e89081565b34801561068d57600080fd5b50610355612125565b3480156106a257600080fd5b506102d66106b1366004613f2f565b612134565b3480156106c257600080fd5b506106cb61213f565b6040516102ba9190613f68565b3480156106e457600080fd5b506006546103e89081565b3480156106fb57600080fd5b506102d661070a36600461394f565b61229d565b34801561071b57600080fd5b506102d661072a366004613fac565b612310565b6102d661073d36600461394f565b612342565b34801561074e57600080fd5b506107b361075d36600461394f565b60106020526000908152604090208054600182015460028301546003840154600485015460059095015493946001600160a01b03938416948385169460ff600160a01b9586900481169591831692919091041688565b604080519889526001600160a01b0397881660208a0152958716958801959095529215156060870152608086019190915260a085015290911660c0830152151560e0820152610100016102ba565b34801561080d57600080fd5b5061035561081c36600461394f565b6125f6565b6102d661082f36600461402b565b612631565b34801561084057600080fd5b506108ae61084f36600461394f565b600e602052600090815260409020805460018201546002830154600384015460049094015492936001600160a01b0383169360ff600160a01b909404841693818116916101008104821691620100008204811691630100000090041689565b60408051998a526001600160a01b0390981660208a01529515159688019690965260608701939093526080860191909152151560a0850152151560c084015290151560e08301521515610100820152610120016102ba565b34801561091257600080fd5b506102f8610921366004614069565b6001600160a01b03918216600090815260056020908152604080832093909416825291909152205460ff1690565b34801561095b57600080fd5b506009546103e89081565b34801561097257600080fd5b506104b56129fc565b600081116109dc5760405162461bcd60e51b815260206004820152602360248201527f52656e74616c207072696365206d75737420626520677265617465722074686160448201526206e20360ec1b60648201526084015b60405180910390fd5b6040516331a9108f60e11b81526004810184905233906001600160a01b03861690636352211e9060240160206040518083038186803b158015610a1e57600080fd5b505afa158015610a32573d6000803e3d6000fd5b505050506040513d601f19601f82011682018060405250810190610a569190614097565b6001600160a01b031614610ab65760405162461bcd60e51b815260206004820152602160248201527f596f7520617265206e6f7420746865206f776e6572206f662074686973204e466044820152601560fa1b60648201526084016109d3565b600b543414610ad75760405162461bcd60e51b81526004016109d3906140b4565b60008484604051602001610aec9291906140f8565b604051602081830303815290604052805190602001209050610b12600980546001019055565b60408051610100810182529485526001600160a01b039586166020808701918252338784019081529515156060880190815260808801958652600060a0890181815260c08a0182815260e08b0183815297835260109094529490209751885591516001880180546001600160a01b031916918a16919091179055945160028701805492519189166001600160a81b031993841617600160a01b9215158302179055935160038701559051600486015592516005909401805491519490951692169190911791151502179055565b60006001600160e01b031982166380ac58cd60e01b1480610c1057506001600160e01b03198216635b5e139f60e01b145b80610c2b57506301ffc9a760e01b6001600160e01b03198316145b92915050565b606060008054610c409061411a565b80601f0160208091040260200160405190810160405280929190818152602001828054610c6c9061411a565b8015610cb95780601f10610c8e57610100808354040283529160200191610cb9565b820191906000526020600020905b815481529060010190602001808311610c9c57829003601f168201915b5050505050905090565b6000818152600260205260408120546001600160a01b0316610d3c5760405162461bcd60e51b815260206004820152602c60248201527f4552433732313a20617070726f76656420717565727920666f72206e6f6e657860448201526b34b9ba32b73a103a37b5b2b760a11b60648201526084016109d3565b506000908152600460205260409020546001600160a01b031690565b6000610d63826119e4565b9050806001600160a01b0316836001600160a01b03161415610dd15760405162461bcd60e51b815260206004820152602160248201527f4552433732313a20617070726f76616c20746f2063757272656e74206f776e656044820152603960f91b60648201526084016109d3565b336001600160a01b0382161480610ded5750610ded8133610921565b610e5f5760405162461bcd60e51b815260206004820152603860248201527f4552433732313a20617070726f76652063616c6c6572206973206e6f74206f7760448201527f6e6572206e6f7220617070726f76656420666f7220616c6c000000000000000060648201526084016109d3565b610e698383612bf5565b505050565b6000828152600e60205260409020600481015460ff16610ed05760405162461bcd60e51b815260206004820152601f60248201527f546f6b656e206973206e6f7420617661696c61626c6520666f722072656e740060448201526064016109d3565b60018101546001600160a01b0316610ee7846119e4565b6001600160a01b031614610f0d5760405162461bcd60e51b81526004016109d390614155565b6001810154600160a01b900460ff16610f2d578060030154341015610f30565b34155b610f875760405162461bcd60e51b815260206004820152602260248201527f496e636f7272656374207061796d656e74206d6574686f64206f7220616d6f756044820152611b9d60f21b60648201526084016109d3565b6001810154600160a01b900460ff161561107d57600d54600182015460038301546040516323b872dd60e01b81526001600160a01b03938416936323b872dd93610fda9333939290911691600401614196565b602060405180830381600087803b158015610ff457600080fd5b505af1158015611008573d6000803e3d6000fd5b505050506040513d601f19601f8201168201806040525081019061102c91906141ba565b6110785760405162461bcd60e51b815260206004820181905260248201527f4661696c656420746f207472616e73666572205745544820666f722072656e7460448201526064016109d3565b611124565b80600301543410156110e75760405162461bcd60e51b815260206004820152602d60248201527f496e73756666696369656e742066756e647320746f2072656e7420746865207460448201526c6f6b656e20696e204d4154494360981b60648201526084016109d3565b60018101546040516001600160a01b03909116903480156108fc02916000818181858888f19350505050158015611122573d6000803e3d6000fd5b505b60048101805463ff00000019166301000000179055611147600880546001019055565b604080516060810182528481523360208083018281526001600160401b0380881685870190815260008a8152600f909452958320945185559051600194850180549651909216600160a01b026001600160e01b03199096166001600160a01b039182161795909517905560118054808501825591527f31ecc21a745e3968a04e9570e4425bc18fa8019c68028196b546d1669c200c680186905590830154610e69921690856116c7565b606060006111fe60065490565b905060008060005b8381101561128b57600e600061121d8360016141ed565b8152602081019190915260400160002060040154610100900460ff16806112665750600e600061124e8360016141ed565b815260208101919091526040016000206004015460ff165b15611279576112766001846141ed565b92505b8061128381614205565b915050611206565b506000826001600160401b038111156112a6576112a6613ce3565b6040519080825280602002602001820160405280156112df57816020015b6112cc613826565b8152602001906001900390816112c45790505b50905060005b8481101561143b57600e60006112fc8360016141ed565b8152602081019190915260400160002060040154610100900460ff16806113455750600e600061132d8360016141ed565b815260208101919091526040016000206004015460ff165b156114295760006113578260016141ed565b6000818152600e60209081526040918290208251610120810184528154815260018201546001600160a01b0381169382019390935260ff600160a01b909304831615159381019390935260028101546060840152600381015460808401526004810154808316151560a08501526101008082048416151560c08601526201000082048416151560e0860152630100000090910490921615159183019190915285519293509185908790811061140e5761140e614220565b60209081029190910101526114246001866141ed565b945050505b8061143381614205565b9150506112e5565b50949350505050565b6011818154811061145457600080fd5b600091825260209091200154905081565b6060600061147260065490565b905060008060005b8381101561150b5733600e60006114928460016141ed565b81526020810191909152604001600020600101546001600160a01b03161480156114e65750600e60006114c68360016141ed565b81526020810191909152604001600020600401546301000000900460ff16155b156114f9576114f66001846141ed565b92505b8061150381614205565b91505061147a565b506000826001600160401b0381111561152657611526613ce3565b60405190808252806020026020018201604052801561155f57816020015b61154c613826565b8152602001906001900390816115445790505b50905060005b8481101561143b5733600e600061157d8460016141ed565b81526020810191909152604001600020600101546001600160a01b03161480156115d15750600e60006115b18360016141ed565b81526020810191909152604001600020600401546301000000900460ff16155b156116b55760006115e38260016141ed565b6000818152600e60209081526040918290208251610120810184528154815260018201546001600160a01b0381169382019390935260ff600160a01b909304831615159381019390935260028101546060840152600381015460808401526004810154808316151560a08501526101008082048416151560c08601526201000082048416151560e0860152630100000090910490921615159183019190915285519293509185908790811061169a5761169a614220565b60209081029190910101526116b06001866141ed565b945050505b806116bf81614205565b915050611565565b6116d13382612c63565b6116ed5760405162461bcd60e51b81526004016109d390614236565b610e69838383612d5a565b600c546001600160a01b031633146117525760405162461bcd60e51b815260206004820152601760248201527f4f6e6c79206f776e65722063616e20776974686472617700000000000000000060448201526064016109d3565b6040514790339082156108fc029083906000818181858888f19350505050158015611781573d6000803e3d6000fd5b5050565b610e6983838360405180602001604052806000815250612310565b6000806117af83850185614287565b9150915080156117f5576000828152600f602052604090206001810154839190600160a01b90046001600160401b031642106117ee576117ee82612ef6565b5050611831565b60008281526010602052604090206001810154815460048301546001600160a01b03909216929091421061182d5761182d8284613003565b5050505b50505050565b6060600061184460095490565b905060008060005b83811015611897576000818152601060205260409020600501548190600160a01b900460ff16611884576118816001856141ed565b93505b508061188f81614205565b91505061184c565b506000826001600160401b038111156118b2576118b2613ce3565b6040519080825280602002602001820160405280156118eb57816020015b6118d8613872565b8152602001906001900390816118d05790505b50905060005b8481101561143b576000818152601060205260409020600501548190600160a01b900460ff166119d1576000818152601060209081526040918290208251610100810184528154815260018201546001600160a01b039081169382019390935260028201548084169482019490945260ff600160a01b9485900481161515606083015260038301546080830152600483015460a0830152600583015493841660c083015293909204909216151560e082015284518590879081106119b7576119b7614220565b60209081029190910101526119cd6001866141ed565b9450505b50806119dc81614205565b9150506118f1565b6000818152600260205260408120546001600160a01b031680610c2b5760405162461bcd60e51b815260206004820152602960248201527f4552433732313a206f776e657220717565727920666f72206e6f6e657869737460448201526832b73a103a37b5b2b760b91b60648201526084016109d3565b600b543414611a7c5760405162461bcd60e51b81526004016109d3906140b4565b611a8a600680546001019055565b6000611a9560065490565b9050611aa13382613191565b6000818152600a602090815260409091208851611ac0928a01906138b6565b5061182d8187878787876132d3565b60606000611adc60065490565b9050600080826001600160401b03811115611af957611af9613ce3565b604051908082528060200260200182016040528015611b22578160200160208202803683370190505b50905060005b83811015611bcb5733611b3f6104dd8360016141ed565b6001600160a01b0316148015611b7e5750600e6000611b5f8360016141ed565b81526020810191909152604001600020600401546301000000900460ff165b15611bb957611b8e8160016141ed565b828481518110611ba057611ba0614220565b6020908102919091010152611bb66001846141ed565b92505b80611bc381614205565b915050611b28565b506000826001600160401b03811115611be657611be6613ce3565b604051908082528060200260200182016040528015611c6d57816020015b604080516101608101825260008082526020808301829052928201819052606082018190526080820181905260a0820181905260c0820181905260e08201819052610100820181905261012082018190526101408201528252600019909201910181611c045790505b50905060005b8381101561143b576000838281518110611c8f57611c8f614220565b6020908102919091018101516000818152600e83526040808220600f8552918190208151610160810183528481526001808501546001600160a01b0380821698840198909852600160a01b9081900460ff90811615159584019590955260028601546060840152600386015460808401526004860154808616151560a08501526101008082048716151560c08601526201000082048716151560e08601526301000000909104909516151594830194909452820154958616610120820152919094046001600160401b03166101408201528651929450909291869086908110611d7a57611d7a614220565b60200260200101819052505050508080611d9390614205565b915050611c73565b600a6020526000908152604090208054611db49061411a565b80601f0160208091040260200160405190810160405280929190818152602001828054611de09061411a565b8015611e2d5780601f10611e0257610100808354040283529160200191611e2d565b820191906000526020600020905b815481529060010190602001808311611e1057829003601f168201915b505050505081565b6000606060005b601154811015611edd57600060118281548110611e5b57611e5b614220565b6000918252602080832090910154808352600f90915260409091206001810154919250906001600160401b03600160a01b909104164210611ec857604080516020810184905260019181018290526060015b60405160208183030381529060405294509450505050611f97565b50508080611ed590614205565b915050611e3c565b506000611ee861213f565b905060005b8151811015611f7e57600060106000848481518110611f0e57611f0e614220565b60200260200101518152602001908152602001600020905080600401544210611f6b576001838381518110611f4557611f45614220565b60200260200101516000604051602001611ead9291909182521515602082015260400190565b5080611f7681614205565b915050611eed565b5060006040518060200160405280600081525092509250505b9250929050565b60006001600160a01b0382166120095760405162461bcd60e51b815260206004820152602a60248201527f4552433732313a2062616c616e636520717565727920666f7220746865207a65604482015269726f206164647265737360b01b60648201526084016109d3565b506001600160a01b031660009081526003602052604090205490565b6000610c2b826119e4565b6000868152600e60205260409020600101546001600160a01b031633146120995760405162461bcd60e51b815260206004820152601a60248201527f4f6e6c79206974656d206f776e65722063616e20726573656c6c00000000000060448201526064016109d3565b600b5434146120ba5760405162461bcd60e51b81526004016109d3906140b4565b6000868152600e6020526040902060018101805460ff60a01b1916600160a01b881515021790556002810185905560038101849055600401805461ffff191683151561ff00191617610100831515021763ffff00001916905561211d60076135c0565b505050505050565b606060018054610c409061411a565b611781338383613617565b60606000805b600954811015612193576000818152601060205260409020600501548190600160a01b900460ff1615612180578261217c81614205565b9350505b508061218b81614205565b915050612145565b506000816001600160401b038111156121ae576121ae613ce3565b6040519080825280602002602001820160405280156121d7578160200160208202803683370190505b5090506000805b600954811015612294576000818152601060205260409020600501548190600160a01b900460ff161561228157600081815260106020908152604080832060018101549054915161223c936001600160a01b039092169291016140f8565b6040516020818303038152906040528051906020012090508085858151811061226757612267614220565b60209081029190910101528361227c81614205565b945050505b508061228c81614205565b9150506121de565b50909392505050565b600c546001600160a01b0316331461230b5760405162461bcd60e51b815260206004820152602b60248201527f4f6e6c7920636f6e7472616374206f776e65722063616e20706572666f726d2060448201526a3a3434b99030b1ba34b7b760a91b60648201526084016109d3565b600b55565b61231a3383612c63565b6123365760405162461bcd60e51b81526004016109d390614236565b611831848484846136e6565b6000818152600e602052604090206001810154600282015460048301546001600160a01b039092169291610100900460ff166123b45760405162461bcd60e51b81526020600482015260116024820152704974656d206e6f7420666f722073616c6560781b60448201526064016109d3565b6001820154600160a01b900460ff166123cf578034146123d2565b34155b6124125760405162461bcd60e51b8152602060048201526011602482015270125b98dbdc9c9958dd081c185e5b595b9d607a1b60448201526064016109d3565b6001820154600160a01b900460ff161561250457600d5460018301546040516323b872dd60e01b81526001600160a01b03928316926323b872dd92612461923392909116908690600401614196565b602060405180830381600087803b15801561247b57600080fd5b505af115801561248f573d6000803e3d6000fd5b505050506040513d601f19601f820116820180604052508101906124b391906141ba565b6124ff5760405162461bcd60e51b815260206004820152601760248201527f4661696c656420746f207472616e73666572205745544800000000000000000060448201526064016109d3565b6125b6565b8034146125795760405162461bcd60e51b815260206004820152603d60248201527f506c6561736520706179207468652061736b696e6720707269636520696e204d60448201527f4154494320746f20636f6d706c6574652074686520707572636861736500000060648201526084016109d3565b60018201546040516001600160a01b03909116903480156108fc02916000818181858888f193505050501580156125b4573d6000803e3d6000fd5b505b6001820180546001600160a01b0319163317905560048201805462ffffff1916620100001790556125eb600780546001019055565b611831833386612d5a565b6060600a600083815260200190815260200160002060405160200161261b91906142ac565b6040516020818303038152906040529050919050565b600082846040516020016126469291906140f8565b60408051601f198184030181529181528151602092830120600081815260109093529120909150426001600160401b038416116126c55760405162461bcd60e51b815260206004820181905260248201527f45787069726174696f6e206d75737420626520696e207468652066757475726560448201526064016109d3565b6005810154600160a01b900460ff16156127175760405162461bcd60e51b8152602060048201526013602482015272125d195b48185b1c9958591e481c995b9d1959606a1b60448201526064016109d3565b60028101546040516331a9108f60e11b8152600481018790526001600160a01b0391821691861690636352211e9060240160206040518083038186803b15801561276057600080fd5b505afa158015612774573d6000803e3d6000fd5b505050506040513d601f19601f820116820180604052508101906127989190614097565b6001600160a01b0316146127be5760405162461bcd60e51b81526004016109d390614155565b6002810154600160a01b900460ff16156128b457600d54600282015460038301546040516323b872dd60e01b81526001600160a01b03938416936323b872dd936128119333939290911691600401614196565b602060405180830381600087803b15801561282b57600080fd5b505af115801561283f573d6000803e3d6000fd5b505050506040513d601f19601f8201168201806040525081019061286391906141ba565b6128af5760405162461bcd60e51b815260206004820181905260248201527f4661696c656420746f207472616e73666572205745544820666f722072656e7460448201526064016109d3565b612951565b80600301543410156129145760405162461bcd60e51b8152602060048201526024808201527f496e73756666696369656e742066756e647320746f2072656e7420746865207460448201526337b5b2b760e11b60648201526084016109d3565b60028101546040516001600160a01b03909116903480156108fc02916000818181858888f1935050505015801561294f573d6000803e3d6000fd5b505b60058101805460ff60a01b19339081166001600160a81b031990921691909117600160a01b179091556001600160401b03841660048084019190915560028301546040516323b872dd60e01b81526001600160a01b03888116946323b872dd946129c3949092169290918b9101614196565b600060405180830381600087803b1580156129dd57600080fd5b505af11580156129f1573d6000803e3d6000fd5b505050505050505050565b60606000612a0960095490565b905060008060005b83811015612a82576000818152601060205260409020600501548190600160a01b900460ff168015612a5c57506000818152601060205260409020600501546001600160a01b031633145b15612a6f57612a6c6001856141ed565b93505b5080612a7a81614205565b915050612a11565b506000826001600160401b03811115612a9d57612a9d613ce3565b604051908082528060200260200182016040528015612ad657816020015b612ac3613872565b815260200190600190039081612abb5790505b50905060005b8481101561143b576000818152601060205260409020600501548190600160a01b900460ff168015612b2757506000818152601060205260409020600501546001600160a01b031633145b15612be2576000818152601060209081526040918290208251610100810184528154815260018201546001600160a01b039081169382019390935260028201548084169482019490945260ff600160a01b9485900481161515606083015260038301546080830152600483015460a0830152600583015493841660c083015293909204909216151560e08201528451859087908110612bc857612bc8614220565b6020908102919091010152612bde6001866141ed565b9450505b5080612bed81614205565b915050612adc565b600081815260046020526040902080546001600160a01b0319166001600160a01b0384169081179091558190612c2a826119e4565b6001600160a01b03167f8c5be1e5ebec7d5bd14f71427d1e84f3dd0314c0f7b2291e5b200ac8c7c3b92560405160405180910390a45050565b6000818152600260205260408120546001600160a01b0316612cdc5760405162461bcd60e51b815260206004820152602c60248201527f4552433732313a206f70657261746f7220717565727920666f72206e6f6e657860448201526b34b9ba32b73a103a37b5b2b760a11b60648201526084016109d3565b6000612ce7836119e4565b9050806001600160a01b0316846001600160a01b03161480612d225750836001600160a01b0316612d1784610cc3565b6001600160a01b0316145b80612d5257506001600160a01b0380821660009081526005602090815260408083209388168352929052205460ff165b949350505050565b826001600160a01b0316612d6d826119e4565b6001600160a01b031614612dd15760405162461bcd60e51b815260206004820152602560248201527f4552433732313a207472616e736665722066726f6d20696e636f72726563742060448201526437bbb732b960d91b60648201526084016109d3565b6001600160a01b038216612e335760405162461bcd60e51b8152602060048201526024808201527f4552433732313a207472616e7366657220746f20746865207a65726f206164646044820152637265737360e01b60648201526084016109d3565b612e3e600082612bf5565b6001600160a01b0383166000908152600360205260408120805460019290612e67908490614348565b90915550506001600160a01b0382166000908152600360205260408120805460019290612e959084906141ed565b909155505060008181526002602052604080822080546001600160a01b0319166001600160a01b0386811691821790925591518493918716917fddf252ad1be2c89b69c2b068fc378daa952ba7f163c4a11628f55a4df523b3ef91a4505050565b6000818152600e60209081526040808320600f90925290912060048201805463ff0000001916905560018082015490830154612f3f916001600160a01b039081169116856116c7565b612f4960086135c0565b60005b601154811015611831578360118281548110612f6a57612f6a614220565b90600052602060002001541415612ff15760118054612f8b90600190614348565b81548110612f9b57612f9b614220565b906000526020600020015460118281548110612fb957612fb9614220565b6000918252602090912001556011805480612fd657612fd661435f565b60019003818190600052602060002001600090559055611831565b80612ffb81614205565b915050612f4c565b600081836040516020016130189291906140f8565b60408051808303601f190181529181528151602092830120600081815260109093529120600581015491925090600160a01b900460ff1661309b5760405162461bcd60e51b815260206004820152601d60248201527f546f6b656e206973206e6f742063757272656e746c792072656e74656400000060448201526064016109d3565b80600401544210156130f95760405162461bcd60e51b815260206004820152602160248201527f52656e74616c20706572696f6420686173206e6f7420657870697265642079656044820152601d60fa1b60648201526084016109d3565b600581015460028201546040516323b872dd60e01b81526001600160a01b03808716936323b872dd93613136939183169216908990600401614196565b600060405180830381600087803b15801561315057600080fd5b505af1158015613164573d6000803e3d6000fd5b5050505061317260096135c0565b6005810180546001600160a81b03191690556000600490910155505050565b6001600160a01b0382166131e75760405162461bcd60e51b815260206004820181905260248201527f4552433732313a206d696e7420746f20746865207a65726f206164647265737360448201526064016109d3565b6000818152600260205260409020546001600160a01b03161561324c5760405162461bcd60e51b815260206004820152601c60248201527f4552433732313a20746f6b656e20616c7265616479206d696e7465640000000060448201526064016109d3565b6001600160a01b03821660009081526003602052604081208054600192906132759084906141ed565b909155505060008181526002602052604080822080546001600160a01b0319166001600160a01b03861690811790915590518392907fddf252ad1be2c89b69c2b068fc378daa952ba7f163c4a11628f55a4df523b3ef908290a45050565b336132dd876119e4565b6001600160a01b03161461333d5760405162461bcd60e51b815260206004820152602160248201527f4f6e6c7920746865206f776e65722063616e206c6973742074686520746f6b656044820152603760f91b60648201526084016109d3565b81158061334a5750600084115b6133875760405162461bcd60e51b815260206004820152600e60248201526d1c1c9a58d9481c995c5d5a5c995960921b60448201526064016109d3565b8015806133945750600083115b6133d65760405162461bcd60e51b81526020600482015260136024820152721c995b9d081c1c9a58d9481c995c5d5a5c9959606a1b60448201526064016109d3565b604051806101200160405280878152602001336001600160a01b0316815260200186151581526020018581526020018481526020018215158152602001831515815260200160001515815260200160001515815250600e60008881526020019081526020016000206000820151816000015560208201518160010160006101000a8154816001600160a01b0302191690836001600160a01b0316021790555060408201518160010160146101000a81548160ff021916908315150217905550606082015181600201556080820151816003015560a08201518160040160006101000a81548160ff02191690831515021790555060c08201518160040160016101000a81548160ff02191690831515021790555060e08201518160040160026101000a81548160ff0219169083151502179055506101008201518160040160036101000a81548160ff021916908315150217905550905050857f4542fed37775d324b1fc0aef5b8c53703e366c199b20ab4d6c75e2e8bf3fd8dc3387878786886000806040516135b09897969594939291906001600160a01b0398909816885295151560208801526040870194909452606086019290925215156080850152151560a0840152151560c0830152151560e08201526101000190565b60405180910390a2505050505050565b80548061360f5760405162461bcd60e51b815260206004820152601b60248201527f436f756e7465723a2064656372656d656e74206f766572666c6f77000000000060448201526064016109d3565b600019019055565b816001600160a01b0316836001600160a01b031614156136795760405162461bcd60e51b815260206004820152601960248201527f4552433732313a20617070726f766520746f2063616c6c65720000000000000060448201526064016109d3565b6001600160a01b03838116600081815260056020908152604080832094871680845294825291829020805460ff191686151590811790915591519182527f17307eab39ab6107e8899845ad3d59bd9653f200f220920489ca2b5937696c31910160405180910390a3505050565b6136f1848484612d5a565b6136fd84848484613719565b6118315760405162461bcd60e51b81526004016109d390614375565b60006001600160a01b0384163b1561381b57604051630a85bd0160e11b81526001600160a01b0385169063150b7a029061375d9033908990889088906004016143c7565b602060405180830381600087803b15801561377757600080fd5b505af19250505080156137a7575060408051601f3d908101601f191682019092526137a491810190614404565b60015b613801573d8080156137d5576040519150601f19603f3d011682016040523d82523d6000602084013e6137da565b606091505b5080516137f95760405162461bcd60e51b81526004016109d390614375565b805181602001fd5b6001600160e01b031916630a85bd0160e11b149050612d52565b506001949350505050565b6040805161012081018252600080825260208201819052918101829052606081018290526080810182905260a0810182905260c0810182905260e0810182905261010081019190915290565b6040805161010081018252600080825260208201819052918101829052606081018290526080810182905260a0810182905260c0810182905260e081019190915290565b8280546138c29061411a565b90600052602060002090601f0160209004810192826138e4576000855561392a565b82601f106138fd57805160ff191683800117855561392a565b8280016001018555821561392a579182015b8281111561392a57825182559160200191906001019061390f565b5061393692915061393a565b5090565b5b80821115613936576000815560010161393b565b60006020828403121561396157600080fd5b5035919050565b6001600160a01b038116811461397d57600080fd5b50565b801515811461397d57600080fd5b600080600080608085870312156139a457600080fd5b84356139af81613968565b93506020850135925060408501356139c681613980565b9396929550929360600135925050565b6001600160e01b03198116811461397d57600080fd5b6000602082840312156139fe57600080fd5b8135613a09816139d6565b9392505050565b6000815180845260005b81811015613a3657602081850181015186830182015201613a1a565b81811115613a48576000602083870101525b50601f01601f19169290920160200192915050565b602081526000613a096020830184613a10565b60008060408385031215613a8357600080fd5b8235613a8e81613968565b946020939093013593505050565b80356001600160401b0381168114613ab357600080fd5b919050565b60008060408385031215613acb57600080fd5b82359150613adb60208401613a9c565b90509250929050565b602080825282518282018190526000919060409081850190868401855b82811015613b8257815180518552868101516001600160a01b03168786015285810151151586860152606080820151908601526080808201519086015260a08082015115159086015260c08082015115159086015260e080820151151590860152610100908101511515908501526101209093019290850190600101613b01565b5091979650505050505050565b600080600060608486031215613ba457600080fd5b8335613baf81613968565b92506020840135613bbf81613968565b929592945050506040919091013590565b60008060208385031215613be357600080fd5b82356001600160401b0380821115613bfa57600080fd5b818501915085601f830112613c0e57600080fd5b813581811115613c1d57600080fd5b866020828501011115613c2f57600080fd5b60209290920196919550909350505050565b602080825282518282018190526000919060409081850190868401855b82811015613b8257815180518552868101516001600160a01b03908116888701528682015116868601526060808201511515908601526080808201519086015260a0808201519086015260c080820151613cc2828801826001600160a01b03169052565b505060e0908101511515908501526101009093019290850190600101613c5e565b634e487b7160e01b600052604160045260246000fd5b60006001600160401b0380841115613d1357613d13613ce3565b604051601f8501601f19908116603f01168101908282118183101715613d3b57613d3b613ce3565b81604052809350858152868686011115613d5457600080fd5b858560208301376000602087830101525050509392505050565b60008060008060008060c08789031215613d8757600080fd5b86356001600160401b03811115613d9d57600080fd5b8701601f81018913613dae57600080fd5b613dbd89823560208401613cf9565b9650506020870135613dce81613980565b945060408701359350606087013592506080870135613dec81613980565b915060a0870135613dfc81613980565b809150509295509295509295565b602080825282518282018190526000919060409081850190868401855b82811015613b8257815180518552868101516001600160a01b039081168887015286820151151587870152606080830151908701526080808301519087015260a08083015115159087015260c08083015115159087015260e080830151151590870152610100808301511515908701526101208083015190911690860152610140908101516001600160401b0316908501526101609093019290850190600101613e27565b8215158152604060208201526000612d526040830184613a10565b600060208284031215613ef957600080fd5b8135613a0981613968565b60008060008060008060c08789031215613f1d57600080fd5b863595506020870135613dce81613980565b60008060408385031215613f4257600080fd5b8235613f4d81613968565b91506020830135613f5d81613980565b809150509250929050565b6020808252825182820181905260009190848201906040850190845b81811015613fa057835183529284019291840191600101613f84565b50909695505050505050565b60008060008060808587031215613fc257600080fd5b8435613fcd81613968565b93506020850135613fdd81613968565b92506040850135915060608501356001600160401b03811115613fff57600080fd5b8501601f8101871361401057600080fd5b61401f87823560208401613cf9565b91505092959194509250565b60008060006060848603121561404057600080fd5b83359250602084013561405281613968565b915061406060408501613a9c565b90509250925092565b6000806040838503121561407c57600080fd5b823561408781613968565b91506020830135613f5d81613968565b6000602082840312156140a957600080fd5b8151613a0981613968565b60208082526024908201527f5072696365206d75737420626520657175616c20746f206c697374696e6720706040820152637269636560e01b606082015260800190565b60609290921b6bffffffffffffffffffffffff19168252601482015260340190565b600181811c9082168061412e57607f821691505b6020821081141561414f57634e487b7160e01b600052602260045260246000fd5b50919050565b60208082526021908201527f4974656d206973206e6f74206f776e65642062792074686520696d706f7274656040820152603960f91b606082015260800190565b6001600160a01b039384168152919092166020820152604081019190915260600190565b6000602082840312156141cc57600080fd5b8151613a0981613980565b634e487b7160e01b600052601160045260246000fd5b60008219821115614200576142006141d7565b500190565b6000600019821415614219576142196141d7565b5060010190565b634e487b7160e01b600052603260045260246000fd5b60208082526031908201527f4552433732313a207472616e736665722063616c6c6572206973206e6f74206f6040820152701ddb995c881b9bdc88185c1c1c9bdd9959607a1b606082015260800190565b6000806040838503121561429a57600080fd5b823591506020830135613f5d81613980565b600080835481600182811c9150808316806142c857607f831692505b60208084108214156142e857634e487b7160e01b86526022600452602486fd5b8180156142fc576001811461430d5761433a565b60ff1986168952848901965061433a565b60008a81526020902060005b868110156143325781548b820152908501908301614319565b505084890196505b509498975050505050505050565b60008282101561435a5761435a6141d7565b500390565b634e487b7160e01b600052603160045260246000fd5b60208082526032908201527f4552433732313a207472616e7366657220746f206e6f6e20455243373231526560408201527131b2b4bb32b91034b6b83632b6b2b73a32b960711b606082015260800190565b6001600160a01b03858116825284166020820152604081018390526080606082018190526000906143fa90830184613a10565b9695505050505050565b60006020828403121561441657600080fd5b8151613a09816139d656fea264697066735822122086a764a48a9e37d6850c793e41e8e1a67956ab5f1f8111067257f511ba64053e64736f6c63430008090033",
  "linkReferences": {},
  "deployedLinkReferences": {}
}